S01200006D656E7973797374656D2E73726563B4
S11300000C9487000C94A6000C94A6000C94A600F3
S11300100C94A6000C94A6000C9412070C94A60051
S11300200C94A6000C94A6000C94A6000C94A600B4
S11300300C94A6000C94A6000C9454070C948B0703
S11300400C94A6000C94A6000C94A6000C94A60094
S11300500C94A6000C94A6000C94A6000C94A60084
S11300600C94A6000C94A6000C94A6000C94A60074
S11300700C94A6000C94A6000C94A6000C94A60064
S11300800C94A6000C94A6000C94A6000C94A60054
S11300900C94A6000C94A6000C94A6000C94A60044
S11300A00C94A6000C94A6000C94A6000C94A60034
S11300B00C94A6000C94A6000C94A6000C94A60024
S11300C00C94A6000C94A6000C94A6000C94A60014
S11300D00C94A6000C942C070C94A6000C94A60077
S11300E00C94A6000C94A6000C94A6000C94A600F4
S11300F00C94A6001C05260530053A0544054D055B
S11301005D0566057B059C059C059C0582051124FF
S11301101FBECFEFCDBFDFE7DEBF1AE4A0E0B0E43F
S1130120E6E2FBE100E00BBF02C007900D92A233B0
S1130130B107D9F72CE4A2E3BAE401C01D92A334B9
S1130140B207E1F70E94C2070C94910D0C940000D1
S1130150E0E0F4E08CE0818398E093878487E0E03A
S1130160F9E081E0838316828583E0E8F4E082E0AD
S113017081838483089590E0880F991F862B809350
S113018007098091050985FD0DC08091050982FD4F
S113019009C08091050983FD05C08091050983701C
S11301A0833079F70895CF93C62F60E00E94BB0097
S11301B0C09308098091050985FD0DC0809105094A
S11301C082FD09C08091050983FD05C08091050960
S11301D08370833079F7E0E0F9E08581848183607E
S11301E08483CF9108950F931F93CF938B01C42FD2
S11301F061E00E94BB0090E01DC08091050985FD6F
S11302000DC08091050982FD09C08091050983FD17
S113021005C0809105098370833079F7F801E90FEF
S1130220F11D8091080980839F5FC91719F082E04E
S1130230809304099C1708F387E080930409CF9105
S11302401F910F91089561EE88E30E94D3002FE57A
S11302508AEE90E0215080409040E1F700C0000019
S11302606AEB88E30E94D3008FE19EE40197F1F7E3
S113027000C0000008950F931F939C01062F90E087
S113028040E050E0BA010EC0E92FF0E0EE0FFF1F8E
S1130290E20FF31F0190F081E02D4E0F5F1F611DEF
S11302A0711D9F5F901780F310E020E030E0CB01D8
S11302B0BA01A90198010E94130AC9011F910F9163
S11302C0089564E60E943B01880F991F880F991FC7
S11302D0880F991F9C0140E050E060E07CE18EE4CF
S11302E09EE00E94350AC9010895CB97BC0180E0C5
S11302F090E00E94180920E030E040E05FE30E94B3
S11303000B080E94E9086E3118F0603518F403C038
S11303106EE101C06FE4862F90E008950F931F9360
S1130320CF93DF93C1E0D0E02AC0CE01880F991F9C
S1130330880F991F880F991FFE01EE0FFF1FE80F0A
S1130340F91FE95DFA4B80818230C1F4CE01880F38
S1130350991F880F991F880F991FFE01EE0FFF1F29
S1130360E80FF91FE95DFA4B0481158180919D4ADC
S113037090919E4A0E947501F80180832196C530B0
S1130380D1059CF2DF91CF911F910F91089521E047
S113039030E051C0C901880F991F880F991F880F39
S11303A0991FF901EE0FFF1FE80FF91FE95DFA4BE2
S11303B0818180838130A9F4C901880F991F880F36
S11303C0991F880F991FF901EE0FFF1FE80FF91FFE
S11303D0E95DFA4B81E080830480F581E02D108291
S11303E028C0811114C0C901880F991F880F991F53
S11303F0880F991FF901EE0FFF1FE80FF91FE95D40
S1130400FA4B1082A481B58180858C9312C082300E
S113041081F4C901880F991F880F991F880F991FAC
S1130420F901EE0FFF1FE80FF91FE95DFA4B82E0B7
S113043080832F5F3F4F253031050CF4ABCF0895F7
S1130440CF93DF93CDB7DEB72697CDBFDEBF6CEA7F
S113045088E30E94D3002FE58AEE90E0215080408B
S11304609040E1F700C0000046E0BE016F5F7F4F9F
S113047088E30E94F3006C816F70862F90E0A0E007
S1130480B0E0BA2FA92F982F88272D81822BBA2F5D
S1130490A92F982F88272E81BC01CD01622B0E94A1
S11304A0180920E030E048E453E40E94A60920E063
S11304B030E040E855E30E94A6090E94E9088EEC6A
S11304C0860F2696CDBFDEBFDF91CF9108954F9260
S11304D05F926F927F928F929F92AF92BF92CF92D0
S11304E0DF92EF92FF920F931F93CF93DF93E0E09D
S11304F0FAE08FE480A782A781A783A789E595E422
S11305000E94A00A2091AB4A3091AC4A8091AB4A38
S11305109091AC4A821B930B0397C0F30091AB4AB2
S11305201091AC4AC0E0D0E0812C912C5401C12C34
S1130530D12C760111C085E79BE40E946101C80EAD
S1130540D91EE11CF11C8DEA9AE40E946101880E17
S1130550991EA11CB11C21968091AB4A9091AC4A82
S1130560801B910B0B9738F32E01612C712CC70162
S1130570B601A30192010E94130A69017A01C5011F
S1130580B401A30192010E94130AB601C901DF91CB
S1130590CF911F910F91FF90EF90DF90CF90BF907C
S11305A0AF909F908F907F906F905F904F90089541
S11305B0861710F481E0089580E00895CF92DF92C9
S11305C0EF92FF926B017C01BA0180E090E00E94FF
S11305D01809A70196010E94770820E030E048EC52
S11305E052E40E94A6090E94E908862FFF90EF902A
S11305F0DF90CF900895AF92BF92CF92DF92EF92A7
S1130600FF920F931F93CF93DF930E946702062FED
S1130610172FD82FC92F7F936F938DE695E49F935F
S11306208F930E948C0ACF93DF9386E895E49F937F
S11306308F930E948C0A8CEF98E40E94A00A8CEF9E
S113064098E40E94A00A6091A34A7091A44AC090C1
S1130650A04AD090A14A80E090E00E941809402F5F
S1130660512F0E94DE02F82EB60180E090E00E9435
S113067018094D2F5C2F0E94DE02D82E609125456B
S11306807091264580E090E00E941809402F512F78
S11306900E94DE02C82E609123457091244580E0BB
S11306A090E00E9418094D2F5C2F0E94DE02A82EB4
S11306B01F92CF928FE995E49F938F930E948C0AA7
S11306C01F92DF9283EB95E49F938F930E948C0A91
S11306D0E09022456E2D8F2D0E94D802B82E6E2DEB
S11306E08D2D0E94D802D82E6AE58C2D0E94D80246
S11306F0F82E6AE58A2D0E94D802E82E1F92FF92F6
S113070087EC95E49F938F930E948C0A1F92DF924B
S11307108AED95E49F938F930E948C0A8DB79EB7C0
S113072048968DBF9EBF91E0B91204C08DEE95E44A
S11307300E94A00A81E0D81204C080E196E40E94DD
S1130740A00A91E0F91204C083E396E40E94A00A8F
S113075081E0E81204C083E396E40E94A00A0093B7
S1130760254510932645D0932345C0932445DF9116
S1130770CF911F910F91FF90EF90DF90CF90BF909A
S1130780AF9008958CEF98E40E94A00A83E596E464
S11307900E94A00A80E696E40E94A00A8CEF98E4E6
S11307A00E94A00A84E796E40E94A00A089580911A
S11307B0364A9FEF980F943090F590E0FC01EE0FCD
S11307C0FF1F880F991F880F991F880F991FE80F23
S11307D0F91FE95DFA4B81E080830480F581E02D07
S11307E010828091364A90E0FC01EE0FFF1F880FC3
S11307F0991F880F991F880F991FE80FF91FE95D4A
S1130800FA4B87818F9386818F938FE996E49F9328
S11308108F930E948C0A0F900F900F900F900E945C
S1130820C20308958091364A9FEF980F943080F464
S113083090E0FC01EE0FFF1F880F991F880F991F8E
S1130840880F991FE80FF91FE95DFA4B82E0808356
S11308500E94C20308958091364A9FEF980F943006
S113086060F590E0FC01EE0FFF1F880F991F880FC1
S1130870991F880F991FE80FF91FE95DFA4B108241
S113088011820480F581E02D8091374A8083809124
S1130890364A90E0FC01EE0FFF1F880F991F880F66
S11308A0991F880F991FE80FF91FE95DFA4B809192
S11308B0374A9091384A808791871092364A0E942D
S11308C0C203089587EB96E40E94A00A8CEF98E493
S11308D00E94A00A89EC96E40E94A00A0895CF938E
S11308E0DF938AEE96E40E94A00A8CEF98E40E94BB
S11308F0A00AC1E0D0E057C0CE01880F991F880F2D
S1130900991F880F991FFE01EE0FFF1FE80FF91FB3
S1130910E95DFA4B8081813089F0CE01880F991FFF
S1130920880F991F880F991FFE01EE0FFF1FE80F14
S1130930F91FE95DFA4B8281938102C080E090E067
S11309409F938F93DF93CF9385EF96E49F938F9339
S11309500E948C0AFE01EE0FFF1FCE01880F991F23
S1130960880F991F880F991FE80FF91FE95DFA4B4B
S1130970E081F0E0CF01880F991FE80FF91FE85DCF
S1130980F54B82818F9381818F93DF93CF9386E0A0
S113099097E49F938F930E948C0A21968DB79EB7FC
S11309A00C968DBF9EBFC530D1050CF4A5CF0E9417
S11309B02002282F30E020939D4A30939E4A1F92B4
S11309C08F9389E197E49F938F930E948C0A8CEF15
S11309D098E40E94A00A0E94C2030F900F900F9007
S11309E00F90DF91CF9108958BE297E40E94A00AC3
S11309F087E397E40E94A00A82E597E40E94A00A94
S1130A000895CF93DF939B0190919F4A992349F0D6
S1130A108BE797E49F938F930E948C0A0F900F901B
S1130A201FC1482F50E04D30510508F085C0FA0130
S1130A30E658FF4F0C94540A83E997E40E94A00AF5
S1130A400E94620481E08093364A0AC18BEA97E4EB
S1130A500E94A00A0E94620482E08093364A00C188
S1130A6083EC97E40E94A00A0E94620483E08093CE
S1130A70364AF6C08BED97E40E94A00A0E946204F5
S1130A8084E08093364AECC083EF97E40E94A00A86
S1130A901092A24A0E94D703E3C08AE098E40E941D
S1130AA0A00A84E298E40E94A00A8AE398E40E94DF
S1130AB0A00A81E08093A24AD3C080E798E40E9410
S1130AC0A00A1092A24A0E941204CAC088E898E4BC
S1130AD00E94A00A85E79BE40E946101C7E2D5E475
S1130AE08C879D878DEA9AE40E9461018E8B9F8B8F
S1130AF00E946F04B5C084EA98E40E94A00A0E9490
S1130B00F404AEC081E08093354A82EC98E49F936C
S1130B108F930E948C0A809122451F928F938EEFAF
S1130B2098E49F938F930E948C0A0F900F900F90DC
S1130B300F900F900F9094C09091354A9923A1F093
S1130B40C9010E945D0A809322451092354A1F9282
S1130B508F938AE299E49F938F930E948C0A0F905B
S1130B600F900F900F907CC09091A24A992309F4A2
S1130B7073C08A3089F08B30E1F0893039F586E62C
S1130B8099E40E94A00A83E290E08093374A90930C
S1130B90384A0E942B0464C08DE799E40E94A00A9D
S1130BA08CE390E08093374A9093384A0E942B0458
S1130BB057C087E999E40E94A00A8FE490E08093EB
S1130BC0374A9093384A0E942B044AC0C9010E94B4
S1130BD05D0A8093A74A9093A84A9F938F9385EDCB
S1130BE095E49F938F930E948C0A6091A74A709119
S1130BF0A84A0F900F900F900F906536710538F545
S1130C0080E090E00E94180920E030E048EC52E4D3
S1130C100E94770820E030E04EE952E40E94A609E1
S1130C200E94E908D62FC72F7F936F9385ED95E433
S1130C309F938F930E948C0AD093374AC093384A6B
S1130C400E942B040F900F900F900F9009C08FEA11
S1130C5099E40E94A00A04C089ED99E40E94A00AC4
S1130C60DF91CF9108950F931F93CF938C01C0E030
S1130C700CC084E6C89FB0011124625F7F4BC80199
S1130C800E947B0A892B29F0CF5FCD3090F38FEF40
S1130C9001C08C2FCF911F910F91089590916408FA
S1130CA095FFFCCF8093620808950E944E0680E071
S1130CB090E00895CF93809164088823E4F7C0916D
S1130CC060088C2F0E944E068C2FCF910895E0E28D
S1130CD0F4E081E0818382E08283E0E6F8E08581CC
S1130CE08068858383E896E0808791878681806C1D
S1130CF0868380E090E480933F4C9093404C089529
S1130D00CF93DF93CDB7DEB7C456D109CDBFDEBFD5
S1130D100E945A068A3089F08D3079F09091324AD7
S1130D20933658F421E0290F2093324AE1E0F0E0B1
S1130D30EC0FFD1FE90FF11D80838D3011F08A3017
S1130D40A1F48091324AE1E0F0E0EC0FFD1FE80FDE
S1130D50F11D10821092324ACE0101960E94330690
S1130D60BE016F5F7F4F0E940105CC59DF4FCDBF9D
S1130D70DEBFDF91CF9108958BE1809361040895E4
S1130D8083E08093E605E0E0FAE093E3918321E0D9
S1130D90238391839FE496A310A697A311A612A67A
S1130DA013A680830895E0E2F4E080818F7E80833F
S1130DB084898860848BE0E0FBE085E0808384E0C4
S1130DC0818381E0858391E49483E0E0F2E09CE414
S1130DD0908B86AF0895E0E2F4E080818F7D80837C
S1130DE085898860858BE0E1FBE085E0808384E091
S1130DF0818381E0858381E484838DE4809311027F
S1130E0082E08093400208958091021081FDFCCF1E
S1130E100895E0E4F1E081E08083878399E4908B96
S1130E20828B08951F920F920FB60F9211248F9305
S1130E309F938091AB4A9091AC4A01968093AB4AC0
S1130E409093AC4A81E0809353019F918F910F90CE
S1130E500FBE0F901F9018951F920F920FB60F920E
S1130E6011240BB60F922F933F934F935F936F937D
S1130E707F938F939F93AF93BF93EF93FF930E94BE
S1130E808006FF91EF91BF91AF919F918F917F91D8
S1130E906F915F914F913F912F910F900BBE0F90E7
S1130EA00FBE0F901F9018951F920F920FB60F92BE
S1130EB011240BB60F922F933F938F93AF93BF934D
S1130EC0EF93FF93A0E0BBE081E016968C93169716
S1130ED08091344AE82FF0E01C962D913C911D97A7
S1130EE0EE0FFF1FEB58F44B208331838F5F809309
S1130EF0344A843610F01092344AFF91EF91BF9136
S1130F00AF918F913F912F910F900BBE0F900FBE19
S1130F100F901F9018951F920F920FB60F921124E5
S1130F200BB60F922F933F938F93AF93BF93EF938F
S1130F30FF93A0E1BBE081E016968C931697809115
S1130F40334AE82FF0E01C962D913C911D97EE0F4B
S1130F50FF1FE355F54B208331838F5F8093334A22
S1130F60843610F01092334AFF91EF91BF91AF9104
S1130F708F913F912F910F900BBE0F900FBE0F904A
S1130F801F9018950E94670678940E94BC060E94E0
S1130F90C0060E94D3060E94EB060E94A8000E948D
S1130FA023010E9409070E94040780910200909186
S1130FB003000E94840D8093A34A9093A44A0E9444
S1130FC0040780910000909101000E94840D809399
S1130FD0A04A9093A14A0E94C2038091AB4A909187
S1130FE0AC4A883B9B4069F481E080939F4A0E940D
S1130FF0FB020E94C70110929F4A1092AB4A1092C2
S1131000AC4A0E948E018FE097E20197F1F700C08D
S11310100000E3CF5058BB27AA270E9422080C9453
S11310206C090E945E0938F00E94650920F039F4C9
S11310309F3F19F426F40C945B090EF4E095E7FB4A
S11310400C945509E92F0E947D0958F3BA176207D9
S113105073078407950720F079F4A6F50C949F098B
S11310600EF4E0950B2EBA2FA02D0B01B9019001BF
S11310700C01CA01A0011124FF27591B99F0593F03
S113108050F4503E68F11A16F040A22F232F342F4B
S11310904427585FF3CF469537952795A795F04099
S11310A05395C9F77EF41F16BA0B620B730B840BAE
S11310B0BAF09150A1F0FF0FBB1F661F771F881F66
S11310C0C2F70EC0BA0F621F731F841F48F48795BE
S11310D077956795B795F7959E3F08F0B0CF9395B0
S11310E0880F08F09927EE0F9795879508950E9429
S11310F08B080C946C090E94650958F00E945E09E3
S113110040F029F45F3F29F00C94550951110C94D7
S1131110A0090C945B090E947D0968F39923B1F33B
S1131120552391F3951B550BBB27AA276217730709
S1131130840738F09F5F5F4F220F331F441FAA1F9D
S1131140A9F335D00E2E3AF0E0E832D09150504059
S1131150E695001CCAF72BD0FE2F29D0660F771F07
S1131160881FBB1F261737074807AB07B0E809F0ED
S1131170BB0B802DBF01FF2793585F4F3AF09E3F72
S1131180510578F00C9455090C94A0095F3FE4F3E1
S1131190983ED4F3869577956795B795F7959F5FB5
S11311A0C9F7880F911D9695879597F90895E1E001
S11311B0660F771F881FBB1F621773078407BA0760
S11311C020F0621B730B840BBA0BEE1F88F7E095BB
S11311D008950E94850988F09F5798F0B92F9927A0
S11311E0B751B0F0E1F0660F771F881F991F1AF00E
S11311F0BA95C9F714C0B13091F00E949F09B1E0CB
S113120008950C949F09672F782F8827B85F39F0C9
S1131210B93FCCF3869577956795B395D9F73EF4A6
S113122090958095709561957F4F8F4F9F4F08954E
S1131230E89409C097FB3EF490958095709561956C
S11312407F4F8F4F9F4F9923A9F0F92F96E9BB2722
S11312509395F695879577956795B795F111F8CF9E
S1131260FAF4BB0F11F460FF1BC06F5F7F4F8F4F09
S11312709F4F16C0882311F096E911C0772321F0FF
S11312809EE8872F762F05C0662371F096E8862F97
S113129070E060E02AF09A95660F771F881FDAF7EE
S11312A0880F9695879597F9089597F99F6780E831
S11312B070E060E008959FEF80EC089500240A94A4
S11312C01616170618060906089500240A9412161D
S11312D01306140605060895092E0394000C11F450
S11312E0882352F0BB0F40F4BF2B11F460FF04C0FD
S11312F06F5F7F4F8F4F9F4F089557FD9058440F56
S1131300551F59F05F3F71F04795880F97FB991F60
S113131061F09F3F79F0879508951216130614061D
S1131320551FF2CF4695F1DF08C0161617061806AA
S1131330991FF1CF86957105610508940895E89485
S1131340BB2766277727CB0197F908950E94B9092F
S11313500C946C090E945E0938F00E94650920F023
S1131360952311F00C9455090C945B0911240C94E9
S1131370A0090E947D0970F3959FC1F3950F50E079
S1131380551F629FF001729FBB27F00DB11D639F33
S1131390AA27F00DB11DAA1F649F6627B00DA11DD9
S11313A0661F829F2227B00DA11D621F739FB00D7F
S11313B0A11D621F839FA00D611D221F749F3327EF
S11313C0A00D611D231F849F600D211D822F762F88
S11313D06A2F11249F5750409AF0F1F088234AF065
S11313E0EE0FFF1FBB1F661F771F881F91505040D1
S11313F0A9F79E3F510580F00C9455090C94A0095F
S11314005F3FE4F3983ED4F3869577956795B79557
S1131410F795E7959F5FC1F7FE2B880F911D969571
S1131420879597F90895A1E21A2EAA1BBB1BFD010B
S11314300DC0AA1FBB1FEE1FFF1FA217B307E407AF
S1131440F50720F0A21BB30BE40BF50B661F771F07
S1131450881F991F1A9469F76095709580959095E7
S11314609B01AC01BD01CF010895052E97FB1EF42D
S113147000940E944C0A57FD07D00E94130A07FCEF
S113148003D04EF40C944C0A509540953095219518
S11314903F4F4F4F5F4F089590958095709561959C
S11314A07F4F8F4F9F4F0895EE0FFF1F0024001CA6
S11314B00BBE0790F691E02D0994FC01882799272B
S11314C0E89421912032E9F3293010F02E30C8F34A
S11314D02B3241F02D3239F4689404C00E94840AFE
S11314E0820F911D219120532A30C0F31EF4909550
S11314F081959F4F0895FB01DC018D910190801926
S11315000110D9F3990B08957AE0979F902D879F46
S1131510802D910D11240895CF93DF93CDB7DEB7BD
S1131520AE014B5F5F4FFA0161917191AF01809100
S11315303F4C9091404C0E94D00ADF91CF91089586
S11315400F931F93CF93DF93E0913F4CF091404C66
S1131550238121FF1BC08C01D0E0C0E0F801819100
S11315608F0160913F4C7091404CDB011896ED91D6
S1131570FC911997882331F00995892B79F3DFEFD2
S1131580CFEFECCF8AE00995892B19F08FEF9FEF0D
S113159002C08D2F9C2FDF91CF911F910F91089541
S11315A02F923F924F925F926F927F928F929F926F
S11315B0AF92BF92CF92DF92EF92FF920F931F935D
S11315C0CF93DF93CDB7DEB72B97CDBFDEBF6C01D2
S11315D07B018A01FC0116821782838181FFCCC1C1
S11315E0CE0101963C01F6019381F70193FD8591AB
S11315F093FF81917F01882309F4BAC1853239F4BC
S113160093FD859193FF81917F01853229F4B60181
S113161090E00E94EA0CE7CF912C212C312CFFE1C1
S1131620F315D8F08B3279F038F4803279F08332C4
S1131630A1F4232D20611DC08D3261F0803369F443
S1131640232D216016C0832D8260382EE32DE460A3
S11316503E2E2AC0F32DF8601DC037FC2DC020EDAE
S1131660280F2A3040F08E32B9F436FC81C1232D84
S11316702064322E19C036FE06C08AE0989E200DE2
S11316801124922E11C0EAE02E9E200D1124222E48
S1131690F32DF0623F2E08C08C3621F4832D806830
S11316A0382E02C0883641F4F70193FD859193FFEB
S11316B081917F018111B3CF982F9F7D95549330F1
S11316C028F40C5F1F4F9FE399830DC0833631F0DC
S11316D0833771F0833509F059C021C0F801808146
S11316E089830E5F1F4F88248394912C530113C068
S11316F02801F2E04F0E511CF801A080B18036FEA3
S113170003C0692D70E002C06FEF7FEFC5010E9436
S1131710DF0C4C018201F32DFF773F2E16C0280108
S113172022E0420E511CF801A080B18036FE03C0B5
S1131730692D70E002C06FEF7FEFC5010E94D40CE9
S11317404C01F32DF0683F2E820133FC1BC0822D27
S113175090E088169906B0F4B60180E290E00E9409
S1131760EA0C2A94F4CFF50137FC859137FE819178
S11317705F01B60190E00E94EA0C21102A9421E056
S1131780821A91088114910471F7E8C0843611F02B
S1131790893641F5F80137FE07C060817181828185
S11317A093810C5F1F4F08C060817181072E000C6C
S11317B0880B990B0E5F1F4FF32DFF763F2E97FF7B
S11317C009C090958095709561957F4F8F4F9F4F7D
S11317D0F0683F2E2AE030E0A3010E94260D882EF7
S11317E0861845C0853731F4232D2F7EB22E2AE08A
S11317F030E025C0932D997FB92E8F36C1F018F4AF
S1131800883579F0B5C0803719F0883721F0B0C039
S1131810E92FE061BE2EB4FE0DC0FB2DF460BF2E97
S113182009C034FE0AC0292F2660B22E06C028E063
S113183030E005C020E130E002C020E132E0F801F0
S1131840B7FE07C060817181828193810C5F1F4F55
S113185006C06081718180E090E00E5F1F4FA3019C
S11318600E94260D882E8618FB2DFF773F2E36FE0C
S11318700DC0232D2E7FA22E891458F434FE0BC0E4
S113188032FC09C0832D8E7EA82E05C0B82CA32C53
S113189003C0B82C01C0B92CA4FE0FC0FE01E80D92
S11318A0F11D8081803321F49A2D997EA92E09C0DF
S11318B0A2FE06C0B394B39404C08A2D867809F0BE
S11318C0B394A3FC11C0A0FE06C0B21488F4280C83
S11318D0922C9B180EC0B21460F4B60180E290E022
S11318E00E94EA0CB394F7CFB21418F42B1802C078
S11318F0982C212CA4FE10C0B60180E390E00E9435
S1131900EA0CA2FE17C0A1FC03C088E790E002C065
S113191088E590E0B6010CC08A2D867859F0A1FEC6
S113192002C08BE201C080E2A7FC8DE2B60190E028
S11319300E94EA0C891438F4B60180E390E00E9416
S1131940EA0C9A94F7CF8A94F301E80DF11D808193
S1131950B60190E00E94EA0C8110F5CF222009F430
S113196042CEB60180E290E00E94EA0C2A94F6CFBF
S1131970F6018681978102C08FEF9FEF2B96CDBF32
S1131980DEBFDF91CF911F910F91FF90EF90DF9019
S1131990CF90BF90AF909F908F907F906F905F900B
S11319A04F903F902F900895FC0105906150704036
S11319B00110D8F7809590958E0F9F1F0895FC0114
S11319C06150704001900110D8F7809590958E0F6A
S11319D09F1F08950F931F93CF93DF93FB012381E0
S11319E021FD03C08FEF9FEF2CC022FF16C046815C
S11319F05781248135814217530744F4A081B18172
S1131A009D012F5F3F4F208331838C932681378143
S1131A102F5F3F4F2683378314C08B01EC01FB01FA
S1131A200084F185E02D0995892BE1F6D8011696FD
S1131A308D919C911797019616968D939C93179769
S1131A40CE01DF91CF911F910F910895FA01AA273A
S1131A50283051F1203181F1E8946F936E7F6E5FED
S1131A607F4F8F4F9F4FAF4FB1E03ED0B4E03CD09B
S1131A70670F781F891F9A1FA11D680F791F8A1F7E
S1131A80911DA11D6A0F711D811D911DA11D20D0E5
S1131A9009F468943F912AE0269F11243019305D9F
S1131AA03193DEF6CF010895462F4770405D419390
S1131AB0B3E00FD0C9F7F6CF462F4F70405D4A33DD
S1131AC018F0495D31FD4052419302D0A9F7EACFA5
S1131AD0B4E0A6959795879577956795BA95C9F7D4
S1131AE000976105710508959B01AC010A2E0694C7
S1131AF05795479537952795BA95C9F7620F731F80
S1131B00841F951FA01D08950E948D0D80819181D1
S1131B10089503D0808199270895FC01E050FC4E7C
S1091B200895F894FFCFC4
S1131B260000000200000000550600000000666187
S1131B366E310000000000000000000000000000FC
S1131B46000000000000000000000000000000008B
S1131B56000000000000000000000000000000007B
S1131B66000000000000000000000000000000006B
S1131B76000000000000000000000000000000005B
S1131B86000000000000000000000000000000004B
S1131B96000066616E3200000000000000000000D4
S1131BA6000000000000000000000000000000002B
S1131BB6000000000000000000000000000000001B
S1131BC6000000000000000000000000000000000B
S1131BD600000000000000000000000000000000FB
S1131BE600000000000000000000000000000000EB
S1131BF600000000000066616E3300000000000073
S1131C0600000000000000000000000000000000CA
S1131C1600000000000000000000000000000000BA
S1131C2600000000000000000000000000000000AA
S1131C36000000000000000000000000000000009A
S1131C46000000000000000000000000000000008A
S1131C560000000000000000000066616E34000011
S1131C66000000000000000000000000000000006A
S1131C76000000000000000000000000000000005A
S1131C86000000000000000000000000000000004A
S1131C96000000000000000000000000000000003A
S1131CA6000000000000000000000000000000002A
S1131CB600000000000000000000000000006F6645
S1131CC666000000000000000000000000000000A4
S1131CD600000000000000000000000000000000FA
S1131CE600000000000000000000000000000000EA
S1131CF600000000000000000000000000000000DA
S1131D0600000000000000000000000000000000C9
S1131D1600000000000000000000000000000000B9
S1131D2600006D616E75616C00000000000000002B
S1131D360000000000000000000000000000000099
S1131D460000000000000000000000000000000089
S1131D560000000000000000000000000000000079
S1131D660000000000000000000000000000000069
S1131D760000000000000000000000000000000059
S1131D860000000000006175746F00000000000090
S1131D960000000000000000000000000000000039
S1131DA60000000000000000000000000000000029
S1131DB60000000000000000000000000000000019
S1131DC60000000000000000000000000000000009
S1131DD600000000000000000000000000000000F9
S1131DE6000000000000000000006F76657276694E
S1131DF665770000000000000000000000000000FD
S1131E0600000000000000000000000000000000C8
S1131E1600000000000000000000000000000000B8
S1131E2600000000000000000000000000000000A8
S1131E360000000000000000000000000000000098
S1131E460000000000000000000000000000636FB6
S1131E566E74726F6C6C6572000000000000000006
S1131E660000000000000000000000000000000068
S1131E760000000000000000000000000000000058
S1131E860000000000000000000000000000000048
S1131E960000000000000000000000000000000038
S1131EA60000000000000000000000000000000028
S1131EB600006C6F770000000000000000000000C6
S1131EC60000000000000000000000000000000008
S1131ED600000000000000000000000000000000F8
S1131EE600000000000000000000000000000000E8
S1131EF600000000000000000000000000000000D8
S1131F0600000000000000000000000000000000C7
S1131F160000000000006D656469756D0000000036
S1131F2600000000000000000000000000000000A7
S1131F360000000000000000000000000000000097
S1131F460000000000000000000000000000000087
S1131F560000000000000000000000000000000077
S1131F660000000000000000000000000000000067
S1131F7600000000000000000000686967680000B7
S1131F860000000000000000000000000000000047
S1131F960000000000000000000000000000000037
S1131FA60000000000000000000000000000000027
S1131FB60000000000000000000000000000000017
S1131FC60000000000000000000000000000000007
S1131FD60000000000000000000000000000616C2A
S1131FE661726D00000000000000000000000000A7
S1131FF600000000000000000000000000000000D7
S113200600000000000000000000000000000000C6
S113201600000000000000000000000000000000B6
S113202600000000000000000000000000000000A6
S11320360000000000000000000000000000000096
S113204600005A70306531010100000000FD4900AE
S11320560001010000280A044A0000010100002AC8
S11320660A094A000001010000290A0E4A0000017B
S11320760100002B0A134A0000446961676E6F73FE
S113208665207374617274657421200D00476A6556
S11320966E6E6F6D736E6974742066616E20313A6C
S11320A62025640D0A00476A656E6E6F6D736E694E
S11320B674742066616E20323A2025640D0A00503D
S11320C6524F53454E542066616E20313A202564A2
S11320D60D0A0050524F53454E542066616E20320D
S11320E63A2025640D0A0053544154555320666121
S11320F66E20313A2025640D0A0053544154555339
S11321062066616E20323A2025640D0A00414C4156
S1132116524D2066616E20312120547970653A2033
S11321267765617220616E642074656172200D00AA
S1132136414C41524D2066616E2032212054797003
S1132146653A207765617220616E642074656172F8
S1132156200D00414C41524D2066616E20312120F4
S1132166547970653A206D6F6D656E746172696C31
S1132176790D00484F4D4553435245454E3A0D009F
S1132186547970652077616E74656420616374693F
S11321966F6E0D00416C7465726E61746976657359
S11321A63A206F766572766965772C20636F6E7454
S11321B6726F6C6C65722C20616C61726D0D0025FA
S11321C673206973206E6F7720696E206D6F646566
S11321D63A206F66660A00547970652077616E74DA
S11321E66564206D6F64650D00416C7465726E6183
S11321F674697665733A206F66662C206175746F10
S11322062C206D616E75616C0D004F564552564912
S11322164557200D0046616E2025642072706D3A84
S11322262025640D0A0046616E20256420737461BE
S113223674653A2025730D0A0054656D70657261E4
S1132246747572653A2025640D0A00436F6E7472C4
S11322566F6C6C65720D0053656C656374207768EA
S113226661742066616E20746F206368616E6765B1
S11322760D00416C7465726E6174697665733A20FB
S113228666616E312C2066616E322C2066616E3377
S1132296206F722066616E34200D00446961676E9A
S11322A66F73652069732072756E6E696E67210D92
S11322B60A2000526563656976656420636F6D6DF7
S11322C6616E643A2066616E310D0052656365691C
S11322D676656420636F6D6D616E643A2066616E27
S11322E6320D00526563656976656420636F6D6DB2
S11322F6616E643A2066616E330D005265636569EA
S113230676656420636F6D6D616E643A2066616EF6
S1132316340D00526563656976656420636F6D6D7F
S1132326616E643A206F66660D0052656365697670
S1132336656420636F6D6D616E643A206D616E75C0
S1132346616C0D00547970652077616E7465642044
S113235672706D206D6F64650D00416C7465726EEC
S11323666174697665733A206C6F772C206D6564A9
S113237669756D2C2068696768206F722066616EC6
S11323862073706565643A20302D313030200D009D
S1132396526563656976656420636F6D6D616E640D
S11323A63A206175746F0D005265636569766564DC
S11323B620636F6D6D616E643A206F76657276691F
S11323C665770D00526563656976656420636F6D94
S11323D66D616E643A20636F6E74726F6C6C6572B5
S11323E60D00547970652077616E746564206465A8
S11323F676696174696F6E2070657263656E746167
S1132406676520666F72207765617220616E64204D
S11324167465617220616C61726D200A0D004375EA
S11324267272656E7420616C61726D206465766982
S11324366174696F6E2070657263656E7461676539
S11324462069733A2025640A0D007765617220615C
S11324566E64207465617220616C61726D206465BE
S1132466766174696F6E2070657263656E746167F8
S113247665206973206368616E67656420746F3ACA
S11324862025640A0D0052656365697665642063D8
S11324966F6D6D616E643A206C6F770D00526563E3
S11324A6656976656420636F6D6D616E643A206D4F
S11324B6656469756D0D00526563656976656420AA
S11324C6636F6D6D616E643A20686967680D0050CC
S11324D66C6561736520696E73657274206120761C
S11324E6616C69642064757479206379636C652012
S11324F628302D313030290D00756E6B6E6F776E76
S113250620636F6D6D616E64200D004865722073E3
S11325166B72657665743A2025640D0A00756E75CE
S11325267365640066616E310066616E32006661D1
S11325366E330066616E34004D414E55414C004F7A
S11325464646004155544F0000184A011F4A0223CB
S10525564A0035
S9030000FC
