S01200006D656E7973797374656D2E73726563B4
S11300000C9483000C94A2000C94A2000C94A20003
S11300100C94A2000C94A2000C9400050C94A20071
S11300200C94A2000C94A2000C94A2000C94A200C4
S11300300C94A2000C94A2000C941A050C94510583
S11300400C94A2000C94A2000C94A2000C94A200A4
S11300500C94A2000C94A2000C94A2000C94A20094
S11300600C94A2000C94A2000C94A2000C94A20084
S11300700C94A2000C94A2000C94A2000C94A20074
S11300800C94A2000C94A2000C94A2000C94A20064
S11300900C94A2000C94A2000C94A2000C94A20054
S11300A00C94A2000C94A2000C94A2000C94A20044
S11300B00C94A2000C94A2000C94A2000C94A20034
S11300C00C94A2000C94A2000C94A2000C94A20024
S11300D00C94A2000C9414070C94A2000C94A2009B
S11300E00C94A2000C94A2000C94A2000C94A20004
S11300F00C94A200F505FF05090613061D06260645
S113010036063F06520611241FBECFEFCDBFDFE7F0
S1130110DEBF1AE4A0E0B0E4E4EFFBE100E00BBFD3
S113012002C007900D92AC33B107D9F72CE4ACE3CD
S1130130BAE401C01D92AD35B207E1F70E944D0843
S11301400C94F80D0C940000E0E0F4E08CE0818362
S113015098E093878487E0E0F9E081E08383168266
S11301608583E0E8F4E082E081838483089590E06D
S1130170880F991F862B809307098091050985FDB7
S11301800DC08091050982FD09C08091050983FD98
S113019005C0809105098370833079F70895CF9362
S11301A0C62F60E00E94B700C0930809809105093A
S11301B085FD0DC08091050982FD09C08091050966
S11301C083FD05C0809105098370833079F7E0E0F1
S11301D0F9E08581848183608483CF9108950F93AE
S11301E01F93CF938B01C42F61E00E94B70090E06E
S11301F01DC08091050985FD0DC08091050982FD12
S113020009C08091050983FD05C0809105098370AB
S1130210833079F7F801E90FF11D80910809808393
S11302209F5FC91719F082E0809304099C1708F3B3
S113023087E080930409CF911F910F91089561EE97
S113024088E30E94CF002FE58AEE90E021508040A1
S11302509040E1F700C000006AEB88E30E94CF0001
S11302608FE19EE40197F1F700C000000895CB9759
S1130270BC0180E090E00E948C0920E030E040E086
S11302805FE30E947F080E945D096E3118F06035BB
S113029018F403C06EE101C06FE4862F90E0089566
S11302A08091CE449091CF44029741F48091AF4A1B
S11302B09091B04A0E9437018093280A8091CA44E1
S11302C09091CB44029741F48091AF4A9091B04A07
S11302D00E94370180932A0A8091C6449091C744B2
S11302E0029741F48091AF4A9091B04A0E9437013D
S11302F08093290A8091C2449091C344029741F4A7
S11303008091AF4A9091B04A0E94370180932B0AA2
S113031008958091C34A9091C44A8130910549F46B
S113032081E090E08093CE449093CF441092280AC9
S113033010C08230910539F482E090E08093CE447D
S11303409093CF4406C0892B21F41092CE4410928E
S1130350CF448091BC4A9091BD4A8130910549F4C3
S113036081E090E08093CA449093CB4410922A0A8F
S113037010C08230910539F482E090E08093CA4441
S11303809093CB4406C0892B21F41092CA44109256
S1130390CB448091B24A9091B34A8130910549F49B
S11303A081E090E08093C6449093C7441092290A58
S11303B010C08230910539F482E090E08093C64405
S11303C09093C74406C0892B21F41092C64410921E
S11303D0C7448091444A9091454A8130910549F43B
S11303E081E090E08093C2449093C34410922B0A1E
S11303F008958230910539F482E090E08093C244FC
S11304009093C3440895892B21F41092C24410920E
S1130410C34408958091CE449091CF448093C34ABD
S11304209093C44A8091CA449091CB448093BC4A2F
S11304309093BD4A8091C6449091C7448093B24A38
S11304409093B34A8091C2449091C3448093444AA8
S11304509093454A0895CF93DF93CDB7DEB726979F
S1130460CDBFDEBF6CEA88E30E94CF002FE58AEEA1
S113047090E0215080409040E1F700C0000046E049
S1130480BE016F5F7F4F88E30E94EF006C816F7045
S1130490862F90E0A0E0B0E0BA2FA92F982F8827EC
S11304A02D81822BBA2FA92F982F88272E81BC014A
S11304B0CD01622B0E948C0920E030E048E453E433
S11304C00E941A0A20E030E040E855E30E941A0A2C
S11304D00E945D098EEC860F2696CDBFDEBFDF91AC
S11304E0CF9108958AE19AE40E94140B8AE19AE478
S11304F00E94140B8AE19AE40E94140B88ED94E4A0
S11305000E94140B85EE94E40E94140B8AE19AE491
S11305100E94140B89EF94E40E94140B08958091B7
S1130520414A80FF13C081E090E08093CE449093D1
S1130530CF441092280A8DE195E49F938F930E94F3
S1130540000B0E9472020F900F90089581FF13C058
S113055081E090E08093CA449093CB4410922A0A9D
S113056086E395E49F938F930E94000B0E9472028E
S11305700F900F90089582FF13C081E090E0809364
S1130580C6449093C7441092290A8FE495E49F933C
S11305908F930E94000B0E9472020F900F90089597
S11305A083FF12C081E090E08093C2449093C344DF
S11305B010922B0A88E695E49F938F930E94000B78
S11305C00E9472020F900F9008958091414A80FF1B
S11305D011C082E090E08093CE449093CF4481E8B0
S11305E095E49F938F930E94000B0E9472020F90D8
S11305F00F90089581FF11C082E090E08093CA4477
S11306009093CB448BE995E49F938F930E94000BC6
S11306100E9472020F900F90089582FF11C082E031
S113062090E08093C6449093C74485EB95E49F93F0
S11306308F930E94000B0E9472020F900F900895F6
S113064083FF10C082E090E08093C2449093C3443F
S11306508FEC95E49F938F930E94000B0E9472028B
S11306600F900F9008958091414A80FF0FC010921F
S1130670CE441092CF448091484A8093280A89EE50
S113068095E40E94140B0E947202089581FF13C026
S11306901092CA441092CB448091484A80932A0A0B
S11306A087E096E49F938F930E94000B0E9472024E
S11306B00F900F90089582FF13C01092C6441092B9
S11306C0C7448091484A8093290A83E296E49F9321
S11306D08F930E94000B0E9472020F900F90089556
S11306E083FF12C01092C2441092C3448091484ABE
S11306F080932B0A8FE396E49F938F930E94000BC1
S11307000E9472020F900F9008958BE596E40E9468
S1130710140B8AE19AE40E94140B8DE696E40E947D
S1130720140B0895CF93DF938EE896E40E94140B84
S11307308AE19AE40E94140BCEECD4E48B818F936B
S11307408A818F9389E996E49F938F930E94000B8B
S1130750E881F981EE0FFF1FEE52FB4B81818F93ED
S113076080818F9389EA96E49F938F930E94000B74
S1130770CAECD4E48B818F938A818F938BEB96E4BC
S11307809F938F930E94000BE881F981EE0FFF1F66
S1130790EE52FB4B81818F9380818F938BEC96E497
S11307A09F938F930E94000BC6ECD4E48B818F93AC
S11307B08A818F938DED96E49F938F930E94000B13
S11307C0E881F981EE0FFF1FEE52FB4B81818F937D
S11307D080818F938DEE96E49F938F930E94000BFC
S11307E0C2ECD4E48B818F938A818F938FEF96E44C
S11307F09F938F930E94000BE881F981EE0FFF1FF6
S1130800EE52FB4B81818F9380818F938FE097E42D
S11308109F938F930E94000B8DB79EB780968DBFD8
S11308209EBF0E942B02282F30E02093AF4A3093C2
S1130830B04A1F928F9381E297E49F938F930E9413
S1130840000B8AE19AE40E94140B8AE19AE40E9464
S1130850140B0E9472020F900F900F900F90DF9173
S1130860CF91089583E397E40E94140B8FE397E4F8
S11308700E94140B8AE597E40E94140B08950F93C9
S11308801F93CF938C01C0E00CC084E6C89FB001D5
S113089011246E5E7F4BC8010E94EF0A892B29F058
S11308A0CF5FCC3090F38FEF01C08C2FCF911F918D
S11308B00F9108959091640895FFFCCF809362088E
S11308C008950E945A0480E090E00895CF938091A7
S11308D064088823E4F7C09160088C2F0E945A04AE
S11308E08C2FCF910895E0E2F4E081E0818382E0EF
S11308F08283E0E6F8E085818068858383E896E07A
S1130900808791878681806C868384E090E48093DD
S1130910594C90935A4C08958BE180936104089547
S113092083E08093E605E0E0FAE093E3918321E03D
S1130930238391839FE496A310A697A311A612A6DE
S113094013A680830895E0E2F4E080818F7E8083A3
S113095084898860848BE0E0FBE085E0808384E028
S1130960818381E0858391E49483E0E0F2E09CE478
S1130970908B86AF0895E0E2F4E080818F7D8083E0
S113098085898860858BE0E1FBE085E0808384E0F5
S1130990818381E0858381E484838DE480931102E3
S11309A082E08093400208958A3510F481E008952E
S11309B080E00895CF92DF92EF92FF926B017C0169
S11309C0BA0180E090E00E948C09A70196010E9480
S11309D0EB0820E030E048EC52E40E941A0A0E943E
S11309E05D09862FFF90EF90DF90CF900895E0E4AB
S11309F0F1E081E08083878399E4908B828B089572
S1130A001F920F920FB60F9211248F939F93809190
S1130A10BF4A9091C04A01968093BF4A9093C04ABE
S1130A2081E0809353019F918F910F900FBE0F909F
S1130A301F9018951F920F920FB60F9211240BB6A8
S1130A400F922F933F938F93AF93BF93EF93FF93A3
S1130A50A0E0BBE081E016968C93169780913E4A05
S1130A60E82FF0E01C962D913C911D97EE0FFF1F8F
S1130A70E157F44B208331838F5F80933E4A843661
S1130A8010F010923E4AFF91EF91BF91AF918F9178
S1130A903F912F910F900BBE0F900FBE0F901F90A0
S1130AA018951F920F920FB60F9211240BB60F9246
S1130AB02F933F938F93AF93BF93EF93FF93A0E153
S1130AC0BBE081E016968C93169780913D4AE82FFF
S1130AD0F0E01C962D913C911D97EE0FFF1FE953FA
S1130AE0F54B208331838F5F80933D4A843610F029
S1130AF010923D4AFF91EF91BF91AF918F913F9139
S1130B002F910F900BBE0F900FBE0F901F90189552
S1130B100F931F939C01062F90E040E050E0BA0130
S1130B200EC0E92FF0E0EE0FFF1FE20FF31F01905C
S1130B30F081E02D4E0F5F1F611D711D9F5F9017A7
S1130B4080F310E020E030E0CB01BA01A901980164
S1130B500E94870AC9011F910F91089564E68FE8E6
S1130B609BE40E948805880F991F880F991F880F9E
S1130B70991F9C0140E050E060E07CE18EE49EE03F
S1130B800E94A90AC901089564E687EC9AE40E94C8
S1130B908805880F991F880F991F880F991F9C013A
S1130BA040E050E060E07CE18EE49EE00E94A90A0F
S1130BB0C9010895CF93DF939B019091B14A992382
S1130BC049F083E897E49F938F930E94000B0F9062
S1130BD00F90EBC0482F50E04930510508F069C030
S1130BE0FA01E658FF4F0C94C80A8BE997E40E9477
S1130BF0140B0E94850381E08093414AD6C083EBA5
S1130C0097E40E94140B0E94850382E08093414A7A
S1130C10CCC08BEC97E40E94140B0E94850384E003
S1130C208093414AC2C083EE97E40E94140B0E9451
S1130C30850388E08093414AB8C08BEF97E40E9413
S1130C40140B1092B64A0E948F02AFC082E198E45E
S1130C500E94140B8CE298E40E94140B82E498E442
S1130C600E94140B81E08093B64A9FC088E798E401
S1130C700E94140B1092B64A0E94E50296C080E9C5
S1130C8098E40E94140B0E94AE058093D044909384
S1130C90D1440E94C4058093CC449093CD440E94D7
S1130CA0920383C08CEA98E40E94140B0E943204DD
S1130CB07CC09091B64A992309F473C08A3089F0B4
S1130CC08B30E1F0893039F58AEC98E40E94140BFA
S1130CD083E290E08093484A9093494A0E94330308
S1130CE064C081EE98E40E94140B8CE390E080933E
S1130CF0484A9093494A0E94330357C08BEF98E4C3
S1130D000E94140B8FE490E08093484A9093494AE0
S1130D100E9433034AC0C9010E94D10A8093BA4A8F
S1130D209093BB4A9F938F9384EF99E49F938F93FF
S1130D300E94000B6091BA4A7091BB4A0F900F90C9
S1130D400F900F906536710538F580E090E00E94B1
S1130D508C0920E030E048EC52E40E94EB0820E0EB
S1130D6030E04EE952E40E941A0A0E945D09D62F2F
S1130D70C72F7F936F9384EF99E49F938F930E947F
S1130D80000BD093484AC093494A0E9433030F9002
S1130D900F900F900F9009C083E199E40E94140B07
S1130DA004C08DE399E40E94140BDF91CF91089560
S1130DB0CF93DF93CDB7DEB7C456D109CDBFDEBF25
S1130DC00E9466048A3089F08D3079F090913C4A13
S1130DD0933658F421E0290F20933C4AE1E0F0E0F7
S1130DE0EC0FFD1FE90FF11D80838D3011F08A3067
S1130DF0A1F480913C4AE1E0F0E0EC0FFD1FE80F24
S1130E00F11D108210923C4ACE0101960E943F04CB
S1130E10BE016F5F7F4F0E94DA05CC59DF4FCDBF13
S1130E20DEBFDF91CF9108951F920F920FB60F92FC
S1130E3011240BB60F922F933F934F935F936F93AD
S1130E407F938F939F93AF93BF93EF93FF930E94EE
S1130E50D806FF91EF91BF91AF919F918F917F91B0
S1130E606F915F914F913F912F910F900BBE0F9017
S1130E700FBE0F901F9018954F925F926F927F92C2
S1130E808F929F92AF92BF92CF92DF92EF92FF9296
S1130E900F931F93CF93DF93E0E0FAE08FE480A7F2
S1130EA082A781A783A78FE499E40E94140B209161
S1130EB0BF4A3091C04A8091BF4A9091C04A821B78
S1130EC0930B0397C0F30091BF4A1091C04AC0E04E
S1130ED0D0E0812C912C5401C12CD12C76010DC071
S1130EE00E94AE05C80ED91EE11CF11C0E94C40567
S1130EF0880E991EA11CB11C21968091BF4A909125
S1130F00C04A801B910B0B9758F32E01612C712C56
S1130F10C701B601A30192010E94870A69017A01FF
S1130F20C501B401A30192010E94870A49015A0133
S1130F30DF93CF9383E699E49F938F930E94000BF2
S1130F40B601C40110922A0A0F900F900F900F90CF
S1130F50DF91CF911F910F91FF90EF90DF90CF9091
S1130F60BF90AF909F908F907F906F905F904F90C5
S1130F700895CF92DF92EF92FF920F931F93CF9336
S1130F80DF930E943C07C62ED72E082F192F7F937C
S1130F906F938CE799E49F938F930E94000B1F93A8
S1130FA00F9385E999E49F938F930E94000B8AE144
S1130FB09AE40E94140B8AE19AE40E94140BC091F3
S1130FC00240D0910340E0900040F0900140DF9354
S1130FD0CF938EEA99E49F938F930E94000BBE01F6
S1130FE080E090E00E948C094C2D5D2D0E94DA0473
S1130FF0D82FB70180E090E00E948C09402F512F38
S11310000E94DA04C82F1F92DF938EEB99E49F931A
S11310108F930E94000B1F92CF9382ED99E49F93CC
S11310208F930E94000B8D2F0E94D404D82F8C2FF5
S11310300E94D404C82F1F92DF9386EE99E49F93F5
S11310408F930E94000B1F92CF9389EF99E49F9393
S11310508F930E94000B8DB79EB74C968DBF9EBF99
S1131060D13021F48CE09AE40E94140BC13021F4B5
S11310708CE19AE40E94140BC0920240D092034087
S11310800093004010930140DF91CF911F910F9185
S1131090FF90EF90DF90CF9008950E9473047894AE
S11310A00E948C040E9490040E94A3040E94BB042A
S11310B00E94A4000E941F010E94F7040E94720271
S11310C08091BF4A9091C04A449779F40E940A02E1
S11310D081E08093B14A0E94B9070E94890110926D
S11310E0B14A1092BF4A1092C04A0E9450018FE048
S11310F097E20197F1F700C00000E2CF5058BB27F8
S1131100AA270E9496080C94E0090E94D20938F09C
S11311100E94D90920F039F49F3F19F426F40C9465
S1131120CF090EF4E095E7FB0C94C909E92F0E945E
S1131130F10958F3BA17620773078407950720F07B
S113114079F4A6F50C94130A0EF4E0950B2EBA2F3D
S1131150A02D0B01B90190010C01CA01A0011124B9
S1131160FF27591B99F0593F50F4503E68F11A1665
S1131170F040A22F232F342F4427585FF3CF4695F6
S113118037952795A795F0405395C9F77EF41F1618
S1131190BA0B620B730B840BBAF09150A1F0FF0FE2
S11311A0BB1F661F771F881FC2F70EC0BA0F621FCE
S11311B0731F841F48F4879577956795B795F795BE
S11311C09E3F08F0B0CF9395880F08F09927EE0F53
S11311D09795879508950E94FF080C94E0090E9452
S11311E0D90958F00E94D20940F029F45F3F29F050
S11311F00C94C90951110C94140A0C94CF090E943F
S1131200F10968F39923B1F3552391F3951B550B19
S1131210BB27AA2762177307840738F09F5F5F4FC5
S1131220220F331F441FAA1FA9F335D00E2E3AF004
S1131230E0E832D091505040E695001CCAF72BD01C
S1131240FE2F29D0660F771F881FBB1F261737076D
S11312504807AB07B0E809F0BB0B802DBF01FF279F
S113126093585F4F3AF09E3F510578F00C94C909AA
S11312700C94140A5F3FE4F3983ED4F38695779573
S11312806795B795F7959F5FC9F7880F911D969558
S1131290879597F90895E1E0660F771F881FBB1FB4
S11312A0621773078407BA0720F0621B730B840B61
S11312B0BA0BEE1F88F7E09508950E94F90988F0AB
S11312C09F5798F0B92F9927B751B0F0E1F0660F06
S11312D0771F881F991F1AF0BA95C9F714C0B13047
S11312E091F00E94130AB1E008950C94130A672F39
S11312F0782F8827B85F39F0B93FCCF38695779576
S11313006795B395D9F73EF490958095709561955E
S11313107F4F8F4F9F4F0895E89409C097FB3EF489
S113132090958095709561957F4F8F4F9F4F99232E
S1131330A9F0F92F96E9BB279395F69587957795AC
S11313406795B795F111F8CFFAF4BB0F11F460FF6C
S11313501BC06F5F7F4F8F4F9F4F16C0882311F0C4
S113136096E911C0772321F09EE8872F762F05C0D8
S1131370662371F096E8862F70E060E02AF09A9573
S1131380660F771F881FDAF7880F9695879597F968
S1131390089597F99F6780E870E060E008959FEFF3
S11313A080EC089500240A941616170618060906F8
S11313B0089500240A9412161306140605060895C7
S11313C0092E0394000C11F4882352F0BB0F40F44F
S11313D0BF2B11F460FF04C06F5F7F4F8F4F9F4F8F
S11313E0089557FD9058440F551F59F05F3F71F011
S11313F04795880F97FB991F61F09F3F79F0879578
S11314000895121613061406551FF2CF4695F1DF00
S113141008C0161617061806991FF1CF8695710590
S1131420610508940895E894BB2766277727CB01C4
S113143097F908950E942D0A0C94E0090E94D2099C
S113144038F00E94D90920F0952311F00C94C909B1
S11314500C94CF0911240C94140A0E94F10970F31E
S1131460959FC1F3950F50E0551F629FF001729F45
S1131470BB27F00DB11D639FAA27F00DB11DAA1F54
S1131480649F6627B00DA11D661F829F2227B00DA1
S1131490A11D621F739FB00DA11D621F839FA00D2C
S11314A0611D221F749F3327A00D611D231F849F7C
S11314B0600D211D822F762F6A2F11249F575040D3
S11314C09AF0F1F088234AF0EE0FFF1FBB1F661F4E
S11314D0771F881F91505040A9F79E3F510580F017
S11314E00C94C9090C94140A5F3FE4F3983ED4F3B6
S11314F0869577956795B795F795E7959F5FC1F7BB
S1131500FE2B880F911D9695879597F90895A1E272
S11315101A2EAA1BBB1BFD010DC0AA1FBB1FEE1F69
S1131520FF1FA217B307E407F50720F0A21BB30BB4
S1131530E40BF50B661F771F881F991F1A9469F730
S113154060957095809590959B01AC01BD01CF018C
S11315500895052E97FB1EF400940E94C00A57FDBF
S113156007D00E94870A07FC03D04EF40C94C00AEB
S113157050954095309521953F4F4F4F5F4F0895BB
S113158090958095709561957F4F8F4F9F4F0895EB
S1131590EE0FFF1F0024001C0BBE0790F691E02DF8
S11315A00994FC0188279927E89421912032E9F3D2
S11315B0293010F02E30C8F32B3241F02D3239F49B
S11315C0689404C00E94F80A820F911D219120534F
S11315D02A30C0F31EF4909581959F4F0895FB0126
S11315E0DC018D91019080190110D9F3990B0895B4
S11315F07AE0979F902D879F802D910D1124089557
S1131600CF93DF93CDB7DEB7AE014B5F5F4FFA01E7
S113161061917191AF018091594C90915A4C0E9403
S1131620440BDF91CF9108950F931F93CF93DF93D2
S1131630E091594CF0915A4C238121FF1BC08C013D
S1131640D0E0C0E0F80181918F016091594C709114
S11316505A4CDB011896ED91FC911997882331F0CF
S11316600995892B79F3DFEFCFEFECCF8AE0099569
S1131670892B19F08FEF9FEF02C08D2F9C2FDF91E4
S1131680CF911F910F9108952F923F924F925F92A5
S11316906F927F928F929F92AF92BF92CF92DF927E
S11316A0EF92FF920F931F93CF93DF93CDB7DEB7E3
S11316B02B97CDBFDEBF6C017B018A01FC01168232
S11316C01782838181FFCCC1CE0101963C01F601D2
S11316D09381F70193FD859193FF81917F01882385
S11316E009F4BAC1853239F493FD859193FF819150
S11316F07F01853229F4B60190E00E945E0DE7CFA8
S1131700912C212C312CFFE1F315D8F08B3279F098
S113171038F4803279F08332A1F4232D20611DC086
S11317208D3261F0803369F4232D216016C0832D3E
S11317308260382EE32DE4603E2E2AC0F32DF8603B
S11317401DC037FC2DC020ED280F2A3040F08E320A
S1131750B9F436FC81C1232D2064322E19C036FE23
S113176006C08AE0989E200D1124922E11C0EAE052
S11317702E9E200D1124222EF32DF0623F2E08C040
S11317808C3621F4832D8068382E02C0883641F4CB
S1131790F70193FD859193FF81917F018111B3CF6F
S11317A0982F9F7D9554933028F40C5F1F4F9FE32F
S11317B099830DC0833631F0833771F0833509F096
S11317C059C021C0F801808189830E5F1F4F88248E
S11317D08394912C530113C02801F2E04F0E511C45
S11317E0F801A080B18036FE03C0692D70E002C00C
S11317F06FEF7FEFC5010E94530D4C018201F32D61
S1131800FF773F2E16C0280122E0420E511CF8013A
S1131810A080B18036FE03C0692D70E002C06FEF76
S11318207FEFC5010E94480D4C01F32DF0683F2E57
S1131830820133FC1BC0822D90E088169906B0F417
S1131840B60180E290E00E945E0D2A94F4CFF50187
S113185037FC859137FE81915F01B60190E00E94CB
S11318605E0D21102A9421E0821A910881149104BA
S113187071F7E8C0843611F0893641F5F80137FE76
S113188007C060817181828193810C5F1F4F08C002
S113189060817181072E000C880B990B0E5F1F4F1E
S11318A0F32DFF763F2E97FF09C090958095709594
S11318B061957F4F8F4F9F4FF0683F2E2AE030E0B5
S11318C0A3010E949A0D882E861845C0853731F4ED
S11318D0232D2F7EB22E2AE030E025C0932D997F50
S11318E0B92E8F36C1F018F4883579F0B5C0803739
S11318F019F0883721F0B0C0E92FE061BE2EB4FEA4
S11319000DC0FB2DF460BF2E09C034FE0AC0292F80
S11319102660B22E06C028E030E005C020E130E0A9
S113192002C020E132E0F801B7FE07C06081718196
S1131930828193810C5F1F4F06C06081718180E0BA
S113194090E00E5F1F4FA3010E949A0D882E861807
S1131950FB2DFF773F2E36FE0DC0232D2E7FA22EAA
S1131960891458F434FE0BC032FC09C0832D8E7EDA
S1131970A82E05C0B82CA32C03C0B82C01C0B92CC8
S1131980A4FE0FC0FE01E80DF11D8081803321F417
S11319909A2D997EA92E09C0A2FE06C0B394B394D1
S11319A004C08A2D867809F0B394A3FC11C0A0FE6C
S11319B006C0B21488F4280C922C9B180EC0B214E2
S11319C060F4B60180E290E00E945E0DB394F7CF1C
S11319D0B21418F42B1802C0982C212CA4FE10C0A9
S11319E0B60180E390E00E945E0DA2FE17C0A1FC48
S11319F003C088E790E002C088E590E0B6010CC01F
S1131A008A2D867859F0A1FE02C08BE201C080E2E3
S1131A10A7FC8DE2B60190E00E945E0D891438F4B3
S1131A20B60180E390E00E945E0D9A94F7CF8A9409
S1131A30F301E80DF11D8081B60190E00E945E0D76
S1131A408110F5CF222009F442CEB60180E290E065
S1131A500E945E0D2A94F6CFF6018681978102C01A
S1131A608FEF9FEF2B96CDBFDEBFDF91CF911F91FC
S1131A700F91FF90EF90DF90CF90BF90AF909F9029
S1131A808F907F906F905F904F903F902F9008952C
S1131A90FC010590615070400110D8F78095909535
S1131AA08E0F9F1F0895FC0161507040019001103A
S1131AB0D8F7809590958E0F9F1F08950F931F93CD
S1131AC0CF93DF93FB01238121FD03C08FEF9FEFB1
S1131AD02CC022FF16C046815781248135814217CC
S1131AE0530744F4A081B1819D012F5F3F4F2083B0
S1131AF031838C93268137812F5F3F4F2683378331
S1131B0014C08B01EC01FB010084F185E02D0995E3
S1131B10892BE1F6D80116968D919C911797019621
S1131B2016968D939C931797CE01DF91CF911F91B9
S1131B300F910895FA01AA27283051F1203181F13B
S1131B40E8946F936E7F6E5F7F4F8F4F9F4FAF4FC1
S1131B50B1E03ED0B4E03CD0670F781F891F9A1FD4
S1131B60A11D680F791F8A1F911DA11D6A0F711D88
S1131B70811D911DA11D20D009F468943F912AE094
S1131B80269F11243019305D3193DEF6CF0108957C
S1131B90462F4770405D4193B3E00FD0C9F7F6CFAD
S1131BA0462F4F70405D4A3318F0495D31FD405275
S1131BB0419302D0A9F7EACFB4E0A695979587950B
S1131BC077956795BA95C9F70097610571050895EA
S1131BD09B01AC010A2E0694579547953795279596
S1131BE0BA95C9F7620F731F841F951FA01D08952E
S1071BF0F894FFCF93
S1131BF47030703000000002000000006104000036
S1131C04000066616E310000000000000000000066
S1131C1400000000000000000000000000000000BC
S1131C2400000000000000000000000000000000AC
S1131C34000000000000000000000000000000009C
S1131C44000000000000000000000000000000008C
S1131C54000000000000000000000000000000007C
S1131C6400000000000066616E3200000000000005
S1131C74000000000000000000000000000000005C
S1131C84000000000000000000000000000000004C
S1131C94000000000000000000000000000000003C
S1131CA4000000000000000000000000000000002C
S1131CB4000000000000000000000000000000001C
S1131CC40000000000000000000066616E330000A4
S1131CD400000000000000000000000000000000FC
S1131CE400000000000000000000000000000000EC
S1131CF400000000000000000000000000000000DC
S1131D0400000000000000000000000000000000CB
S1131D1400000000000000000000000000000000BB
S1131D2400000000000000000000000000006661E4
S1131D346E340000000000000000000000000000F9
S1131D44000000000000000000000000000000008B
S1131D54000000000000000000000000000000007B
S1131D64000000000000000000000000000000006B
S1131D74000000000000000000000000000000005B
S1131D84000000000000000000000000000000004B
S1131D9400006F6666000000000000000000000000
S1131DA4000000000000000000000000000000002B
S1131DB4000000000000000000000000000000001B
S1131DC4000000000000000000000000000000000B
S1131DD400000000000000000000000000000000FB
S1131DE400000000000000000000000000000000EB
S1131DF40000000000006D616E75616C000000005D
S1131E0400000000000000000000000000000000CA
S1131E1400000000000000000000000000000000BA
S1131E2400000000000000000000000000000000AA
S1131E34000000000000000000000000000000009A
S1131E44000000000000000000000000000000008A
S1131E54000000000000000000006175746F0000C1
S1131E64000000000000000000000000000000006A
S1131E74000000000000000000000000000000005A
S1131E84000000000000000000000000000000004A
S1131E94000000000000000000000000000000003A
S1131EA4000000000000000000000000000000002A
S1131EB400000000000000000000000000006F7635
S1131EC46572766965770000000000000000000078
S1131ED400000000000000000000000000000000FA
S1131EE400000000000000000000000000000000EA
S1131EF400000000000000000000000000000000DA
S1131F0400000000000000000000000000000000C9
S1131F1400000000000000000000000000000000B9
S1131F240000636F6E74726F6C6C65720000000065
S1131F340000000000000000000000000000000099
S1131F440000000000000000000000000000000089
S1131F540000000000000000000000000000000079
S1131F640000000000000000000000000000000069
S1131F740000000000000000000000000000000059
S1131F840000000000006C6F7700000000000000F7
S1131F940000000000000000000000000000000039
S1131FA40000000000000000000000000000000029
S1131FB40000000000000000000000000000000019
S1131FC40000000000000000000000000000000009
S1131FD400000000000000000000000000000000F9
S1131FE4000000000000000000006D656469756D68
S1131FF400000000000000000000000000000000D9
S113200400000000000000000000000000000000C8
S113201400000000000000000000000000000000B8
S113202400000000000000000000000000000000A8
S11320340000000000000000000000000000000098
S113204400000000000000000000000000006869B7
S113205467680000000000000000000000000000A9
S11320640000000000000000000000000000000068
S11320740000000000000000000000000000000058
S11320840000000000000000000000000000000048
S11320940000000000000000000000000000000038
S11320A40000000000000000000000000000000028
S11320B40000010000000100000001000000010014
S11320C400002C4A334A374A686F6D65736372653E
S11320D4656E3A0D00547970652077616E74656499
S11320E420616374696F6E0D00416C7465726E6176
S11320F474697665733A206F766572766965772CB0
S113210420636F6E74726F6C6C65720D0066616E21
S113211431206973206E6F7720696E206D6F64655A
S11321243A206F66660066616E32206973206E6FB2
S11321347720696E206D6F64653A206F6666006669
S1132144616E33206973206E6F7720696E206D6F22
S113215464653A206F66660066616E342069732094
S11321646E6F7720696E206D6F64653A206F6666C2
S11321740066616E31206973206E6F7720696E206A
S11321846D6F64653A204175746F0066616E322028
S11321946973206E6F7720696E206D6F64653A20D1
S11321A44175746F0066616E33206973206E6F77B6
S11321B420696E206D6F64653A204175746F006602
S11321C4616E34206973206E6F7720696E206D6FA1
S11321D464653A204175746F0066616E31206973D9
S11321E4206E6F7720696E206D6F64653A204D61AF
S11321F46E75616C200D0066616E32206973206E09
S11322046F7720696E206D6F64653A204D616E7539
S1132214616C0066616E33206973206E6F77206988
S11322246E206D6F64653A204D616E75616C006655
S1132234616E34206973206E6F7720696E206D6F30
S113224464653A204D616E75616C00547970652043
S113225477616E746564206D6F64650D00416C7400
S113226465726E6174697665733A206F66662C20B4
S11322746175746F2C206D616E75616C0D004F5621
S1132284455256494557200D0046616E203120724F
S1132294706D3A2025640D0A0046616E2031207366
S11322A4746174653A2025730D0A0046616E203208
S11322B42072706D3A2025640D0A0046616E203246
S11322C42073746174653A2025730D0A0046616EA7
S11322D420332072706D3A2025640D0A0046616E25
S11322E420332073746174653A2025730D0A004603
S11322F4616E20342072706D3A2025640D0A004604
S1132304616E20342073746174653A2025730D0A58
S11323140054656D70657261747572653A20256444
S11323240D0A00436F6E74726F6C6C65720D00530A
S1132334656C65637420776861742066616E2074CB
S11323446F206368616E67650D00416C7465726E1D
S11323546174697665733A2066616E312C20666116
S11323646E322C2066616E33206F722066616E3487
S1132374200D00446961676E6F7365206973207270
S1132384756E6E696E67210D0A2000526563656976
S113239476656420636F6D6D616E643A2066616E68
S11323A4310D00526563656976656420636F6D6DF4
S11323B4616E643A2066616E320D0052656365692C
S11323C476656420636F6D6D616E643A2066616E38
S11323D4330D00526563656976656420636F6D6DC2
S11323E4616E643A2066616E340D005265636569FA
S11323F476656420636F6D6D616E643A206F666602
S11324040D00526563656976656420636F6D6D6163
S11324146E643A206D616E75616C0D00547970655B
S11324242077616E7465642072706D206D6F6465CD
S11324340D00416C7465726E6174697665733A203B
S11324446C6F772C206D656469756D2C20686967E1
S113245468206F722066616E2073706565643A202B
S1132464302D313030200D00526563656976656422
S113247420636F6D6D616E643A206175746F0D0035
S1132484526563656976656420636F6D6D616E641E
S11324943A206F766572766965770D0052656365D7
S11324A46976656420636F6D6D616E643A20636F51
S11324B46E74726F6C6C65720D0052656365697637
S11324C4656420636F6D6D616E643A206C6F770D83
S11324D400526563656976656420636F6D6D616E32
S11324E4643A206D656469756D0D005265636569B0
S11324F476656420636F6D6D616E643A2068696704
S1132504680D00506C6561736520696E736572743F
S113251420612076616C6964206475747920637920
S1132524636C652028302D313030290D00756E6BB5
S11325346E6F776E20636F6D6D616E64200D004461
S11325446961676E6F736520737461727465742155
S1132554200D004E756D626572206F662072656190
S113256464696E67733A2025640D0A00476A656ED0
S11325746E6F6D736E6974742066616E20313A20D7
S113258425640D0A00476A656E6E6F6D736E697417
S1132594742066616E20323A2025640D0A006F6C43
S11325A4642066616E20323A2025640D0A0050527C
S11325B44F53454E542066616E20313A2025640DF4
S11325C40A0050524F53454E542066616E20323AED
S11325D42025640D0A005354415455532066616EFA
S11325E420313A2025640D0A005354415455532094
S11325F466616E20323A2025640D0A00414C415232
S11326044D2066616E20312121200D00414C415240
S11326144D2066616E20322121200D004D414E551E
S10F2624414C004F4646004155544F0005
S9030000FC
