S01200006D656E7973797374656D2E73726563B4
S11300000C9483000C94A2000C94A2000C94A20003
S11300100C94A2000C94A2000C94DE030C94A20095
S11300200C94A2000C94A2000C94A2000C94A200C4
S11300300C94A2000C94A2000C94F8030C942B04CE
S11300400C94A2000C94A2000C94A2000C94A200A4
S11300500C94A2000C94A2000C94A2000C94A20094
S11300600C94A2000C94A2000C94A2000C94A20084
S11300700C94A2000C94A2000C94A2000C94A20074
S11300800C94A2000C94A2000C94A2000C94A20064
S11300900C94A2000C94A2000C94A2000C94A20054
S11300A00C94A2000C94A2000C94A2000C94A20044
S11300B00C94A2000C94A2000C94A2000C94A20034
S11300C00C94A2000C94A2000C94A2000C94A20024
S11300D00C94A2000C94E2050C94A2000C94A200CF
S11300E00C94A2000C94A2000C94A2000C94A20004
S11300F00C94A200C904D304DD04E704F104FA0457
S11301001A051E052F0511241FBECFEFCDBFDFE753
S1130110DEBF19E4A0E0B0E4E4E4F7E100E00BBFE3
S113012002C007900D92AE35B107D9F72EE4AEE5C3
S1130130B9E401C01D92AB39B207E1F70E940A0687
S11301400C94A00B0C940000E0E0F4E08CE08183BC
S113015098E093878487E0E0F9E081E08383168266
S11301608583E0E8F4E082E081838483089590E06D
S1130170880F991F862B809307098091050985FDB7
S11301800DC08091050982FD09C08091050983FD98
S113019005C0809105098370833079F708950F9322
S11301A01F93CF938B01C42F61E00E94B70090E0AE
S11301B01DC08091050985FD0DC08091050982FD52
S11301C009C08091050983FD05C0809105098370EC
S11301D0833079F7F801E90FF11D809108098083D4
S11301E09F5FC91719F082E0809304099C1708F3F4
S11301F087E080930409CF911F910F910895CF93C5
S1130200C62F60E00E94B700C093080980910509D9
S113021085FD0DC08091050982FD09C08091050905
S113022083FD05C0809105098370833079F780913F
S1130230050984FF04C080ED94E40E94BC08E0E05A
S1130240F9E0848183608483CF91089561EE88E32B
S11302500E94FF002FE58AEE90E0215080409040FC
S1130260E1F700C000006AEB88E30E94FF008FE121
S11302709EE40197F1F700C0000008950F97BC01B8
S113028080E090E00E94340720E030E040E05FE34B
S11302900E9427060E9405076E3118F0603518F495
S11302A003C06EE101C06FE4862F90E00895CF9300
S11302B0C0E039C08C2F90E0FC01EE0FFF1F8E0FC1
S11302C09F1FFC01E254FB4B8081823059F5C13001
S11302D079F028F0C230A9F0C330E1F023C0809156
S11302E0CF499091D0490E943E018093280A1AC0B8
S11302F08091CF499091D0490E943E0180932A0A6F
S113030011C08091CF499091D0490E943E018093C1
S1130310290A08C08091CF499091D0490E943E019A
S113032080932B0ACF5FC43028F2CF910895CF93E6
S1130330DF93CDB7DEB72697CDBFDEBF6CEA88E387
S11303400E94FF002FE58AEE90E02150804090400B
S1130350E1F700C0000046E0BE016F5F7F4F88E315
S11303600E94CF006C816F70862F90E0A0E0B0E017
S1130370BA2FA92F982F88272D81822BBA2FA92F26
S1130380982F88272E81BC01CD01622B0E9434074F
S113039020E030E048E453E40E94C20720E030E06B
S11303A040E855E30E94C2070E9405078EEC860FC1
S11303B02696CDBFDEBFDF91CF9108958CE399E4FB
S11303C00E94BC088CE399E40E94BC088CE399E485
S11303D00E94BC088DED94E40E94BC088AEE94E46B
S11303E00E94BC088CE399E40E94BC088EEF94E45C
S11303F00E94BC0808958091634980FF10C081E089
S11304008093BE441092280A82E295E49F938F93CE
S11304100E94A8080E94DE010F900F90089581FFAA
S113042010C081E08093C14410922A0A8BE395E4C2
S11304309F938F930E94A8080E94DE010F900F9053
S1130440089582FF10C081E08093C4441092290A69
S113045084E595E49F938F930E94A8080E94DE018F
S11304600F900F90089583FF0FC081E08093C744DD
S113047010922B0A8DE695E49F938F930E94A8080F
S11304800E94DE010F900F90089590E0FC01EE0FA2
S1130490FF1FE80FF91FE254FB4B22E02083019673
S11304A09F938F9386E895E49F938F930E94A80867
S11304B00E94DE010F900F900F900F90089580918D
S11304C0634980FF0DC01092BE44809168498093B7
S11304D0280A81EA95E40E94BC080E94DE0108957E
S11304E081FF11C01092C1448091684980932A0A07
S11304F08FEB95E49F938F930E94A8080E94DE01DE
S11305000F900F90089582FF11C01092C4448091FF
S113051068498093290A8BED95E49F938F930E94F9
S1130520A8080E94DE010F900F90089583FF10C069
S11305301092C7448091684980932B0A87EF95E411
S11305409F938F930E94A8080E94DE010F900F9042
S1130550089583E196E40E94BC088CE399E40E9428
S1130560BC0885E296E40E94BC080895FF920F93AC
S11305701F93CF93DF93F12C30C0CF2DD0E08E01A9
S11305800F5F1F4FCE01880F991FC80FD91FC25488
S1130590DB4B8A818F9389818F931F930F9386E41A
S11305A096E49F938F930E94A808E881F0E0EE0FF1
S11305B0FF1FE653FB4B81818F9380818F931F93A1
S11305C00F9387E596E49F938F930E94A808F39472
S11305D08DB79EB70C968DBF9EBF93E09F1568F6AE
S11305E00E949701282F30E02093CF493093D049BF
S11305F01F928F938AE696E49F938F930E94A80894
S11306000E94DE010F900F900F900F90DF91CF9119
S11306101F910F91FF900895CF938EE796E40E9467
S1130620BC088AE896E40E94BC0885EA96E49F9395
S11306308F930E94A8080F900F90C0E01AC08C2FCF
S113064090E001969F938F9384EB96E49F938F930E
S11306500E94A8080F900F900F900F90C33041F0A4
S11306608AEB96E49F938F930E94A8080F900F90B3
S1130670CF5FC43020F38CE399E40E94BC08CF918F
S113068008950F931F93CF938C01C0E00CC084E6B0
S1130690C89FB0011124625F7F4BC8010E94970874
S11306A0892B29F0CF5FCC3090F38FEF01C08C2FD2
S11306B0CF911F910F9108959091640895FFFCCFFD
S11306C08093620808950E945C0380E090E008959E
S11306D0CF93809164088823E4F7C09160088C2F3D
S11306E00E945C038C2FCF910895E0E2F4E081E056
S11306F0818382E08283E0E6F8E0858180688583F7
S113070083E896E0808791878681806C868380E089
S113071090E48093974E9093984E08958BE1809344
S11307206104089583E08093E605E0E0FAE091E057
S1130730938393E391839FE996A397A310A611A6AD
S113074012A613A680830895E0E2F4E080818F7EF0
S1130750808384898860848BE0E0FBE085E080838B
S113076084E0818381E0858391E49483E0E0F2E096
S11307709CE4908B86AF0895E0E2F4E080818F7D65
S1130780808385898860858BE0E1FBE085E0808358
S113079084E0818381E0858381E484838DE4809394
S11307A0110282E0809340020895E0E4F1E081E0E8
S11307B08083878399E4908B828B08951F920F9294
S11307C00FB60F9211248F939F938091DF499091DC
S11307D0E04901968093DF499093E04981E080935A
S11307E053019F918F910F900FBE0F901F901895FA
S11307F01F920F920FB60F9211240BB60F922F93E4
S11308003F938F93AF93BF93EF93FF93A0E0BBE02D
S113081081E016968C93169780916049E82FF0E05A
S11308201C962D913C911D97EE0FFF1FE35CF34B3B
S1130830208331838F5F80936049FF91EF91BF9153
S1130840AF918F913F912F910F900BBE0F900FBEE0
S11308500F901F9018951F920F920FB60F921124AC
S11308600BB60F922F933F938F93AF93BF93EF9356
S1130870FF93A0E1BBE081E016968C9316978091DC
S11308805F49E82FF0E01C962D913C911D97EE0FE7
S1130890FF1FEB51F64B208331838F5F80935F49B9
S11308A0FF91EF91BF91AF918F913F912F910F9055
S11308B00BBE0F900FBE0F901F9018950F931F93B0
S11308C09C01062F90E040E050E0BA010EC0E92FF1
S11308D0F0E0EE0FFF1FE20FF31F0190F081E02D17
S11308E04E0F5F1F611D711D9F5F901780F310E015
S11308F020E030E0CB01BA01A90198010E942F0841
S1130900C9011F910F9108956CE28DE39CE40E944C
S11309105E04880F991F880F991F880F991F9C01E7
S113092040E050E060E07CE18EE49EE00E945108EB
S1130930C90108956CE285EE99E40E945E04880F73
S1130940991F880F991F9C0140E050E060E07CE112
S11309508EE49EE00E945108C9010895CF93DF936D
S11309609B019091D149992349F08DEB96E49F9393
S11309708F930E94A8080F900F90E5C0482F50E075
S11309804930510508F072C0FA01E658FF4F0C9443
S1130990700885ED96E40E94BC080E94A90281E0DB
S11309A080936349D0C08DEE96E40E94BC080E94F7
S11309B0A90282E080936349C6C085E097E40E945F
S11309C0BC080E94A90284E080936349BCC08DE105
S11309D097E40E94BC080E94A90288E080936349BE
S11309E0B2C085E397E40E94BC081092D4490E94E7
S11309F0FB01A9C08CE497E40E94BC0886E697E456
S1130A000E94BC088CE797E40E94BC0881E08093B4
S1130A10D44999C08091634990E00C2E02C0959509
S1130A2087950A94E2F780FF03C08C2F0E94450249
S1130A30CF5F01C0C0E0C43068F385C082EB97E4A7
S1130A400E94BC080E948404CEEBD4E489839A8378
S1130A500E949A048C839D830E94B60274C08EEC1B
S1130A6097E40E94BC080E940C036DC09091D44985
S1130A70992309F464C08A3089F08B30E1F089301D
S1130A8039F58CEE97E40E94BC0883E290E08093F1
S1130A906849909369490E945F0255C083E098E4D5
S1130AA00E94BC0881E490E080936849909369496E
S1130AB00E945F0248C08DE198E40E94BC088FE464
S1130AC090E080936849909369490E945F023BC01B
S1130AD0C9010E9479088093DC499093DD498536E9
S1130AE0910540F5BC0180E090E00E94340720E0CD
S1130AF030E048EC52E40E94930620E030E04EE9F6
S1130B0052E40E94C2070E940507D62FC72F7F9385
S1130B106F9386E199E49F938F930E94A808D093E2
S1130B206849C09369490E945F020F900F900F902B
S1130B300F9009C085E398E40E94BC0804C08FE5C7
S1130B4098E40E94BC08DF91CF910895CF93DF937E
S1130B50CDB7DEB7C456D109CDBFDEBF0E9468034E
S1130B608A3089F08D3079F090915E49933658F44B
S1130B7021E0290F20935E49E1E0F0E0EC0FFD1F36
S1130B80E90FF11D80838D3011F08A30A1F480913A
S1130B905E49E1E0F0E0EC0FFD1FE80FF11D10826B
S1130BA010925E49CE0101960E944103BE016F5F1F
S1130BB07F4F0E94AE04CC59DF4FCDBFDEBFDF9123
S1130BC0CF9108951F920F920FB60F9211240BB676
S1130BD00F922F933F934F935F936F937F938F93D2
S1130BE09F93AF93BF93EF93FF930E94A605FF914A
S1130BF0EF91BF91AF919F918F917F916F915F9191
S1130C004F913F912F910F900BBE0F900FBE0F90FD
S1130C101F9018950E94750378940E948E030E9479
S1130C2092030E94A4030E94BC030E94A4000E9499
S1130C3026010E94D5030E94DE010E9457018FE025
S1130C4097E20197F1F700C00000F7CF5058BB2797
S1130C50AA270E943E060C9488070E947A0738F05F
S1130C600E94810720F039F49F3F19F426F40C9474
S1130C7077070EF4E095E7FB0C947107E92F0E94C7
S1130C80990758F3BA17620773078407950720F08A
S1130C9079F4A6F50C94BB070EF4E0950B2EBA2F4D
S1130CA0A02D0B01B90190010C01CA01A00111246E
S1130CB0FF27591B99F0593F50F4503E68F11A161A
S1130CC0F040A22F232F342F4427585FF3CF4695AB
S1130CD037952795A795F0405395C9F77EF41F16CD
S1130CE0BA0B620B730B840BBAF09150A1F0FF0F97
S1130CF0BB1F661F771F881FC2F70EC0BA0F621F83
S1130D00731F841F48F4879577956795B795F79572
S1130D109E3F08F0B0CF9395880F08F09927EE0F07
S1130D209795879508950E94A7060C9488070E94BA
S1130D30810758F00E947A0740F029F45F3F29F0B8
S1130D400C94710751110C94BC070C9477070E9402
S1130D50990768F39923B1F3552391F3951B550B28
S1130D60BB27AA2762177307840738F09F5F5F4F7A
S1130D70220F331F441FAA1FA9F335D00E2E3AF0B9
S1130D80E0E832D091505040E695001CCAF72BD0D1
S1130D90FE2F29D0660F771F881FBB1F2617370722
S1130DA04807AB07B0E809F0BB0B802DBF01FF2754
S1130DB093585F4F3AF09E3F510578F00C947107B9
S1130DC00C94BC075F3FE4F3983ED4F38695779583
S1130DD06795B795F7959F5FC9F7880F911D96950D
S1130DE0879597F90895E1E0660F771F881FBB1F69
S1130DF0621773078407BA0720F0621B730B840B16
S1130E00BA0BEE1F88F7E09508950E94A10788F0B9
S1130E109F5798F0B92F9927B751B0F0E1F0660FBA
S1130E20771F881F991F1AF0BA95C9F714C0B130FB
S1130E3091F00E94BB07B1E008950C94BB07672FA3
S1130E40782F8827B85F39F0B93FCCF3869577952A
S1130E506795B395D9F73EF4909580957095619513
S1130E607F4F8F4F9F4F0895E89409C097FB3EF43E
S1130E7090958095709561957F4F8F4F9F4F9923E3
S1130E80A9F0F92F96E9BB279395F6958795779561
S1130E906795B795F111F8CFFAF4BB0F11F460FF21
S1130EA01BC06F5F7F4F8F4F9F4F16C0882311F079
S1130EB096E911C0772321F09EE8872F762F05C08D
S1130EC0662371F096E8862F70E060E02AF09A9528
S1130ED0660F771F881FDAF7880F9695879597F91D
S1130EE0089597F99F6780E870E060E008959FEFA8
S1130EF080EC089500240A941616170618060906AD
S1130F00089500240A94121613061406050608957B
S1130F10092E0394000C11F4882352F0BB0F40F403
S1130F20BF2B11F460FF04C06F5F7F4F8F4F9F4F43
S1130F30089557FD9058440F551F59F05F3F71F0C5
S1130F404795880F97FB991F61F09F3F79F087952C
S1130F500895121613061406551FF2CF4695F1DFB5
S1130F6008C0161617061806991FF1CF8695710545
S1130F70610508940895E894BB2766277727CB0179
S1130F8097F908950E94D5070C9488070E947A0760
S1130F9038F00E94810720F0952311F00C9471071A
S1130FA00C94770711240C94BC070E94990770F3E2
S1130FB0959FC1F3950F50E0551F629FF001729FFA
S1130FC0BB27F00DB11D639FAA27F00DB11DAA1F09
S1130FD0649F6627B00DA11D661F829F2227B00D56
S1130FE0A11D621F739FB00DA11D621F839FA00DE1
S1130FF0611D221F749F3327A00D611D231F849F31
S1131000600D211D822F762F6A2F11249F57504087
S11310109AF0F1F088234AF0EE0FFF1FBB1F661F02
S1131020771F881F91505040A9F79E3F510580F0CB
S11310300C9471070C94BC075F3FE4F3983ED4F31F
S1131040869577956795B795F795E7959F5FC1F76F
S1131050FE2B880F911D9695879597F90895A1E227
S11310601A2EAA1BBB1BFD010DC0AA1FBB1FEE1F1E
S1131070FF1FA217B307E407F50720F0A21BB30B69
S1131080E40BF50B661F771F881F991F1A9469F7E5
S113109060957095809590959B01AC01BD01CF0141
S11310A00895052E97FB1EF400940E94680857FDCE
S11310B007D00E942F0807FC03D04EF40C94680854
S11310C050954095309521953F4F4F4F5F4F089570
S11310D090958095709561957F4F8F4F9F4F0895A0
S11310E0EE0FFF1F0024001C0BBE0790F691E02DAD
S11310F00994FC0188279927E89421912032E9F387
S1131100293010F02E30C8F32B3241F02D3239F44F
S1131110689404C00E94A008820F911D219120535D
S11311202A30C0F31EF4909581959F4F0895FB01DA
S1131130DC018D91019080190110D9F3990B089568
S11311407AE0979F902D879F802D910D112408950B
S1131150CF93DF93CDB7DEB7AE014B5F5F4FFA019C
S113116061917191AF018091974E9091984E0E9438
S1131170EC08DF91CF9108950F931F93CF93DF93E2
S1131180E091974EF091984E238121FF1BC08C0172
S1131190D0E0C0E0F80181918F016091974E709189
S11311A0984EDB011896ED91FC911997882331F044
S11311B00995892B79F3DFEFCFEFECCF8AE009951E
S11311C0892B19F08FEF9FEF02C08D2F9C2FDF9199
S11311D0CF911F910F9108952F923F924F925F925A
S11311E06F927F928F929F92AF92BF92CF92DF9233
S11311F0EF92FF920F931F93CF93DF93CDB7DEB798
S11312002B97CDBFDEBF6C017B018A01FC011682E6
S11312101782838181FFCCC1CE0101963C01F60186
S11312209381F70193FD859193FF81917F01882339
S113123009F4BAC1853239F493FD859193FF819104
S11312407F01853229F4B60190E00E94060BE7CFB6
S1131250912C212C312CFFE1F315D8F08B3279F04D
S113126038F4803279F08332A1F4232D20611DC03B
S11312708D3261F0803369F4232D216016C0832DF3
S11312808260382EE32DE4603E2E2AC0F32DF860F0
S11312901DC037FC2DC020ED280F2A3040F08E32BF
S11312A0B9F436FC81C1232D2064322E19C036FED8
S11312B006C08AE0989E200D1124922E11C0EAE007
S11312C02E9E200D1124222EF32DF0623F2E08C0F5
S11312D08C3621F4832D8068382E02C0883641F480
S11312E0F70193FD859193FF81917F018111B3CF24
S11312F0982F9F7D9554933028F40C5F1F4F9FE3E4
S113130099830DC0833631F0833771F0833509F04A
S113131059C021C0F801808189830E5F1F4F882442
S11313208394912C530113C02801F2E04F0E511CF9
S1131330F801A080B18036FE03C0692D70E002C0C0
S11313406FEF7FEFC5010E94FB0A4C018201F32D70
S1131350FF773F2E16C0280122E0420E511CF801EF
S1131360A080B18036FE03C0692D70E002C06FEF2B
S11313707FEFC5010E94F00A4C01F32DF0683F2E67
S1131380820133FC1BC0822D90E088169906B0F4CC
S1131390B60180E290E00E94060B2A94F4CFF50196
S11313A037FC859137FE81915F01B60190E00E9480
S11313B0060B21102A9421E0821A910881149104C9
S11313C071F7E8C0843611F0893641F5F80137FE2B
S11313D007C060817181828193810C5F1F4F08C0B7
S11313E060817181072E000C880B990B0E5F1F4FD3
S11313F0F32DFF763F2E97FF09C090958095709549
S113140061957F4F8F4F9F4FF0683F2E2AE030E069
S1131410A3010E94420B882E861845C0853731F4FB
S1131420232D2F7EB22E2AE030E025C0932D997F04
S1131430B92E8F36C1F018F4883579F0B5C08037ED
S113144019F0883721F0B0C0E92FE061BE2EB4FE58
S11314500DC0FB2DF460BF2E09C034FE0AC0292F35
S11314602660B22E06C028E030E005C020E130E05E
S113147002C020E132E0F801B7FE07C0608171814B
S1131480828193810C5F1F4F06C06081718180E06F
S113149090E00E5F1F4FA3010E94420B882E861816
S11314A0FB2DFF773F2E36FE0DC0232D2E7FA22E5F
S11314B0891458F434FE0BC032FC09C0832D8E7E8F
S11314C0A82E05C0B82CA32C03C0B82C01C0B92C7D
S11314D0A4FE0FC0FE01E80DF11D8081803321F4CC
S11314E09A2D997EA92E09C0A2FE06C0B394B39486
S11314F004C08A2D867809F0B394A3FC11C0A0FE21
S113150006C0B21488F4280C922C9B180EC0B21496
S113151060F4B60180E290E00E94060BB394F7CF2A
S1131520B21418F42B1802C0982C212CA4FE10C05D
S1131530B60180E390E00E94060BA2FE17C0A1FC56
S113154003C088E790E002C088E590E0B6010CC0D3
S11315508A2D867859F0A1FE02C08BE201C080E298
S1131560A7FC8DE2B60190E00E94060B891438F4C2
S1131570B60180E390E00E94060B9A94F7CF8A9418
S1131580F301E80DF11D8081B60190E00E94060B85
S11315908110F5CF222009F442CEB60180E290E01A
S11315A00E94060B2A94F6CFF6018681978102C029
S11315B08FEF9FEF2B96CDBFDEBFDF91CF911F91B1
S11315C00F91FF90EF90DF90CF90BF90AF909F90DE
S11315D08F907F906F905F904F903F902F900895E1
S11315E0FC010590615070400110D8F780959095EA
S11315F08E0F9F1F0895FC016150704001900110EF
S1131600D8F7809590958E0F9F1F08950F931F9381
S1131610CF93DF93FB01238121FD03C08FEF9FEF65
S11316202CC022FF16C04681578124813581421780
S1131630530744F4A081B1819D012F5F3F4F208364
S113164031838C93268137812F5F3F4F26833783E5
S113165014C08B01EC01FB010084F185E02D099598
S1131660892BE1F6D80116968D919C9117970196D6
S113167016968D939C931797CE01DF91CF911F916E
S11316800F910895FA01AA27283051F1203181F1F0
S1131690E8946F936E7F6E5F7F4F8F4F9F4FAF4F76
S11316A0B1E03ED0B4E03CD0670F781F891F9A1F89
S11316B0A11D680F791F8A1F911DA11D6A0F711D3D
S11316C0811D911DA11D20D009F468943F912AE049
S11316D0269F11243019305D3193DEF6CF01089531
S11316E0462F4770405D4193B3E00FD0C9F7F6CF62
S11316F0462F4F70405D4A3318F0495D31FD40522A
S1131700419302D0A9F7EACFB4E0A69597958795BF
S113171077956795BA95C9F700976105710508959E
S11317209B01AC010A2E069457954795379527954A
S1131730BA95C9F7620F731F841F951FA01D0895E2
S1071740F894FFCF47
S11317440000000200000000630300000000666162
S11317546E310000000000000000000000000000E2
S11317640000000000000000000000000000000071
S11317740000000000000000000000000000000061
S11317840000000000000000000000000000000051
S11317940000000000000000000000000000000041
S11317A40000000000000000000000000000000031
S11317B4000066616E3200000000000000000000BA
S11317C40000000000000000000000000000000011
S11317D40000000000000000000000000000000001
S11317E400000000000000000000000000000000F1
S11317F400000000000000000000000000000000E1
S113180400000000000000000000000000000000D0
S113181400000000000066616E3300000000000058
S113182400000000000000000000000000000000B0
S113183400000000000000000000000000000000A0
S11318440000000000000000000000000000000090
S11318540000000000000000000000000000000080
S11318640000000000000000000000000000000070
S11318740000000000000000000066616E340000F7
S11318840000000000000000000000000000000050
S11318940000000000000000000000000000000040
S11318A40000000000000000000000000000000030
S11318B40000000000000000000000000000000020
S11318C40000000000000000000000000000000010
S11318D400000000000000000000000000006F662B
S11318E4660000000000000000000000000000008A
S11318F400000000000000000000000000000000E0
S113190400000000000000000000000000000000CF
S113191400000000000000000000000000000000BF
S113192400000000000000000000000000000000AF
S1131934000000000000000000000000000000009F
S113194400006D616E75616C000000000000000011
S1131954000000000000000000000000000000007F
S1131964000000000000000000000000000000006F
S1131974000000000000000000000000000000005F
S1131984000000000000000000000000000000004F
S1131994000000000000000000000000000000003F
S11319A40000000000006175746F00000000000076
S11319B4000000000000000000000000000000001F
S11319C4000000000000000000000000000000000F
S11319D400000000000000000000000000000000FF
S11319E400000000000000000000000000000000EF
S11319F400000000000000000000000000000000DF
S1131A04000000000000000000006F766572766933
S1131A1465770000000000000000000000000000E2
S1131A2400000000000000000000000000000000AE
S1131A34000000000000000000000000000000009E
S1131A44000000000000000000000000000000008E
S1131A54000000000000000000000000000000007E
S1131A640000000000000000000000000000636F9C
S1131A746E74726F6C6C65720000000000000000EC
S1131A84000000000000000000000000000000004E
S1131A94000000000000000000000000000000003E
S1131AA4000000000000000000000000000000002E
S1131AB4000000000000000000000000000000001E
S1131AC4000000000000000000000000000000000E
S1131AD400006C6F770000000000000000000000AC
S1131AE400000000000000000000000000000000EE
S1131AF400000000000000000000000000000000DE
S1131B0400000000000000000000000000000000CD
S1131B1400000000000000000000000000000000BD
S1131B2400000000000000000000000000000000AD
S1131B340000000000006D656469756D000000001C
S1131B44000000000000000000000000000000008D
S1131B54000000000000000000000000000000007D
S1131B64000000000000000000000000000000006D
S1131B74000000000000000000000000000000005D
S1131B84000000000000000000000000000000004D
S1131B94000000000000000000006869676800009D
S1131BA4000000000000000000000000000000002D
S1131BB4000000000000000000000000000000001D
S1131BC4000000000000000000000000000000000D
S1131BD400000000000000000000000000000000FD
S1131BE400000000000000000000000000000000ED
S1131BF400000000000000000000000000000100DC
S1131C04000100000100000100004E4955495949F2
S1131C14746172676574204E41434B2000686F6D94
S1131C246573637265656E3A0D0054797065207747
S1131C34616E74656420616374696F6E0D00416C38
S1131C447465726E6174697665733A206F76657231
S1131C54766965772C20636F6E74726F6C6C657231
S1131C640D0066616E31206973206E6F7720696E92
S1131C74206D6F64653A206F66660066616E32207B
S1131C846973206E6F7720696E206D6F64653A20E6
S1131C946F66660066616E33206973206E6F772009
S1131CA4696E206D6F64653A206F66660066616EC6
S1131CB434206973206E6F7720696E206D6F6465BC
S1131CC43A206F66660066616E2564206973206E2F
S1131CD46F7720696E206D6F64653A204175746F67
S1131CE40066616E31206973206E6F7720696E20FF
S1131CF46D6F64653A204D616E75616C200D0066EC
S1131D04616E32206973206E6F7720696E206D6F67
S1131D1464653A204D616E75616C0066616E3320B2
S1131D246973206E6F7720696E206D6F64653A2045
S1131D344D616E75616C0066616E34206973206E4A
S1131D446F7720696E206D6F64653A204D616E75FE
S1131D54616C00547970652077616E746564206DDC
S1131D646F64650D00416C7465726E6174697665A7
S1131D74733A206F66662C206175746F2C206D6134
S1131D846E75616C0D0046616E2025642072706D61
S1131D943A2025640D0A0046616E2025642073747C
S1131DA46174653A2025730D0A0054656D7065727B
S1131DB461747572653A2025640D0A0D0A00436F37
S1131DC46E74726F6C6C65720D0053656C6563742C
S1131DD420776861742066616E20746F2063686183
S1131DE46E67650D00416C7465726E617469766525
S1131DF4733A200066616E2564002C2000446961F6
S1131E04676E6F73652069732072756E6E696E6791
S1131E14210D0A2000526563656976656420636F49
S1131E246D6D616E643A2066616E310D00526563B6
S1131E34656976656420636F6D6D616E643A2066CE
S1131E44616E320D00526563656976656420636F63
S1131E546D6D616E643A2066616E330D0052656384
S1131E64656976656420636F6D6D616E643A20669E
S1131E74616E340D00526563656976656420636F31
S1131E846D6D616E643A206F66660D00526563651C
S1131E946976656420636F6D6D616E643A206D616B
S1131EA46E75616C0D00547970652077616E74658C
S1131EB4642072706D206D6F64650D00416C7465EF
S1131EC4726E6174697665733A206C6F772C206D39
S1131ED4656469756D2C2068696768206F72206673
S1131EE4616E2073706565643A20302D3130302082
S1131EF40D00526563656976656420636F6D6D6179
S1131F046E643A206F766572766965770D00526562
S1131F1463656976656420636F6D6D616E643A20F0
S1131F24636F6E74726F6C6C65720D0052656365D9
S1131F346976656420636F6D6D616E643A206C6FBD
S1131F44770D00526563656976656420636F6D6D12
S1131F54616E643A206D656469756D0D0052656344
S1131F64656976656420636F6D6D616E643A20689B
S1131F746967680D00506C6561736520696E7365EB
S1131F84727420612076616C6964206475747920AC
S1131F946379636C652028302D313030290D007548
S1131FA46E6B6E6F776E20636F6D6D616E64200D62
S1131FB400446961676E6F7365207374617274653C
S1131FC47421200D004E756D626572206F66207257
S1131FD4656164696E67733A2025640D0A00476A73
S1131FE4656E6E6F6D736E6974742066616E2031F4
S1131FF43A2025640D0A00476A656E6E6F6D736E30
S11320046974742066616E20323A2025640D0A00D6
S11320146F6C642066616E20323A2025640D0A00D8
S113202450524F53454E542066616E20313A202558
S1132034640D0A0050524F53454E542066616E207D
S1132044323A2025640D0A005354415455532066F2
S1132054616E20313A2025640D0A005354415455CD
S1132064532066616E20323A2025640D0A00414CE7
S113207441524D2066616E20312121200D00414CD6
S113208441524D2066616E20322121200D004D41C4
S11120944E55414C004F4646004155544F00F6
S9030000FC
