S01200006D656E7973797374656D2E73726563B4
S11300000C9487000C94A6000C94A6000C94A600F3
S11300100C94A6000C94A6000C9458070C94A6000B
S11300200C94A6000C94A6000C94A6000C94A600B4
S11300300C94A6000C94A6000C949A070C94D10777
S11300400C94A6000C94A6000C94A6000C94A60094
S11300500C94A6000C94A6000C94A6000C94A60084
S11300600C94A6000C94A6000C94A6000C94A60074
S11300700C94A6000C94A6000C94A6000C94A60064
S11300800C94A6000C94A6000C94A6000C94A60054
S11300900C94A6000C94A6000C94A6000C94A60044
S11300A00C94A6000C94A6000C94A6000C94A60034
S11300B00C94A6000C94A6000C94A6000C94A60024
S11300C00C94A6000C94A6000C94A6000C94A60014
S11300D00C94A6000C9472070C94A6000C94A60031
S11300E00C94A6000C94A6000C94A6000C94A600F4
S11300F00C94A60062056C05760580058A059305B7
S1130100A305AC05C105E205E205E205C805112415
S11301101FBECFEFCDBFDFE7DEBF1AE4A0E0B0E43F
S1130120E6EBFBE100E00BBF02C007900D92A43D9B
S1130130B107D9F72CE4A4EDBAE401C01D92AF389D
S1130140B207E1F70E9408080C94D90D0C94000042
S1130150E0E0F4E08CE0818398E093878487E0E03A
S1130160F9E081E0838316828583E0E8F4E082E0AD
S113017081838483089590E0880F991F862B809350
S113018007098091050985FD0DC08091050982FD4F
S113019009C08091050983FD05C08091050983701C
S11301A0833079F70895CF93C62F60E00E94BB0097
S11301B0C09308098091050985FD0DC0809105094A
S11301C082FD09C08091050983FD05C08091050960
S11301D08370833079F7E0E0F9E08581848183607E
S11301E08483CF9108950F931F93CF938B01C42FD2
S11301F061E00E94BB0090E01DC08091050985FD6F
S11302000DC08091050982FD09C08091050983FD17
S113021005C0809105098370833079F7F801E90FEF
S1130220F11D8091080980839F5FC91719F082E04E
S1130230809304099C1708F387E080930409CF9105
S11302401F910F91089561EE88E30E94D3002FE57A
S11302508AEE90E0215080409040E1F700C0000019
S11302606AEB88E30E94D3008FE19EE40197F1F7E3
S113027000C0000008950F931F939C01062F90E087
S113028040E050E0BA010EC0E92FF0E0EE0FFF1F8E
S1130290E20FF31F0190F081E02D4E0F5F1F611DEF
S11302A0711D9F5F901780F310E020E030E0CB01D8
S11302B0BA01A90198010E945B0AC9011F910F911B
S11302C0089564E60E943B01880F991F880F991FC7
S11302D0880F991F9C0140E050E060E07CE18EE4CF
S11302E09EE00E947D0AC9010895CB97BC0180E07D
S11302F090E00E94600920E030E040E05FE30E946B
S113030053080E9431096E3118F0603518F403C0A7
S11303106EE101C06FE4862F90E008950F931F9360
S1130320CF93DF93C1E0D0E025C0FE01EE0FFF1FA5
S1130330EE0FFF1FEE0FFF1FEC0FFD1FE95DFA4BE1
S113034080818230B1F4FE01EE0FFF1FEE0FFF1F1C
S1130350EE0FFF1FEC0FFD1FE95DFA4B03811481C3
S11303608091DD4A9091DE4A0E947501F8018083F4
S113037091832196C530D105C4F2DF91CF911F91AD
S11303800F91089581E090E038C0FC01EE0FFF1F4B
S1130390E151F54B20813181FC01EE0FFF1FEE0F7F
S11303A0FF1FEE0FFF1FE80FF91FE95DFA4B2083D3
S11303B0232B91F4FC01EE0FFF1FEE0FFF1FEE0F36
S11303C0FF1FE80FF91FE95DFA4BA381B481278170
S11303D030852D933C9310C0FC01EE0FFF1FEE0FF0
S11303E0FF1FEE0FFF1FE80FF91FE95DFA4B0380B3
S11303F0F481E02D108211820196853091052CF252
S1130400089581E090E015C0FC01EE0FFF1FEE0F90
S1130410FF1FEE0FFF1FE80FF91FE95DFA4B208164
S1130420FC01EE0FFF1FE151F54B30E020833183D7
S113043001968530910544F30895CF93DF93CDB7AA
S1130440DEB72697CDBFDEBF6CEA88E30E94D300F7
S11304502FE58AEE90E0215080409040E1F700C003
S1130460000046E0BE016F5F7F4F88E30E94F30007
S11304706C816F70862F90E0A0E0B0E0BA2FA92FB6
S1130480982F88272D81822BBA2FA92F982F882760
S11304902E81BC01CD01622B0E94600920E030E076
S11304A048E453E40E94EE0920E030E040E855E3DC
S11304B00E94EE090E9431098EEC860F2696CDBF6C
S11304C0DEBFDF91CF9108954F925F926F927F923A
S11304D08F929F92AF92BF92CF92DF92EF92FF9250
S11304E00F931F93CF93DF93E0E0FAE08FE480A7AC
S11304F082A781A783A784E595E40E94E80A209156
S1130500ED4A3091EE4A8091ED4A9091EE4A821B79
S1130510930B0397C0F30091ED4A1091EE4AC0E0AB
S1130520D0E0812C912C5401C12CD12C760111C026
S113053081EC9BE40E946101C80ED91EE11CF11CF0
S113054089EF9AE40E946101880E991EA11CB11CD6
S113055021968091ED4A9091EE4A801B910B0B9766
S113056038F32E01612C712CC701B601A30192014D
S11305700E945B0A69017A01C501B401A3019201D9
S11305800E945B0A49015A01DF93CF9388E695E400
S11305909F938F930E94D40AB601C40110922A0A31
S11305A00F900F900F900F90DF91CF911F910F91AB
S11305B0FF90EF90DF90CF90BF90AF909F908F907F
S11305C07F906F905F904F900895861710F481E0AC
S11305D0089580E00895CF92DF92EF92FF926B012D
S11305E07C01BA0180E090E00E946009A7019601B5
S11305F00E94BF0820E030E048EC52E40E94EE097B
S11306000E943109862FFF90EF90DF90CF900895DC
S1130610CF92DF92EF92FF920F931F93CF93DF93CA
S11306200E946402C62ED72E082F192F7F936F9332
S113063081E895E49F938F930E94D40A1F930F93AC
S11306408AE995E49F938F930E94D40A8FE999E4F1
S11306500E94E80A8FE999E40E94E80AC091E54AF9
S1130660D091E64AE090E04AF090E14ADF93CF93DC
S113067083EB95E49F938F930E94D40ABE0180E09C
S113068090E00E9460094C2D5D2D0E94EB02D82F52
S1130690B70180E090E00E946009402F512F0E9432
S11306A0EB02C82F1F92DF9383EC95E49F938F9303
S11306B00E94D40A1F92CF9387ED95E49F938F9362
S11306C00E94D40AF09022456F2D8D2F0E94E502DE
S11306D0E82E6F2D8C2F0E94E502F82E6AE58D2FEF
S11306E00E94E502D82F6AE58C2F0E94E502C82FEC
S11306F01F92EF928BEE95E49F938F930E94D40AFE
S11307001F92FF928EEF95E49F938F930E94D40AD9
S11307108DB79EB74C968DBF9EBF91E0E91204C081
S113072081E196E40E94E80A81E0F81204C084E3BF
S113073096E40E94E80AD13021F487E596E40E9409
S1130740E80AC13021F487E596E40E94E80AC092E1
S11307502545D09226450093234510932445DF91E7
S1130760CF911F910F91FF90EF90DF90CF9008955C
S11307708FE999E40E94E80A8FE999E40E94E80A63
S11307808FE999E40E94E80A87E796E40E94E80A60
S113079084E896E40E94E80A8FE999E40E94E80A52
S11307A088E996E40E94E80A089581E090E028C070
S11307B02091D84A30E08217930709F5FC01EE0F27
S11307C0FF1FEE0FFF1FEE0FFF1F8E0F9F1FFC0179
S11307D0E95DFA4B81E08083A381B4811D921C9270
S11307E086818F9385818F9383EC96E49F938F9377
S11307F00E94D40A0F900F900F900F9004C001969E
S113080085309105ACF20E94B803089581E090E030
S113081016C02091D84A30E08217930779F4FC017E
S1130820EE0FFF1FEE0FFF1FEE0FFF1F8E0F9F1F18
S1130830FC01E95DFA4B82E0808304C001968530B7
S113084091053CF30E94B803089581E090E02BC029
S11308502091D84A30E08217930721F5FC01EE0F6E
S1130860FF1FEE0FFF1FEE0FFF1F8E0F9F1FFC01D8
S1130870E95DFA4B1082A381B4818091DB4A9091A7
S1130880DC4A8D939C9386818F9385818F938BED26
S113089096E49F938F930E94D40A0F900F900F9029
S11308A00F9004C001968530910594F20E94B8031C
S11308B0089586EF96E40E94E80A8FE999E40E947D
S11308C0E80A88E097E40E94E80A0895CF93DF934A
S11308D089E297E40E94E80A8FE999E40E94E80A11
S11308E080913045813029F0E7E2F5E482859385F3
S11308F002C080E090E09F938F9384E397E49F93FA
S11309008F930E94D40AC7E2D5E4E985F0E0CF01D1
S1130910880F991FE80FF91FE553F54B82818F93D8
S113092081818F9384E497E49F938F930E94D40AE8
S11309308A892DB73EB7285F3F4F2DBF3EBF813018
S113094019F08B899C8902C080E090E09F938F937B
S113095086E597E49F938F930E94D40AC7E2D5E477
S1130960EA89F0E0CF01880F991FE80FF91FE553DA
S1130970F54B82818F9381818F9386E697E49F93D1
S11309808F930E94D40A8B8D2DB73EB7285F3F4FBB
S11309902DBF3EBF813019F08C8D9D8D02C080E04B
S11309A090E09F938F9388E797E49F938F930E949F
S11309B0D40AC7E2D5E4EB8DF0E0CF01880F991F8C
S11309C0E80FF91FE553F54B82818F9381818F9353
S11309D088E897E49F938F930E94D40A8CA12DB743
S11309E03EB7285F3F4F2DBF3EBF813019F08DA128
S11309F09EA102C080E090E09F938F938AE997E4E0
S1130A009F938F930E94D40AE0914B45F0E0CF016D
S1130A10880F991FE80FF91FE553F54B82818F93D7
S1130A2081818F938AEA97E49F938F930E94D40ADB
S1130A300E941D02282F30E02093DD4A3093DE4AC5
S1130A401F928F938CEB97E49F938F930E94D40A09
S1130A508FE999E40E94E80A8FE999E40E94E80A80
S1130A600E94B8038DB79EB70C968DBF9EBFDF91D1
S1130A70CF9108958EEC97E40E94E80A8AED97E4FA
S1130A800E94E80A85EF97E40E94E80A0895CF934C
S1130A90DF939B019091DF4A992349F08EE198E41A
S1130AA09F938F930E94D40A0F900F901FC1482FD9
S1130AB050E04D30510508F085C0FA01E658FF4F6B
S1130AC00C949C0A86E398E40E94E80A0E94590464
S1130AD081E08093D84A0AC18EE498E40E94E80A2F
S1130AE00E94590482E08093D84A00C186E698E4C3
S1130AF00E94E80A0E94590483E08093D84AF6C011
S1130B008EE798E40E94E80A0E94590484E08093E6
S1130B10D84AECC086E998E40E94E80A1092E44AB4
S1130B200E94D503E3C08DEA98E40E94E80A87ECAA
S1130B3098E40E94E80A8DED98E40E94E80A81E0B6
S1130B408093E44AD3C083E199E40E94E80A1092B6
S1130B50E44A0E940604CAC08BE299E40E94E80AAF
S1130B6081EC9BE40E946101C7E2D5E48A879B87FC
S1130B7089EF9AE40E9461018B8B9C8B0E9466042E
S1130B80B5C087E499E40E94E80A0E943A05AEC021
S1130B9081E08093D74A85E699E49F938F930E94DE
S1130BA0D40A809122451F928F9381EA99E49F93FE
S1130BB08F930E94D40A0F900F900F900F900F9074
S1130BC00F9094C09091D74A9923A1F0C9010E9433
S1130BD0A50A809322451092D74A1F928F938DECD9
S1130BE099E49F938F930E94D40A0F900F900F90D3
S1130BF00F907CC09091E44A992309F473C08A3021
S1130C0089F08B30E1F0893039F589E09AE40E946B
S1130C10E80A83E290E08093DB4A9093DC4A0E94E6
S1130C20250464C080E29AE40E94E80A8CE390E020
S1130C308093DB4A9093DC4A0E94250457C08AE3E0
S1130C409AE40E94E80A8FE490E08093DB4A909350
S1130C50DC4A0E9425044AC0C9010E94A50A809367
S1130C60E94A9093EA4A9F938F9389EF95E49F937F
S1130C708F930E94D40A6091E94A7091EA4A0F90D6
S1130C800F900F900F906536710538F580E090E075
S1130C900E94600920E030E048EC52E40E94BF0862
S1130CA020E030E04EE952E40E94EE090E9431094E
S1130CB0D62FC72F7F936F9389EF95E49F938F93DC
S1130CC00E94D40AD093DB4AC093DC4A0E942504D4
S1130CD00F900F900F900F9009C082E59AE40E9444
S1130CE0E80A04C08CE79AE40E94E80ADF91CF91F5
S1130CF008950F931F93CF938C01C0E00CC084E63A
S1130D00C89FB0011124625F7F4BC8010E94C30ACF
S1130D10892B29F0CF5FCD3090F38FEF01C08C2F5A
S1130D20CF911F910F9108959091640895FFFCCF86
S1130D308093620808950E94940680E090E00895EC
S1130D40CF93809164088823E4F7C09160088C2FC6
S1130D500E9494068C2FCF910895E0E2F4E081E0A4
S1130D60818382E08283E0E6F8E085818068858380
S1130D7083E896E0808791878681806C868380E013
S1130D8090E480938B4C90938C4C0895CF93DF9395
S1130D90CDB7DEB7C456D109CDBFDEBF0E94A006D1
S1130DA08A3089F08D3079F09091D44A933658F492
S1130DB021E0290F2093D44AE1E0F0E0EC0FFD1F7D
S1130DC0E90FF11D80838D3011F08A30A1F48091F8
S1130DD0D44AE1E0F0E0EC0FFD1FE80FF11D1082B2
S1130DE01092D44ACE0101960E947906BE016F5F2B
S1130DF07F4F0E944705CC59DF4FCDBFDEBFDF9147
S1130E00CF9108958BE180936104089583E08093EA
S1130E10E605E0E0FAE093E3918321E02383918304
S1130E209FE496A310A697A311A612A613A68083E7
S1130E300895E0E2F4E080818F7E80838489886075
S1130E40848BE0E0FBE085E0808384E0818381E0C3
S1130E50858391E49483E0E0F2E09CE4908B86AF98
S1130E600895E0E2F4E080818F7D80838589886045
S1130E70858BE0E1FBE085E0808384E0818381E091
S1130E80858381E484838DE48093110282E08093DE
S1130E90400208958091021081FDFCCF0895E0E4A2
S1130EA0F1E081E08083878399E4908B828B0895BD
S1130EB01F920F920FB60F9211248F939F938091DC
S1130EC0ED4A9091EE4A01968093ED4A9093EE4A52
S1130ED081E0809353019F918F910F900FBE0F90EB
S1130EE01F9018951F920F920FB60F9211240BB6F4
S1130EF00F922F933F934F935F936F937F938F93AF
S1130F009F93AF93BF93EF93FF930E94C606FF9105
S1130F10EF91BF91AF919F918F917F916F915F916D
S1130F204F913F912F910F900BBE0F900FBE0F90DA
S1130F301F9018951F920F920FB60F9211240BB6A3
S1130F400F922F933F938F93AF93BF93EF93FF939E
S1130F50A0E0BBE081E016968C9316978091D64A68
S1130F60E82FF0E01C962D913C911D97EE0FFF1F8A
S1130F70EF53F44B208331838F5F8093D64A8436BA
S1130F8010F01092D64AFF91EF91BF91AF918F91DB
S1130F903F912F910F900BBE0F900FBE0F901F909B
S1130FA018951F920F920FB60F9211240BB60F9241
S1130FB02F933F938F93AF93BF93EF93FF93A0E14E
S1130FC0BBE081E016968C9316978091D54AE82F62
S1130FD0F0E01C962D913C911D97EE0FFF1FE750FA
S1130FE0F54B208331838F5F8093D54A843610F08C
S1130FF01092D54AFF91EF91BF91AF918F913F919C
S11310002F910F900BBE0F900FBE0F901F9018954D
S11310100E94AD0678940E9402070E9406070E946F
S113102019070E9431070E94A8000E9423010E9410
S11310304F070E944A0780910200909103000E948A
S1131040CC0D8093E54A9093E64A0E944A0780912A
S11310500000909101000E94CC0D8093E04A90938F
S1131060E14A0E94B8038091ED4A9091EE4A803D96
S1131070974079F40E94010281E08093DF4A0E9444
S113108008030E94C2011092DF4A1092ED4A1092A6
S1131090EE4A0E948E018FE097E20197F1F700C0BB
S11310A00000E1CF5058BB27AA270E946A080C947D
S11310B0B4090E94A60938F00E94AD0920F039F461
S11310C09F3F19F426F40C94A3090EF4E095E7FB72
S11310D00C949D09E92F0E94C50958F3BA176207B9
S11310E073078407950720F079F4A6F50C94E709B3
S11310F00EF4E0950B2EBA2FA02D0B01B90190012F
S11311000C01CA01A0011124FF27591B99F0593F72
S113111050F4503E68F11A16F040A22F232F342FBA
S11311204427585FF3CF469537952795A795F04008
S11311305395C9F77EF41F16BA0B620B730B840B1D
S1131140BAF09150A1F0FF0FBB1F661F771F881FD5
S1131150C2F70EC0BA0F621F731F841F48F487952D
S113116077956795B795F7959E3F08F0B0CF93951F
S1131170880F08F09927EE0F9795879508950E9498
S1131180D3080C94B4090E94AD0958F00E94A60932
S113119040F029F45F3F29F00C949D0951110C94FF
S11311A0E8090C94A3090E94C50968F39923B1F3D3
S11311B0552391F3951B550BBB27AA276217730779
S11311C0840738F09F5F5F4F220F331F441FAA1F0D
S11311D0A9F335D00E2E3AF0E0E832D091505040C9
S11311E0E695001CCAF72BD0FE2F29D0660F771F77
S11311F0881FBB1F261737074807AB07B0E809F05D
S1131200BB0B802DBF01FF2793585F4F3AF09E3FE1
S1131210510578F00C949D090C94E8095F3FE4F3C0
S1131220983ED4F3869577956795B795F7959F5F24
S1131230C9F7880F911D9695879597F90895E1E070
S1131240660F771F881FBB1F621773078407BA07CF
S113125020F0621B730B840BBA0BEE1F88F7E0952A
S113126008950E94CD0988F09F5798F0B92F9927C7
S1131270B751B0F0E1F0660F771F881F991F1AF07D
S1131280BA95C9F714C0B13091F00E94E709B1E0F2
S113129008950C94E709672F782F8827B85F39F0F1
S11312A0B93FCCF3869577956795B395D9F73EF416
S11312B090958095709561957F4F8F4F9F4F0895BE
S11312C0E89409C097FB3EF49095809570956195DC
S11312D07F4F8F4F9F4F9923A9F0F92F96E9BB2792
S11312E09395F695879577956795B795F111F8CF0E
S11312F0FAF4BB0F11F460FF1BC06F5F7F4F8F4F79
S11313009F4F16C0882311F096E911C0772321F06E
S11313109EE8872F762F05C0662371F096E8862F06
S113132070E060E02AF09A95660F771F881FDAF75D
S1131330880F9695879597F9089597F99F6780E8A0
S113134070E060E008959FEF80EC089500240A9413
S11313501616170618060906089500240A9412168C
S11313601306140605060895092E0394000C11F4BF
S1131370882352F0BB0F40F4BF2B11F460FF04C06C
S11313806F5F7F4F8F4F9F4F089557FD9058440FC5
S1131390551F59F05F3F71F04795880F97FB991FD0
S11313A061F09F3F79F0879508951216130614068D
S11313B0551FF2CF4695F1DF08C01616170618061A
S11313C0991FF1CF86957105610508940895E894F5
S11313D0BB2766277727CB0197F908950E94010A56
S11313E00C94B4090E94A60938F00E94AD0920F0BB
S11313F0952311F00C949D090C94A30911240C94C9
S1131400E8090E94C50970F3959FC1F3950F50E058
S1131410551F629FF001729FBB27F00DB11D639FA2
S1131420AA27F00DB11DAA1F649F6627B00DA11D48
S1131430661F829F2227B00DA11D621F739FB00DEE
S1131440A11D621F839FA00D611D221F749F33275E
S1131450A00D611D231F849F600D211D822F762FF7
S11314606A2F11249F5750409AF0F1F088234AF0D4
S1131470EE0FFF1FBB1F661F771F881F9150504040
S1131480A9F79E3F510580F00C949D090C94E8093E
S11314905F3FE4F3983ED4F3869577956795B795C7
S11314A0F795E7959F5FC1F7FE2B880F911D9695E1
S11314B0879597F90895A1E21A2EAA1BBB1BFD017B
S11314C00DC0AA1FBB1FEE1FFF1FA217B307E4071F
S11314D0F50720F0A21BB30BE40BF50B661F771F77
S11314E0881F991F1A9469F7609570958095909557
S11314F09B01AC01BD01CF010895052E97FB1EF49D
S113150000940E94940A57FD07D00E945B0A07FCCE
S113151003D04EF40C94940A50954095309521953F
S11315203F4F4F4F5F4F089590958095709561950B
S11315307F4F8F4F9F4F0895EE0FFF1F0024001C15
S11315400BBE0790F691E02D0994FC01882799279A
S1131550E89421912032E9F3293010F02E30C8F3B9
S11315602B3241F02D3239F4689404C00E94CC0A25
S1131570820F911D219120532A30C0F31EF49095BF
S113158081959F4F0895FB01DC018D910190801995
S11315900110D9F3990B08957AE0979F902D879FB6
S11315A0802D910D11240895CF93DF93CDB7DEB72D
S11315B0AE014B5F5F4FFA0161917191AF01809170
S11315C08B4C90918C4C0E94180BDF91CF91089515
S11315D00F931F93CF93DF93E0918B4CF0918C4C3E
S11315E0238121FF1BC08C01D0E0C0E0F801819170
S11315F08F0160918B4C70918C4CDB011896ED91AE
S1131600FC911997882331F00995892B79F3DFEF41
S1131610CFEFECCF8AE00995892B19F08FEF9FEF7C
S113162002C08D2F9C2FDF91CF911F910F910895B0
S11316302F923F924F925F926F927F928F929F92DE
S1131640AF92BF92CF92DF92EF92FF920F931F93CC
S1131650CF93DF93CDB7DEB72B97CDBFDEBF6C0141
S11316607B018A01FC0116821782838181FFCCC130
S1131670CE0101963C01F6019381F70193FD85911A
S113168093FF81917F01882309F4BAC1853239F42B
S113169093FD859193FF81917F01853229F4B601F1
S11316A090E00E94320DE7CF912C212C312CFFE1E8
S11316B0F315D8F08B3279F038F4803279F0833234
S11316C0A1F4232D20611DC08D3261F0803369F4B3
S11316D0232D216016C0832D8260382EE32DE46013
S11316E03E2E2AC0F32DF8601DC037FC2DC020ED1E
S11316F0280F2A3040F08E32B9F436FC81C1232DF4
S11317002064322E19C036FE06C08AE0989E200D51
S11317101124922E11C0EAE02E9E200D1124222EB7
S1131720F32DF0623F2E08C08C3621F4832D80689F
S1131730382E02C0883641F4F70193FD859193FF5A
S113174081917F018111B3CF982F9F7D9554933060
S113175028F40C5F1F4F9FE399830DC0833631F04B
S1131760833771F0833509F059C021C0F8018081B5
S113177089830E5F1F4F88248394912C530113C0D7
S11317802801F2E04F0E511CF801A080B18036FE12
S113179003C0692D70E002C06FEF7FEFC5010E94A6
S11317A0270D4C018201F32DFF773F2E16C028012F
S11317B022E0420E511CF801A080B18036FE03C025
S11317C0692D70E002C06FEF7FEFC5010E941C0D10
S11317D04C01F32DF0683F2E820133FC1BC0822D97
S11317E090E088169906B0F4B60180E290E00E9479
S11317F0320D2A94F4CFF50137FC859137FE81919F
S11318005F01B60190E00E94320D21102A9421E07C
S1131810821A91088114910471F7E8C0843611F09A
S1131820893641F5F80137FE07C0608171818281F4
S113183093810C5F1F4F08C060817181072E000CDB
S1131840880B990B0E5F1F4FF32DFF763F2E97FFEA
S113185009C090958095709561957F4F8F4F9F4FEC
S1131860F0683F2E2AE030E0A3010E946E0D882E1E
S1131870861845C0853731F4232D2F7EB22E2AE0F9
S113188030E025C0932D997FB92E8F36C1F018F41E
S1131890883579F0B5C0803719F0883721F0B0C0A9
S11318A0E92FE061BE2EB4FE0DC0FB2DF460BF2E07
S11318B009C034FE0AC0292F2660B22E06C028E0D3
S11318C030E005C020E130E002C020E132E0F80160
S11318D0B7FE07C060817181828193810C5F1F4FC5
S11318E006C06081718180E090E00E5F1F4FA3010C
S11318F00E946E0D882E8618FB2DFF773F2E36FE34
S11319000DC0232D2E7FA22E891458F434FE0BC053
S113191032FC09C0832D8E7EA82E05C0B82CA32CC2
S113192003C0B82C01C0B92CA4FE0FC0FE01E80D01
S1131930F11D8081803321F49A2D997EA92E09C04E
S1131940A2FE06C0B394B39404C08A2D867809F02D
S1131950B394A3FC11C0A0FE06C0B21488F4280CF2
S1131960922C9B180EC0B21460F4B60180E290E091
S11319700E94320DB394F7CFB21418F42B1802C09E
S1131980982C212CA4FE10C0B60180E390E00E94A4
S1131990320DA2FE17C0A1FC03C088E790E002C08C
S11319A088E590E0B6010CC08A2D867859F0A1FE36
S11319B002C08BE201C080E2A7FC8DE2B60190E098
S11319C00E94320D891438F4B60180E390E00E943D
S11319D0320D9A94F7CF8A94F301E80DF11D8081BA
S11319E0B60190E00E94320D8110F5CF222009F457
S11319F042CEB60180E290E00E94320D2A94F6CFE6
S1131A00F6018681978102C08FEF9FEF2B96CDBFA1
S1131A10DEBFDF91CF911F910F91FF90EF90DF9088
S1131A20CF90BF90AF909F908F907F906F905F907A
S1131A304F903F902F900895FC01059061507040A5
S1131A400110D8F7809590958E0F9F1F0895FC0183
S1131A506150704001900110D8F7809590958E0FD9
S1131A609F1F08950F931F93CF93DF93FB0123814F
S1131A7021FD03C08FEF9FEF2CC022FF16C04681CB
S1131A805781248135814217530744F4A081B181E1
S1131A909D012F5F3F4F208331838C9326813781B3
S1131AA02F5F3F4F2683378314C08B01EC01FB016A
S1131AB00084F185E02D0995892BE1F6D80116966D
S1131AC08D919C911797019616968D939C931797D9
S1131AD0CE01DF91CF911F910F910895FA01AA27AA
S1131AE0283051F1203181F1E8946F936E7F6E5F5D
S1131AF07F4F8F4F9F4FAF4FB1E03ED0B4E03CD00B
S1131B00670F781F891F9A1FA11D680F791F8A1FED
S1131B10911DA11D6A0F711D811D911DA11D20D054
S1131B2009F468943F912AE0269F11243019305D0E
S1131B303193DEF6CF010895462F4770405D4193FF
S1131B40B3E00FD0C9F7F6CF462F4F70405D4A334C
S1131B5018F0495D31FD4052419302D0A9F7EACF14
S1131B60B4E0A6959795879577956795BA95C9F743
S1131B7000976105710508959B01AC010A2E069436
S1131B805795479537952795BA95C9F7620F731FEF
S1131B90841F951FA01D08950E94D50D80819181F9
S1131BA0089503D0808199270895FC01E050FC4EEC
S1091BB00895F894FFCF34
S1131BB600000002000000009B06000000006661B1
S1131BC66E3100000000000000000000000000006C
S1131BD600000000000000000000000000000000FB
S1131BE600000000000000000000000000000000EB
S1131BF600000000000000000000000000000000DB
S1131C0600000000000000000000000000000000CA
S1131C1600000000000000000000000000000000BA
S1131C26000066616E320000000000000000000043
S1131C36000000000000000000000000000000009A
S1131C46000000000000000000000000000000008A
S1131C56000000000000000000000000000000007A
S1131C66000000000000000000000000000000006A
S1131C76000000000000000000000000000000005A
S1131C8600000000000066616E33000000000000E2
S1131C96000000000000000000000000000000003A
S1131CA6000000000000000000000000000000002A
S1131CB6000000000000000000000000000000001A
S1131CC6000000000000000000000000000000000A
S1131CD600000000000000000000000000000000FA
S1131CE60000000000000000000066616E34000081
S1131CF600000000000000000000000000000000DA
S1131D0600000000000000000000000000000000C9
S1131D1600000000000000000000000000000000B9
S1131D2600000000000000000000000000000000A9
S1131D360000000000000000000000000000000099
S1131D4600000000000000000000000000006F66B4
S1131D566600000000000000000000000000000013
S1131D660000000000000000000000000000000069
S1131D760000000000000000000000000000000059
S1131D860000000000000000000000000000000049
S1131D960000000000000000000000000000000039
S1131DA60000000000000000000000000000000029
S1131DB600006D616E75616C00000000000000009B
S1131DC60000000000000000000000000000000009
S1131DD600000000000000000000000000000000F9
S1131DE600000000000000000000000000000000E9
S1131DF600000000000000000000000000000000D9
S1131E0600000000000000000000000000000000C8
S1131E160000000000006175746F000000000000FF
S1131E2600000000000000000000000000000000A8
S1131E360000000000000000000000000000000098
S1131E460000000000000000000000000000000088
S1131E560000000000000000000000000000000078
S1131E660000000000000000000000000000000068
S1131E76000000000000000000006F7665727669BD
S1131E86657700000000000000000000000000006C
S1131E960000000000000000000000000000000038
S1131EA60000000000000000000000000000000028
S1131EB60000000000000000000000000000000018
S1131EC60000000000000000000000000000000008
S1131ED60000000000000000000000000000636F26
S1131EE66E74726F6C6C6572000000000000000076
S1131EF600000000000000000000000000000000D8
S1131F0600000000000000000000000000000000C7
S1131F1600000000000000000000000000000000B7
S1131F2600000000000000000000000000000000A7
S1131F360000000000000000000000000000000097
S1131F4600006C6F77000000000000000000000035
S1131F560000000000000000000000000000000077
S1131F660000000000000000000000000000000067
S1131F760000000000000000000000000000000057
S1131F860000000000000000000000000000000047
S1131F960000000000000000000000000000000037
S1131FA60000000000006D656469756D00000000A6
S1131FB60000000000000000000000000000000017
S1131FC60000000000000000000000000000000007
S1131FD600000000000000000000000000000000F7
S1131FE600000000000000000000000000000000E7
S1131FF600000000000000000000000000000000D7
S11320060000000000000000000068696768000026
S113201600000000000000000000000000000000B6
S113202600000000000000000000000000000000A6
S11320360000000000000000000000000000000096
S11320460000000000000000000000000000000086
S11320560000000000000000000000000000000076
S11320660000000000000000000000000000616C99
S113207661726D0000000000000000000000000016
S11320860000000000000000000000000000000046
S11320960000000000000000000000000000000036
S11320A60000000000000000000000000000000026
S11320B60000000000000000000000000000000016
S11320C60000000000000000000000000000000006
S11320D600005A703070300100000000A04A000071
S11320E6010000280AA74A00000100002A0AAC4A97
S11320F60000010000290AB14A00000100002B0A71
S1132106B64A0000446961676E6F73652073746133
S11321167274657421200D004E756D626572206FB0
S1132126662072656164696E67733A2025640D0AD8
S113213600476A656E6E6F6D736E697474206661AE
S11321466E20313A2025640D0A00476A656E6E6F6B
S11321566D736E6974742066616E20323A2025644C
S11321660D0A006F6C642066616E20323A20256485
S11321760D0A0050524F53454E542066616E20316D
S11321863A2025640D0A0050524F53454E5420669A
S1132196616E20323A2025640D0A00535441545589
S11321A6532066616E20313A2025640D0A0053548B
S11321B6415455532066616E20323A2025640D0A37
S11321C600414C41524D2066616E203121205479E4
S11321D670653A207765617220616E64207465616A
S11321E672200D00414C41524D2066616E20322111
S11321F620547970653A207765617220616E642097
S113220674656172200D00414C41524D2066616E29
S113221620312120547970653A206D6F6D656E7496
S11322266172696C790D00686F6D657363726565BB
S11322366E3A0D00547970652077616E746564207A
S1132246616374696F6E0D00416C7465726E6174BE
S1132256697665733A206F766572766965772C20A0
S1132266636F6E74726F6C6C65722C20616C617234
S11322766D0D002573206973206E6F7720696E20BB
S11322866D6F64653A206F66660A0025732069736C
S1132296206E6F7720696E206D6F64653A204D61FC
S11322A66E75616C0A00547970652077616E746589
S11322B664206D6F64650D00416C7465726E6174A3
S11322C6697665733A206F66662C206175746F2C87
S11322D6206D616E75616C0D004F56455256494529
S11322E657200D0046616E20312072706D3A20250C
S11322F6640D0A0046616E20312073746174653A78
S11323062025730D0A0046616E20322072706D3AE4
S11323162025640D0A0046616E20322073746174B0
S1132326653A2025730D0A0046616E2033207270CB
S11323366D3A2025640D0A0046616E2033207374BD
S11323466174653A2025730D0A0046616E203420B7
S113235672706D3A2025640D0A0046616E203420A1
S113236673746174653A2025730D0A0054656D70A3
S1132376657261747572653A2025640D0A00436FAF
S11323866E74726F6C6C65720D0053656C65637464
S113239620776861742066616E20746F20636861BB
S11323A66E67650D00416C7465726E61746976655D
S11323B6733A2066616E312C2066616E322C20667B
S11323C6616E33206F722066616E34200D0044699D
S11323D661676E6F73652069732072756E6E696EC0
S11323E667210D0A2000526563656976656420637A
S11323F66F6D6D616E643A2066616E310D005265D3
S113240663656976656420636F6D6D616E643A20F9
S113241666616E320D005265636569766564206394
S11324266F6D6D616E643A2066616E330D005265A0
S113243663656976656420636F6D6D616E643A20C9
S113244666616E340D005265636569766564206362
S11324566F6D6D616E643A206F66660D005265633A
S1132466656976656420636F6D6D616E643A206D8F
S1132476616E75616C0D00547970652077616E74B8
S113248665642072706D206D6F64650D00416C7417
S113249665726E6174697665733A206C6F772C2069
S11324A66D656469756D2C2068696768206F722094
S11324B666616E2073706565643A20302D31303064
S11324C6200D00526563656976656420636F6D6DE2
S11324D6616E643A206175746F0D005265636569B7
S11324E676656420636F6D6D616E643A206F766500
S11324F672766965770D0052656365697665642051
S1132506636F6D6D616E643A20636F6E74726F6C87
S11325166C65720D00547970652077616E7465641C
S113252620646576696174696F6E2070657263658F
S11325366E7461676520666F7220776561722061CB
S11325466E64207465617220616C61726D200A0D7F
S11325560043757272656E7420616C61726D2064DD
S11325666576696174696F6E2070657263656E74F1
S11325766167652069733A2025640A0D00776561F1
S11325867220616E64207465617220616C61726D83
S1132596206465766174696F6E2070657263656E1A
S11325A674616765206973206368616E676564207A
S11325B6746F3A2025640A0D005265636569766571
S11325C66420636F6D6D616E643A206C6F770D00E5
S11325D6526563656976656420636F6D6D616E64CB
S11325E63A206D656469756D0D005265636569769B
S11325F6656420636F6D6D616E643A20686967680F
S11326060D00506C6561736520696E736572742084
S1132616612076616C6964206475747920637963DA
S11326266C652028302D313030290D00756E6B6EA7
S11326366F776E20636F6D6D616E64200D00486563
S11326467220736B72657665743A2025640D0A00F0
S1132656756E757365640066616E310066616E320F
S11326660066616E330066616E34004D414E55411D
S11326764C004F4646004155544F0000BB4A01C228
S10726864A02C64AF0
S9030000FC
