S01200006D656E7973797374656D2E73726563B4
S11300000C9487000C94A6000C94A6000C94A600F3
S11300100C94A6000C94A6000C9409050C94A6005C
S11300200C94A6000C94A6000C94A6000C94A600B4
S11300300C94A6000C94A6000C9423050C945A0569
S11300400C94A6000C94A6000C94A6000C94A60094
S11300500C94A6000C94A6000C94A6000C94A60084
S11300600C94A6000C94A6000C94A6000C94A60074
S11300700C94A6000C94A6000C94A6000C94A60064
S11300800C94A6000C94A6000C94A6000C94A60054
S11300900C94A6000C94A6000C94A6000C94A60044
S11300A00C94A6000C94A6000C94A6000C94A60034
S11300B00C94A6000C94A6000C94A6000C94A60024
S11300C00C94A6000C94A6000C94A6000C94A60014
S11300D00C94A6000C9483080C94A6000C94A6001F
S11300E00C94A6000C94A6000C94A6000C94A600F4
S11300F00C94A60032073C07460750075A076307CB
S113010073077C078F07B007B007B0079607112461
S11301101FBECFEFCDBFDFE7DEBF1BE4A0E0B0E43E
S1130120E4E3FDE100E00BBF02C007900D92AA39A1
S1130130B107D9F72DE4AAE9BBE401C01D92AC3B99
S1130140B207E1F70E94AB080C94980E0C940000DF
S1130150E0E0F4E08CE0818398E093878487E0E03A
S1130160F9E081E0838316828583E0E8F4E082E0AD
S113017081838483089590E0880F991F862B809350
S113018007098091050985FD0DC08091050982FD4F
S113019009C08091050983FD05C08091050983701C
S11301A0833079F70895CF93C62F60E00E94BB0097
S11301B0C09308098091050985FD0DC0809105094A
S11301C082FD09C08091050983FD05C08091050960
S11301D08370833079F7E0E0F9E08581848183607E
S11301E08483CF9108950F931F93CF938B01C42FD2
S11301F061E00E94BB0090E01DC08091050985FD6F
S11302000DC08091050982FD09C08091050983FD17
S113021005C0809105098370833079F7F801E90FEF
S1130220F11D8091080980839F5FC91719F082E04E
S1130230809304099C1708F387E080930409CF9105
S11302401F910F91089561EE88E30E94D3002FE57A
S11302508AEE90E0215080409040E1F700C0000019
S11302606AEB88E30E94D3008FE19EE40197F1F7E3
S113027000C000000895CB97BC0180E090E00E948C
S11302801F0A20E030E040E05FE30E9412090E9470
S1130290F0096E3118F0603518F403C06EE101C046
S11302A06FE4862F90E00895809133459091344512
S11302B0029741F480910C4C90910D4C0E943B01AB
S11302C08093280A80912F4590913045029741F4FC
S11302D080910C4C90910D4C0E943B0180932A0A12
S11302E080912B4590912C45029741F480910C4CC0
S11302F090910D4C0E943B018093290A80912745DF
S113030090912845029741F480910C4C90910D4CAA
S11303100E943B0180932B0A08958091224C909176
S1130320234C8130910549F481E090E0809333457A
S1130330909334451092280A10C08230910539F404
S113034082E090E0809333459093344506C0892B36
S113035021F4109233451092344580911B4C9091B6
S11303601C4C8130910549F481E090E080932F4545
S11303709093304510922A0A10C08230910539F4C6
S113038082E090E080932F459093304506C0892BFE
S113039021F410922F45109230458091114C909188
S11303A0124C8130910549F481E090E080932B4513
S11303B090932C451092290A10C08230910539F48B
S11303C082E090E080932B4590932C4506C0892BC6
S11303D021F410922B4510922C458091A14B9091C1
S11303E0A24B8130910549F481E090E08093274548
S11303F09093284510922B0A08958230910539F480
S113040082E090E080932745909328450895892BB6
S113041021F4109227451092284508958091334580
S1130420909134458093224C9093234C80912F4596
S11304309091304580931B4C90931C4C80912B459C
S113044090912C458093114C9093124C80912745A8
S1130450909128458093A14B9093A24B0895CF93FC
S1130460DF93CDB7DEB72697CDBFDEBF6CEA88E356
S11304700E94D3002FE58AEE90E021508040904006
S1130480E1F700C0000046E0BE016F5F7F4F88E3E4
S11304900E94F3006C816F70862F90E0A0E0B0E0C2
S11304A0BA2FA92F982F88272D81822BBA2FA92FF5
S11304B0982F88272E81BC01CD01622B0E941F0A30
S11304C020E030E048E453E40E94AD0A20E030E04C
S11304D040E855E30E94AD0A0E94F0098EEC860FB5
S11304E02696CDBFDEBFDF91CF910895861710F415
S11304F081E0089580E00895CF92DF92EF92FF9219
S11305006B017C01BA0180E090E00E941F0AA70100
S113051096010E947E0920E030E048EC52E40E94FB
S1130520AD0A0E94F009862FFF90EF90DF90CF90E4
S113053008958CE79AE40E94A70B8CE79AE40E9442
S1130540A70B8CE79AE40E94A70B8DE395E40E9425
S1130550A70B8AE495E40E94A70B8CE79AE40E9417
S1130560A70B8EE595E40E94A70B08958091A04BFC
S113057080FF13C081E090E080933345909334452D
S11305801092280A89E895E49F938F930E94930B15
S11305900E9499020F900F90089581FF13C081E08B
S11305A090E080932F459093304510922A0A82EA76
S11305B095E49F938F930E94930B0E9499020F904E
S11305C00F90089582FF13C081E090E080932B4543
S11305D090932C451092290A8BEB95E49F938F936B
S11305E00E94930B0E9499020F900F90089583FF2D
S11305F012C081E090E080932745909328451092A3
S11306002B0A84ED95E49F938F930E94930B0E9491
S113061099020F900F9008958091A04B80FF11C014
S113062082E090E080933345909334458DEE95E4D9
S11306309F938F930E94930B0E9499020F900F90A7
S1130640089581FF11C082E090E080932F4590933C
S1130650304587E096E49F938F930E94930B0E940A
S113066099020F900F90089582FF11C082E090E0EC
S113067080932B4590932C4581E296E49F938F932E
S11306800E94930B0E9499020F900F90089583FF8C
S113069010C082E090E080932745909328458BE337
S11306A096E49F938F930E94930B0E9499020F905C
S11306B00F9008958091A04B80FF0FC01092334596
S11306C0109234458091A54B8093280A85E596E4E1
S11306D00E94A70B0E949902089581FF13C01092F3
S11306E02F45109230458091A54B80932A0A83E7C9
S11306F096E49F938F930E94930B0E9499020F900C
S11307000F90089582FF13C010922B4510922C4530
S11307108091A54B8093290A8FE896E49F938F9349
S11307200E94930B0E9499020F900F90089583FFEB
S113073012C010922745109228458091A54B8093B2
S11307402B0A8BEA96E49F938F930E94930B0E944B
S113075099020F900F90089587EC96E40E94A70BDE
S11307608CE79AE40E94A70B89ED96E40E94A70BFC
S11307700895CF93DF938AEF96E40E94A70B8CE74A
S11307809AE40E94A70BC3E3D5E48B818F938A81FB
S11307908F9385E097E49F938F930E94930BE88156
S11307A0F981EE0FFF1FE95CFA4B81818F93808101
S11307B08F9385E197E49F938F930E94930BCFE2ED
S11307C0D5E48B818F938A818F9387E297E49F93FB
S11307D08F930E94930BE881F981EE0FFF1FE95C70
S11307E0FA4B81818F9380818F9387E397E49F9362
S11307F08F930E94930BCBE2D5E48B818F938A81F4
S11308008F9389E497E49F938F930E94930BE881DD
S1130810F981EE0FFF1FE95CFA4B81818F93808190
S11308208F9389E597E49F938F930E94930BC7E27C
S1130830D5E48B818F938A818F938BE697E49F9382
S11308408F930E94930BE881F981EE0FFF1FE95CFF
S1130850FA4B81818F9380818F938BE797E49F93E9
S11308608F930E94930B8DB79EB780968DBF9EBFCA
S11308700E942F02282F30E020930C4C30930D4C13
S11308801F928F938DE897E49F938F930E94930B0D
S11308908CE79AE40E94A70B8CE79AE40E94A70BCA
S11308A00E9499020F900F900F900F90DF91CF91BB
S11308B008958FE997E40E94A70B8BEA97E40E94BE
S11308C0A70B86EC97E40E94A70B08950F931F9340
S11308D0CF938C01C0E00CC084E6C89FB001112402
S11308E0625F7F4BC8010E94820B892B29F0CF5F86
S11308F0CD3090F38FEF01C08C2FCF911F910F91CA
S113090008959091640895FFFCCF80936208089540
S11309100E94810480E090E00895CF938091640860
S11309208823E4F7C09160088C2F0E9481048C2FE7
S1130930CF910895E0E2F4E081E0818382E0828354
S1130940E0E6F8E085818068858383E896E0808727
S113095091878681806C868380E090E48093B84D93
S11309609093B94D08958BE180936104089583E0D9
S11309708093E605E0E0FAE093E3918321E02383AA
S113098091839FE496A310A697A311A612A613A67B
S113099080830895E0E2F4E080818F7E80838489FF
S11309A08860848BE0E0FBE085E0808384E08183E1
S11309B081E0858391E49483E0E0F2E09CE4908B11
S11309C086AF0895E0E2F4E080818F7D808385899D
S11309D08860858BE0E1FBE085E0808384E08183AF
S11309E081E0858381E484838DE48093110282E035
S11309F08093400208958091021081FDFCCF0895F8
S1130A00E0E4F1E081E08083878399E4908B828B3A
S1130A1008951F920F920FB60F9211248F939F93F4
S1130A2080911E4C90911F4C019680931E4C909384
S1130A301F4C81E0809353019F918F910F900FBEC3
S1130A400F901F9018951F920F920FB60F921124BA
S1130A500BB60F922F933F938F93AF93BF93EF9364
S1130A60FF93A0E0BBE081E016968C9316978091EB
S1130A709C4BE82FF0E01C962D913C911D97EE0FB6
S1130A80FF1FE251F34B208331838F5F80939C4B94
S1130A90843610F010929C4BFF91EF91BF91AF916F
S1130AA08F913F912F910F900BBE0F900FBE0F901F
S1130AB01F9018951F920F920FB60F9211240BB628
S1130AC00F922F933F938F93AF93BF93EF93FF9323
S1130AD0A0E1BBE081E016968C93169780919B4B26
S1130AE0E82FF0E01C962D913C911D97EE0FFF1F0F
S1130AF0EA5DF34B208331838F5F80939B4B843675
S1130B0010F010929B4BFF91EF91BF91AF918F9199
S1130B103F912F910F900BBE0F900FBE0F901F901F
S1130B2018950F931F939C01062F90E040E050E02E
S1130B30BA010EC0E92FF0E0EE0FFF1FE20FF31F22
S1130B400190F081E02D4E0F5F1F611D711D9F5FAD
S1130B50901780F310E020E030E0CB01BA01A90146
S1130B6098010E941A0BC9011F910F91089564E620
S1130B708EEE9CE40E949105880F991F880F991F9F
S1130B80880F991F9C0140E050E060E07CE18EE416
S1130B909EE00E943C0BC901089564E686E29CE451
S1130BA00E949105880F991F880F991F880F991F1C
S1130BB09C0140E050E060E07CE18EE49EE00E9415
S1130BC03C0BC90108954F925F926F927F928F926E
S1130BD09F92AF92BF92CF92DF92EF92FF920F93C8
S1130BE01F93CF93DF93E0E0FAE08FE480A782A71E
S1130BF081A783A781E098E40E94A70B20911E4C53
S1130C0030911F4C80911E4C90911F4C821B930B72
S1130C100397C0F300911E4C10911F4CC0E0D0E02C
S1130C20812C912C5401C12CD12C76010DC00E9431
S1130C30B705C80ED91EE11CF11C0E94CD05880E13
S1130C40991EA11CB11C219680911E4C90911F4CA1
S1130C50801B910B0B9758F32E01612C712CC7014B
S1130C60B601A30192010E941A0B69017A01C50120
S1130C70B401A30192010E941A0BB601C901DF91CC
S1130C80CF911F910F91FF90EF90DF90CF90BF9085
S1130C90AF909F908F907F906F905F904F9008954A
S1130CA0AF92BF92CF92DF92EF92FF920F931F9376
S1130CB0CF93DF930E94E305062F172FD82FC92F58
S1130CC07F936F9385E198E49F938F930E94930B96
S1130CD0CF93DF938EE298E49F938F930E94930BBC
S1130CE08CE79AE40E94A70B8CE79AE40E94A70B76
S1130CF06091154C7091164CC0900F4CD090104CD4
S1130D0080E090E00E941F0A402F512F0E947C0235
S1130D10F82EB60180E090E00E941F0A4D2F5C2F50
S1130D200E947C02D82E609125457091264580E072
S1130D3090E00E941F0A402F512F0E947C02C82E6F
S1130D40609123457091244580E090E00E941F0A41
S1130D504D2F5C2F0E947C02A82E1F92CF9287E415
S1130D6098E49F938F930E94930B1F92DF928BE5DD
S1130D7098E49F938F930E94930BE09022456E2DED
S1130D808F2D0E947602B82E6E2D8D2D0E94760234
S1130D90D82E6AE58C2D0E947602F82E6AE58A2DFB
S1130DA00E947602E82E1F92FF928FE698E49F93AA
S1130DB08F930E94930B1F92DF9282E898E49F9393
S1130DC08F930E94930B8DB79EB748968DBF9EBF9D
S1130DD091E0B91204C085E998E40E94A70B81E070
S1130DE0D81204C088EB98E40E94A70B91E0F91292
S1130DF004C08BED98E40E94A70B81E0E81204C0C4
S1130E008BED98E40E94A70B00932545109326458B
S1130E10D0932345C0932445DF91CF911F910F9127
S1130E20FF90EF90DF90CF90BF90AF900895CF9355
S1130E30DF939B0190910E4C992349F08BEF98E43A
S1130E409F938F930E94930B0F900F901DC1482F77
S1130E5050E04D30510508F083C0FA01E658FF4FC9
S1130E600C945B0B83E199E40E94A70B0E94AC03F2
S1130E7081E08093A04B08C18BE299E40E94A70B08
S1130E800E94AC0382E08093A04BFEC083E499E40B
S1130E900E94A70B0E94AC0384E08093A04BF4C093
S1130EA08BE599E40E94A70B0E94AC0388E0809331
S1130EB0A04BEAC083E799E40E94A70B1092134C5D
S1130EC00E94B602E1C08AE899E40E94A70B84EA72
S1130ED099E40E94A70B8AEB99E40E94A70B81E096
S1130EE08093134CD1C080EF99E40E94A70B109219
S1130EF0134C0E940C03C8C088E09AE40E94A70B1C
S1130F000E94B70580933545909336450E94CD05E0
S1130F1080933145909332450E94B903B5C084E271
S1130F209AE40E94A70B0E945904AEC081E080930A
S1130F309D4B82E49AE49F938F930E94930B80913C
S1130F4022451F928F938EE79AE49F938F930E947A
S1130F50930B0F900F900F900F900F900F9094C0E1
S1130F6090919D4B9923A1F0C9010E94640B809339
S1130F70224510929D4B1F928F938AEA9AE49F9385
S1130F808F930E94930B0F900F900F900F907CC043
S1130F909091134C992309F473C08A3089F08B30F3
S1130FA0E1F0893039F586EE9AE40E94A70B83E2DA
S1130FB090E08093A54B9093A64B0E945A0364C083
S1130FC08DEF9AE40E94A70B8CE390E08093A54BED
S1130FD09093A64B0E945A0357C087E19BE40E945A
S1130FE0A70B8FE490E08093A54B9093A64B0E94AF
S1130FF05A034AC0C9010E94640B8093194C909310
S11310001A4C9F938F9385E79BE49F938F930E9441
S1131010930B6091194C70911A4C0F900F900F9094
S11310200F906536710538F580E090E00E941F0A44
S113103020E030E048EC52E40E947E0920E030E0F9
S11310404EE952E40E94AD0A0E94F009D62FC72F40
S11310507F936F9385E79BE49F938F930E94930BF9
S1131060D093A54BC093A64B0E945A030F900F90A8
S11310700F900F9009C08FE29BE40E94A70B04C05D
S113108089E59BE40E94A70BDF91CF910895CF934C
S1131090DF93CDB7DEB7C456D109CDBFDEBF0E9402
S11310A08D048A3089F08D3079F090919A4B933683
S11310B058F421E0290F20939A4BE1E0F0E0EC0F83
S11310C0FD1FE90FF11D80838D3011F08A30A1F4EA
S11310D080919A4BE1E0F0E0EC0FFD1FE80FF11D69
S11310E0108210929A4BCE0101960E946604BE01B2
S11310F06F5F7F4F0E941707CC59DF4FCDBFDEBF14
S1131100DF91CF9108951F920F920FB60F92112481
S11311100BB60F922F933F934F935F936F937F93ED
S11311208F939F93AF93BF93EF93FF930E944708CE
S1131130FF91EF91BF91AF919F918F917F916F91AB
S11311405F914F913F912F910F900BBE0F900FBE67
S11311500F901F9018950E949A0478940E94B304EB
S11311600E94B7040E94CA040E94E2040E94A800DC
S11311700E9423010E9400050E94FB04809102004A
S1131180909103000E948B0E8093154C9093164C03
S11311900E94FB0480910000909101000E948B0E3C
S11311A080930F4C9093104C0E9499028091164C9E
S11311B08F938091154C8F938BE69BE49F938F9331
S11311C00E94930B8091104C8F9380910F4C8F93BE
S11311D08AE79BE49F938F930E94930B8DB79EB7EE
S11311E008968DBF9EBF80911E4C90911F4C4497D2
S11311F079F40E940E0281E080930E4C0E94500606
S11312000E948D0110920E4C10921E4C10921F4C95
S11312100E9454018FE097E20197F1F700C00000AB
S1131220E2CF5058BB27AA270E9429090C94730ABD
S11312300E94650A38F00E946C0A20F039F49F3F3E
S113124019F426F40C94620A0EF4E095E7FB0C946E
S11312505C0AE92F0E94840A58F3BA1762077307DD
S11312608407950720F079F4A6F50C94A60A0EF4E9
S1131270E0950B2EBA2FA02D0B01B90190010C01A2
S1131280CA01A0011124FF27591B99F0593F50F4BA
S1131290503E68F11A16F040A22F232F342F442712
S11312A0585FF3CF469537952795A795F04053950A
S11312B0C9F77EF41F16BA0B620B730B840BBAF0DA
S11312C09150A1F0FF0FBB1F661F771F881FC2F745
S11312D00EC0BA0F621F731F841F48F48795779559
S11312E06795B795F7959E3F08F0B0CF9395880F13
S11312F008F09927EE0F9795879508950E94920913
S11313000C94730A0E946C0A58F00E94650A40F01B
S113131029F45F3F29F00C945C0A51110C94A70A3C
S11313200C94620A0E94840A68F39923B1F355234A
S113133091F3951B550BBB27AA27621773078407E4
S113134038F09F5F5F4F220F331F441FAA1FA9F37A
S113135035D00E2E3AF0E0E832D091505040E69568
S1131360001CCAF72BD0FE2F29D0660F771F881FC9
S1131370BB1F261737074807AB07B0E809F0BB0BBC
S1131380802DBF01FF2793585F4F3AF09E3F5105D0
S113139078F00C945C0A0C94A70A5F3FE4F3983E3F
S11313A0D4F3869577956795B795F7959F5FC9F7B9
S11313B0880F911D9695879597F90895E1E0660F3A
S11313C0771F881FBB1F621773078407BA0720F0B3
S11313D0621B730B840BBA0BEE1F88F7E09508951C
S11313E00E948C0A88F09F5798F0B92F9927B7511B
S11313F0B0F0E1F0660F771F881F991F1AF0BA95B5
S1131400C9F714C0B13091F00E94A60AB1E0089562
S11314100C94A60A672F782F8827B85F39F0B93F54
S1131420CCF3869577956795B395D9F73EF4909567
S11314308095709561957F4F8F4F9F4F0895E894E5
S113144009C097FB3EF490958095709561957F4F08
S11314508F4F9F4F9923A9F0F92F96E9BB279395B6
S1131460F695879577956795B795F111F8CFFAF4C6
S1131470BB0F11F460FF1BC06F5F7F4F8F4F9F4FF7
S113148016C0882311F096E911C0772321F09EE855
S1131490872F762F05C0662371F096E8862F70E0BB
S11314A060E02AF09A95660F771F881FDAF7880F95
S11314B09695879597F9089597F99F6780E870E066
S11314C060E008959FEF80EC089500240A941616B6
S11314D0170618060906089500240A94121613061E
S11314E0140605060895092E0394000C11F48823AC
S11314F052F0BB0F40F4BF2B11F460FF04C06F5FC8
S11315007F4F8F4F9F4F089557FD9058440F551F9D
S113151059F05F3F71F04795880F97FB991F61F071
S11315209F3F79F087950895121613061406551FE8
S1131530F2CF4695F1DF08C0161617061806991F54
S1131540F1CF86957105610508940895E894BB2749
S113155066277727CB0197F908950E94C00A0C9457
S1131560730A0E94650A38F00E946C0A20F09523E1
S113157011F00C945C0A0C94620A11240C94A70ACE
S11315800E94840A70F3959FC1F3950F50E0551F94
S1131590629FF001729FBB27F00DB11D639FAA27C4
S11315A0F00DB11DAA1F649F6627B00DA11D661F13
S11315B0829F2227B00DA11D621F739FB00DA11D34
S11315C0621F839FA00D611D221F749F3327A00DEE
S11315D0611D231F849F600D211D822F762F6A2F8A
S11315E011249F5750409AF0F1F088234AF0EE0FEF
S11315F0FF1FBB1F661F771F881F91505040A9F71C
S11316009E3F510580F00C945C0A0C94A70A5F3F3E
S1131610E4F3983ED4F3869577956795B795F79557
S1131620E7959F5FC1F7FE2B880F911D96958795CF
S113163097F90895A1E21A2EAA1BBB1BFD010DC048
S1131640AA1FBB1FEE1FFF1FA217B307E407F5076E
S113165020F0A21BB30BE40BF50B661F771F881F4A
S1131660991F1A9469F760957095809590959B01E0
S1131670AC01BD01CF010895052E97FB1EF4009423
S11316800E94530B57FD07D00E941A0B07FC03D08E
S11316904EF40C94530B50954095309521953F4F43
S11316A04F4F5F4F089590958095709561957F4F4A
S11316B08F4F9F4F0895EE0FFF1F0024001C0BBE99
S11316C00790F691E02D0994FC0188279927E89466
S11316D021912032E9F3293010F02E30C8F32B3257
S11316E041F02D3239F4689404C00E948B0B820FB0
S11316F0911D219120532A30C0F31EF490958195B9
S11317009F4F0895FB01DC018D9101908019011018
S1131710D9F3990B08957AE0979F902D879F802D98
S1131720910D11240895CF93DF93CDB7DEB7AE01A9
S11317304B5F5F4FFA0161917191AF018091B84D98
S11317409091B94D0E94D70BDF91CF9108950F93DB
S11317501F93CF93DF93E091B84DF091B94D23815E
S113176021FF1BC08C01D0E0C0E0F80181918F0102
S11317706091B84D7091B94DDB011896ED91FC91D3
S11317801997882331F00995892B79F3DFEFCFEF8F
S1131790ECCF8AE00995892B19F08FEF9FEF02C0F7
S11317A08D2F9C2FDF91CF911F910F9108952F9230
S11317B03F924F925F926F927F928F929F92AF92DD
S11317C0BF92CF92DF92EF92FF920F931F93CF932A
S11317D0DF93CDB7DEB72B97CDBFDEBF6C017B01A6
S11317E08A01FC0116821782838181FFCCC1CE015C
S11317F001963C01F6019381F70193FD859193FFD6
S113180081917F01882309F4BAC1853239F493FDAB
S1131810859193FF81917F01853229F4B60190E08F
S11318200E94F10DE7CF912C212C312CFFE1F3150F
S1131830D8F08B3279F038F4803279F08332A1F425
S1131840232D20611DC08D3261F0803369F4232D76
S1131850216016C0832D8260382EE32DE4603E2E75
S11318602AC0F32DF8601DC037FC2DC020ED280FD1
S11318702A3040F08E32B9F436FC81C1232D206425
S1131880322E19C036FE06C08AE0989E200D11241F
S1131890922E11C0EAE02E9E200D1124222EF32D4B
S11318A0F0623F2E08C08C3621F4832D8068382ED8
S11318B002C0883641F4F70193FD859193FF81912D
S11318C07F018111B3CF982F9F7D9554933028F4D5
S11318D00C5F1F4F9FE399830DC0833631F083372C
S11318E071F0833509F059C021C0F80180818983E2
S11318F00E5F1F4F88248394912C530113C0280139
S1131900F2E04F0E511CF801A080B18036FE03C0F6
S1131910692D70E002C06FEF7FEFC5010E94E60DF4
S11319204C018201F32DFF773F2E16C0280122E0DF
S1131930420E511CF801A080B18036FE03C0692D0F
S113194070E002C06FEF7FEFC5010E94DB0D4C0118
S1131950F32DF0683F2E820133FC1BC0822D90E0F2
S113196088169906B0F4B60180E290E00E94F10D69
S11319702A94F4CFF50137FC859137FE81915F01FC
S1131980B60190E00E94F10D21102A9421E0821A00
S113199091088114910471F7E8C0843611F08936F6
S11319A041F5F80137FE07C060817181828193811E
S11319B00C5F1F4F08C060817181072E000C880BDB
S11319C0990B0E5F1F4FF32DFF763F2E97FF09C033
S11319D090958095709561957F4F8F4F9F4FF068DC
S11319E03F2E2AE030E0A3010E942D0E882E861897
S11319F045C0853731F4232D2F7EB22E2AE030E006
S1131A0025C0932D997FB92E8F36C1F018F48835EF
S1131A1079F0B5C0803719F0883721F0B0C0E92FCC
S1131A20E061BE2EB4FE0DC0FB2DF460BF2E09C0D4
S1131A3034FE0AC0292F2660B22E06C028E030E00A
S1131A4005C020E130E002C020E132E0F801B7FE39
S1131A5007C060817181828193810C5F1F4F06C032
S1131A606081718180E090E00E5F1F4FA3010E94AE
S1131A702D0E882E8618FB2DFF773F2E36FE0DC0C7
S1131A80232D2E7FA22E891458F434FE0BC032FC71
S1131A9009C0832D8E7EA82E05C0B82CA32C03C0AC
S1131AA0B82C01C0B92CA4FE0FC0FE01E80DF11D35
S1131AB08081803321F49A2D997EA92E09C0A2FE3B
S1131AC006C0B394B39404C08A2D867809F0B39405
S1131AD0A3FC11C0A0FE06C0B21488F4280C922CFA
S1131AE09B180EC0B21460F4B60180E290E00E942C
S1131AF0F10DB394F7CFB21418F42B1802C0982C3C
S1131B00212CA4FE10C0B60180E390E00E94F10DE8
S1131B10A2FE17C0A1FC03C088E790E002C088E5DC
S1131B2090E0B6010CC08A2D867859F0A1FE02C05F
S1131B308BE201C080E2A7FC8DE2B60190E00E9436
S1131B40F10D891438F4B60180E390E00E94F10DA0
S1131B509A94F7CF8A94F301E80DF11D8081B601C0
S1131B6090E00E94F10D8110F5CF222009F442CEBD
S1131B70B60180E290E00E94F10D2A94F6CFF601BE
S1131B808681978102C08FEF9FEF2B96CDBFDEBF7A
S1131B90DF91CF911F910F91FF90EF90DF90CF9045
S1131BA0BF90AF909F908F907F906F905F904F9079
S1131BB03F902F900895FC010590615070400110F2
S1131BC0D8F7809590958E0F9F1F0895FC01615062
S1131BD0704001900110D8F7809590958E0F9F1F4B
S1131BE008950F931F93CF93DF93FB01238121FD6E
S1131BF003C08FEF9FEF2CC022FF16C04681578190
S1131C00248135814217530744F4A081B1819D0199
S1131C102F5F3F4F208331838C93268137812F5F41
S1131C203F4F2683378314C08B01EC01FB010084F2
S1131C30F185E02D0995892BE1F6D80116968D9151
S1131C409C911797019616968D939C931797CE01A6
S1131C50DF91CF911F910F910895FA01AA2728309F
S1131C6051F1203181F1E8946F936E7F6E5F7F4F65
S1131C708F4F9F4FAF4FB1E03ED0B4E03CD0670FE1
S1131C80781F891F9A1FA11D680F791F8A1F911D34
S1131C90A11D6A0F711D811D911DA11D20D009F484
S1131CA068943F912AE0269F11243019305D3193C6
S1131CB0DEF6CF010895462F4770405D4193B3E0AF
S1131CC00FD0C9F7F6CF462F4F70405D4A3318F056
S1131CD0495D31FD4052419302D0A9F7EACFB4E007
S1131CE0A6959795879577956795BA95C9F70097BF
S1131CF06105710508959B01AC010A2E0694579560
S1131D00479537952795BA95C9F7620F731F841FB6
S1131D10951FA01D08950E94940E808191810895BD
S1131D2003D0808199270895FC01E050FC4E08956A
S1071D30F894FFCF51
S1131D340000000200000000880400000000666146
S1131D446E310000000000000000000000000000EC
S1131D54000000000000000000000000000000007B
S1131D64000000000000000000000000000000006B
S1131D74000000000000000000000000000000005B
S1131D84000000000000000000000000000000004B
S1131D94000000000000000000000000000000003B
S1131DA4000066616E3200000000000000000000C4
S1131DB4000000000000000000000000000000001B
S1131DC4000000000000000000000000000000000B
S1131DD400000000000000000000000000000000FB
S1131DE400000000000000000000000000000000EB
S1131DF400000000000000000000000000000000DB
S1131E0400000000000066616E3300000000000062
S1131E1400000000000000000000000000000000BA
S1131E2400000000000000000000000000000000AA
S1131E34000000000000000000000000000000009A
S1131E44000000000000000000000000000000008A
S1131E54000000000000000000000000000000007A
S1131E640000000000000000000066616E34000001
S1131E74000000000000000000000000000000005A
S1131E84000000000000000000000000000000004A
S1131E94000000000000000000000000000000003A
S1131EA4000000000000000000000000000000002A
S1131EB4000000000000000000000000000000001A
S1131EC400000000000000000000000000006F6635
S1131ED46600000000000000000000000000000094
S1131EE400000000000000000000000000000000EA
S1131EF400000000000000000000000000000000DA
S1131F0400000000000000000000000000000000C9
S1131F1400000000000000000000000000000000B9
S1131F2400000000000000000000000000000000A9
S1131F3400006D616E75616C00000000000000001B
S1131F440000000000000000000000000000000089
S1131F540000000000000000000000000000000079
S1131F640000000000000000000000000000000069
S1131F740000000000000000000000000000000059
S1131F840000000000000000000000000000000049
S1131F940000000000006175746F00000000000080
S1131FA40000000000000000000000000000000029
S1131FB40000000000000000000000000000000019
S1131FC40000000000000000000000000000000009
S1131FD400000000000000000000000000000000F9
S1131FE400000000000000000000000000000000E9
S1131FF4000000000000000000006F76657276693E
S113200465770000000000000000000000000000EC
S113201400000000000000000000000000000000B8
S113202400000000000000000000000000000000A8
S11320340000000000000000000000000000000098
S11320440000000000000000000000000000000088
S11320540000000000000000000000000000636FA6
S11320646E74726F6C6C65720000000000000000F6
S11320740000000000000000000000000000000058
S11320840000000000000000000000000000000048
S11320940000000000000000000000000000000038
S11320A40000000000000000000000000000000028
S11320B40000000000000000000000000000000018
S11320C400006C6F770000000000000000000000B6
S11320D400000000000000000000000000000000F8
S11320E400000000000000000000000000000000E8
S11320F400000000000000000000000000000000D8
S113210400000000000000000000000000000000C7
S113211400000000000000000000000000000000B7
S11321240000000000006D656469756D0000000026
S11321340000000000000000000000000000000097
S11321440000000000000000000000000000000087
S11321540000000000000000000000000000000077
S11321640000000000000000000000000000000067
S11321740000000000000000000000000000000057
S113218400000000000000000000686967680000A7
S11321940000000000000000000000000000000037
S11321A40000000000000000000000000000000027
S11321B40000000000000000000000000000000017
S11321C40000000000000000000000000000000007
S11321D400000000000000000000000000000000F7
S11321E40000000000000000000000000000616C1A
S11321F461726D0000000000000000000000000097
S113220400000000000000000000000000000000C6
S113221400000000000000000000000000000000B6
S113222400000000000000000000000000000000A6
S11322340000000000000000000000000000000096
S11322440000000000000000000000000000000086
S113225400005A70306531010000000100000001E3
S113226400000001000000894B904B944B686F6D93
S11322746573637265656E3A0D00547970652077F1
S1132284616E74656420616374696F6E0D00416CE2
S11322947465726E6174697665733A206F766572DB
S11322A4766965772C20636F6E74726F6C6C6572DB
S11322B42C20616C61726D0D0066616E312069734E
S11322C4206E6F7720696E206D6F64653A206F66A7
S11322D4660066616E32206973206E6F7720696EC2
S11322E4206D6F64653A206F66660066616E332004
S11322F46973206E6F7720696E206D6F64653A2070
S11323046F66660066616E34206973206E6F772091
S1132314696E206D6F64653A206F66660066616E4F
S113232431206973206E6F7720696E206D6F646548
S11323343A204175746F0066616E32206973206EB1
S11323446F7720696E206D6F64653A204175746FF0
S11323540066616E33206973206E6F7720696E2086
S11323646D6F64653A204175746F0066616E342044
S11323746973206E6F7720696E206D6F64653A20EF
S11323844175746F0066616E31206973206E6F77D6
S113239420696E206D6F64653A204D616E75616CC1
S11323A4200D0066616E32206973206E6F77206998
S11323B46E206D6F64653A204D616E75616C0066C4
S11323C4616E33206973206E6F7720696E206D6FA0
S11323D464653A204D616E75616C0066616E3420EB
S11323E46973206E6F7720696E206D6F64653A207F
S11323F44D616E75616C00547970652077616E74FB
S11324046564206D6F64650D00416C7465726E6162
S113241474697665733A206F66662C206175746FEF
S11324242C206D616E75616C0D004F5645525649F2
S11324344557200D0046616E20312072706D3A209C
S113244425640D0A0046616E20312073746174653D
S11324543A2025730D0A0046616E20322072706D95
S11324643A2025640D0A0046616E2032207374619B
S113247474653A2025730D0A0046616E2033207278
S1132484706D3A2025640D0A0046616E2033207372
S1132494746174653A2025730D0A0046616E203414
S11324A42072706D3A2025640D0A0046616E203452
S11324B42073746174653A2025730D0A0054656DA4
S11324C470657261747572653A2025640D0A00435F
S11324D46F6E74726F6C6C65720D0053656C65631A
S11324E47420776861742066616E20746F20636859
S11324F4616E67650D00416C7465726E6174697612
S113250465733A2066616E312C2066616E322C202C
S113251466616E33206F722066616E34200D00484C
S1132524657220736B72657665743A2025640D0AAE
S113253400446961676E6F736520737461727465B6
S11325447421200D00476A656E6E6F6D736E697435
S1132554742066616E20313A2025640D0A00476AAE
S1132564656E6E6F6D736E6974742066616E20326D
S11325743A2025640D0A0050524F53454E542066A8
S1132584616E20313A2025640D0A0050524F5345A0
S11325944E542066616E20323A2025640D0A00539D
S11325A454415455532066616E20313A2025640DFC
S11325B40A005354415455532066616E20323A2024
S11325C425640D0A00414C41524D2066616E203150
S11325D42120547970653A207765617220616E64B4
S11325E42074656172200D00414C41524D20666196
S11325F46E20322120547970653A20776561722007
S1132604616E642074656172200D00414C41524D29
S11326142066616E20312120547970653A206D6FF3
S11326246D656E746172696C790D00446961676EDD
S11326346F73652069732072756E6E696E67210D00
S11326440A2000526563656976656420636F6D6D65
S1132654616E643A2066616E310D0052656365698A
S113266476656420636F6D6D616E643A2066616E95
S1132674320D00526563656976656420636F6D6D20
S1132684616E643A2066616E330D00526563656958
S113269476656420636F6D6D616E643A2066616E65
S11326A4340D00526563656976656420636F6D6DEE
S11326B4616E643A206F66660D00526563656976DF
S11326C4656420636F6D6D616E643A206D616E752F
S11326D4616C0D00547970652077616E74656420B3
S11326E472706D206D6F64650D00416C7465726E5B
S11326F46174697665733A206C6F772C206D656418
S113270469756D2C2068696768206F722066616E34
S11327142073706565643A20302D313030200D000B
S1132724526563656976656420636F6D6D616E647B
S11327343A206175746F0D0052656365697665644A
S113274420636F6D6D616E643A206F76657276698D
S113275465770D00526563656976656420636F6D02
S11327646D616E643A20636F6E74726F6C6C657223
S11327740D00547970652077616E74656420646516
S113278476696174696F6E2070657263656E7461D5
S1132794676520666F72207765617220616E6420BC
S11327A47465617220616C61726D200A0D00437559
S11327B47272656E7420616C61726D2064657669F1
S11327C46174696F6E2070657263656E74616765A8
S11327D42069733A2025640A0D00776561722061CB
S11327E46E64207465617220616C61726D2064652D
S11327F4766174696F6E2070657263656E74616767
S113280465206973206368616E67656420746F3A38
S11328142025640A0D005265636569766564206346
S11328246F6D6D616E643A206C6F770D0052656351
S1132834656976656420636F6D6D616E643A206DBD
S1132844656469756D0D0052656365697665642018
S1132854636F6D6D616E643A20686967680D00503A
S11328646C6561736520696E73657274206120768A
S1132874616C69642064757479206379636C652080
S113288428302D313030290D00756E6B6E6F776EE4
S113289420636F6D6D616E64200D00454520666193
S11328A46E20313A2025640D0A0045452066616E88
S11328B420323A2025640D0A004D414E55414C0006
S10D28C44F4646004155544F0000F2
S9030000FC
