S01200006D656E7973797374656D2E73726563B4
S11300000C9487000C94A6000C94A6000C94A600F3
S11300100C94A6000C94A6000C94F3050C94A60072
S11300200C94A6000C94A6000C94A6000C94A600B4
S11300300C94A6000C94A6000C940D060C94440693
S11300400C94A6000C94A6000C94A6000C94A60094
S11300500C94A6000C94A6000C94A6000C94A60084
S11300600C94A6000C94A6000C94A6000C94A60074
S11300700C94A6000C94A6000C94A6000C94A60064
S11300800C94A6000C94A6000C94A6000C94A60054
S11300900C94A6000C94A6000C94A6000C94A60044
S11300A00C94A6000C94A6000C94A6000C94A60034
S11300B00C94A6000C94A6000C94A6000C94A60024
S11300C00C94A6000C94A6000C94A6000C94A60014
S11300D00C94A6000C9425080C94A6000C94A6007D
S11300E00C94A6000C94A6000C94A6000C94A600F4
S11300F00C94A600D006DA06E406EE06F80601071C
S113010011071A07310752075207520738071124FB
S11301101FBECFEFCDBFDFE7DEBF1BE4A0E0B0E43E
S1130120E0E4FCE100E00BBF02C007900D92A43AAA
S1130130B107D9F72EE4A4EABBE401C01D92A239A9
S1130140B207E1F70E944D080C941E0E0C940000B7
S1130150E0E0F4E08CE0818398E093878487E0E03A
S1130160F9E081E0838316828583E0E8F4E082E0AD
S113017081838483089590E0880F991F862B809350
S113018007098091050985FD0DC08091050982FD4F
S113019009C08091050983FD05C08091050983701C
S11301A0833079F70895CF93C62F60E00E94BB0097
S11301B0C09308098091050985FD0DC0809105094A
S11301C082FD09C08091050983FD05C08091050960
S11301D08370833079F7E0E0F9E08581848183607E
S11301E08483CF9108950F931F93CF938B01C42FD2
S11301F061E00E94BB0090E01DC08091050985FD6F
S11302000DC08091050982FD09C08091050983FD17
S113021005C0809105098370833079F7F801E90FEF
S1130220F11D8091080980839F5FC91719F082E04E
S1130230809304099C1708F387E080930409CF9105
S11302401F910F91089561EE88E30E94D3002FE57A
S11302508AEE90E0215080409040E1F700C0000019
S11302606AEB88E30E94D3008FE19EE40197F1F7E3
S113027000C000000895CB97BC0180E090E00E948C
S1130280A50920E030E040E05FE30E9498080E9466
S113029076096E3118F0603518F403C06EE101C0C0
S11302A06FE4862F90E00895809133459091344512
S11302B0029741F48091184C9091194C0E943B0193
S11302C08093280A80912F4590913045029741F4FC
S11302D08091184C9091194C0E943B0180932A0AFA
S11302E080912B4590912C45029741F48091184CB4
S11302F09091194C0E943B018093290A80912745D3
S113030090912845029741F48091184C9091194C92
S11303100E943B0180932B0A08958091F84C9091A0
S1130320F94C8130910549F481E090E080933345A4
S1130330909334451092280A10C08230910539F404
S113034082E090E0809333459093344506C0892B36
S113035021F410923345109234458091294C9091A8
S11303602A4C8130910549F481E090E080932F4537
S11303709093304510922A0A10C08230910539F4C6
S113038082E090E080932F459093304506C0892BFE
S113039021F410922F451092304580911D4C90917C
S11303A01E4C8130910549F481E090E080932B4507
S11303B090932C451092290A10C08230910539F48B
S11303C082E090E080932B4590932C4506C0892BC6
S11303D021F410922B4510922C458091AD4B9091B5
S11303E0AE4B8130910549F481E090E0809327453C
S11303F09093284510922B0A08958230910539F480
S113040082E090E080932745909328450895892BB6
S113041021F4109227451092284508958091334580
S1130420909134458093F84C9093F94C80912F45EA
S1130430909130458093294C90932A4C80912B4580
S113044090912C4580931D4C90931E4C8091274590
S1130450909128458093AD4B9093AE4B0895CF93E4
S1130460DF93CDB7DEB72697CDBFDEBF6CEA88E356
S11304700E94D3002FE58AEE90E021508040904006
S1130480E1F700C0000046E0BE016F5F7F4F88E3E4
S11304900E94F3006C816F70862F90E0A0E0B0E0C2
S11304A0BA2FA92F982F88272D81822BBA2FA92FF5
S11304B0982F88272E81BC01CD01622B0E94A509AB
S11304C020E030E048E453E40E94330A20E030E0C6
S11304D040E855E30E94330A0E9476098EEC860FA9
S11304E02696CDBFDEBFDF91CF910895E0E0FAE01C
S11304F08FE480A782A781A783A78DE395E40E9458
S11305002D0B2091F44C3091F54C8091F44C90914A
S1130510F54C821B930B0397C0F34091F44C50911C
S1130520F54C20E030E002C02F5F3F4F8091F44C47
S11305309091F54C841B950B0B97B0F33F932F933D
S113054081E595E49F938F930E94190B10922A0AD8
S11305500F900F900F900F9060E070E0CB01089522
S1130560861710F481E0089580E00895CF92DF9219
S1130570EF92FF926B017C01BA0180E090E00E944F
S1130580A509A70196010E94040920E030E048EC87
S113059052E40E94330A0E947609862FFF90EF905E
S11305A0DF90CF900895CF92DF92EF92FF920F9356
S11305B01F93CF93DF930E947602C62ED72E082F67
S11305C0192F7F936F938AE695E49F938F930E94EC
S11305D0190B1F930F9383E895E49F938F930E94C5
S11305E0190B85EA9AE40E942D0B85EA9AE40E948D
S11305F02D0BC091234CD091244CE0901B4CF090D7
S11306001C4CDF93CF938CE995E49F938F930E94C6
S1130610190BBE0180E090E00E94A5094C2D5D2DD0
S11306200E94B602D82FB70180E090E00E94A5098D
S1130630402F512F0E94B602C82F1F92DF938CEADD
S113064095E49F938F930E94190B1F92CF9380EC94
S113065095E49F938F930E94190BF09022456F2D80
S11306608D2F0E94B002E82E6F2D8C2F0E94B002B5
S1130670F82E6AE58D2F0E94B002D82F6AE58C2FE0
S11306800E94B002C82F1F92EF9284ED95E49F93CD
S11306908F930E94190B1F92FF9287EE95E49F930C
S11306A08F930E94190B8DB79EB74C968DBF9EBF3A
S11306B091E0E91204C08AEF95E40E942D0B81E0D9
S11306C0F81204C08DE196E40E942D0BD13021F480
S11306D080E496E40E942D0BC13021F480E496E47A
S11306E00E942D0BC0922545D092264500932345A8
S11306F010932445DF91CF911F910F91FF90EF90BC
S1130700DF90CF90089585EA9AE40E942D0B85EA44
S11307109AE40E942D0B85EA9AE40E942D0B80E650
S113072096E40E942D0B8DE696E40E942D0B85EA3B
S11307309AE40E942D0B81E896E40E942D0B089503
S11307408091AA4B80FF13C081E090E080933345F1
S1130750909334451092280A8CEA96E49F938F93E1
S11307600E94190B0E9483030F900F90089581FF3C
S113077013C081E090E080932F4590933045109210
S11307802A0A85EC96E49F938F930E94190B0E948A
S113079083030F900F90089582FF13C081E090E0CF
S11307A080932B4590932C451092290A8EED96E464
S11307B09F938F930E94190B0E9483030F900F90B5
S11307C0089583FF12C081E090E0809327459093C1
S11307D0284510922B0A87EF96E49F938F930E94EB
S11307E0190B0E9483030F900F9008958091AA4BD8
S11307F080FF11C082E090E08093334590933445AC
S113080080E197E49F938F930E94190B0E948303C6
S11308100F900F90089581FF11C082E090E08093C3
S11308202F45909330458AE297E49F938F930E94DB
S1130830190B0E9483030F900F90089582FF11C03B
S113084082E090E080932B4590932C4584E497E4D8
S11308509F938F930E94190B0E9483030F900F9014
S1130860089583FF10C082E090E080932745909321
S113087028458EE597E49F938F930E94190B0E945D
S113088083030F900F9008958091AA4B80FF0FC0AF
S113089010923345109234458091B14B8093280ACD
S11308A088E797E40E942D0B0E948303089581FF3B
S11308B013C010922F45109230458091B14B809314
S11308C02A0A86E997E49F938F930E94190B0E944A
S11308D083030F900F90089582FF13C010922B454D
S11308E010922C458091B14B8093290A82EB97E4B6
S11308F09F938F930E94190B0E9483030F900F9074
S1130900089583FF12C010922745109228458091C4
S1130910B14B80932B0A8EEC97E49F938F930E94A4
S1130920190B0E9483030F900F9008958AEE97E4A9
S11309300E942D0B85EA9AE40E942D0B8CEF97E41C
S11309400E942D0B0895CF93DF938DE198E40E94CC
S11309502D0B85EA9AE40E942D0BC3E3D5E48B8129
S11309608F938A818F9388E298E49F938F930E9458
S1130970190BE881F981EE0FFF1FE95CFA4B8181C5
S11309808F9380818F9388E398E49F938F930E9441
S1130990190BCFE2D5E48B818F938A818F938AE4FC
S11309A098E49F938F930E94190BE881F981EE0FCD
S11309B0FF1FE95CFA4B81818F9380818F938AE5D5
S11309C098E49F938F930E94190BCBE2D5E48B811B
S11309D08F938A818F938CE698E49F938F930E94E0
S11309E0190BE881F981EE0FFF1FE95CFA4B818155
S11309F08F9380818F938CE798E49F938F930E94C9
S1130A00190BC7E2D5E48B818F938A818F938EE88B
S1130A1098E49F938F930E94190BE881F981EE0F5C
S1130A20FF1FE95CFA4B81818F9380818F938EE95C
S1130A3098E49F938F930E94190B8DB79EB780966D
S1130A408DBF9EBF0E942F02282F30E02093184CA8
S1130A503093194C1F928F9380EB98E49F938F935C
S1130A600E94190B85EA9AE40E942D0B85EA9AE408
S1130A700E942D0B0E9483030F900F900F900F90F4
S1130A80DF91CF91089582EC98E40E942D0B8EECB7
S1130A9098E40E942D0B89EE98E40E942D0B089592
S1130AA00F931F93CF938C01C0E00CC084E6C89FC2
S1130AB0B0011124625F7F4BC8010E94080B892B8F
S1130AC029F0CF5FCD3090F38FEF01C08C2FCF9101
S1130AD01F910F9108959091640895FFFCCF809326
S1130AE0620808950E946B0580E090E00895CF931A
S1130AF0809164088823E4F7C09160088C2F0E94D9
S1130B006B058C2FCF910895E0E2F4E081E08183BE
S1130B1082E08283E0E6F8E085818068858383E86B
S1130B2096E0808791878681806C868380E090E45C
S1130B3080938E4E90938F4E08958BE18093610441
S1130B40089583E08093E605E0E0FAE093E391837F
S1130B5021E0238391839FE496A310A697A311A673
S1130B6012A613A680830895E0E2F4E080818F7ECC
S1130B70808384898860848BE0E0FBE085E0808367
S1130B8084E0818381E0858391E49483E0E0F2E072
S1130B909CE4908B86AF0895E0E2F4E080818F7D41
S1130BA0808385898860858BE0E1FBE085E0808334
S1130BB084E0818381E0858381E484838DE4809370
S1130BC0110282E08093400208958091021081FD19
S1130BD0FCCF0895E0E4F1E081E08083878399E429
S1130BE0908B828B08951F920F920FB60F9211244F
S1130BF08F939F938091F44C9091F54C0196809340
S1130C00F44C9093F54C81E0809353019F918F9124
S1130C100F900FBE0F901F9018951F920F920FB652
S1130C200F9211240BB60F922F933F938F93AF9390
S1130C30BF93EF93FF93A0E0BBE081E016968C9303
S1130C4016978091A64BE82FF0E01C962D913C91CD
S1130C501D97EE0FFF1FEC53F24B208331838F5F00
S1130C608093A64B843610F01092A64BFF91EF911F
S1130C70BF91AF918F913F912F910F900BBE0F9029
S1130C800FBE0F901F9018951F920F920FB60F92E0
S1130C9011240BB60F922F933F938F93AF93BF936F
S1130CA0EF93FF93A0E1BBE081E016968C93169737
S1130CB08091A54BE82FF0E01C962D913C911D9757
S1130CC0EE0FFF1FE450F34B208331838F5F80933B
S1130CD0A54B843610F01092A54BFF91EF91BF9174
S1130CE0AF918F913F912F910F900BBE0F900FBE3C
S1130CF00F901F9018950F931F939C01062F90E05F
S1130D0040E050E0BA010EC0E92FF0E0EE0FFF1F03
S1130D10E20FF31F0190F081E02D4E0F5F1F611D64
S1130D20711D9F5F901780F310E020E030E0CB014D
S1130D30BA01A90198010E94A00AC9011F910F914B
S1130D40089564E60E947B06880F991F880F991FF7
S1130D50880F991F9C0140E050E060E07CE18EE444
S1130D609EE00E94C20AC9010895CF93DF939B01BC
S1130D7090911A4C992349F084E299E49F938F93BC
S1130D800E94190B0F900F9021C1482F50E04D3055
S1130D90510508F087C0FA01E658FF4F0C94E10AA8
S1130DA08CE399E40E942D0B0E94960481E08093C9
S1130DB0AA4B0CC184E599E40E942D0B0E94960471
S1130DC082E08093AA4B02C18CE699E40E942D0B29
S1130DD00E94960484E08093AA4BF8C084E899E4C6
S1130DE00E942D0B0E94960488E08093AA4BEEC0CB
S1130DF08CE999E40E942D0B1092214C0E94A003CF
S1130E00E5C083EB99E40E942D0B8DEC99E40E94DC
S1130E102D0B83EE99E40E942D0B81E08093214CED
S1130E20D5C089E19AE40E942D0B1092214C0E94B6
S1130E30F603CCC081E39AE40E942D0B8BE29CE480
S1130E400E94A10680933545909336458BE29CE43D
S1130E500E94A10680933145909332450E94A304D9
S1130E60B5C08DE49AE40E942D0B0E944305AEC0E8
S1130E7081E08093A74B8BE69AE49F938F930E9423
S1130E80190B809122451F928F9387EA9AE49F93CE
S1130E908F930E94190B0F900F900F900F900F904B
S1130EA00F9094C09091A74B9923A1F0C9010E947F
S1130EB0EA0A809322451092A74B1F928F9383EDE9
S1130EC09AE49F938F930E94190B0F900F900F90A9
S1130ED00F907CC09091214C992309F473C08A30FF
S1130EE089F08B30E1F0893039F58FE09BE40E9482
S1130EF02D0B83E290E08093B14B9093B24B0E9410
S1130F00440464C086E29BE40E942D0B8CE390E0D1
S1130F108093B14B9093B24B0E94440457C080E439
S1130F209BE40E942D0B8FE490E08093B14B90934F
S1130F30B24B0E9444044AC0C9010E94EA0A809349
S1130F40274C9093284C9F938F9382EE95E49F9324
S1130F508F930E94190B6091274C7091284C0F902D
S1130F600F900F900F906536710538F580E090E092
S1130F700E94A50920E030E048EC52E40E940409F4
S1130F8020E030E04EE952E40E94330A0E947609E0
S1130F90D62FC72F7F936F9382EE95E49F938F9301
S1130FA00E94190BD093B14BC093B24B0E944404DE
S1130FB00F900F900F900F9009C088E59BE40E945A
S1130FC02D0B04C082E89BE40E942D0BDF91CF918E
S1130FD00895CF93DF93CDB7DEB7C456D109CDBF03
S1130FE0DEBF0E9477058A3089F08D3079F09091C8
S1130FF0A44B933658F421E0290F2093A44BE1E04D
S1131000F0E0EC0FFD1FE90FF11D80838D3011F02E
S11310108A30A1F48091A44BE1E0F0E0EC0FFD1FD5
S1131020E80FF11D10821092A44BCE0101960E948C
S11310305005BE016F5F7F4F0E94B506CC59DF4F4C
S1131040CDBFDEBFDF91CF9108951F920F920FB6EF
S11310500F9211240BB60F922F933F934F935F93EC
S11310606F937F938F939F93AF93BF93EF93FF936C
S11310700E94E907FF91EF91BF91AF919F918F91EA
S11310807F916F915F914F913F912F910F900BBE84
S11310900F900FBE0F901F9018950E9484057894AE
S11310A00E949D050E94A1050E94B4050E94CC05E2
S11310B00E94A8000E9423010E94EA050E94E505FF
S11310C080910200909103000E94110E8093234CA2
S11310D09093244C0E94E5058091000090910100BA
S11310E00E94110E80931B4C90931C4C0E9483030E
S11310F08091F44C9091F54C803D974079F40E9496
S11311000E0281E080931A4C0E94D3020E948D014A
S113111010921A4C1092F44C1092F54C0E94540107
S11311208FE097E20197F1F700C00000E1CF50583B
S1131130BB27AA270E94AF080C94F9090E94EB0967
S113114038F00E94F20920F039F49F3F19F426F494
S11311500C94E8090EF4E095E7FB0C94E209E92FFE
S11311600E940A0A58F3BA1762077307840795079F
S113117020F079F4A6F50C942C0A0EF4E0950B2ECD
S1131180BA2FA02D0B01B90190010C01CA01A001D5
S11311901124FF27591B99F0593F50F4503E68F130
S11311A01A16F040A22F232F342F4427585FF3CF71
S11311B0469537952795A795F0405395C9F77EF442
S11311C01F16BA0B620B730B840BBAF09150A1F08B
S11311D0FF0FBB1F661F771F881FC2F70EC0BA0F11
S11311E0621F731F841F48F4879577956795B79599
S11311F0F7959E3F08F0B0CF9395880F08F0992794
S1131200EE0F9795879508950E9418090C94F90993
S11312100E94F20958F00E94EB0940F029F45F3F64
S113122029F00C94E20951110C942D0A0C94E8094C
S11312300E940A0A68F39923B1F3552391F3951B8D
S1131240550BBB27AA2762177307840738F09F5FE3
S11312505F4F220F331F441FAA1FA9F335D00E2E50
S11312603AF0E0E832D091505040E695001CCAF7BD
S11312702BD0FE2F29D0660F771F881FBB1F261780
S113128037074807AB07B0E809F0BB0B802DBF0157
S1131290FF2793585F4F3AF09E3F510578F00C9426
S11312A0E2090C942D0A5F3FE4F3983ED4F386954B
S11312B077956795B795F7959F5FC9F7880F911D47
S11312C09695879597F90895E1E0660F771F881F33
S11312D0BB1F621773078407BA0720F0621B730BE6
S11312E0840BBA0BEE1F88F7E09508950E94120A4A
S11312F088F09F5798F0B92F9927B751B0F0E1F0D3
S1131300660F771F881F991F1AF0BA95C9F714C082
S1131310B13091F00E942C0AB1E008950C942C0A8B
S1131320672F782F8827B85F39F0B93FCCF38695BB
S113133077956795B395D9F73EF490958095709518
S113134061957F4F8F4F9F4F0895E89409C097FB95
S11313503EF490958095709561957F4F8F4F9F4F88
S11313609923A9F0F92F96E9BB279395F6958795CC
S113137077956795B795F111F8CFFAF4BB0F11F48F
S113138060FF1BC06F5F7F4F8F4F9F4F16C0882336
S113139011F096E911C0772321F09EE8872F762F6C
S11313A005C0662371F096E8862F70E060E02AF0AD
S11313B09A95660F771F881FDAF7880F9695879599
S11313C097F9089597F99F6780E870E060E00895C1
S11313D09FEF80EC089500240A9416161706180649
S11313E00906089500240A94121613061406050625
S11313F00895092E0394000C11F4882352F0BB0FB6
S113140040F4BF2B11F460FF04C06F5F7F4F8F4F18
S11314109F4F089557FD9058440F551F59F05F3F53
S113142071F04795880F97FB991F61F09F3F79F002
S113143087950895121613061406551FF2CF469584
S1131440F1DF08C0161617061806991FF1CF869506
S11314507105610508940895E894BB2766277727EA
S1131460CB0197F908950E94460A0C94F9090E9449
S1131470EB0938F00E94F20920F0952311F00C9446
S1131480E2090C94E80911240C942D0A0E940A0A1A
S113149070F3959FC1F3950F50E0551F629FF001C3
S11314A0729FBB27F00DB11D639FAA27F00DB11DDC
S11314B0AA1F649F6627B00DA11D661F829F222765
S11314C0B00DA11D621F739FB00DA11D621F839FEC
S11314D0A00D611D221F749F3327A00D611D231FC2
S11314E0849F600D211D822F762F6A2F11249F5710
S11314F050409AF0F1F088234AF0EE0FFF1FBB1F13
S1131500661F771F881F91505040A9F79E3F5105D1
S113151080F00C94E2090C942D0A5F3FE4F3983EAA
S1131520D4F3869577956795B795F795E7959F5F7B
S1131530C1F7FE2B880F911D9695879597F908950D
S1131540A1E21A2EAA1BBB1BFD010DC0AA1FBB1FC3
S1131550EE1FFF1FA217B307E407F50720F0A21B35
S1131560B30BE40BF50B661F771F881F991F1A94A2
S113157069F760957095809590959B01AC01BD01CC
S1131580CF010895052E97FB1EF400940E94D90AFA
S113159057FD07D00E94A00A07FC03D04EF40C9418
S11315A0D90A50954095309521953F4F4F4F5F4F45
S11315B0089590958095709561957F4F8F4F9F4FBB
S11315C00895EE0FFF1F0024001C0BBE0790F69138
S11315D0E02D0994FC0188279927E8942191203271
S11315E0E9F3293010F02E30C8F32B3241F02D32BC
S11315F039F4689404C00E94110B820F911D21914B
S113160020532A30C0F31EF4909581959F4F08957E
S1131610FB01DC018D91019080190110D9F3990B24
S113162008957AE0979F902D879F802D910D112426
S11316300895CF93DF93CDB7DEB7AE014B5F5F4F15
S1131640FA0161917191AF0180918E4E90918F4E0C
S11316500E945D0BDF91CF9108950F931F93CF9359
S1131660DF93E0918E4EF0918F4E238121FF1BC0BA
S11316708C01D0E0C0E0F80181918F0160918E4E21
S113168070918F4EDB011896ED91FC911997882388
S113169031F00995892B79F3DFEFCFEFECCF8AE0B6
S11316A00995892B19F08FEF9FEF02C08D2F9C2F86
S11316B0DF91CF911F910F9108952F923F924F92F6
S11316C05F926F927F928F929F92AF92BF92CF92CE
S11316D0DF92EF92FF920F931F93CF93DF93CDB7D7
S11316E0DEB72B97CDBFDEBF6C017B018A01FC0105
S11316F016821782838181FFCCC1CE0101963C0101
S1131700F6019381F70193FD859193FF81917F0108
S1131710882309F4BAC1853239F493FD859193FF86
S113172081917F01853229F4B60190E00E94770D02
S1131730E7CF912C212C312CFFE1F315D8F08B321B
S113174079F038F4803279F08332A1F4232D2061CA
S11317501DC08D3261F0803369F4232D216016C0E1
S1131760832D8260382EE32DE4603E2E2AC0F32DB3
S1131770F8601DC037FC2DC020ED280F2A3040F042
S11317808E32B9F436FC81C1232D2064322E19C067
S113179036FE06C08AE0989E200D1124922E11C0B8
S11317A0EAE02E9E200D1124222EF32DF0623F2E0E
S11317B008C08C3621F4832D8068382E02C0883608
S11317C041F4F70193FD859193FF81917F0181118C
S11317D0B3CF982F9F7D9554933028F40C5F1F4FFF
S11317E09FE399830DC0833631F0833771F08335DD
S11317F009F059C021C0F801808189830E5F1F4F11
S113180088248394912C530113C02801F2E04F0ED5
S1131810511CF801A080B18036FE03C0692D70E030
S113182002C06FEF7FEFC5010E946C0D4C01820175
S1131830F32DFF773F2E16C0280122E0420E511CE3
S1131840F801A080B18036FE03C0692D70E002C0AB
S11318506FEF7FEFC5010E94610D4C01F32DF0681D
S11318603F2E820133FC1BC0822D90E0881699061E
S1131870B0F4B60180E290E00E94770D2A94F4CF90
S1131880F50137FC859137FE81915F01B60190E047
S11318900E94770D21102A9421E0821A9108811464
S11318A0910471F7E8C0843611F0893641F5F801E6
S11318B037FE07C060817181828193810C5F1F4F65
S11318C008C060817181072E000C880B990B0E5F94
S11318D01F4FF32DFF763F2E97FF09C090958095FB
S11318E0709561957F4F8F4F9F4FF0683F2E2AE090
S11318F030E0A3010E94B30D882E861845C08537B9
S113190031F4232D2F7EB22E2AE030E025C0932D12
S1131910997FB92E8F36C1F018F4883579F0B5C0A7
S1131920803719F0883721F0B0C0E92FE061BE2E6E
S1131930B4FE0DC0FB2DF460BF2E09C034FE0AC0F6
S1131940292F2660B22E06C028E030E005C020E131
S113195030E002C020E132E0F801B7FE07C0608148
S11319607181828193810C5F1F4F06C060817181F8
S113197080E090E00E5F1F4FA3010E94B30D882EFC
S11319808618FB2DFF773F2E36FE0DC0232D2E7FAC
S1131990A22E891458F434FE0BC032FC09C0832DE6
S11319A08E7EA82E05C0B82CA32C03C0B82C01C071
S11319B0B92CA4FE0FC0FE01E80DF11D8081803317
S11319C021F49A2D997EA92E09C0A2FE06C0B394D3
S11319D0B39404C08A2D867809F0B394A3FC11C093
S11319E0A0FE06C0B21488F4280C922C9B180EC0DA
S11319F0B21460F4B60180E290E00E94770DB394D3
S1131A00F7CFB21418F42B1802C0982C212CA4FE82
S1131A1010C0B60180E390E00E94770DA2FE17C0CB
S1131A20A1FC03C088E790E002C088E590E0B6011D
S1131A300CC08A2D867859F0A1FE02C08BE201C049
S1131A4080E2A7FC8DE2B60190E00E94770D891434
S1131A5038F4B60180E390E00E94770D9A94F7CFB2
S1131A608A94F301E80DF11D8081B60190E00E9493
S1131A70770D8110F5CF222009F442CEB60180E221
S1131A8090E00E94770D2A94F6CFF6018681978123
S1131A9002C08FEF9FEF2B96CDBFDEBFDF91CF91BA
S1131AA01F910F91FF90EF90DF90CF90BF90AF9078
S1131AB09F908F907F906F905F904F903F902F906A
S1131AC00895FC010590615070400110D8F780958D
S1131AD090958E0F9F1F0895FC01615070400190F6
S1131AE00110D8F7809590958E0F9F1F08950F933E
S1131AF01F93CF93DF93FB01238121FD03C08FEF5D
S1131B009FEF2CC022FF16C0468157812481358166
S1131B104217530744F4A081B1819D012F5F3F4FC9
S1131B20208331838C93268137812F5F3F4F268317
S1131B30378314C08B01EC01FB010084F185E02D97
S1131B400995892BE1F6D80116968D919C911797EA
S1131B50019616968D939C931797CE01DF91CF91A2
S1131B601F910F910895FA01AA27283051F12031CD
S1131B7081F1E8946F936E7F6E5F7F4F8F4F9F4F1D
S1131B80AF4FB1E03ED0B4E03CD0670F781F891F5F
S1131B909A1FA11D680F791F8A1F911DA11D6A0F2D
S1131BA0711D811D911DA11D20D009F468943F91E0
S1131BB02AE0269F11243019305D3193DEF6CF01DF
S1131BC00895462F4770405D4193B3E00FD0C9F7A5
S1131BD0F6CF462F4F70405D4A3318F0495D31FD12
S1131BE04052419302D0A9F7EACFB4E0A695979565
S1131BF0879577956795BA95C9F70097610571053B
S1131C0008959B01AC010A2E069457954795379584
S1131C102795BA95C9F7620F731F841F951FA01DDE
S1131C2008950E941A0E80819181089503D08081C5
S1131C3099270895FC01E050FC4E0895F894FFCFD5
S1131C400000000200000000720500000000666150
S1131C506E310000000000000000000000000000E1
S1131C600000000000000000000000000000000070
S1131C700000000000000000000000000000000060
S1131C800000000000000000000000000000000050
S1131C900000000000000000000000000000000040
S1131CA00000000000000000000000000000000030
S1131CB0000066616E3200000000000000000000B9
S1131CC00000000000000000000000000000000010
S1131CD00000000000000000000000000000000000
S1131CE000000000000000000000000000000000F0
S1131CF000000000000000000000000000000000E0
S1131D0000000000000000000000000000000000CF
S1131D1000000000000066616E3300000000000057
S1131D2000000000000000000000000000000000AF
S1131D30000000000000000000000000000000009F
S1131D40000000000000000000000000000000008F
S1131D50000000000000000000000000000000007F
S1131D60000000000000000000000000000000006F
S1131D700000000000000000000066616E340000F6
S1131D80000000000000000000000000000000004F
S1131D90000000000000000000000000000000003F
S1131DA0000000000000000000000000000000002F
S1131DB0000000000000000000000000000000001F
S1131DC0000000000000000000000000000000000F
S1131DD000000000000000000000000000006F662A
S1131DE06600000000000000000000000000000089
S1131DF000000000000000000000000000000000DF
S1131E0000000000000000000000000000000000CE
S1131E1000000000000000000000000000000000BE
S1131E2000000000000000000000000000000000AE
S1131E30000000000000000000000000000000009E
S1131E4000006D616E75616C000000000000000010
S1131E50000000000000000000000000000000007E
S1131E60000000000000000000000000000000006E
S1131E70000000000000000000000000000000005E
S1131E80000000000000000000000000000000004E
S1131E90000000000000000000000000000000003E
S1131EA00000000000006175746F00000000000075
S1131EB0000000000000000000000000000000001E
S1131EC0000000000000000000000000000000000E
S1131ED000000000000000000000000000000000FE
S1131EE000000000000000000000000000000000EE
S1131EF000000000000000000000000000000000DE
S1131F00000000000000000000006F766572766932
S1131F1065770000000000000000000000000000E1
S1131F2000000000000000000000000000000000AD
S1131F30000000000000000000000000000000009D
S1131F40000000000000000000000000000000008D
S1131F50000000000000000000000000000000007D
S1131F600000000000000000000000000000636F9B
S1131F706E74726F6C6C65720000000000000000EB
S1131F80000000000000000000000000000000004D
S1131F90000000000000000000000000000000003D
S1131FA0000000000000000000000000000000002D
S1131FB0000000000000000000000000000000001D
S1131FC0000000000000000000000000000000000D
S1131FD000006C6F770000000000000000000000AB
S1131FE000000000000000000000000000000000ED
S1131FF000000000000000000000000000000000DD
S113200000000000000000000000000000000000CC
S113201000000000000000000000000000000000BC
S113202000000000000000000000000000000000AC
S11320300000000000006D656469756D000000001B
S1132040000000000000000000000000000000008C
S1132050000000000000000000000000000000007C
S1132060000000000000000000000000000000006C
S1132070000000000000000000000000000000005C
S1132080000000000000000000000000000000004C
S1132090000000000000000000006869676800009C
S11320A0000000000000000000000000000000002C
S11320B0000000000000000000000000000000001C
S11320C0000000000000000000000000000000000C
S11320D000000000000000000000000000000000FC
S11320E000000000000000000000000000000000EC
S11320F00000000000000000000000000000616C0F
S113210061726D000000000000000000000000008B
S113211000000000000000000000000000000000BB
S113212000000000000000000000000000000000AB
S1132130000000000000000000000000000000009B
S1132140000000000000000000000000000000008B
S1132150000000000000000000000000000000007B
S113216000005A70307030010000000100000001CE
S113217000000001000000944B9B4B9F4B4469619D
S1132180676E6F7365207374617274657421200DBA
S1132190004E756D626572206F66207265616469B8
S11321A06E67733A2025640D0A00476A656E6E6F88
S11321B06D736E6974742066616E20313A202564F3
S11321C00D0A00476A656E6E6F6D736E69747420D4
S11321D066616E20323A2025640D0A006F6C64201B
S11321E066616E20323A2025640D0A0050524F5326
S11321F0454E542066616E20313A2025640D0A0054
S113220050524F53454E542066616E20323A202579
S1132210640D0A005354415455532066616E2031B5
S11322203A2025640D0A00535441545553206661E5
S11322306E20323A2025640D0A00414C41524D2053
S113224066616E20312120547970653A207765618A
S11322507220616E642074656172200D00414C41EE
S1132260524D2066616E20322120547970653A20E7
S11322707765617220616E642074656172200D005F
S1132280414C41524D2066616E20312120547970B9
S1132290653A206D6F6D656E746172696C790D00BD
S11322A0686F6D6573637265656E3A0D005479707D
S11322B0652077616E74656420616374696F6E0D67
S11322C000416C7465726E6174697665733A206F4F
S11322D0766572766965772C20636F6E74726F6CA5
S11322E06C65722C20616C61726D0D0066616E31DB
S11322F0206973206E6F7720696E206D6F64653A74
S1132300206F66660066616E32206973206E6F7797
S113231020696E206D6F64653A206F6666006661A1
S11323206E33206973206E6F7720696E206D6F6441
S1132330653A206F66660066616E34206973206EAC
S11323406F7720696E206D6F64653A206F66660052
S113235066616E31206973206E6F7720696E206D1F
S11323606F64653A204175746F0066616E3220694E
S113237073206E6F7720696E206D6F64653A20411B
S113238075746F0066616E33206973206E6F7720F9
S1132390696E206D6F64653A204175746F006661E3
S11323A06E34206973206E6F7720696E206D6F64C0
S11323B0653A204175746F0066616E31206973203F
S11323C06E6F7720696E206D6F64653A204D616E83
S11323D075616C200D0066616E32206973206E6F2A
S11323E07720696E206D6F64653A204D616E75616A
S11323F06C0066616E33206973206E6F7720696E9E
S1132400206D6F64653A204D616E75616C00666184
S11324106E34206973206E6F7720696E206D6F644F
S1132420653A204D616E75616C0054797065207752
S1132430616E746564206D6F64650D00416C746534
S1132440726E6174697665733A206F66662C2061DA
S113245075746F2C206D616E75616C0D004F56455F
S11324605256494557200D0046616E203120727046
S11324706D3A2025640D0A0046616E203120737484
S11324806174653A2025730D0A0046616E2032207E
S113249072706D3A2025640D0A0046616E20322068
S11324A073746174653A2025730D0A0046616E20C9
S11324B0332072706D3A2025640D0A0046616E2047
S11324C0332073746174653A2025730D0A004661E4
S11324D06E20342072706D3A2025640D0A00466126
S11324E06E20342073746174653A2025730D0A00DC
S11324F054656D70657261747572653A2025640D5A
S11325000A00436F6E74726F6C6C65720D005365D4
S11325106C65637420776861742066616E20746FE3
S1132520206368616E67650D00416C7465726E614D
S113253074697665733A2066616E312C2066616E2B
S1132540322C2066616E33206F722066616E3420F7
S11325500D0048657220736B72657665743A2025A8
S1132560640D0A00446961676E6F736520697320A6
S113257072756E6E696E67210D0A2000526563657F
S11325806976656420636F6D6D616E643A2066617F
S11325906E310D00526563656976656420636F6D05
S11325A06D616E643A2066616E320D00526563653A
S11325B06976656420636F6D6D616E643A2066614F
S11325C06E330D00526563656976656420636F6DD3
S11325D06D616E643A2066616E340D005265636508
S11325E06976656420636F6D6D616E643A206F6611
S11325F0660D00526563656976656420636F6D6D71
S1132600616E643A206D616E75616C0D0054797071
S1132610652077616E7465642072706D206D6F64DF
S1132620650D00416C7465726E6174697665733A08
S1132630206C6F772C206D656469756D2C2068693A
S11326406768206F722066616E2073706565643AF6
S113265020302D313030200D005265636569766578
S11326606420636F6D6D616E643A206175746F0DE3
S113267000526563656976656420636F6D6D616E94
S1132680643A206F766572766965770D00526563EA
S1132690656976656420636F6D6D616E643A20636D
S11326A06F6E74726F6C6C65720D00547970652076
S11326B077616E74656420646576696174696F6EB0
S11326C02070657263656E7461676520666F722041
S11326D07765617220616E64207465617220616C3B
S11326E061726D200A0D0043757272656E7420610B
S11326F06C61726D20646576696174696F6E2070B7
S1132700657263656E746167652069733A20256438
S11327100A0D007765617220616E642074656172D0
S113272020616C61726D206465766174696F6E20DE
S113273070657263656E7461676520697320636890
S1132740616E67656420746F3A2025640A0D005237
S11327506563656976656420636F6D6D616E643A67
S1132760206C6F770D00526563656976656420633C
S11327706F6D6D616E643A206D656469756D0D00F1
S1132780526563656976656420636F6D6D616E641F
S11327903A20686967680D00506C6561736520694B
S11327A06E7365727420612076616C69642064754F
S11327B07479206379636C652028302D3130302999
S11327C00D00756E6B6E6F776E20636F6D6D616E4D
S11327D064200D004D414E55414C004F464600418A
S10727E055544F00F9
S9030000FC
