S01200006D656E7973797374656D2E73726563B4
S11300000C9487000C94A6000C94A6000C94A600F3
S11300100C94A6000C94A6000C949C050C94A600C9
S11300200C94A6000C94A6000C94A6000C94A600B4
S11300300C94A6000C94A6000C94DE050C941506F2
S11300400C94A6000C94A6000C94A6000C94A60094
S11300500C94A6000C94A6000C94A6000C94A60084
S11300600C94A6000C94A6000C94A6000C94A60074
S11300700C94A6000C94A6000C94A6000C94A60064
S11300800C94A6000C94A6000C94A6000C94A60054
S11300900C94A6000C94A6000C94A6000C94A60044
S11300A00C94A6000C94A6000C94A6000C94A60034
S11300B00C94A6000C94A6000C94A6000C94A60024
S11300C00C94A6000C94A6000C94A6000C94A60014
S11300D00C94A6000C94B6050C94A6000C94A600EF
S11300E00C94A6000C94A6000C94A6000C94A600F4
S11300F00C94A600A403AE03B803C203CC03D50337
S1130100E503EE0305042604260426040C04112446
S11301101FBECFEFCDBFDFE7DEBF1BE4A0E0B0E43E
S1130120ECE2F7E100E00BBF02C007900D92A03AA9
S1130130B107D9F72DE4A0EABBE401C01D92A036B3
S1130140B207E1F70E944C060C94940B0C94000047
S1130150E0E0F4E08CE0818398E093878487E0E03A
S1130160F9E081E0838316828583E0E8F4E082E0AD
S113017081838483089590E0880F991F862B809350
S113018007098091050985FD0DC08091050982FD4F
S113019009C08091050983FD05C08091050983701C
S11301A0833079F70895CF93C62F60E00E94BB0097
S11301B0C09308098091050985FD0DC0809105094A
S11301C082FD09C08091050983FD05C08091050960
S11301D08370833079F7E0E0F9E08581848183607E
S11301E08483CF9108950F931F93CF938B01C42FD2
S11301F061E00E94BB0090E01DC08091050985FD6F
S11302000DC08091050982FD09C08091050983FD17
S113021005C0809105098370833079F7F801E90FEF
S1130220F11D8091080980839F5FC91719F082E04E
S1130230809304099C1708F387E080930409CF9105
S11302401F910F91089561EE88E30E94D3002FE57A
S11302508AEE90E0215080409040E1F700C0000019
S11302606AEB88E30E94D3008FE19EE40197F1F7E3
S113027000C000000895CF93DF93CDB7DEB7269773
S1130280CDBFDEBF6CEA88E30E94D3002FE58AEE7F
S113029090E0215080409040E1F700C0000046E02B
S11302A0BE016F5F7F4F88E30E94F3006C816F7023
S11302B0862F90E0A0E0B0E0BA2FA92F982F8827CE
S11302C02D81822BBA2FA92F982F88272E81BC012C
S11302D0CD01622B0E941B0720E030E048E453E488
S11302E00E94A90720E030E040E855E30E94A907F6
S11302F00E94EC068EEC860F2696CDBFDEBFDF9102
S1130300CF9108950F931F939C01062F90E040E036
S113031050E0BA010EC0E92FF0E0EE0FFF1FE20F2C
S1130320F31F0190F081E02D4E0F5F1F611D711DC1
S11303309F5F901780F310E020E030E0CB01BA011A
S1130340A90198010E941608C9011F910F910895EF
S113035064E60E948201880F991F880F991F880FF5
S1130360991F9C0140E050E060E07CE18EE49EE057
S11303700E943808C90108958FE89AE40E94A308EE
S11303808FE89AE40E94A3088FE89AE40E94A308E5
S11303908CE596E40E94A30889E696E40E94A308EB
S11303A08FE89AE40E94A3088DE796E40E94A308CC
S11303B008958091A44B80FF13C081E090E0809366
S11303C02F45909330451092280A88EA96E49F932B
S11303D08F930E948F080E94BC010F900F90089584
S11303E081FF13C081E090E080932B4590932C45CE
S11303F010922A0A81EC96E49F938F930E948F08AF
S11304000E94BC010F900F90089582FF13C081E0F9
S113041090E080932745909328451092290A8AED0D
S113042096E49F938F930E948F080E94BC010F90C3
S11304300F90089583FF12C081E090E080932345DC
S11304409093244510922B0A83EF96E49F938F9305
S11304500E948F080E94BC010F900F900895809114
S1130460A44B80FF11C082E090E080932F459093CD
S113047030458CE097E49F938F930E948F080E94ED
S1130480BC010F900F90089581FF11C082E090E0AD
S113049080932B4590932C4586E297E49F938F930A
S11304A00E948F080E94BC010F900F90089582FF54
S11304B011C082E090E0809327459093284580E422
S11304C097E49F938F930E948F080E94BC010F9022
S11304D00F90089583FF10C082E090E0809323453D
S11304E0909324458AE597E49F938F930E948F0805
S11304F00E94BC010F900F9008958091A44B80FF3F
S11305000FC010922F45109230458091AB4B8093D1
S1130510280A84E797E40E94A3080E94BC01089576
S113052081FF13C010922B4510922C458091AB4B48
S113053080932A0A82E997E49F938F930E948F08FD
S11305400E94BC010F900F90089582FF13C0109277
S11305502745109228458091AB4B8093290A8EEA57
S113056097E49F938F930E948F080E94BC010F9081
S11305700F90089583FF12C01092234510922445D2
S11305808091AB4B80932B0A8AEC97E49F938F93D3
S11305900E948F080E94BC010F900F90089586EE70
S11305A097E40E94A3088FE89AE40E94A30888EFC6
S11305B097E40E94A3080895CF93DF9389E198E418
S11305C00E94A3088FE89AE40E94A308CFE2D5E42E
S11305D08B818F938A818F9384E298E49F938F9386
S11305E00E948F08E881F981EE0FFF1FED5CFA4B42
S11305F081818F9380818F9384E398E49F938F9379
S11306000E948F08CBE2D5E48B818F938A818F93EC
S113061086E498E49F938F930E948F08E881F98180
S1130620EE0FFF1FED5CFA4B81818F9380818F93D6
S113063086E598E49F938F930E948F08C7E2D5E4E0
S11306408B818F938A818F9388E698E49F938F930D
S11306500E948F08E881F981EE0FFF1FED5CFA4BD1
S113066081818F9380818F9388E798E49F938F9300
S11306700E948F08C3E2D5E48B818F938A818F9384
S11306808AE898E49F938F930E948F08E881F98108
S1130690EE0FFF1FED5CFA4B81818F9380818F9366
S11306A08AE998E49F938F930E948F088DB79EB731
S11306B080968DBF9EBF0E943B01282F30E020937F
S11306C0AE4B3093AF4B1F928F938CEA98E49F9379
S11306D08F930E948F088FE89AE40E94A3088FE802
S11306E09AE40E94A3080E94BC010F900F900F90FF
S11306F00F90DF91CF9108958EEB98E40E94A308A8
S11307008AEC98E40E94A30885EE98E40E94A3086A
S11307100895CF93DF939B019091B04B992349F0B7
S11307208EE099E49F938F930E948F080F900F900F
S113073021C1482F50E04D30510508F087C0FA011F
S1130740E658FF4F0C94570886E299E40E94A308E8
S11307500E94CF0281E08093A44B0CC18EE399E404
S11307600E94A3080E94CF0282E08093A44B02C19E
S113077086E599E40E94A3080E94CF0284E0809356
S1130780A44BF8C08EE699E40E94A3080E94CF020D
S113079088E08093A44BEEC086E899E40E94A30805
S11307A01092B74B0E94D901E5C08DE999E40E94EB
S11307B0A30887EB99E40E94A3088DEC99E40E94B6
S11307C0A30881E08093B74BD5C083E09AE40E94EC
S11307D0A3081092B74B0E942F02CCC08BE19AE47D
S11307E00E94A30882E99CE40E94A80180933145F9
S11307F0909332458AEC9BE40E94A80180932D4596
S113080090932E450E94DC02B5C087E39AE40E94CF
S1130810A3080E947C03AEC081E08093A34B85E5CE
S11308209AE49F938F930E948F08809122451F9290
S11308308F9381E99AE49F938F930E948F080F907E
S11308400F900F900F900F900F9094C09091A34B26
S11308509923A1F0C9010E94600880932245109257
S1130860A34B1F928F938DEB9AE49F938F930E94D7
S11308708F080F900F900F900F907CC09091B74B02
S1130880992309F473C08A3089F08B30E1F0893000
S113089039F589EF9AE40E94A30883E290E08093FB
S11308A0AB4B9093AC4B0E947D0264C080E19BE40F
S11308B00E94A3088CE390E08093AB4B9093AC4BE5
S11308C00E947D0257C08AE29BE40E94A3088FE441
S11308D090E08093AB4B9093AC4B0E947D024AC056
S11308E0C9010E9460088093BD4B9093BE4B9F93B7
S11308F08F938EED95E49F938F930E948F08609160
S1130900BD4B7091BE4B0F900F900F900F906536BA
S1130910710538F580E090E00E941B0720E030E08C
S113092048EC52E40E947A0620E030E04EE952E4BA
S11309300E94A9070E94EC06D62FC72F7F936F93BE
S11309408EED95E49F938F930E948F08D093AB4BC9
S1130950C093AC4B0E947D020F900F900F900F90AC
S113096009C082E49BE40E94A30804C08CE69BE4D3
S11309700E94A308DF91CF9108950F931F93CF9303
S11309808C01C0E00CC084E6C89FB0011124625FF2
S11309907F4BC8010E947E08892B29F0CF5FCD30A0
S11309A090F38FEF01C08C2FCF911F910F91089579
S11309B09091640895FFFCCF8093620808950E948B
S11309C0D80480E090E00895CF9380916408882350
S11309D0E4F7C09160088C2F0E94D8048C2FCF912B
S11309E00895E0E2F4E081E0818382E08283E0E63E
S11309F0F8E085818068858383E896E08087918725
S1130A008681806C868380E090E480935C4D909333
S1130A105D4D0895CF93DF93CDB7DEB7C456D109AA
S1130A20CDBFDEBF0E94E4048A3089F08D3079F0B6
S1130A309091A04B933658F421E0290F2093A04BBA
S1130A40E1E0F0E0EC0FFD1FE90FF11D80838D3034
S1130A5011F08A30A1F48091A04BE1E0F0E0EC0FBA
S1130A60FD1FE80FF11D10821092A04BCE010196DC
S1130A700E94BD04BE016F5F7F4F0E948903CC5961
S1130A80DF4FCDBFDEBFDF91CF9108958BE180931F
S1130A906104089583E08093E605E0E0FAE093E3DF
S1130AA0918321E0238391839FE496A310A697A3C7
S1130AB011A612A613A680830895E0E2F4E08081D3
S1130AC08F7E808384898860848BE0E0FBE085E00E
S1130AD0808384E0818381E0858391E49483E0E0F2
S1130AE0F2E09CE4908B86AF0895E0E2F4E080812C
S1130AF08F7D808385898860858BE0E1FBE085E0DC
S1130B00808384E0818381E0858381E484838DE430
S1130B108093110282E08093400208958091021034
S1130B2081FDFCCF0895E0E4F1E081E080838783D8
S1130B3099E4908B828B08951F920F920FB60F92B7
S1130B4011248F939F938091C44B9091C54B019630
S1130B508093C44B9093C54B81E0809353019F9144
S1130B608F910F900FBE0F901F9018951F920F92A8
S1130B700FB60F9211240BB60F922F933F934F93FE
S1130B805F936F937F938F939F93AF93BF93EF93F1
S1130B90FF930E940A05FF91EF91BF91AF919F913E
S1130BA08F917F916F915F914F913F912F910F9012
S1130BB00BBE0F900FBE0F901F9018951F920F92AF
S1130BC00FB60F9211240BB60F922F933F938F936E
S1130BD0AF93BF93EF93FF93A0E0BBE081E0169641
S1130BE08C9316978091A24BE82FF0E01C962D91E0
S1130BF03C911D97EE0FFF1FEE56F34B208331837C
S1130C008F5F8093A24B843610F01092A24BFF9119
S1130C10EF91BF91AF918F913F912F910F900BBEA8
S1130C200F900FBE0F901F9018951F920F920FB642
S1130C300F9211240BB60F922F933F938F93AF9380
S1130C40BF93EF93FF93A0E1BBE081E016968C93F2
S1130C5016978091A14BE82FF0E01C962D913C91C2
S1130C601D97EE0FFF1FE653F44B208331838F5FF4
S1130C708093A14B843610F01092A14BFF91EF9119
S1130C80BF91AF918F913F912F910F900BBE0F9019
S1130C900FBE0F901F9018950E94F10478940E9443
S1130CA046050E944A050E945D050E9475050E9442
S1130CB0A8000E9423010E9493050E948E05809142
S1130CC00200909103000E94870B8093B94B90938C
S1130CD0BA4B0E948E0580910000909101000E9401
S1130CE0870B8093B14B9093B24B0E94BC0180E080
S1130CF090E008950E948E060C946F070E94680786
S1130D0058F00E94610740F029F45F3F29F00C94E9
S1130D10580751110C94A3070C945E070E94800796
S1130D2068F39923B1F3552391F3951B550BBB2716
S1130D30AA2762177307840738F09F5F5F4F220F5B
S1130D40331F441FAA1FA9F335D00E2E3AF0E0E852
S1130D5032D091505040E695001CCAF72BD0FE2F9C
S1130D6029D0660F771F881FBB1F26173707480730
S1130D70AB07B0E809F0BB0B802DBF01FF279358E8
S1130D805F4F3AF09E3F510578F00C9458070C944D
S1130D90A3075F3FE4F3983ED4F386957795679570
S1130DA0B795F7959F5FC9F7880F911D969587951D
S1130DB097F90895E1E0660F771F881FBB1F62173C
S1130DC073078407BA0720F0621B730B840BBA0BFA
S1130DD0EE1F88F7E09508950E94880788F09F57D2
S1130DE098F0B92F9927B751B0F0E1F0660F771F4B
S1130DF0881F991F1AF0BA95C9F714C0B13091F041
S1130E000E94A207B1E008950C94A207672F782FDF
S1130E108827B85F39F0B93FCCF386957795679505
S1130E20B395D9F73EF490958095709561957F4F71
S1130E308F4F9F4F0895E89409C097FB3EF4909517
S1130E408095709561957F4F8F4F9F4F9923A9F09F
S1130E50F92F96E9BB279395F6958795779567952E
S1130E60B795F111F8CFFAF4BB0F11F460FF1BC072
S1130E706F5F7F4F8F4F9F4F16C0882311F096E905
S1130E8011C0772321F09EE8872F762F05C06623B3
S1130E9071F096E8862F70E060E02AF09A95660F6C
S1130EA0771F881FDAF7880F9695879597F9089525
S1130EB097F99F6780E870E060E008959FEF80EC09
S1130EC0089500240A9416161706180609060895AC
S1130ED000240A9412161306140605060895092E12
S1130EE00394000C11F4882352F0BB0F40F4BF2B81
S1130EF011F460FF04C06F5F7F4F8F4F9F4F0895C1
S1130F0057FD9058440F551F59F05F3F71F04795B6
S1130F10880F97FB991F61F09F3F79F0879508959B
S1130F20121613061406551FF2CF4695F1DF08C0BA
S1130F30161617061806991FF1CF869571056105D7
S1130F4008940895E894BB2766277727CB0197F97F
S1130F5008950E94BC070C946F070E94610738F043
S1130F600E94680720F0952311F00C9458070C9404
S1130F705E0711240C94A3070E94800770F3959FC9
S1130F80C1F3950F50E0551F629FF001729FBB277C
S1130F90F00DB11D639FAA27F00DB11DAA1F649F18
S1130FA06627B00DA11D661F829F2227B00DA11DCB
S1130FB0621F739FB00DA11D621F839FA00D611D51
S1130FC0221F749F3327A00D611D231F849F600D72
S1130FD0211D822F762F6A2F11249F5750409AF09B
S1130FE0F1F088234AF0EE0FFF1FBB1F661F771F27
S1130FF0881F91505040A9F79E3F510580F00C94F2
S113100058070C94A3075F3FE4F3983ED4F3869506
S113101077956795B795F795E7959F5FC1F7FE2B91
S1131020880F911D9695879597F90895A1E21A2E38
S1131030AA1BBB1BFD010DC0AA1FBB1FEE1FFF1F78
S1131040A217B307E407F50720F0A21BB30BE40BC8
S1131050F50B661F771F881F991F1A9469F760950F
S11310607095809590959B01AC01BD01CF010895C9
S1131070052E97FB1EF400940E944F0857FD07D0DD
S11310800E94160807FC03D04EF40C944F085095A8
S11310904095309521953F4F4F4F5F4F0895909560
S11310A08095709561957F4F8F4F9F4F0895EE0FF8
S11310B0FF1F0024001C0BBE0790F691E02D09943D
S11310C0FC0188279927E89421912032E9F32930FB
S11310D010F02E30C8F32B3241F02D3239F46894DD
S11310E004C00E948708820F911D219120532A3049
S11310F0C0F31EF4909581959F4F0895FB01DC0188
S11311008D91019080190110D9F3990B08957AE01B
S1131110979F902D879F802D910D11240895CF9333
S1131120DF93CDB7DEB7AE014B5F5F4FFA0161913C
S11311307191AF0180915C4D90915D4D0E94D308F7
S1131140DF91CF9108950F931F93CF93DF93E09195
S11311505C4DF0915D4D238121FF1BC08C01D0E0DB
S1131160C0E0F80181918F0160915C4D70915D4DFB
S1131170DB011896ED91FC911997882331F00995BC
S1131180892B79F3DFEFCFEFECCF8AE00995892B38
S113119019F08FEF9FEF02C08D2F9C2FDF91CF911D
S11311A01F910F9108952F923F924F925F926F92E9
S11311B07F928F929F92AF92BF92CF92DF92EF92E3
S11311C0FF920F931F93CF93DF93CDB7DEB72B9787
S11311D0CDBFDEBF6C017B018A01FC011682178240
S11311E0838181FFCCC1CE0101963C01F60193813C
S11311F0F70193FD859193FF81917F01882309F481
S1131200BAC1853239F493FD859193FF81917F01B1
S1131210853229F4B60190E00E94ED0AE7CF912CC3
S1131220212C312CFFE1F315D8F08B3279F038F40E
S1131230803279F08332A1F4232D20611DC08D32D8
S113124061F0803369F4232D216016C0832D826000
S1131250382EE32DE4603E2E2AC0F32DF8601DC025
S113126037FC2DC020ED280F2A3040F08E32B9F41F
S113127036FC81C1232D2064322E19C036FE06C0EF
S11312808AE0989E200D1124922E11C0EAE02E9E31
S1131290200D1124222EF32DF0623F2E08C08C362F
S11312A021F4832D8068382E02C0883641F4F7017A
S11312B093FD859193FF81917F018111B3CF982F85
S11312C09F7D9554933028F40C5F1F4F9FE39983BF
S11312D00DC0833631F0833771F0833509F059C07E
S11312E021C0F801808189830E5F1F4F8824839475
S11312F0912C530113C02801F2E04F0E511CF80148
S1131300A080B18036FE03C0692D70E002C06FEF8B
S11313107FEFC5010E94E20A4C018201F32DFF77A1
S11313203F2E16C0280122E0420E511CF801A08075
S1131330B18036FE03C0692D70E002C06FEF7FEF0D
S1131340C5010E94D70A4C01F32DF0683F2E82019B
S113135033FC1BC0822D90E088169906B0F4B601C8
S113136080E290E00E94ED0A2A94F4CFF50137FC64
S1131370859137FE81915F01B60190E00E94ED0AEC
S113138021102A9421E0821A91088114910471F7A2
S1131390E8C0843611F0893641F5F80137FE07C0FC
S11313A060817181828193810C5F1F4F08C06081CD
S11313B07181072E000C880B990B0E5F1F4FF32DC4
S11313C0FF763F2E97FF09C09095809570956195A3
S11313D07F4F8F4F9F4FF0683F2E2AE030E0A301EC
S11313E00E94290B882E861845C0853731F4232D99
S11313F02F7EB22E2AE030E025C0932D997FB92E9E
S11314008F36C1F018F4883579F0B5C0803719F0FB
S1131410883721F0B0C0E92FE061BE2EB4FE0DC0C4
S1131420FB2DF460BF2E09C034FE0AC0292F2660AC
S1131430B22E06C028E030E005C020E130E002C052
S113144020E132E0F801B7FE07C06081718182813A
S113145093810C5F1F4F06C06081718180E090E032
S11314600E5F1F4FA3010E94290B882E8618FB2DA7
S1131470FF773F2E36FE0DC0232D2E7FA22E89141A
S113148058F434FE0BC032FC09C0832D8E7EA82E86
S113149005C0B82CA32C03C0B82C01C0B92CA4FEE1
S11314A00FC0FE01E80DF11D8081803321F49A2DD7
S11314B0997EA92E09C0A2FE06C0B394B39404C0B9
S11314C08A2D867809F0B394A3FC11C0A0FE06C04F
S11314D0B21488F4280C922C9B180EC0B21460F439
S11314E0B60180E290E00E94ED0AB394F7CFB21403
S11314F018F42B1802C0982C212CA4FE10C0B6019D
S113150080E390E00E94ED0AA2FE17C0A1FC03C094
S113151088E790E002C088E590E0B6010CC08A2D0F
S1131520867859F0A1FE02C08BE201C080E2A7FCDC
S11315308DE2B60190E00E94ED0A891438F4B601F8
S113154080E390E00E94ED0A9A94F7CF8A94F30125
S1131550E80DF11D8081B60190E00E94ED0A811032
S1131560F5CF222009F442CEB60180E290E00E9439
S1131570ED0A2A94F6CFF6018681978102C08FEF97
S11315809FEF2B96CDBFDEBFDF91CF911F910F91BF
S1131590FF90EF90DF90CF90BF90AF909F908F908F
S11315A07F906F905F904F903F902F900895FC0133
S11315B00590615070400110D8F7809590958E0F7A
S11315C09F1F0895FC016150704001900110D8F7ED
S11315D0809590958E0F9F1F08950F931F93CF931F
S11315E0DF93FB01238121FD03C08FEF9FEF2CC00C
S11315F022FF16C046815781248135814217530743
S113160044F4A081B1819D012F5F3F4F208331833A
S11316108C93268137812F5F3F4F2683378314C0F5
S11316208B01EC01FB010084F185E02D0995892BE8
S1131630E1F6D80116968D919C911797019616960E
S11316408D939C931797CE01DF91CF911F910F91AA
S11316500895FA01AA27283051F1203181F1E89444
S11316606F936E7F6E5F7F4F8F4F9F4FAF4FB1E091
S11316703ED0B4E03CD0670F781F891F9A1FA11D8C
S1131680680F791F8A1F911DA11D6A0F711D811D8D
S1131690911DA11D20D009F468943F912AE0269F52
S11316A011243019305D3193DEF6CF010895462FB1
S11316B04770405D4193B3E00FD0C9F7F6CF462F92
S11316C04F70405D4A3318F0495D31FD40524193FB
S11316D002D0A9F7EACFB4E0A695979587957795B8
S11316E06795BA95C9F700976105710508959B013F
S11316F0AC010A2E06945795479537952795BA95C8
S1131700C9F7620F731F841F951FA01D08950E94BF
S1131710900B80819181089503D080819927089549
S10F1720FC01E050FC4E0895F894FFCF4B
S113172C0000000200000000DF04000000006661FD
S113173C6E310000000000000000000000000000FA
S113174C0000000000000000000000000000000089
S113175C0000000000000000000000000000000079
S113176C0000000000000000000000000000000069
S113177C0000000000000000000000000000000059
S113178C0000000000000000000000000000000049
S113179C000066616E3200000000000000000000D2
S11317AC0000000000000000000000000000000029
S11317BC0000000000000000000000000000000019
S11317CC0000000000000000000000000000000009
S11317DC00000000000000000000000000000000F9
S11317EC00000000000000000000000000000000E9
S11317FC00000000000066616E3300000000000071
S113180C00000000000000000000000000000000C8
S113181C00000000000000000000000000000000B8
S113182C00000000000000000000000000000000A8
S113183C0000000000000000000000000000000098
S113184C0000000000000000000000000000000088
S113185C0000000000000000000066616E3400000F
S113186C0000000000000000000000000000000068
S113187C0000000000000000000000000000000058
S113188C0000000000000000000000000000000048
S113189C0000000000000000000000000000000038
S11318AC0000000000000000000000000000000028
S11318BC00000000000000000000000000006F6643
S11318CC66000000000000000000000000000000A2
S11318DC00000000000000000000000000000000F8
S11318EC00000000000000000000000000000000E8
S11318FC00000000000000000000000000000000D8
S113190C00000000000000000000000000000000C7
S113191C00000000000000000000000000000000B7
S113192C00006D616E75616C000000000000000029
S113193C0000000000000000000000000000000097
S113194C0000000000000000000000000000000087
S113195C0000000000000000000000000000000077
S113196C0000000000000000000000000000000067
S113197C0000000000000000000000000000000057
S113198C0000000000006175746F0000000000008E
S113199C0000000000000000000000000000000037
S11319AC0000000000000000000000000000000027
S11319BC0000000000000000000000000000000017
S11319CC0000000000000000000000000000000007
S11319DC00000000000000000000000000000000F7
S11319EC000000000000000000006F76657276694C
S11319FC65770000000000000000000000000000FB
S1131A0C00000000000000000000000000000000C6
S1131A1C00000000000000000000000000000000B6
S1131A2C00000000000000000000000000000000A6
S1131A3C0000000000000000000000000000000096
S1131A4C0000000000000000000000000000636FB4
S1131A5C6E74726F6C6C6572000000000000000004
S1131A6C0000000000000000000000000000000066
S1131A7C0000000000000000000000000000000056
S1131A8C0000000000000000000000000000000046
S1131A9C0000000000000000000000000000000036
S1131AAC0000000000000000000000000000000026
S1131ABC00006C6F770000000000000000000000C4
S1131ACC0000000000000000000000000000000006
S1131ADC00000000000000000000000000000000F6
S1131AEC00000000000000000000000000000000E6
S1131AFC00000000000000000000000000000000D6
S1131B0C00000000000000000000000000000000C5
S1131B1C0000000000006D656469756D0000000034
S1131B2C00000000000000000000000000000000A5
S1131B3C0000000000000000000000000000000095
S1131B4C0000000000000000000000000000000085
S1131B5C0000000000000000000000000000000075
S1131B6C0000000000000000000000000000000065
S1131B7C00000000000000000000686967680000B5
S1131B8C0000000000000000000000000000000045
S1131B9C0000000000000000000000000000000035
S1131BAC0000000000000000000000000000000025
S1131BBC0000000000000000000000000000000015
S1131BCC0000000000000000000000000000000005
S1131BDC0000000000000000000000000000616C28
S1131BEC61726D00000000000000000000000000A5
S1131BFC00000000000000000000000000000000D5
S1131C0C00000000000000000000000000000000C4
S1131C1C00000000000000000000000000000000B4
S1131C2C00000000000000000000000000000000A4
S1131C3C0000000000000000000000000000000094
S1131C4C00005A0100000001000000010000000126
S1131C5C000000904B974B9B4B446961676E6F730C
S1131C6C65207374617274657421200D004E756D5A
S1131C7C626572206F662072656164696E67733A7F
S1131C8C2025640D0A00476A656E6E6F6D736E696C
S1131C9C74742066616E20313A2025640D0A004765
S1131CAC6A656E6E6F6D736E6974742066616E20F6
S1131CBC323A2025640D0A006F6C642066616E2034
S1131CCC323A2025640D0A0050524F53454E54208D
S1131CDC66616E20313A2025640D0A0050524F5330
S1131CEC454E542066616E20323A2025640D0A005C
S1131CFC5354415455532066616E20313A20256467
S1131D0C0D0A005354415455532066616E20323AE7
S1131D1C2025640D0A00414C41524D2066616E2011
S1131D2C312120547970653A207765617220616E97
S1131D3C642074656172200D00414C41524D206643
S1131D4C616E20322120547970653A207765617276
S1131D5C20616E642074656172200D00414C415207
S1131D6C4D2066616E20312120547970653A206DC6
S1131D7C6F6D656E746172696C790D00686F6D6559
S1131D8C73637265656E3A0D0054797065207761E2
S1131D9C6E74656420616374696F6E0D00416C74BC
S1131DAC65726E6174697665733A206F76657276C6
S1131DBC6965772C20636F6E74726F6C6C65722C12
S1131DCC20616C61726D0D0066616E312069732047
S1131DDC6E6F7720696E206D6F64653A206F66664E
S1131DEC0066616E32206973206E6F7720696E20F5
S1131DFC6D6F64653A206F66660066616E332069A8
S1131E0C73206E6F7720696E206D6F64653A206F56
S1131E1C66660066616E34206973206E6F77206984
S1131E2C6E206D6F64653A206F66660066616E3174
S1131E3C206973206E6F7720696E206D6F64653A2C
S1131E4C204175746F0066616E32206973206E6F69
S1131E5C7720696E206D6F64653A204175746F004C
S1131E6C66616E33206973206E6F7720696E206D06
S1131E7C6F64653A204175746F0066616E34206935
S1131E8C73206E6F7720696E206D6F64653A204104
S1131E9C75746F0066616E31206973206E6F7720E4
S1131EAC696E206D6F64653A204D616E75616C20AE
S1131EBC0D0066616E32206973206E6F7720696E37
S1131ECC206D6F64653A204D616E75616C006661BE
S1131EDC6E33206973206E6F7720696E206D6F648A
S1131EEC653A204D616E75616C0066616E342069D3
S1131EFC73206E6F7720696E206D6F64653A204D88
S1131F0C616E75616C00547970652077616E7465CF
S1131F1C64206D6F64650D00416C7465726E617440
S1131F2C697665733A206F66662C206175746F2C24
S1131F3C206D616E75616C0D004F564552564945C6
S1131F4C57200D0046616E20312072706D3A2025A9
S1131F5C640D0A0046616E20312073746174653A15
S1131F6C2025730D0A0046616E20322072706D3A82
S1131F7C2025640D0A0046616E203220737461744E
S1131F8C653A2025730D0A0046616E203320727069
S1131F9C6D3A2025640D0A0046616E20332073745B
S1131FAC6174653A2025730D0A0046616E20342055
S1131FBC72706D3A2025640D0A0046616E2034203F
S1131FCC73746174653A2025730D0A0054656D7041
S1131FDC657261747572653A2025640D0A00436F4D
S1131FEC6E74726F6C6C65720D0053656C65637402
S1131FFC20776861742066616E20746F2063686159
S113200C6E67650D00416C7465726E6174697665FA
S113201C733A2066616E312C2066616E322C206618
S113202C616E33206F722066616E34200D0044693A
S113203C61676E6F73652069732072756E6E696E5D
S113204C67210D0A20005265636569766564206317
S113205C6F6D6D616E643A2066616E310D00526570
S113206C63656976656420636F6D6D616E643A2097
S113207C66616E320D005265636569766564206332
S113208C6F6D6D616E643A2066616E330D0052653E
S113209C63656976656420636F6D6D616E643A2067
S11320AC66616E340D005265636569766564206300
S11320BC6F6D6D616E643A206F66660D00526563D8
S11320CC656976656420636F6D6D616E643A206D2D
S11320DC616E75616C0D00547970652077616E7456
S11320EC65642072706D206D6F64650D00416C74B5
S11320FC65726E6174697665733A206C6F772C2007
S113210C6D656469756D2C2068696768206F722031
S113211C66616E2073706565643A20302D31303001
S113212C200D00526563656976656420636F6D6D7F
S113213C616E643A206175746F0D00526563656954
S113214C76656420636F6D6D616E643A206F76659D
S113215C72766965770D00526563656976656420EE
S113216C636F6D6D616E643A20636F6E74726F6C25
S113217C6C65720D00547970652077616E746564BA
S113218C20646576696174696F6E2070657263652D
S113219C6E7461676520666F722077656172206169
S11321AC6E64207465617220616C61726D200A0D1D
S11321BC0043757272656E7420616C61726D20647B
S11321CC6576696174696F6E2070657263656E748F
S11321DC6167652069733A2025640A0D007765618F
S11321EC7220616E64207465617220616C61726D21
S11321FC206465766174696F6E2070657263656EB8
S113220C74616765206973206368616E6765642017
S113221C746F3A2025640A0D00526563656976650E
S113222C6420636F6D6D616E643A206C6F770D0082
S113223C526563656976656420636F6D6D616E6468
S113224C3A206D656469756D0D0052656365697638
S113225C656420636F6D6D616E643A2068696768AC
S113226C0D00506C6561736520696E736572742022
S113227C612076616C696420647574792063796378
S113228C6C652028302D313030290D00756E6B6E45
S113229C6F776E20636F6D6D616E64200D00486501
S11322AC7220736B72657665743A2025640D0A008E
S11322BC4D414E55414C004F4646004155544F003C
S9030000FC
