S010000050726F736A656B742E73726563C2
S11300000C947A000C9499000C9499000C94990027
S11300100C9499000C9499000C9499000C949900F8
S11300200C9499000C9499000C9499000C949900E8
S11300300C9499000C9499000C94C9010C942B0114
S11300400C9499000C9499000C9499000C949900C8
S11300500C9499000C9499000C9499000C949900B8
S11300600C9499000C9499000C9499000C949900A8
S11300700C9499000C9499000C9499000C94990098
S11300800C9499000C9499000C9499000C94990088
S11300900C9499000C9499000C9499000C94990078
S11300A00C9499000C9499000C9499000C94990068
S11300B00C9499000C9499000C9499000C94990058
S11300C00C9499000C9499000C9499000C94990048
S11300D00C9499000C9499000C9499000C94990038
S11300E00C9499000C9499000C9499000C94990028
S11300F00C94990011241FBECFEFCDBFDFE7DEBF04
S113010010E4A0E0B0E4E2E8FCE000E00BBF02C0D1
S113011007900D92A034B107D9F720E4A0E4B0E42D
S113012001C01D92AA34B207E1F70E944B010C945E
S11301303F060C9400009091640895FFFCCF8093D7
S1130140620808958BE18093610483E08093E6055F
S1130150E0E0FAE083E3818391E09383818387E2A3
S113016086A310A687A311A612A613A685E08083F2
S11301700895E0E2F4E080818F7E80838489886042
S1130180848BE0E0FBE085E0808384E0818381E090
S1130190858391E49483E0E0F2E09CE4908B86AF65
S11301A00895E0E2F4E080818F7D80838589886012
S11301B0858BE0E1FBE085E0808384E0818381E05E
S11301C0858381E484838DE48093110282E08093AB
S11301D040020895E0E6F4E08689887F868B86896C
S11301E08460868B8689877F868BE0E0F6E081E0F9
S11301F0828385E08093B000808386E0808780815D
S1130200826080830895E0E0F6E081E0858780895C
S11302109189089581E080930A06089580910D06DE
S11302208170089580E090E4809346409093474025
S11302300895E0E2F4E080818D7F80838081816095
S11302408083E0E6F8E083E896E080879187868102
S11302508064868308951F920F920FB60F92112423
S11302600BB60F928F939F93EF93FF93E0E1FBE024
S113027081E08683848595858093424090934340B2
S1130280FF91EF919F918F910F900BBE0F900FBE36
S11302900F901F9018950E9412010E9419010E944C
S11302A0A2000E94B9000E94D1000E94EA000E94AC
S11302B00A0178940E940E018823E1F30E9403014D
S11302C0EC01BC0180E090E00E942A022AE037E2BF
S11302D04CE15DE30E9490020E94FB01162F072F60
S11302E0DF93CF938EE090E49F938F930E94470314
S11302F00F931F938EE190E49F938F930E94470383
S1130300809141408F93809140408F938EE290E49E
S11303109F938F930E9447038DE390E40E945B03B5
S11303208DE390E40E945B031093280A8DB79EB777
S11303300C968DBF9EBFC73B93E0D90720F08FE09A
S11303408093290AB7CFC13283E0D80720F08AE02E
S113035080932A0AAFCFCD3BD24020F080E1809336
S11303602B0AA8CFE0E0FAE012A611A613A6A2CFAA
S113037082959295907F9827807F98279C0140E0F2
S113038050E060E07CE18EE49EE00E942503C90118
S113039008951F920F920FB60F9211240BB60F926D
S11303A02F933F934F935F936F937F938F939F9379
S11303B0AF93BF93EF93FF93E0E0FBE081E086838C
S11303C0848595850E94B801809340409093414074
S11303D0FF91EF91BF91AF919F918F917F916F9119
S11303E05F914F913F912F910F900BBE0F900FBED5
S11303F00F901F9018950E946F0288F09F5798F0F5
S1130400B92F9927B751B0F0E1F0660F771F881F15
S1130410991F1AF0BA95C9F714C0B13091F00E942F
S11304208902B1E008950C948902672F782F8827F8
S1130430B85F39F0B93FCCF3869577956795B39556
S1130440D9F73EF490958095709561957F4F8F4FC5
S11304509F4F0895E89409C097FB3EF490958095CA
S1130460709561957F4F8F4F9F4F9923A9F0F92F76
S113047096E9BB279395F695879577956795B795F4
S1130480F111F8CFFAF4BB0F11F460FF1BC06F5FDA
S11304907F4F8F4F9F4F16C0882311F096E911C0EC
S11304A0772321F09EE8872F762F05C0662371F00D
S11304B096E8862F70E060E02AF09A95660F771F21
S11304C0881FDAF7880F9695879597F9089557FD51
S11304D09058440F551F59F05F3F71F04795880FAE
S11304E097FB991F61F09F3F79F087950895121645
S11304F013061406551FF2CF4695F1DF08C01616F1
S113050017061806991FF1CF8695710561050894A1
S11305100895E894BB2766277727CB0197F90895B8
S11305200E94A3020C9414030E94060338F00E9454
S11305300D0320F0952311F00C94FD020C94030399
S113054011240C948A020E94670270F3959FC1F3F0
S1130550950F50E0551F629FF001729FBB27F00D6D
S1130560B11D639FAA27F00DB11DAA1F649F6627C2
S1130570B00DA11D661F829F2227B00DA11D621F11
S1130580739FB00DA11D621F839FA00D611D221FCB
S1130590749F3327A00D611D231F849F600D211DAF
S11305A0822F762F6A2F11249F5750409AF0F1F032
S11305B088234AF0EE0FFF1FBB1F661F771F881F9B
S11305C091505040A9F79E3F510580F00C94FD02D4
S11305D00C948A025F3FE4F3983ED4F386957795B2
S11305E06795B795F795E7959F5FC1F7FE2B880F41
S11305F0911D9695879597F9089597F99F6780E8D7
S113060070E060E008959FEF80EC089500240A9460
S11306101616170618060906089500240A941216D9
S11306201306140605060895092E0394000C11F40C
S1130630882352F0BB0F40F4BF2B11F460FF04C0B9
S11306406F5F7F4F8F4F9F4F0895A1E21A2EAA1B11
S1130650BB1BFD010DC0AA1FBB1FEE1FFF1FA2176E
S1130660B307E407F50720F0A21BB30BE40BF50B6B
S1130670661F771F881F991F1A9469F760957095F4
S1130680809590959B01AC01BD01CF010895CF9356
S1130690DF93CDB7DEB7AE014B5F5F4FFA016191D7
S11306A07191AF0180914640909147400E948B0325
S11306B0DF91CF9108950F931F93CF93DF93E09130
S11306C04640F0914740238121FF1BC08C01D0E0BC
S11306D0C0E0F80181918F016091464070914740DC
S11306E0DB011896ED91FC911997882331F0099557
S11306F0892B79F3DFEFCFEFECCF8AE00995892BD3
S113070019F08FEF9FEF02C08D2F9C2FDF91CF91B7
S11307101F910F9108952F923F924F925F926F9283
S11307207F928F929F92AF92BF92CF92DF92EF927D
S1130730FF920F931F93CF93DF93CDB7DEB72B9721
S1130740CDBFDEBF6C017B018A01FC0116821782DA
S1130750838181FFCCC1CE0101963C01F6019381D6
S1130760F70193FD859193FF81917F01882309F41B
S1130770BAC1853239F493FD859193FF81917F014C
S1130780853229F4B60190E00E94A505E7CF912CAB
S1130790212C312CFFE1F315D8F08B3279F038F4A9
S11307A0803279F08332A1F4232D20611DC08D3273
S11307B061F0803369F4232D216016C0832D82609B
S11307C0382EE32DE4603E2E2AC0F32DF8601DC0C0
S11307D037FC2DC020ED280F2A3040F08E32B9F4BA
S11307E036FC81C1232D2064322E19C036FE06C08A
S11307F08AE0989E200D1124922E11C0EAE02E9ECC
S1130800200D1124222EF32DF0623F2E08C08C36C9
S113081021F4832D8068382E02C0883641F4F70114
S113082093FD859193FF81917F018111B3CF982F1F
S11308309F7D9554933028F40C5F1F4F9FE3998359
S11308400DC0833631F0833771F0833509F059C018
S113085021C0F801808189830E5F1F4F882483940F
S1130860912C530113C02801F2E04F0E511CF801E2
S1130870A080B18036FE03C0692D70E002C06FEF26
S11308807FEFC5010E949A054C018201F32DFF7789
S11308903F2E16C0280122E0420E511CF801A08010
S11308A0B18036FE03C0692D70E002C06FEF7FEFA8
S11308B0C5010E948F054C01F32DF0683F2E820183
S11308C033FC1BC0822D90E088169906B0F4B60163
S11308D080E290E00E94A5052A94F4CFF50137FC4C
S11308E0859137FE81915F01B60190E00E94A505D4
S11308F021102A9421E0821A91088114910471F73D
S1130900E8C0843611F0893641F5F80137FE07C096
S113091060817181828193810C5F1F4F08C0608167
S11309207181072E000C880B990B0E5F1F4FF32D5E
S1130930FF763F2E97FF09C090958095709561953D
S11309407F4F8F4F9F4FF0683F2E2AE030E0A30186
S11309500E94E105882E861845C0853731F4232D81
S11309602F7EB22E2AE030E025C0932D997FB92E38
S11309708F36C1F018F4883579F0B5C0803719F096
S1130980883721F0B0C0E92FE061BE2EB4FE0DC05F
S1130990FB2DF460BF2E09C034FE0AC0292F266047
S11309A0B22E06C028E030E005C020E130E002C0ED
S11309B020E132E0F801B7FE07C0608171818281D5
S11309C093810C5F1F4F06C06081718180E090E0CD
S11309D00E5F1F4FA3010E94E105882E8618FB2D90
S11309E0FF773F2E36FE0DC0232D2E7FA22E8914B5
S11309F058F434FE0BC032FC09C0832D8E7EA82E21
S1130A0005C0B82CA32C03C0B82C01C0B92CA4FE7B
S1130A100FC0FE01E80DF11D8081803321F49A2D71
S1130A20997EA92E09C0A2FE06C0B394B39404C053
S1130A308A2D867809F0B394A3FC11C0A0FE06C0E9
S1130A40B21488F4280C922C9B180EC0B21460F4D3
S1130A50B60180E290E00E94A505B394F7CFB214EA
S1130A6018F42B1802C0982C212CA4FE10C0B60137
S1130A7080E390E00E94A505A2FE17C0A1FC03C07C
S1130A8088E790E002C088E590E0B6010CC08A2DAA
S1130A90867859F0A1FE02C08BE201C080E2A7FC77
S1130AA08DE2B60190E00E94A505891438F4B601E0
S1130AB080E390E00E94A5059A94F7CF8A94F3010D
S1130AC0E80DF11D8081B60190E00E94A50581101A
S1130AD0F5CF222009F442CEB60180E290E00E94D4
S1130AE0A5052A94F6CFF6018681978102C08FEF7F
S1130AF09FEF2B96CDBFDEBFDF91CF911F910F915A
S1130B00FF90EF90DF90CF90BF90AF909F908F9029
S1130B107F906F905F904F903F902F900895FC01CD
S1130B200590615070400110D8F7809590958E0F14
S1130B309F1F0895FC016150704001900110D8F787
S1130B40809590958E0F9F1F08950F931F93CF93B9
S1130B50DF93FB01238121FD03C08FEF9FEF2CC0A6
S1130B6022FF16C0468157812481358142175307DD
S1130B7044F4A081B1819D012F5F3F4F20833183D5
S1130B808C93268137812F5F3F4F2683378314C090
S1130B908B01EC01FB010084F185E02D0995892B83
S1130BA0E1F6D80116968D919C91179701961696A9
S1130BB08D939C931797CE01DF91CF911F910F9145
S1130BC00895FA01AA27283051F1203181F1E894DF
S1130BD06F936E7F6E5F7F4F8F4F9F4FAF4FB1E02C
S1130BE03ED0B4E03CD0670F781F891F9A1FA11D27
S1130BF0680F791F8A1F911DA11D6A0F711D811D28
S1130C00911DA11D20D009F468943F912AE0269FEC
S1130C1011243019305D3193DEF6CF010895462F4B
S1130C204770405D4193B3E00FD0C9F7F6CF462F2C
S1130C304F70405D4A3318F0495D31FD4052419395
S1130C4002D0A9F7EACFB4E0A69597958795779552
S1130C506795BA95C9F700976105710508959B01D9
S1130C60AC010A2E06945795479537952795BA9562
S1130C70C9F7620F731F841F951FA01D0895F89470
S1050C80FFCFA0
S1130C8200000002000000009B000000000041443C
S1130C92432056616C75653A2025640D0A0046614D
S1130CA26E2073706565643A2025640D0A005057FE
S1130CB24D20726561643A2025640D0A000D00001E
S9030000FC
