S010000050726F736A656B742E73726563C2
S11300000C947A000C9499000C9499000C94990027
S11300100C9499000C9499000C9499000C949900F8
S11300200C9499000C9499000C9499000C949900E8
S11300300C9499000C9499000C94B8000C949900B9
S11300400C9499000C9499000C9499000C949900C8
S11300500C9499000C9499000C9499000C949900B8
S11300600C9499000C9499000C9499000C949900A8
S11300700C9499000C9499000C9499000C94990098
S11300800C9499000C9499000C9499000C94990088
S11300900C9499000C9499000C9499000C94990078
S11300A00C9499000C9499000C9499000C94990068
S11300B00C9499000C9499000C9499000C94990058
S11300C00C9499000C9499000C9499000C94990048
S11300D00C9499000C9499000C9499000C94990038
S11300E00C9499000C9499000C9499000C94990028
S11300F00C94990011241FBECFEFCDBFDFE7DEBF04
S113010010E4A0E0B0E4E2E3FBE000E00BBF02C0D7
S113011007900D92A631B107D9F720E4A6E1B0E427
S113012001C01D92A032B207E1F70E9429010C948C
S113013097050C9400009091640895FFFCCF809380
S113014062080895E0E2F4E080818F7E808388E095
S1130150848BE0E0FBE085E0808384E0818381E0C0
S113016085838483E0E0F2E09CE4908B86AF08957D
S11301701F920F920FB60F9211240BB60F928F930A
S11301809F93EF93FF93E0E0FBE081E08683848517
S113019095858093184090931940FF91EF919F911A
S11301A08F910F900BBE0F900FBE0F901F9018955C
S11301B083E08093E605E0E0FAE083E1818384E173
S11301C090E086AB97AB10AE11AE85E080830895C6
S11301D0E0E6F4E081E0818382E082830895E0E652
S11301E0F4E08689887F868B86898460868B8689FD
S11301F0877F868BE0E0F6E081E0828385E0809370
S1130200B000808386E08087808182608083089547
S1130210E0E0F6E081E0858780899189089581E0B6
S113022080930A06089580910D0681700895E0E296
S1130230F4E080818D7F8083808181608083E0E62B
S1130240F8E083E896E080879187868180648683DE
S113025008950E94170180E090E480931C409093DD
S11302601D400E94E8000E94D8000E94A2000E9443
S1130270EF000E940F0178940E9413018823E1F398
S11302800E940801BC0180E090E00E94A4012AE0E1
S113029038E240EA5CE30E940A020E9475016B01A5
S11302A07C01DF926F93CEE0D0E4DF93CF930E9482
S11302B09F02809119408F93809118408F93DF9310
S11302C0CF930E949F0283E190E40E94B30283E1F2
S11302D090E40E94B302C092380AD092390A8DB7D2
S11302E09EB708968DBF9EBFC7CF0E94E90188F0D4
S11302F09F5798F0B92F9927B751B0F0E1F0660FE6
S1130300771F881F991F1AF0BA95C9F714C0B13026
S113031091F00E940302B1E008950C940302672F48
S1130320782F8827B85F39F0B93FCCF38695779555
S11303306795B395D9F73EF490958095709561953E
S11303407F4F8F4F9F4F0895E89409C097FB3EF469
S113035090958095709561957F4F8F4F9F4F99230E
S1130360A9F0F92F96E9BB279395F695879577958C
S11303706795B795F111F8CFFAF4BB0F11F460FF4C
S11303801BC06F5F7F4F8F4F9F4F16C0882311F0A4
S113039096E911C0772321F09EE8872F762F05C0B8
S11303A0662371F096E8862F70E060E02AF09A9553
S11303B0660F771F881FDAF7880F9695879597F948
S11303C0089557FD9058440F551F59F05F3F71F041
S11303D04795880F97FB991F61F09F3F79F08795A8
S11303E00895121613061406551FF2CF4695F1DF31
S11303F008C0161617061806991FF1CF86957105C1
S1130400610508940895E894BB2766277727CB01F4
S113041097F908950E941D020C948E020E94800296
S113042038F00E94870220F0952311F00C94770293
S11304300C947D0211240C9404020E94E10170F3D7
S1130440959FC1F3950F50E0551F629FF001729F75
S1130450BB27F00DB11D639FAA27F00DB11DAA1F84
S1130460649F6627B00DA11D661F829F2227B00DD1
S1130470A11D621F739FB00DA11D621F839FA00D5C
S1130480611D221F749F3327A00D611D231F849FAC
S1130490600D211D822F762F6A2F11249F57504003
S11304A09AF0F1F088234AF0EE0FFF1FBB1F661F7E
S11304B0771F881F91505040A9F79E3F510580F047
S11304C00C9477020C9404025F3FE4F3983ED4F357
S11304D0869577956795B795F795E7959F5FC1F7EB
S11304E0FE2B880F911D9695879597F9089597F996
S11304F09F6780E870E060E008959FEF80EC0895C6
S113050000240A94161617061806090608950024EE
S11305100A9412161306140605060895092E039468
S1130520000C11F4882352F0BB0F40F4BF2B11F4DC
S113053060FF04C06F5F7F4F8F4F9F4F0895CF932D
S1130540DF93CDB7DEB7AE014B5F5F4FFA01619128
S11305507191AF0180911C4090911D400E94E30273
S1130560DF91CF9108950F931F93CF93DF93E09181
S11305701C40F0911D40238121FF1BC08C01D0E061
S1130580C0E0F80181918F0160911C4070911D4081
S1130590DB011896ED91FC911997882331F00995A8
S11305A0892B79F3DFEFCFEFECCF8AE00995892B24
S11305B019F08FEF9FEF02C08D2F9C2FDF91CF9109
S11305C01F910F9108952F923F924F925F926F92D5
S11305D07F928F929F92AF92BF92CF92DF92EF92CF
S11305E0FF920F931F93CF93DF93CDB7DEB72B9773
S11305F0CDBFDEBF6C017B018A01FC01168217822C
S1130600838181FFCCC1CE0101963C01F601938127
S1130610F70193FD859193FF81917F01882309F46C
S1130620BAC1853239F493FD859193FF81917F019D
S1130630853229F4B60190E00E94FD04E7CF912CA5
S1130640212C312CFFE1F315D8F08B3279F038F4FA
S1130650803279F08332A1F4232D20611DC08D32C4
S113066061F0803369F4232D216016C0832D8260EC
S1130670382EE32DE4603E2E2AC0F32DF8601DC011
S113068037FC2DC020ED280F2A3040F08E32B9F40B
S113069036FC81C1232D2064322E19C036FE06C0DB
S11306A08AE0989E200D1124922E11C0EAE02E9E1D
S11306B0200D1124222EF32DF0623F2E08C08C361B
S11306C021F4832D8068382E02C0883641F4F70166
S11306D093FD859193FF81917F018111B3CF982F71
S11306E09F7D9554933028F40C5F1F4F9FE39983AB
S11306F00DC0833631F0833771F0833509F059C06A
S113070021C0F801808189830E5F1F4F8824839460
S1130710912C530113C02801F2E04F0E511CF80133
S1130720A080B18036FE03C0692D70E002C06FEF77
S11307307FEFC5010E94F2044C018201F32DFF7783
S11307403F2E16C0280122E0420E511CF801A08061
S1130750B18036FE03C0692D70E002C06FEF7FEFF9
S1130760C5010E94E7044C01F32DF0683F2E82017D
S113077033FC1BC0822D90E088169906B0F4B601B4
S113078080E290E00E94FD042A94F4CFF50137FC46
S1130790859137FE81915F01B60190E00E94FD04CE
S11307A021102A9421E0821A91088114910471F78E
S11307B0E8C0843611F0893641F5F80137FE07C0E8
S11307C060817181828193810C5F1F4F08C06081B9
S11307D07181072E000C880B990B0E5F1F4FF32DB0
S11307E0FF763F2E97FF09C090958095709561958F
S11307F07F4F8F4F9F4FF0683F2E2AE030E0A301D8
S11308000E943905882E861845C0853731F4232D7A
S11308102F7EB22E2AE030E025C0932D997FB92E89
S11308208F36C1F018F4883579F0B5C0803719F0E7
S1130830883721F0B0C0E92FE061BE2EB4FE0DC0B0
S1130840FB2DF460BF2E09C034FE0AC0292F266098
S1130850B22E06C028E030E005C020E130E002C03E
S113086020E132E0F801B7FE07C060817181828126
S113087093810C5F1F4F06C06081718180E090E01E
S11308800E5F1F4FA3010E943905882E8618FB2D89
S1130890FF773F2E36FE0DC0232D2E7FA22E891406
S11308A058F434FE0BC032FC09C0832D8E7EA82E72
S11308B005C0B82CA32C03C0B82C01C0B92CA4FECD
S11308C00FC0FE01E80DF11D8081803321F49A2DC3
S11308D0997EA92E09C0A2FE06C0B394B39404C0A5
S11308E08A2D867809F0B394A3FC11C0A0FE06C03B
S11308F0B21488F4280C922C9B180EC0B21460F425
S1130900B60180E290E00E94FD04B394F7CFB214E4
S113091018F42B1802C0982C212CA4FE10C0B60188
S113092080E390E00E94FD04A2FE17C0A1FC03C076
S113093088E790E002C088E590E0B6010CC08A2DFB
S1130940867859F0A1FE02C08BE201C080E2A7FCC8
S11309508DE2B60190E00E94FD04891438F4B601DA
S113096080E390E00E94FD049A94F7CF8A94F30107
S1130970E80DF11D8081B60190E00E94FD04811014
S1130980F5CF222009F442CEB60180E290E00E9425
S1130990FD042A94F6CFF6018681978102C08FEF79
S11309A09FEF2B96CDBFDEBFDF91CF911F910F91AB
S11309B0FF90EF90DF90CF90BF90AF909F908F907B
S11309C07F906F905F904F903F902F900895FC011F
S11309D00590615070400110D8F7809590958E0F66
S11309E09F1F0895FC016150704001900110D8F7D9
S11309F0809590958E0F9F1F08950F931F93CF930B
S1130A00DF93FB01238121FD03C08FEF9FEF2CC0F7
S1130A1022FF16C04681578124813581421753072E
S1130A2044F4A081B1819D012F5F3F4F2083318326
S1130A308C93268137812F5F3F4F2683378314C0E1
S1130A408B01EC01FB010084F185E02D0995892BD4
S1130A50E1F6D80116968D919C91179701961696FA
S1130A608D939C931797CE01DF91CF911F910F9196
S1130A700895FA01AA27283051F1203181F1E89430
S1130A806F936E7F6E5F7F4F8F4F9F4FAF4FB1E07D
S1130A903ED0B4E03CD0670F781F891F9A1FA11D78
S1130AA0680F791F8A1F911DA11D6A0F711D811D79
S1130AB0911DA11D20D009F468943F912AE0269F3E
S1130AC011243019305D3193DEF6CF010895462F9D
S1130AD04770405D4193B3E00FD0C9F7F6CF462F7E
S1130AE04F70405D4A3318F0495D31FD40524193E7
S1130AF002D0A9F7EACFB4E0A695979587957795A4
S1130B006795BA95C9F700976105710508959B012A
S1130B10AC010A2E06945795479537952795BA95B3
S1130B20C9F7620F731F841F951FA01D0895F894C1
S1050B30FFCFF1
S1130B3200000002000000009B0000000000256489
S1090B420D0A000D000085
S9030000FC
