S0130000466C657474696E765F76322E73726563BE
S11300000C9483000C94A2000C94A2000C94A20003
S11300100C94A2000C94A2000C94A2000C94A200D4
S11300200C94A2000C94A2000C94A2000C94A200C4
S11300300C94A2000C94A2000C948F030C94C6039D
S11300400C94A2000C94A2000C94A2000C94A200A4
S11300500C94A2000C94A2000C94A2000C94A20094
S11300600C94A2000C94A2000C94A2000C94A20084
S11300700C94A2000C94A2000C94A2000C94A20074
S11300800C94A2000C94A2000C94A2000C94A20064
S11300900C94A2000C94A2000C94A2000C94A20054
S11300A00C94A2000C94A2000C94A2000C94A20044
S11300B00C94A2000C94A2000C94A2000C94A20034
S11300C00C94A2000C94A2000C94A2000C94A20024
S11300D00C94A2000C9477050C94A2000C94A2003A
S11300E00C94A2000C94A2000C94A2000C94A20004
S11300F00C94A2005D04670471047B0485048E04DF
S11301009E04A704BA0411241FBECFEFCDBFDFE7BE
S1130110DEBF19E4A0E0B0E4EAE6F6E100E00BBFDC
S113012002C007900D92AC31B107D9F72BE4ACE1D2
S1130130B9E401C01D92AC32B207E1F70E949F05F9
S11301400C94330B0C940000E0E0F4E08CE0818329
S113015098E093878487E0E0F9E081E08383168266
S11301608583E0E8F4E082E081838483089590E06D
S1130170880F991F862B809307098091050985FDB7
S11301800DC08091050982FD09C08091050983FD98
S113019005C0809105098370833079F70895CF9362
S11301A0C62F60E00E94B700C0930809809105093A
S11301B085FD0DC08091050982FD09C08091050966
S11301C083FD05C0809105098370833079F7E0E0F1
S11301D0F9E08581848183608483CF91089561EE01
S11301E088E30E94CF002FE58AEE90E02150804002
S11301F09040E1F700C000006AEB88E30E94CF0062
S11302008FE19EE40197F1F700C000000895CB97B9
S1130210BC0180E090E00E94C70620E030E040E0AE
S11302205FE30E94BA050E9498066E3118F06035AB
S113023018F403C06EE101C06FE4862F90E00895C6
S11302408091C744823041F48091D0449091D1444C
S11302500E9407018093280A8091C444823041F4AB
S11302608091D0449091D1440E94070180932A0A3E
S11302708091C144823041F48091D0449091D14422
S11302800E9407018093290A8091BE44823041F480
S11302908091D0449091D1440E94070180932B0A0D
S11302A008958BE797E40E944F088BE797E40E9438
S11302B04F088BE797E40E944F0882ED94E40E9474
S11302C04F088FED94E40E944F088BE797E40E9457
S11302D04F0883EF94E40E944F08089580912149C8
S11302E080FF10C081E08093C7441092280A87E100
S11302F095E49F938F930E943B080E9451010F90B5
S11303000F90089581FF10C081E08093C44410923F
S11303102A0A80E395E49F938F930E943B080E94EE
S113032051010F900F90089582FF10C081E08093D7
S1130330C1441092290A89E495E49F938F930E9403
S11303403B080E9451010F900F90089583FF0FC046
S113035081E08093BE4410922B0A82E695E49F9339
S11303608F930E943B080E9451010F900F900895B3
S11303708091214980FF0EC082E08093C7448BE7BF
S113038095E49F938F930E943B080E9451010F9024
S11303900F90089581FF0EC082E08093C44485E9E4
S11303A095E49F938F930E943B080E9451010F9004
S11303B00F90089582FF0EC082E08093C1448FEABB
S11303C095E49F938F930E943B080E9451010F90E4
S11303D00F90089583FF0DC082E08093BE4489ECA2
S11303E095E49F938F930E943B080E9451010F90C4
S11303F00F9008958091214980FF0DC01092C74449
S1130400809124498093280A83EE95E40E944F0842
S11304100E945101089581FF11C01092C44480913B
S1130420244980932A0A81E096E49F938F930E9443
S11304303B080E9451010F900F90089582FF11C054
S11304401092C144809124498093290A8DE196E455
S11304509F938F930E943B080E9451010F900F902D
S1130460089583FF10C01092BE4480912449809364
S11304702B0A89E396E49F938F930E943B080E9482
S113048051010F900F90089585E596E40E944F085E
S11304908BE797E40E944F0887E696E40E944F0892
S11304A00895CF93DF9388E896E40E944F088BE782
S11304B097E40E944F08C7ECD4E48A818F93898122
S11304C08F9383E996E49F938F930E943B08E8817E
S11304D0F0E0EE0FFF1FE653FB4B81818F93808189
S11304E08F9383EA96E49F938F930E943B08C4EC16
S11304F0D4E48A818F9389818F9385EB96E49F93CB
S11305008F930E943B08E881F0E0EE0FFF1FE65353
S1130510FB4B81818F9380818F9385EC96E49F932D
S11305208F930E943B08C1ECD4E48A818F93898124
S11305308F9387ED96E49F938F930E943B08E88105
S1130540F0E0EE0FFF1FE653FB4B81818F93808118
S11305508F9387EE96E49F938F930E943B08CEEB94
S1130560D4E48A818F9389818F9389EF96E49F9352
S11305708F930E943B08E881F0E0EE0FFF1FE653E3
S1130580FB4B81818F9380818F9389E097E49F93C4
S11305908F930E943B088DB79EB780968DBF9EBFF8
S11305A08091D1448F938091D0448F938BE197E4D1
S11305B09F938F930E943B088BE797E40E944F0818
S11305C08BE797E40E944F080E9451010F900F900F
S11305D00F900F90DF91CF9108958DE297E40E94E0
S11305E04F0889E397E40E944F0884E597E40E944A
S11305F04F0808950F931F93CF938C01C0E00CC054
S113060084E6C89FB0011124625F7F4BC8010E9439
S11306102A08892B29F0CF5FCC3090F38FEF01C0EB
S11306208C2FCF911F910F9108959091640895FF9D
S1130630FCCF8093620808950E94150380E090E047
S11306400895CF93809164088823E4F7C0916008EB
S11306508C2F0E9415038C2FCF910895E0E2F4E0D3
S113066081E0818382E08283E0E6F8E0858180682E
S1130670858383E896E0808791878681806C868372
S113068080E090E48093284B9093294B08958BE16C
S113069080936104089583E08093E605E0E0FAE046
S11306A093E3918321E0238391839FE496A310A68F
S11306B097A311A612A613A680830895E0E2F4E09E
S11306C080818F7E808384898860848BE0E0FBE076
S11306D085E0808384E0818381E0858391E4948351
S11306E0E0E0F2E09CE4908B86AF0895E0E2F4E071
S11306F080818F7D808385898860858BE0E1FBE044
S113070085E0808384E0818381E0858381E4848340
S11307108DE48093110282E08093400208951F9239
S11307200F920FB60F9211240BB60F922F933F9393
S11307308F93AF93BF93EF93FF93A0E0BBE081E06F
S113074016968C93169780911E49E82FF0E01C961C
S11307502D913C911D97EE0FFF1FE25AF54B20831C
S113076031838F5F80931E49843610F010921E49A6
S1130770FF91EF91BF91AF918F913F912F910F9086
S11307800BBE0F900FBE0F901F9018951F920F92E3
S11307900FB60F9211240BB60F922F933F938F93A2
S11307A0AF93BF93EF93FF93A0E1BBE081E0169674
S11307B08C93169780911D49E82FF0E01C962D919B
S11307C03C911D97EE0FFF1FEA56F64B20833183B1
S11307D08F5F80931D49843610F010921D49FF915C
S11307E0EF91BF91AF918F913F912F910F900BBEDD
S11307F00F900FBE0F901F9018950F931F939C019D
S1130800062F90E040E050E0BA010EC0E92FF0E07E
S1130810EE0FFF1FE20FF31F0190F081E02D4E0F4A
S11308205F1F611D711D9F5F901780F310E020E032
S113083030E0CB01BA01A90198010E94C207C901A5
S11308401F910F91089564E68EE59AE40E94FD03DA
S1130850880F991F880F991F880F991F9C0140E0EA
S113086050E060E07CE18EE49EE00E94E407C90170
S1130870089564E686E999E40E94FD03880F991FB0
S1130880880F991F880F991F9C0140E050E060E099
S11308907CE18EE49EE00E94E407C9010895CF93B1
S11308A0DF939B01482F50E04930510508F069C09F
S11308B0FA01E658FF4F0C9403088DE797E40E9471
S11308C04F080E94440281E080932149D1C085E908
S11308D097E40E944F080E94440282E080932149D9
S11308E0C7C08DEA97E40E944F080E94440284E046
S11308F080932149BDC085EC97E40E944F080E9473
S1130900440288E080932149B3C08DED97E40E94AE
S11309104F0810928B490E946E01AAC084EF97E49D
S11309200E944F088EE098E40E944F0884E298E405
S11309300E944F0881E080938B499AC086E498E432
S11309400E944F0810928B490E94B80191C08EE515
S113095098E40E944F080E9423048093C844909313
S1130960C9440E9439048093C5449093C6440E94AC
S113097051027EC08AE798E40E944F080E94ED026B
S113098077C090918B49992309F472C08A3089F019
S11309908B30E1F0893039F588E998E40E944F08FA
S11309A083E290E080932449909325490E94FA01C0
S11309B05FC08FEA98E40E944F088CE390E0809334
S11309C02449909325490E94FA0152C089EC98E485
S11309D00E944F088FE490E0809324499093254926
S11309E00E94FA0145C0C9010E940C0880938F49F6
S11309F0909390499F938F9388E297E49F938F936A
S1130A000E943B0860918F49709190490F900F901C
S1130A100F900F906536710538F580E090E00E94E4
S1130A20C70620E030E048EC52E40E94260620E0AD
S1130A3030E04EE952E40E9455070E949806D62FF2
S1130A40C72F7F936F9388E297E49F938F930E94BD
S1130A503B08D0932449C09325490E94FA010F9082
S1130A600F900F900F9004C081EE98E40E944F08FD
S1130A70DF91CF910895CF93DF93CDB7DEB7C456FE
S1130A80D109CDBFDEBF0E9421038A3089F08D30A9
S1130A9079F090911C49933658F421E0290F209362
S1130AA01C49E1E0F0E0EC0FFD1FE90FF11D80832C
S1130AB08D3011F08A30A1F480911C49E1E0F0E01E
S1130AC0EC0FFD1FE80FF11D108210921C49CE019E
S1130AD001960E94FA02BE016F5F7F4F0E944F048D
S1130AE0CC59DF4FCDBFDEBFDF91CF9108951F9268
S1130AF00F920FB60F9211240BB60F922F933F93C0
S1130B004F935F936F937F938F939F93AF93BF9311
S1130B10EF93FF930E943B05FF91EF91BF91AF913B
S1130B209F918F917F916F915F914F913F912F9101
S1130B300F900BBE0F900FBE0F901F9018950E9440
S1130B402E0378940E9447030E944B030E945E0385
S1130B500E9476030E94A4000E94EF000E945101AB
S1130B600E9420018FE097E20197F1F700C0000096
S1130B70F7CF5058BB27AA270E94D1050C941B0716
S1130B800E940D0738F00E94140720F039F49F3FAB
S1130B9019F426F40C940A070EF4E095E7FB0C9480
S1130BA00407E92F0E942C0758F3BA17620773074A
S1130BB08407950720F079F4A6F50C944E070EF4FB
S1130BC0E0950B2EBA2FA02D0B01B90190010C0159
S1130BD0CA01A0011124FF27591B99F0593F50F471
S1130BE0503E68F11A16F040A22F232F342F4427C9
S1130BF0585FF3CF469537952795A795F0405395C1
S1130C00C9F77EF41F16BA0B620B730B840BBAF090
S1130C109150A1F0FF0FBB1F661F771F881FC2F7FB
S1130C200EC0BA0F621F731F841F48F4879577950F
S1130C306795B795F7959E3F08F0B0CF9395880FC9
S1130C4008F09927EE0F9795879508950E943A0624
S1130C500C941B070E94140758F00E940D0740F0E3
S1130C6029F45F3F29F00C94040751110C944F07A9
S1130C700C940A070E942C0768F39923B1F35523B7
S1130C8091F3951B550BBB27AA276217730784079B
S1130C9038F09F5F5F4F220F331F441FAA1FA9F331
S1130CA035D00E2E3AF0E0E832D091505040E6951F
S1130CB0001CCAF72BD0FE2F29D0660F771F881F80
S1130CC0BB1F261737074807AB07B0E809F0BB0B73
S1130CD0802DBF01FF2793585F4F3AF09E3F510587
S1130CE078F00C9404070C944F075F3FE4F3983EAC
S1130CF0D4F3869577956795B795F7959F5FC9F770
S1130D00880F911D9695879597F90895E1E0660FF0
S1130D10771F881FBB1F621773078407BA0720F069
S1130D20621B730B840BBA0BEE1F88F7E0950895D2
S1130D300E94340788F09F5798F0B92F9927B7512C
S1130D40B0F0E1F0660F771F881F991F1AF0BA956B
S1130D50C9F714C0B13091F00E944E07B1E0089574
S1130D600C944E07672F782F8827B85F39F0B93F66
S1130D70CCF3869577956795B395D9F73EF490951E
S1130D808095709561957F4F8F4F9F4F0895E8949C
S1130D9009C097FB3EF490958095709561957F4FBF
S1130DA08F4F9F4F9923A9F0F92F96E9BB2793956D
S1130DB0F695879577956795B795F111F8CFFAF47D
S1130DC0BB0F11F460FF1BC06F5F7F4F8F4F9F4FAE
S1130DD016C0882311F096E911C0772321F09EE80C
S1130DE0872F762F05C0662371F096E8862F70E072
S1130DF060E02AF09A95660F771F881FDAF7880F4C
S1130E009695879597F9089597F99F6780E870E01C
S1130E1060E008959FEF80EC089500240A9416166C
S1130E20170618060906089500240A9412161306D4
S1130E30140605060895092E0394000C11F4882362
S1130E4052F0BB0F40F4BF2B11F460FF04C06F5F7E
S1130E507F4F8F4F9F4F089557FD9058440F551F54
S1130E6059F05F3F71F04795880F97FB991F61F028
S1130E709F3F79F087950895121613061406551F9F
S1130E80F2CF4695F1DF08C0161617061806991F0B
S1130E90F1CF86957105610508940895E894BB2700
S1130EA066277727CB0197F908950E9468070C9469
S1130EB01B070E940D0738F00E94140720F09523A9
S1130EC011F00C9404070C940A0711240C944F0796
S1130ED00E942C0770F3959FC1F3950F50E0551FA6
S1130EE0629FF001729FBB27F00DB11D639FAA277B
S1130EF0F00DB11DAA1F649F6627B00DA11D661FCA
S1130F00829F2227B00DA11D621F739FB00DA11DEA
S1130F10621F839FA00D611D221F749F3327A00DA4
S1130F20611D231F849F600D211D822F762F6A2F40
S1130F3011249F5750409AF0F1F088234AF0EE0FA5
S1130F40FF1FBB1F661F771F881F91505040A9F7D2
S1130F509E3F510580F00C9404070C944F075F3FAB
S1130F60E4F3983ED4F3869577956795B795F7950E
S1130F70E7959F5FC1F7FE2B880F911D9695879586
S1130F8097F90895A1E21A2EAA1BBB1BFD010DC0FF
S1130F90AA1FBB1FEE1FFF1FA217B307E407F50725
S1130FA020F0A21BB30BE40BF50B661F771F881F01
S1130FB0991F1A9469F760957095809590959B0197
S1130FC0AC01BD01CF010895052E97FB1EF40094DA
S1130FD00E94FB0757FD07D00E94C20707FC03D0FD
S1130FE04EF40C94FB0750954095309521953F4F56
S1130FF04F4F5F4F089590958095709561957F4F01
S11310008F4F9F4F0895EE0FFF1F0024001C0BBE4F
S11310100790F691E02D0994FC0188279927E8941C
S113102021912032E9F3293010F02E30C8F32B320D
S113103041F02D3239F4689404C00E943308820FC1
S1131040911D219120532A30C0F31EF4909581956F
S11310509F4F0895FB01DC018D91019080190110CF
S1131060D9F3990B08957AE0979F902D879F802D4F
S1131070910D11240895CF93DF93CDB7DEB7AE0160
S11310804B5F5F4FFA0161917191AF018091284BE1
S11310909091294B0E947F08DF91CF9108950F937F
S11310A01F93CF93DF93E091284BF091294B238139
S11310B021FF1BC08C01D0E0C0E0F80181918F01B9
S11310C06091284B7091294BDB011896ED91FC91AE
S11310D01997882331F00995892B79F3DFEFCFEF46
S11310E0ECCF8AE00995892B19F08FEF9FEF02C0AE
S11310F08D2F9C2FDF91CF911F910F9108952F92E7
S11311003F924F925F926F927F928F929F92AF9293
S1131110BF92CF92DF92EF92FF920F931F93CF93E0
S1131120DF93CDB7DEB72B97CDBFDEBF6C017B015C
S11311308A01FC0116821782838181FFCCC1CE0112
S113114001963C01F6019381F70193FD859193FF8C
S113115081917F01882309F4BAC1853239F493FD62
S1131160859193FF81917F01853229F4B60190E046
S11311700E94990AE7CF912C212C312CFFE1F31521
S1131180D8F08B3279F038F4803279F08332A1F4DC
S1131190232D20611DC08D3261F0803369F4232D2D
S11311A0216016C0832D8260382EE32DE4603E2E2C
S11311B02AC0F32DF8601DC037FC2DC020ED280F88
S11311C02A3040F08E32B9F436FC81C1232D2064DC
S11311D0322E19C036FE06C08AE0989E200D1124D6
S11311E0922E11C0EAE02E9E200D1124222EF32D02
S11311F0F0623F2E08C08C3621F4832D8068382E8F
S113120002C0883641F4F70193FD859193FF8191E3
S11312107F018111B3CF982F9F7D9554933028F48B
S11312200C5F1F4F9FE399830DC0833631F08337E2
S113123071F0833509F059C021C0F8018081898398
S11312400E5F1F4F88248394912C530113C02801EF
S1131250F2E04F0E511CF801A080B18036FE03C0AD
S1131260692D70E002C06FEF7FEFC5010E948E0A06
S11312704C018201F32DFF773F2E16C0280122E096
S1131280420E511CF801A080B18036FE03C0692DC6
S113129070E002C06FEF7FEFC5010E94830A4C012A
S11312A0F32DF0683F2E820133FC1BC0822D90E0A9
S11312B088169906B0F4B60180E290E00E94990A7B
S11312C02A94F4CFF50137FC859137FE81915F01B3
S11312D0B60190E00E94990A21102A9421E0821A12
S11312E091088114910471F7E8C0843611F08936AD
S11312F041F5F80137FE07C06081718182819381D5
S11313000C5F1F4F08C060817181072E000C880B91
S1131310990B0E5F1F4FF32DFF763F2E97FF09C0E9
S113132090958095709561957F4F8F4F9F4FF06892
S11313303F2E2AE030E0A3010E94D50A882E8618A9
S113134045C0853731F4232D2F7EB22E2AE030E0BC
S113135025C0932D997FB92E8F36C1F018F48835A6
S113136079F0B5C0803719F0883721F0B0C0E92F83
S1131370E061BE2EB4FE0DC0FB2DF460BF2E09C08B
S113138034FE0AC0292F2660B22E06C028E030E0C1
S113139005C020E130E002C020E132E0F801B7FEF0
S11313A007C060817181828193810C5F1F4F06C0E9
S11313B06081718180E090E00E5F1F4FA3010E9465
S11313C0D50A882E8618FB2DFF773F2E36FE0DC0DA
S11313D0232D2E7FA22E891458F434FE0BC032FC28
S11313E009C0832D8E7EA82E05C0B82CA32C03C063
S11313F0B82C01C0B92CA4FE0FC0FE01E80DF11DEC
S11314008081803321F49A2D997EA92E09C0A2FEF1
S113141006C0B394B39404C08A2D867809F0B394BB
S1131420A3FC11C0A0FE06C0B21488F4280C922CB0
S11314309B180EC0B21460F4B60180E290E00E94E2
S1131440990AB394F7CFB21418F42B1802C0982C4D
S1131450212CA4FE10C0B60180E390E00E94990AFA
S1131460A2FE17C0A1FC03C088E790E002C088E593
S113147090E0B6010CC08A2D867859F0A1FE02C016
S11314808BE201C080E2A7FC8DE2B60190E00E94ED
S1131490990A891438F4B60180E390E00E94990A0D
S11314A09A94F7CF8A94F301E80DF11D8081B60177
S11314B090E00E94990A8110F5CF222009F442CECF
S11314C0B60180E290E00E94990A2A94F6CFF601D0
S11314D08681978102C08FEF9FEF2B96CDBFDEBF31
S11314E0DF91CF911F910F91FF90EF90DF90CF90FC
S11314F0BF90AF909F908F907F906F905F904F9030
S11315003F902F900895FC010590615070400110A8
S1131510D8F7809590958E0F9F1F0895FC01615018
S1131520704001900110D8F7809590958E0F9F1F01
S113153008950F931F93CF93DF93FB01238121FD24
S113154003C08FEF9FEF2CC022FF16C04681578146
S1131550248135814217530744F4A081B1819D0150
S11315602F5F3F4F208331838C93268137812F5FF8
S11315703F4F2683378314C08B01EC01FB010084A9
S1131580F185E02D0995892BE1F6D80116968D9108
S11315909C911797019616968D939C931797CE015D
S11315A0DF91CF911F910F910895FA01AA27283056
S11315B051F1203181F1E8946F936E7F6E5F7F4F1C
S11315C08F4F9F4FAF4FB1E03ED0B4E03CD0670F98
S11315D0781F891F9A1FA11D680F791F8A1F911DEB
S11315E0A11D6A0F711D811D911DA11D20D009F43B
S11315F068943F912AE0269F11243019305D31937D
S1131600DEF6CF010895462F4770405D4193B3E065
S11316100FD0C9F7F6CF462F4F70405D4A3318F00C
S1131620495D31FD4052419302D0A9F7EACFB4E0BD
S1131630A6959795879577956795BA95C9F7009775
S11316406105710508959B01AC010A2E0694579516
S1131650479537952795BA95C9F7620F731F841F6D
S10D1660951FA01D0895F894FFCF14
S113166A00000002000000001C0300000000666184
S113167A6E310000000000000000000000000000BD
S113168A000000000000000000000000000000004C
S113169A000000000000000000000000000000003C
S11316AA000000000000000000000000000000002C
S11316BA000000000000000000000000000000001C
S11316CA000000000000000000000000000000000C
S11316DA000066616E320000000000000000000095
S11316EA00000000000000000000000000000000EC
S11316FA00000000000000000000000000000000DC
S113170A00000000000000000000000000000000CB
S113171A00000000000000000000000000000000BB
S113172A00000000000000000000000000000000AB
S113173A00000000000066616E3300000000000033
S113174A000000000000000000000000000000008B
S113175A000000000000000000000000000000007B
S113176A000000000000000000000000000000006B
S113177A000000000000000000000000000000005B
S113178A000000000000000000000000000000004B
S113179A0000000000000000000066616E340000D2
S11317AA000000000000000000000000000000002B
S11317BA000000000000000000000000000000001B
S11317CA000000000000000000000000000000000B
S11317DA00000000000000000000000000000000FB
S11317EA00000000000000000000000000000000EB
S11317FA00000000000000000000000000006F6606
S113180A6600000000000000000000000000000064
S113181A00000000000000000000000000000000BA
S113182A00000000000000000000000000000000AA
S113183A000000000000000000000000000000009A
S113184A000000000000000000000000000000008A
S113185A000000000000000000000000000000007A
S113186A00006D616E75616C0000000000000000EC
S113187A000000000000000000000000000000005A
S113188A000000000000000000000000000000004A
S113189A000000000000000000000000000000003A
S11318AA000000000000000000000000000000002A
S11318BA000000000000000000000000000000001A
S11318CA0000000000006175746F00000000000051
S11318DA00000000000000000000000000000000FA
S11318EA00000000000000000000000000000000EA
S11318FA00000000000000000000000000000000DA
S113190A00000000000000000000000000000000C9
S113191A00000000000000000000000000000000B9
S113192A000000000000000000006F76657276690E
S113193A65770000000000000000000000000000BD
S113194A0000000000000000000000000000000089
S113195A0000000000000000000000000000000079
S113196A0000000000000000000000000000000069
S113197A0000000000000000000000000000000059
S113198A0000000000000000000000000000636F77
S113199A6E74726F6C6C65720000000000000000C7
S11319AA0000000000000000000000000000000029
S11319BA0000000000000000000000000000000019
S11319CA0000000000000000000000000000000009
S11319DA00000000000000000000000000000000F9
S11319EA00000000000000000000000000000000E9
S11319FA00006C6F77000000000000000000000087
S1131A0A00000000000000000000000000000000C8
S1131A1A00000000000000000000000000000000B8
S1131A2A00000000000000000000000000000000A8
S1131A3A0000000000000000000000000000000098
S1131A4A0000000000000000000000000000000088
S1131A5A0000000000006D656469756D00000000F7
S1131A6A0000000000000000000000000000000068
S1131A7A0000000000000000000000000000000058
S1131A8A0000000000000000000000000000000048
S1131A9A0000000000000000000000000000000038
S1131AAA0000000000000000000000000000000028
S1131ABA0000000000000000000068696768000078
S1131ACA0000000000000000000000000000000008
S1131ADA00000000000000000000000000000000F8
S1131AEA00000000000000000000000000000000E8
S1131AFA00000000000000000000000000000000D8
S1131B0A00000000000000000000000000000000C7
S1131B1A00000000000000000000000000000100B6
S1131B2A000100000100000100000B491249164996
S1131B3A1900686F6D6573637265656E3A0D0054BA
S1131B4A7970652077616E74656420616374696F66
S1131B5A6E0D00416C7465726E6174697665733AD0
S1131B6A206F766572766965772C20636F6E74725E
S1131B7A6F6C6C65720D0066616E31206973206E3C
S1131B8A6F7720696E206D6F64653A206F66660010
S1131B9A66616E32206973206E6F7720696E206DDC
S1131BAA6F64653A206F66660066616E33206973F6
S1131BBA206E6F7720696E206D6F64653A206F66B8
S1131BCA660066616E34206973206E6F7720696ED1
S1131BDA206D6F64653A206F66660066616E312017
S1131BEA6973206E6F7720696E206D6F64653A2081
S1131BFA4175746F0066616E32206973206E6F7767
S1131C0A20696E206D6F64653A204175746F0066B1
S1131C1A616E33206973206E6F7720696E206D6F51
S1131C2A64653A204175746F0066616E3420697385
S1131C3A206E6F7720696E206D6F64653A20417556
S1131C4A746F0066616E31206973206E6F77206944
S1131C5A6E206D6F64653A204D616E75616C200D5E
S1131C6A0066616E32206973206E6F7720696E2078
S1131C7A6D6F64653A204D616E75616C0066616EC4
S1131C8A33206973206E6F7720696E206D6F6465E7
S1131C9A3A204D616E75616C0066616E3420697319
S1131CAA206E6F7720696E206D6F64653A204D61EE
S1131CBA6E75616C00547970652077616E74656421
S1131CCA206D6F64650D00416C7465726E61746990
S1131CDA7665733A206F66662C206175746F2C20C2
S1131CEA6D616E75616C0D004F56455256494557E4
S1131CFA200D0046616E20312072706D3A202564F1
S1131D0A0D0A0046616E20312073746174653A20AD
S1131D1A25730D0A0046616E20322072706D3A20D6
S1131D2A25640D0A0046616E20322073746174655D
S1131D3A3A2025730D0A0046616E20332072706DB5
S1131D4A3A2025640D0A0046616E203320737461BB
S1131D5A74653A2025730D0A0046616E2034207298
S1131D6A706D3A2025640D0A0046616E2034207392
S1131D7A746174653A2025730D0A0054656D7065A3
S1131D8A7261747572653A2025640D0A00436F6E98
S1131D9A74726F6C6C65720D0053656C65637420A4
S1131DAA776861742066616E20746F206368616E5F
S1131DBA67650D00416C7465726E6174697665734A
S1131DCA3A2066616E312C2066616E322C2066617F
S1131DDA6E33206F722066616E34200D0052656383
S1131DEA656976656420636F6D6D616E643A206619
S1131DFA616E310D00526563656976656420636FAF
S1131E0A6D6D616E643A2066616E320D00526563CF
S1131E1A656976656420636F6D6D616E643A2066E8
S1131E2A616E330D00526563656976656420636F7C
S1131E3A6D6D616E643A2066616E340D005265639D
S1131E4A656976656420636F6D6D616E643A206FAF
S1131E5A66660D00526563656976656420636F6D15
S1131E6A6D616E643A206D616E75616C0D00547912
S1131E7A70652077616E7465642072706D206D6F71
S1131E8A64650D00416C7465726E6174697665737C
S1131E9A3A206C6F772C206D656469756D2C206807
S1131EAA696768200D005265636569766564206315
S1131EBA6F6D6D616E643A206175746F0D005265C1
S1131ECA63656976656420636F6D6D616E643A203B
S1131EDA6F766572766965770D0052656365697612
S1131EEA656420636F6D6D616E643A20636F6E740E
S1131EFA726F6C6C65720D00526563656976656410
S1131F0A20636F6D6D616E643A206C6F770D0052B9
S1131F1A6563656976656420636F6D6D616E643AA5
S1131F2A206D656469756D0D005265636569766532
S1131F3A6420636F6D6D616E643A20686967680D29
S1131F4A00506C6561736520696E736572742061F3
S1131F5A2076616C69642064757479206379636C92
S1131F6A652028302D313030290D004D414E554120
S10F1F7A4C004F4646004155544F0000F7
S9030000FC
