S0180000554152545F746573745F4B61737065722E73726563EC
S11300000C947A000C9499000C9499000C94990027
S11300100C9499000C9499000C9499000C949900F8
S11300200C9499000C9499000C9499000C949900E8
S11300300C9499000C9499000C9499000C949900D8
S11300400C9499000C9499000C9499000C949900C8
S11300500C9499000C9499000C9499000C949900B8
S11300600C9499000C9499000C9499000C949900A8
S11300700C9499000C9499000C9499000C94990098
S11300800C9499000C9499000C9499000C94990088
S11300900C9499000C9499000C9499000C94990078
S11300A00C9499000C9499000C9499000C94990068
S11300B00C9499000C9499000C9499000C94990058
S11300C00C9499000C9499000C9499000C94990048
S11300D00C9499000C9499000C9499000C94990038
S11300E00C9499000C9499000C9499000C94990028
S11300F00C94990011241FBECFEFCDBFDFE7DEBF04
S113010010E4A0E0B0E4E0EFF2E000E00BBF02C0D6
S113011007900D92AA36B107D9F720E4AAE6B0E415
S113012001C01D92A037B207E1F70E94FD000C94B4
S113013076010C9400009091640895FFFCCF8093A5
S1130140620808950E949B0080E090E008950F9358
S11301501F93CF93DF938C01C0E0D0E007C0F80178
S1130160EC0FFD1F80810E949B002196F8010190F5
S11301700020E9F73197E01BF10BCE17DF0778F386
S1130180DF91CF911F910F91089580916408882386
S1130190E4F7809160080895E0E2F4E081E081836F
S11301A082E08283E0E6F8E083E896E08087918746
S11301B08681806C86830895CF93DF93EC016EE093
S11301C070E40E943D01892B29F483E190E40E94AC
S11301D0460110C06CE270E4CE010E943D01892BFF
S11301E029F483E390E40E94A70004C082E490E42D
S11301F00E94A700DF91CF910895CF93DF93CDB7ED
S1130200DEB7C456D109CDBFDEBF0E94CC0080E06A
S113021090E480936C4090936D408FE097E2019757
S1130220F1F700C0000082E490E40E94A70010E00F
S11302300E94C5008A3081F08D3071F091E0910FF9
S1130240E1E0F0E0EC0FFD1FE10FF11D8083953636
S113025010F4192F01C010E08D3011F08A3041F7ED
S1130260E1E0F0E0EC0FFD1FE10FF11D1082CE0183
S113027001960E94DC0010E0DBCFFB01DC018D91D4
S1130280019080190110D9F3990B08950F931F93CE
S1130290CF93DF93E0916C40F0916D40238121FF77
S11302A01BC08C01D0E0C0E0F80181918F01609106
S11302B06C4070916D40DB011896ED91FC9119979B
S11302C0882331F00995892B79F3DFEFCFEFECCF59
S11302D08AE00995892B19F08FEF9FEF02C08D2FCB
S11302E09C2FDF91CF911F910F910895F894FFCF28
S11302F00000000200000000A200000000004155C0
S1130300544F004155544F4D41544943204D4F449F
S11303104520454E41424C45442E0D004D414E551D
S1130320414C004F4B2C204C4544204F46462E0D4B
S11303300A0054797065204155544F2F4D414E5554
S1130340414C20746F20636F6E74726F6C207468FC
S10D0350652046414E532E0D0A00AD
S9030000FC
