S01200006D656E7973797374656D2E73726563B4
S11300000C9487000C94A6000C94A6000C94A600F3
S11300100C94A6000C94A6000C9424070C94A6003F
S11300200C94A6000C94A6000C94A6000C94A600B4
S11300300C94A6000C94A6000C9466070C949D07DF
S11300400C94A6000C94A6000C94A6000C94A60094
S11300500C94A6000C94A6000C94A6000C94A60084
S11300600C94A6000C94A6000C94A6000C94A60074
S11300700C94A6000C94A6000C94A6000C94A60064
S11300800C94A6000C94A6000C94A6000C94A60054
S11300900C94A6000C94A6000C94A6000C94A60044
S11300A00C94A6000C94A6000C94A6000C94A60034
S11300B00C94A6000C94A6000C94A6000C94A60024
S11300C00C94A6000C94A6000C94A6000C94A60014
S11300D00C94A6000C943E070C94A6000C94A60065
S11300E00C94A6000C94A6000C94A6000C94A600F4
S11300F00C94A6002E05380542054C0556055F05EF
S11301006F0578058D05AE05AE05AE059405112481
S11301101FBECFEFCDBFDFE7DEBF1AE4A0E0B0E43F
S1130120ECE4FBE100E00BBF02C007900D92A834A1
S1130130B107D9F72BE4A8E4BAE401C01D92AF3F9C
S1130140B207E1F70E94D4070C94A40D0C940000AC
S1130150E0E0F4E08CE0818398E093878487E0E03A
S1130160F9E081E0838316828583E0E8F4E082E0AD
S113017081838483089590E0880F991F862B809350
S113018007098091050985FD0DC08091050982FD4F
S113019009C08091050983FD05C08091050983701C
S11301A0833079F70895CF93C62F60E00E94BB0097
S11301B0C09308098091050985FD0DC0809105094A
S11301C082FD09C08091050983FD05C08091050960
S11301D08370833079F7E0E0F9E08581848183607E
S11301E08483CF9108950F931F93CF938B01C42FD2
S11301F061E00E94BB0090E01DC08091050985FD6F
S11302000DC08091050982FD09C08091050983FD17
S113021005C0809105098370833079F7F801E90FEF
S1130220F11D8091080980839F5FC91719F082E04E
S1130230809304099C1708F387E080930409CF9105
S11302401F910F91089561EE88E30E94D3002FE57A
S11302508AEE90E0215080409040E1F700C0000019
S11302606AEB88E30E94D3008FE19EE40197F1F7E3
S113027000C0000008950F931F939C01062F90E087
S113028040E050E0BA010EC0E92FF0E0EE0FFF1F8E
S1130290E20FF31F0190F081E02D4E0F5F1F611DEF
S11302A0711D9F5F901780F310E020E030E0CB01D8
S11302B0BA01A90198010E94260AC9011F910F9150
S11302C0089564E60E943B01880F991F880F991FC7
S11302D0880F991F9C0140E050E060E07CE18EE4CF
S11302E09EE00E94480AC9010895CB97BC0180E0B2
S11302F090E00E942B0920E030E040E05FE30E94A0
S11303001E080E94FC086E3118F0603518F403C012
S11303106EE101C06FE4862F90E008950F931F9360
S1130320CF93DF93C1E0D0E025C0FE01EE0FFF1FA5
S1130330EE0FFF1FEE0FFF1FEC0FFD1FE95DFA4BE1
S113034080818230B1F4FE01EE0FFF1FEE0FFF1F1C
S1130350EE0FFF1FEC0FFD1FE95DFA4B03811481C3
S113036080914F4A9091504A0E947501F801808310
S113037091832196C530D105C4F2DF91CF911F91AD
S11303800F910895CF93DF93C1E0D0E052C0FE01F6
S1130390EE0FFF1FE15AF54B808191818130910569
S11303A039F182309105B9F1892B09F041C0FE0180
S11303B0EE0FFF1FEE0FFF1FEE0FFF1FEC0FFD1FD1
S11303C0E95DFA4B1082A381B481878190858D9376
S11303D09C9380858F9387818F9382ED95E49F937F
S11303E08F930E949F0A0F900F900F900F9020C040
S11303F0FE01EE0FFF1FEE0FFF1FEE0FFF1FEC0FAE
S1130400FD1FE95DFA4B81E080830380F481E02DD8
S1130410108211820DC0FE01EE0FFF1FEE0FFF1FB1
S1130420EE0FFF1FEC0FFD1FE95DFA4B82E08083A6
S11304302196C530D1050CF4AACFDF91CF91089550
S113044081E090E015C0FC01EE0FFF1FEE0FFF1FCF
S1130450EE0FFF1FE80FF91FE95DFA4B2081FC0145
S1130460EE0FFF1FE15AF54B30E0208331830196F4
S11304708530910544F30895CF93DF93CDB7DEB76C
S11304802697CDBFDEBF6CEA88E30E94D3002FE538
S11304908AEE90E0215080409040E1F700C00000D7
S11304A046E0BE016F5F7F4F88E30E94F3006C81DA
S11304B06F70862F90E0A0E0B0E0BA2FA92F982F9C
S11304C088272D81822BBA2FA92F982F88272E8138
S11304D0BC01CD01622B0E942B0920E030E048E4EE
S11304E053E40E94B90920E030E040E855E30E945B
S11304F0B9090E94FC088EEC860F2696CDBFDEBF9C
S1130500DF91CF9108954F925F926F927F928F9275
S11305109F92AF92BF92CF92DF92EF92FF920F938E
S11305201F93CF93DF93E0E0FAE08FE480A782A7E4
S113053081A783A784E595E40E94B30A20915D4ACC
S113054030915E4A80915D4A90915E4A821B930B82
S11305500397C0F300915D4A10915E4AC0E0D0E079
S1130560812C912C5401C12CD12C760111C081E332
S11305709BE40E946101C80ED91EE11CF11C89E6AE
S11305809AE40E946101880E991EA11CB11C219657
S113059080915D4A90915E4A801B910B0B9738F3D2
S11305A02E01612C712CC701B601A30192010E9496
S11305B0260A69017A01C501B401A30192010E94CE
S11305C0260AB601C901DF91CF911F910F91FF90C7
S11305D0EF90DF90CF90BF90AF909F908F907F90DF
S11305E06F905F904F900895861710F481E00895FE
S11305F080E00895CF92DF92EF92FF926B017C012D
S1130600BA0180E090E00E942B09A70196010E94A4
S11306108A0820E030E048EC52E40E94B9090E94C4
S1130620FC08862FFF90EF90DF90CF900895AF9253
S1130630BF92CF92DF92EF92FF920F931F93CF93CB
S1130640DF930E948302062F172FD82FC92F7F9381
S11306506F9388E695E49F938F930E949F0ACF93AC
S1130660DF9381E895E49F938F930E949F0A82E130
S113067099E40E94B30A82E199E40E94B30A60916A
S1130680554A7091564AC090524AD090534A80E0DD
S113069090E00E942B09402F512F0E94FA02F82E5D
S11306A0B60180E090E00E942B094D2F5C2F0E9440
S11306B0FA02D82E609125457091264580E090E09D
S11306C00E942B09402F512F0E94FA02C82E6091DC
S11306D023457091244580E090E00E942B094D2F22
S11306E05C2F0E94FA02A82E1F92CF928AE995E409
S11306F09F938F930E949F0A1F92DF928EEA95E444
S11307009F938F930E949F0AE09022456E2D8F2D18
S11307100E94F402B82E6E2D8D2D0E94F402D82E64
S11307206AE58C2D0E94F402F82E6AE58A2D0E9457
S1130730F402E82E1F92FF9282EC95E49F938F932C
S11307400E949F0A1F92DF9285ED95E49F938F93F9
S11307500E949F0A8DB79EB748968DBF9EBF91E0B9
S1130760B91204C088EE95E40E94B30A81E0D8125D
S113077004C08BE096E40E94B30A91E0F91204C02D
S11307808EE296E40E94B30A81E0E81204C08EE28D
S113079096E40E94B30A0093254510932645D0930E
S11307A02345C0932445DF91CF911F910F91FF9072
S11307B0EF90DF90CF90BF90AF90089582E199E4DD
S11307C00E94B30A8EE496E40E94B30A8BE596E491
S11307D00E94B30A82E199E40E94B30A8FE696E488
S11307E00E94B30A089581E090E028C020914C4A09
S11307F030E08217930709F5FC01EE0FFF1FEE0F9F
S1130800FF1FEE0FFF1F8E0F9F1FFC01E95DFA4BC8
S113081081E08083A381B4811D921C9286818F9391
S113082085818F938AE996E49F938F930E949F0A10
S11308300F900F900F900F9004C001968530910592
S1130840ACF20E94DE03089581E090E016C020918E
S11308504C4A30E08217930779F4FC01EE0FFF1F36
S1130860EE0FFF1FEE0FFF1F8E0F9F1FFC01E95DB0
S1130870FA4B82E0808304C00196853091053CF3F5
S11308800E94DE03089581E090E031C020914C4A3B
S113089030E08217930751F5FC01EE0FFF1FEE0FB6
S11308A0FF1FEE0FFF1F8E0F9F1FFC01E95DFA4B28
S11308B01082A381B48180914D4A90914E4A8D93C8
S11308C09C9380914D4A90914E4A8783908786816C
S11308D08F9385818F9382EB96E49F938F930E94ED
S11308E09F0A0F900F900F900F9004C001968530CF
S11308F0910564F20E94DE0308958DEC96E40E9453
S1130900B30A82E199E40E94B30A8FED96E40E944F
S1130910B30A0895CF93DF9380E097E40E94B30A6B
S113092082E199E40E94B30AC1E0D0E04EC0FE0126
S1130930EE0FFF1FEE0FFF1FEE0FFF1FEC0FFD1F4B
S1130940E95DFA4B8081813071F0FE01EE0FFF1FEB
S1130950EE0FFF1FEE0FFF1FEC0FFD1FE95DFA4BBB
S11309608181928102C080E090E09F938F93DF9316
S1130970CF938BE097E49F938F930E949F0AFE018D
S1130980EE0FFF1FEE0FFF1FEE0FFF1FEC0FFD1FFB
S1130990E95DFA4BE081F0E0CF01880F991FE80F81
S11309A0F91FE25CF54B82818F9381818F93DF93F2
S11309B0CF938CE197E49F938F930E949F0A219693
S11309C08DB79EB70C968DBF9EBFC530D1050CF474
S11309D0AECF0E943C02282F30E020934F4A309340
S11309E0504A1F928F938FE297E49F938F930E94B4
S11309F09F0A82E199E40E94B30A0E94DE030F90E9
S1130A000F900F900F90DF91CF91089581E497E4B8
S1130A100E94B30A8DE497E40E94B30A88E697E43F
S1130A200E94B30A0895CF93DF939B019091514A9A
S1130A30992349F081E997E49F938F930E949F0A39
S1130A400F900F901FC1482F50E04D30510508F012
S1130A5085C0FA01E658FF4F0C94670A89EA97E4C7
S1130A600E94B30A0E947D0481E080934C4A0AC12B
S1130A7081EC97E40E94B30A0E947D0482E0809393
S1130A804C4A00C189ED97E40E94B30A0E947D0498
S1130A9083E080934C4AF6C081EF97E40E94B30A46
S1130AA00E947D0484E080934C4AECC089E098E481
S1130AB00E94B30A1092544A0E94F303E3C080E2F6
S1130AC098E40E94B30A8AE398E40E94B30A80E59A
S1130AD098E40E94B30A81E08093544AD3C086E824
S1130AE098E40E94B30A1092544A0E942404CAC093
S1130AF08EE998E40E94B30A81E39BE40E946101B9
S1130B00C7E2D5E48A879B8789E69AE40E9461015B
S1130B108B8B9C8B0E948A04B5C08AEB98E40E945C
S1130B20B30A0E940605AEC081E080934B4A88ED6B
S1130B3098E49F938F930E949F0A809122451F926D
S1130B408F9384E199E49F938F930E949F0A0F905F
S1130B500F900F900F900F900F9094C090914B4A6C
S1130B609923A1F0C9010E94700A80932245109232
S1130B704B4A1F928F9380E499E49F938F930E9432
S1130B809F0A0F900F900F900F907CC09091544A41
S1130B90992309F473C08A3089F08B30E1F08930ED
S1130BA039F58CE799E40E94B30A83E290E08093DC
S1130BB04D4A90934E4A0E94430464C083E999E4E9
S1130BC00E94B30A8CE390E080934D4A90934E4A7E
S1130BD00E94430457C08DEA99E40E94B30A8FE44B
S1130BE090E080934D4A90934E4A0E9443044AC039
S1130BF0C9010E94700A8093594A90935A4A9F935C
S1130C008F9380ED95E49F938F930E949F0A609148
S1130C10594A70915A4A0F900F900F900F90653671
S1130C20710538F580E090E00E942B0920E030E067
S1130C3048EC52E40E948A0820E030E04EE952E495
S1130C400E94B9090E94FC08D62FC72F7F936F9387
S1130C5080ED95E49F938F930E949F0AD0934D4A11
S1130C60C0934E4A0E9443040F900F900F900F9030
S1130C7009C085EC99E40E94B30A04C08FEE99E49C
S1130C800E94B30ADF91CF9108950F931F93CF93DE
S1130C908C01C0E00CC084E6C89FB0011124625FDF
S1130CA07F4BC8010E948E0A892B29F0CF5FCD307B
S1130CB090F38FEF01C08C2FCF911F910F91089566
S1130CC09091640895FFFCCF8093620808950E9478
S1130CD0600680E090E00895CF93809164088823B3
S1130CE0E4F7C09160088C2F0E9460068C2FCF918E
S1130CF00895E0E2F4E081E0818382E08283E0E62B
S1130D00F8E085818068858383E896E08087918711
S1130D108681806C868380E090E48093FB4B909383
S1130D20FC4B0895CF93DF93CDB7DEB7C456D109FA
S1130D30CDBFDEBF0E946C068A3089F08D3079F019
S1130D409091484A933658F421E0290F2093484A59
S1130D50E1E0F0E0EC0FFD1FE90FF11D80838D3021
S1130D6011F08A30A1F48091484AE1E0F0E0EC0F00
S1130D70FD1FE80FF11D10821092484ACE01019622
S1130D800E944506BE016F5F7F4F0E941305CC5938
S1130D90DF4FCDBFDEBFDF91CF9108958BE180930C
S1130DA06104089583E08093E605E0E0FAE093E3CC
S1130DB0918321E0238391839FE496A310A697A3B4
S1130DC011A612A613A680830895E0E2F4E08081C0
S1130DD08F7E808384898860848BE0E0FBE085E0FB
S1130DE0808384E0818381E0858391E49483E0E0DF
S1130DF0F2E09CE4908B86AF0895E0E2F4E0808119
S1130E008F7D808385898860858BE0E1FBE085E0C8
S1130E10808384E0818381E0858381E484838DE41D
S1130E208093110282E08093400208958091021021
S1130E3081FDFCCF0895E0E4F1E081E080838783C5
S1130E4099E4908B828B08951F920F920FB60F92A4
S1130E5011248F939F9380915D4A90915E4A0196ED
S1130E6080935D4A90935E4A81E0809353019F9101
S1130E708F910F900FBE0F901F9018951F920F9295
S1130E800FB60F9211240BB60F922F933F934F93EB
S1130E905F936F937F938F939F93AF93BF93EF93DE
S1130EA0FF930E949206FF91EF91BF91AF919F91A2
S1130EB08F917F916F915F914F913F912F910F90FF
S1130EC00BBE0F900FBE0F901F9018951F920F929C
S1130ED00FB60F9211240BB60F922F933F938F935B
S1130EE0AF93BF93EF93FF93A0E0BBE081E016962E
S1130EF08C93169780914A4AE82FF0E01C962D9126
S1130F003C911D97EE0FFF1FEF5CF44B2083318360
S1130F108F5F80934A4A843610F010924A4AFF91B8
S1130F20EF91BF91AF918F913F912F910F900BBE95
S1130F300F900FBE0F901F9018951F920F920FB62F
S1130F400F9211240BB60F922F933F938F93AF936D
S1130F50BF93EF93FF93A0E1BBE081E016968C93DF
S1130F6016978091494AE82FF0E01C962D913C9108
S1130F701D97EE0FFF1FE759F54B208331838F5FD9
S1130F808093494A843610F01092494AFF91EF91B8
S1130F90BF91AF918F913F912F910F900BBE0F9006
S1130FA00FBE0F901F9018950E94790678940E94A6
S1130FB0CE060E94D2060E94E5060E94FD060E940B
S1130FC0A8000E9423010E941B070E94160780911B
S1130FD00200909103000E94970D8093554A9093CC
S1130FE0564A0E94160780910000909101000E94C9
S1130FF0970D8093524A9093534A0E94DE03809146
S11310005D4A90915E4A4E9779F40E94200281E0F5
S11310108093514A0E9417030E94C2011092514AC0
S113102010925D4A10925E4A0E948E018FE097E210
S11310300197F1F700C00000E2CF5058BB27AA2760
S11310400E9435080C947F090E94710938F00E94AF
S1131050780920F039F49F3F19F426F40C946E09B2
S11310600EF4E095E7FB0C946809E92F0E949009BF
S113107058F3BA17620773078407950720F079F4C9
S1131080A6F50C94B2090EF4E0950B2EBA2FA02D00
S11310900B01B90190010C01CA01A0011124FF2721
S11310A0591B99F0593F50F4503E68F11A16F0401C
S11310B0A22F232F342F4427585FF3CF469537951B
S11310C02795A795F0405395C9F77EF41F16BA0BE0
S11310D0620B730B840BBAF09150A1F0FF0FBB1F8E
S11310E0661F771F881FC2F70EC0BA0F621F731FD7
S11310F0841F48F4879577956795B795F7959E3F34
S113110008F0B0CF9395880F08F09927EE0F9795C4
S1131110879508950E949E080C947F090E9478097F
S113112058F00E94710940F029F45F3F29F00C94B3
S1131130680951110C94B3090C946E090E9490092A
S113114068F39923B1F3552391F3951B550BBB27F2
S1131150AA2762177307840738F09F5F5F4F220F37
S1131160331F441FAA1FA9F335D00E2E3AF0E0E82E
S113117032D091505040E695001CCAF72BD0FE2F78
S113118029D0660F771F881FBB1F2617370748070C
S1131190AB07B0E809F0BB0B802DBF01FF279358C4
S11311A05F4F3AF09E3F510578F00C9468090C9417
S11311B0B3095F3FE4F3983ED4F38695779567953A
S11311C0B795F7959F5FC9F7880F911D96958795F9
S11311D097F90895E1E0660F771F881FBB1F621718
S11311E073078407BA0720F0621B730B840BBA0BD6
S11311F0EE1F88F7E09508950E94980988F09F579C
S113120098F0B92F9927B751B0F0E1F0660F771F26
S1131210881F991F1AF0BA95C9F714C0B13091F01C
S11312200E94B209B1E008950C94B209672F782F97
S11312308827B85F39F0B93FCCF3869577956795E1
S1131240B395D9F73EF490958095709561957F4F4D
S11312508F4F9F4F0895E89409C097FB3EF49095F3
S11312608095709561957F4F8F4F9F4F9923A9F07B
S1131270F92F96E9BB279395F6958795779567950A
S1131280B795F111F8CFFAF4BB0F11F460FF1BC04E
S11312906F5F7F4F8F4F9F4F16C0882311F096E9E1
S11312A011C0772321F09EE8872F762F05C066238F
S11312B071F096E8862F70E060E02AF09A95660F48
S11312C0771F881FDAF7880F9695879597F9089501
S11312D097F99F6780E870E060E008959FEF80ECE5
S11312E0089500240A941616170618060906089588
S11312F000240A9412161306140605060895092EEE
S11313000394000C11F4882352F0BB0F40F4BF2B5C
S113131011F460FF04C06F5F7F4F8F4F9F4F08959C
S113132057FD9058440F551F59F05F3F71F0479592
S1131330880F97FB991F61F09F3F79F08795089577
S1131340121613061406551FF2CF4695F1DF08C096
S1131350161617061806991FF1CF869571056105B3
S113136008940895E894BB2766277727CB0197F95B
S113137008950E94CC090C947F090E94710938F0E9
S11313800E94780920F0952311F00C9468090C94BC
S11313906E0911240C94B3090E94900970F3959F6F
S11313A0C1F3950F50E0551F629FF001729FBB2758
S11313B0F00DB11D639FAA27F00DB11DAA1F649FF4
S11313C06627B00DA11D661F829F2227B00DA11DA7
S11313D0621F739FB00DA11D621F839FA00D611D2D
S11313E0221F749F3327A00D611D231F849F600D4E
S11313F0211D822F762F6A2F11249F5750409AF077
S1131400F1F088234AF0EE0FFF1FBB1F661F771F02
S1131410881F91505040A9F79E3F510580F00C94CD
S113142068090C94B3095F3FE4F3983ED4F38695BE
S113143077956795B795F795E7959F5FC1F7FE2B6D
S1131440880F911D9695879597F90895A1E21A2E14
S1131450AA1BBB1BFD010DC0AA1FBB1FEE1FFF1F54
S1131460A217B307E407F50720F0A21BB30BE40BA4
S1131470F50B661F771F881F991F1A9469F76095EB
S11314807095809590959B01AC01BD01CF010895A5
S1131490052E97FB1EF400940E945F0A57FD07D0A7
S11314A00E94260A07FC03D04EF40C945F0A509560
S11314B04095309521953F4F4F4F5F4F089590953C
S11314C08095709561957F4F8F4F9F4F0895EE0FD4
S11314D0FF1F0024001C0BBE0790F691E02D099419
S11314E0FC0188279927E89421912032E9F32930D7
S11314F010F02E30C8F32B3241F02D3239F46894B9
S113150004C00E94970A820F911D219120532A3012
S1131510C0F31EF4909581959F4F0895FB01DC0163
S11315208D91019080190110D9F3990B08957AE0F7
S1131530979F902D879F802D910D11240895CF930F
S1131540DF93CDB7DEB7AE014B5F5F4FFA01619118
S11315507191AF018091FB4B9091FC4B0E94E30A87
S1131560DF91CF9108950F931F93CF93DF93E09171
S1131570FB4BF091FC4B238121FF1BC08C01D0E07D
S1131580C0E0F80181918F016091FB4B7091FC4B9D
S1131590DB011896ED91FC911997882331F0099598
S11315A0892B79F3DFEFCFEFECCF8AE00995892B14
S11315B019F08FEF9FEF02C08D2F9C2FDF91CF91F9
S11315C01F910F9108952F923F924F925F926F92C5
S11315D07F928F929F92AF92BF92CF92DF92EF92BF
S11315E0FF920F931F93CF93DF93CDB7DEB72B9763
S11315F0CDBFDEBF6C017B018A01FC01168217821C
S1131600838181FFCCC1CE0101963C01F601938117
S1131610F70193FD859193FF81917F01882309F45C
S1131620BAC1853239F493FD859193FF81917F018D
S1131630853229F4B60190E00E94FD0CE7CF912C8D
S1131640212C312CFFE1F315D8F08B3279F038F4EA
S1131650803279F08332A1F4232D20611DC08D32B4
S113166061F0803369F4232D216016C0832D8260DC
S1131670382EE32DE4603E2E2AC0F32DF8601DC001
S113168037FC2DC020ED280F2A3040F08E32B9F4FB
S113169036FC81C1232D2064322E19C036FE06C0CB
S11316A08AE0989E200D1124922E11C0EAE02E9E0D
S11316B0200D1124222EF32DF0623F2E08C08C360B
S11316C021F4832D8068382E02C0883641F4F70156
S11316D093FD859193FF81917F018111B3CF982F61
S11316E09F7D9554933028F40C5F1F4F9FE399839B
S11316F00DC0833631F0833771F0833509F059C05A
S113170021C0F801808189830E5F1F4F8824839450
S1131710912C530113C02801F2E04F0E511CF80123
S1131720A080B18036FE03C0692D70E002C06FEF67
S11317307FEFC5010E94F20C4C018201F32DFF776B
S11317403F2E16C0280122E0420E511CF801A08051
S1131750B18036FE03C0692D70E002C06FEF7FEFE9
S1131760C5010E94E70C4C01F32DF0683F2E820165
S113177033FC1BC0822D90E088169906B0F4B601A4
S113178080E290E00E94FD0C2A94F4CFF50137FC2E
S1131790859137FE81915F01B60190E00E94FD0CB6
S11317A021102A9421E0821A91088114910471F77E
S11317B0E8C0843611F0893641F5F80137FE07C0D8
S11317C060817181828193810C5F1F4F08C06081A9
S11317D07181072E000C880B990B0E5F1F4FF32DA0
S11317E0FF763F2E97FF09C090958095709561957F
S11317F07F4F8F4F9F4FF0683F2E2AE030E0A301C8
S11318000E94390D882E861845C0853731F4232D62
S11318102F7EB22E2AE030E025C0932D997FB92E79
S11318208F36C1F018F4883579F0B5C0803719F0D7
S1131830883721F0B0C0E92FE061BE2EB4FE0DC0A0
S1131840FB2DF460BF2E09C034FE0AC0292F266088
S1131850B22E06C028E030E005C020E130E002C02E
S113186020E132E0F801B7FE07C060817181828116
S113187093810C5F1F4F06C06081718180E090E00E
S11318800E5F1F4FA3010E94390D882E8618FB2D71
S1131890FF773F2E36FE0DC0232D2E7FA22E8914F6
S11318A058F434FE0BC032FC09C0832D8E7EA82E62
S11318B005C0B82CA32C03C0B82C01C0B92CA4FEBD
S11318C00FC0FE01E80DF11D8081803321F49A2DB3
S11318D0997EA92E09C0A2FE06C0B394B39404C095
S11318E08A2D867809F0B394A3FC11C0A0FE06C02B
S11318F0B21488F4280C922C9B180EC0B21460F415
S1131900B60180E290E00E94FD0CB394F7CFB214CC
S113191018F42B1802C0982C212CA4FE10C0B60178
S113192080E390E00E94FD0CA2FE17C0A1FC03C05E
S113193088E790E002C088E590E0B6010CC08A2DEB
S1131940867859F0A1FE02C08BE201C080E2A7FCB8
S11319508DE2B60190E00E94FD0C891438F4B601C2
S113196080E390E00E94FD0C9A94F7CF8A94F301EF
S1131970E80DF11D8081B60190E00E94FD0C8110FC
S1131980F5CF222009F442CEB60180E290E00E9415
S1131990FD0C2A94F6CFF6018681978102C08FEF61
S11319A09FEF2B96CDBFDEBFDF91CF911F910F919B
S11319B0FF90EF90DF90CF90BF90AF909F908F906B
S11319C07F906F905F904F903F902F900895FC010F
S11319D00590615070400110D8F7809590958E0F56
S11319E09F1F0895FC016150704001900110D8F7C9
S11319F0809590958E0F9F1F08950F931F93CF93FB
S1131A00DF93FB01238121FD03C08FEF9FEF2CC0E7
S1131A1022FF16C04681578124813581421753071E
S1131A2044F4A081B1819D012F5F3F4F2083318316
S1131A308C93268137812F5F3F4F2683378314C0D1
S1131A408B01EC01FB010084F185E02D0995892BC4
S1131A50E1F6D80116968D919C91179701961696EA
S1131A608D939C931797CE01DF91CF911F910F9186
S1131A700895FA01AA27283051F1203181F1E89420
S1131A806F936E7F6E5F7F4F8F4F9F4FAF4FB1E06D
S1131A903ED0B4E03CD0670F781F891F9A1FA11D68
S1131AA0680F791F8A1F911DA11D6A0F711D811D69
S1131AB0911DA11D20D009F468943F912AE0269F2E
S1131AC011243019305D3193DEF6CF010895462F8D
S1131AD04770405D4193B3E00FD0C9F7F6CF462F6E
S1131AE04F70405D4A3318F0495D31FD40524193D7
S1131AF002D0A9F7EACFB4E0A69597958795779594
S1131B006795BA95C9F700976105710508959B011A
S1131B10AC010A2E06945795479537952795BA95A3
S1131B20C9F7620F731F841F951FA01D08950E949B
S1131B30A00D80819181089503D080819927089513
S10F1B40FC01E050FC4E0895F894FFCF27
S1131B4C000000020000000067060000000066614F
S1131B5C6E310000000000000000000000000000D6
S1131B6C0000000000000000000000000000000065
S1131B7C0000000000000000000000000000000055
S1131B8C0000000000000000000000000000000045
S1131B9C0000000000000000000000000000000035
S1131BAC0000000000000000000000000000000025
S1131BBC000066616E3200000000000000000000AE
S1131BCC0000000000000000000000000000000005
S1131BDC00000000000000000000000000000000F5
S1131BEC00000000000000000000000000000000E5
S1131BFC00000000000000000000000000000000D5
S1131C0C00000000000000000000000000000000C4
S1131C1C00000000000066616E330000000000004C
S1131C2C00000000000000000000000000000000A4
S1131C3C0000000000000000000000000000000094
S1131C4C0000000000000000000000000000000084
S1131C5C0000000000000000000000000000000074
S1131C6C0000000000000000000000000000000064
S1131C7C0000000000000000000066616E340000EB
S1131C8C0000000000000000000000000000000044
S1131C9C0000000000000000000000000000000034
S1131CAC0000000000000000000000000000000024
S1131CBC0000000000000000000000000000000014
S1131CCC0000000000000000000000000000000004
S1131CDC00000000000000000000000000006F661F
S1131CEC660000000000000000000000000000007E
S1131CFC00000000000000000000000000000000D4
S1131D0C00000000000000000000000000000000C3
S1131D1C00000000000000000000000000000000B3
S1131D2C00000000000000000000000000000000A3
S1131D3C0000000000000000000000000000000093
S1131D4C00006D616E75616C000000000000000005
S1131D5C0000000000000000000000000000000073
S1131D6C0000000000000000000000000000000063
S1131D7C0000000000000000000000000000000053
S1131D8C0000000000000000000000000000000043
S1131D9C0000000000000000000000000000000033
S1131DAC0000000000006175746F0000000000006A
S1131DBC0000000000000000000000000000000013
S1131DCC0000000000000000000000000000000003
S1131DDC00000000000000000000000000000000F3
S1131DEC00000000000000000000000000000000E3
S1131DFC00000000000000000000000000000000D3
S1131E0C000000000000000000006F766572766927
S1131E1C65770000000000000000000000000000D6
S1131E2C00000000000000000000000000000000A2
S1131E3C0000000000000000000000000000000092
S1131E4C0000000000000000000000000000000082
S1131E5C0000000000000000000000000000000072
S1131E6C0000000000000000000000000000636F90
S1131E7C6E74726F6C6C65720000000000000000E0
S1131E8C0000000000000000000000000000000042
S1131E9C0000000000000000000000000000000032
S1131EAC0000000000000000000000000000000022
S1131EBC0000000000000000000000000000000012
S1131ECC0000000000000000000000000000000002
S1131EDC00006C6F770000000000000000000000A0
S1131EEC00000000000000000000000000000000E2
S1131EFC00000000000000000000000000000000D2
S1131F0C00000000000000000000000000000000C1
S1131F1C00000000000000000000000000000000B1
S1131F2C00000000000000000000000000000000A1
S1131F3C0000000000006D656469756D0000000010
S1131F4C0000000000000000000000000000000081
S1131F5C0000000000000000000000000000000071
S1131F6C0000000000000000000000000000000061
S1131F7C0000000000000000000000000000000051
S1131F8C0000000000000000000000000000000041
S1131F9C0000000000000000000068696768000091
S1131FAC0000000000000000000000000000000021
S1131FBC0000000000000000000000000000000011
S1131FCC0000000000000000000000000000000001
S1131FDC00000000000000000000000000000000F1
S1131FEC00000000000000000000000000000000E1
S1131FFC0000000000000000000000000000616C04
S113200C61726D0000000000000000000000000080
S113201C00000000000000000000000000000000B0
S113202C00000000000000000000000000000000A0
S113203C0000000000000000000000000000000090
S113204C0000000000000000000000000000000080
S113205C0000000000000000000000000000000070
S113206C00005A703065310100000000134A000072
S113207C010000280A1A4A00000100002A0A1F4A1B
S113208C0000010000290A244A00000100002B0A68
S113209C294A0000446961676E6F7365207374612B
S11320AC7274657421200D00476A656E6E6F6D73D2
S11320BC6E6974742066616E20313A2025640D0AB1
S11320CC00476A656E6E6F6D736E69747420666119
S11320DC6E20323A2025640D0A0050524F53454E5F
S11320EC542066616E20313A2025640D0A0050524A
S11320FC4F53454E542066616E20323A2025640DB0
S113210C0A005354415455532066616E20313A20D1
S113211C25640D0A005354415455532066616E20B6
S113212C323A2025640D0A00414C41524D2066611F
S113213C6E20312120547970653A207765617220C4
S113214C616E642074656172200D00414C41524DE6
S113215C2066616E20322120547970653A207765AF
S113216C617220616E642074656172200D00414CB3
S113217C41524D2066616E20312120547970653AAC
S113218C206D6F6D656E746172696C790D00484FCA
S113219C4D4553435245454E3A0D005479706520D4
S11321AC77616E74656420616374696F6E0D0041B0
S11321BC6C7465726E6174697665733A206F7665BA
S11321CC72766965772C20636F6E74726F6C6C65B4
S11321DC722C20616C61726D0D0025732069732063
S11321EC6E6F7720696E206D6F64653A206F66663A
S11321FC0A002573206973206E6F7720696E206D39
S113220C6F64653A204D616E75616C0A0054797087
S113221C652077616E746564206D6F64650D004193
S113222C6C7465726E6174697665733A206F666658
S113223C2C206175746F2C206D616E75616C0D00B2
S113224C4F56455256494557200D0046616E202580
S113225C642072706D3A2025640D0A0046616E206C
S113226C25642073746174653A2025730D0A005437
S113227C656D70657261747572653A2025640D0A1A
S113228C00436F6E74726F6C6C65720D0053656CE9
S113229C65637420776861742066616E20746F20A6
S11322AC6368616E67650D00416C7465726E617470
S11322BC697665733A2066616E312C2066616E32E4
S11322CC2C2066616E33206F722066616E34200D93
S11322DC00446961676E6F73652069732072756E53
S11322EC6E696E67210D0A20005265636569766517
S11322FC6420636F6D6D616E643A2066616E310D9E
S113230C00526563656976656420636F6D6D616EFB
S113231C643A2066616E320D0052656365697665B8
S113232C6420636F6D6D616E643A2066616E330D6B
S113233C00526563656976656420636F6D6D616ECB
S113234C643A2066616E340D005265636569766586
S113235C6420636F6D6D616E643A206F66660D0068
S113236C526563656976656420636F6D6D616E6437
S113237C3A206D616E75616C0D005479706520772F
S113238C616E7465642072706D206D6F64650D00F0
S113239C416C7465726E6174697665733A206C6F06
S11323AC772C206D656469756D2C206869676820CD
S11323BC6F722066616E2073706565643A20302DEF
S11323CC313030200D005265636569766564206395
S11323DC6F6D6D616E643A206175746F0D0052659A
S11323EC63656976656420636F6D6D616E643A2014
S11323FC6F766572766965770D00526563656976EB
S113240C656420636F6D6D616E643A20636F6E74E6
S113241C726F6C6C65720D00547970652077616E07
S113242C74656420646576696174696F6E20706587
S113243C7263656E7461676520666F72207765617F
S113244C7220616E64207465617220616C61726DBE
S113245C200A0D0043757272656E7420616C617292
S113246C6D20646576696174696F6E207065726342
S113247C656E746167652069733A2025640A0D00E2
S113248C7765617220616E64207465617220616C81
S113249C61726D206465766174696F6E207065720B
S11324AC63656E74616765206973206368616E6728
S11324BC656420746F3A2025640A0D0052656365C7
S11324CC6976656420636F6D6D616E643A206C6F20
S11324DC770D00526563656976656420636F6D6D75
S11324EC616E643A206D656469756D0D00526563A7
S11324FC656976656420636F6D6D616E643A2068FE
S113250C6967680D00506C6561736520696E73654D
S113251C727420612076616C69642064757479200E
S113252C6379636C652028302D313030290D0075AA
S113253C6E6B6E6F776E20636F6D6D616E64200DC4
S113254C0048657220736B72657665743A20256455
S113255C0D0A00756E757365640066616E310066F4
S113256C616E320066616E330066616E34004D41FB
S113257C4E55414C004F4646004155544F00002ED9
S10B258C4A01354A02394A00F4
S9030000FC
