S01200006D656E7973797374656D2E73726563B4
S11300000C9487000C94A6000C94A6000C94A600F3
S11300100C94A6000C94A6000C949F070C94A600C4
S11300200C94A6000C94A6000C94A6000C94A600B4
S11300300C94A6000C94A6000C94E1070C941808E8
S11300400C94A6000C94A6000C94A6000C94A60094
S11300500C94A6000C94A6000C94A6000C94A60084
S11300600C94A6000C94A6000C94A6000C94A60074
S11300700C94A6000C94A6000C94A6000C94A60064
S11300800C94A6000C94A6000C94A6000C94A60054
S11300900C94A6000C94A6000C94A6000C94A60044
S11300A00C94A6000C94A6000C94A6000C94A60034
S11300B00C94A6000C94A6000C94A6000C94A60024
S11300C00C94A6000C94A6000C94A6000C94A60014
S11300D00C94A6000C94B9070C94A6000C94A600EA
S11300E00C94A6000C94A6000C94A6000C94A600F4
S11300F00C94A600A905B305BD05C705D105DA050D
S1130100EA05F30508062906290629060F0611241F
S11301101FBECFEFCDBFDFE7DEBF1BE4A0E0B0E43E
S1130120E4E4FCE100E00BBF02C007900D92A434AC
S1130130B107D9F72DE4A4E4BBE401C01D92A336B2
S1130140B207E1F70E944F080C94200E0C940000B3
S1130150E0E0F4E08CE0818398E093878487E0E03A
S1130160F9E081E0838316828583E0E8F4E082E0AD
S113017081838483089590E0880F991F862B809350
S113018007098091050985FD0DC08091050982FD4F
S113019009C08091050983FD05C08091050983701C
S11301A0833079F70895CF93C62F60E00E94BB0097
S11301B0C09308098091050985FD0DC0809105094A
S11301C082FD09C08091050983FD05C08091050960
S11301D08370833079F7E0E0F9E08581848183607E
S11301E08483CF9108950F931F93CF938B01C42FD2
S11301F061E00E94BB0090E01DC08091050985FD6F
S11302000DC08091050982FD09C08091050983FD17
S113021005C0809105098370833079F7F801E90FEF
S1130220F11D8091080980839F5FC91719F082E04E
S1130230809304099C1708F387E080930409CF9105
S11302401F910F91089561EE88E30E94D3002FE57A
S11302508AEE90E0215080409040E1F700C0000019
S11302606AEB88E30E94D3008FE19EE40197F1F7E3
S113027000C0000008950F931F939C01062F90E087
S113028040E050E0BA010EC0E92FF0E0EE0FFF1F8E
S1130290E20FF31F0190F081E02D4E0F5F1F611DEF
S11302A0711D9F5F901780F310E020E030E0CB01D8
S11302B0BA01A90198010E94A20AC9011F910F91D4
S11302C0089564E60E943B01880F991F880F991FC7
S11302D0880F991F9C0140E050E060E07CE18EE4CF
S11302E09EE00E94C40AC9010895CB97BC0180E036
S11302F090E00E94A70920E030E040E05FE30E9424
S11303009A080E9478096E3118F0603518F403C019
S11303106EE101C06FE4862F90E0089580912C4532
S1130320823041F48091B14B9091B24B0E9475019F
S11303308093280A80913145823041F48091B14BF9
S11303409091B24B0E94750180932A0A80913645A0
S1130350823041F48091B14B9091B24B0E9475016F
S11303608093290A80913B45823041F48091B14BBE
S11303709091B24B0E94750180932B0A089580914D
S1130380C54B9091C64B8130910531F481E0809347
S11303902C451092280A0FC08230910521F482E086
S11303A080932C4508C0892B31F4E7E2F5E41582EB
S11303B080858093280A8091C74B9091C84B8130E7
S11303C0910531F481E08093314510922A0A0FC0DF
S11303D08230910521F482E08093314508C0892B55
S11303E031F4E7E2F5E41286858580932A0A809148
S11303F0C94B9091CA4B8130910531F481E08093CF
S113040036451092290A0FC08230910521F482E00A
S11304108093364508C0892B31F4E7E2F5E417866A
S113042082898093290A8091CB4B9091CC4B813067
S1130430910531F481E080933B4510922B0A089595
S11304408230910521F482E080933B450895892B05
S113045031F4E7E2F5E4148A878980932B0A08953E
S113046081E090E013C0FC01EE0FFF1FEE0FFF1FB1
S1130470E80FF91FE95DFA4B2081FC01EE0FFF1F25
S1130480ED53F44B30E020833183019685309105A0
S113049054F30895CF93DF93CDB7DEB72697CDBF3E
S11304A0DEBF6CEA88E30E94D3002FE58AEE90E079
S11304B0215080409040E1F700C0000046E0BE01BA
S11304C06F5F7F4F88E30E94F3006C816F70862F0B
S11304D090E0A0E0B0E0BA2FA92F982F88272D81B3
S11304E0822BBA2FA92F982F88272E81BC01CD01EA
S11304F0622B0E94A70920E030E048E453E40E9404
S1130500350A20E030E040E855E30E94350A0E94B5
S113051078098EEC860F2696CDBFDEBFDF91CF9192
S113052008954F925F926F927F928F929F92AF92B3
S1130530BF92CF92DF92EF92FF920F931F93CF93CC
S1130540DF93E0E0FAE08FE480A782A781A783A786
S113055086E495E40E942F0B2091C14B3091C24B4D
S11305608091C14B9091C24B821B930B0397C0F3B4
S11305700091C14B1091C24BC0E0D0E0812C912C72
S11305805401C12CD12C760111C085E99CE40E9450
S11305906101C80ED91EE11CF11C8DEC9BE40E9484
S11305A06101880E991EA11CB11C21968091C14B3A
S11305B09091C24B801B910B0B9738F32E01612C49
S11305C0712CC701B601A30192010E94A20A69011C
S11305D07A01C501B401A30192010E94A20A490152
S11305E05A01DF93CF938AE595E49F938F930E94FA
S11305F01B0BB601C40110922A0A0F900F900F90A2
S11306000F90DF91CF911F910F91FF90EF90DF90AA
S1130610CF90BF90AF909F908F907F906F905F909E
S11306204F900895861710F481E0089580E00895AE
S1130630CF92DF92EF92FF926B017C01BA0180E0CE
S113064090E00E94A709A70196010E94060920E0F4
S113065030E048EC52E40E94350A0E947809862F63
S1130660FF90EF90DF90CF900895CF92DF92EF92BA
S1130670FF920F931F93CF93DF930E949102C62E94
S1130680D72E082F192F7F936F9383E795E49F93B9
S11306908F930E941B0B1F930F938CE895E49F93F9
S11306A08F930E941B0B83E39AE40E942F0B83E336
S11306B09AE40E942F0BC091B94BD091BA4BE090B1
S11306C0B44BF090B54BDF93CF9385EA95E49F93B9
S11306D08F930E941B0BBE0180E090E00E94A7094B
S11306E04C2D5D2D0E941803D82FB70180E090E0B7
S11306F00E94A709402F512F0E941803C82F1F9250
S1130700DF9385EB95E49F938F930E941B0B1F92BD
S1130710CF9389EC95E49F938F930E941B0BF090E9
S113072022456F2D8D2F0E941203E82E6F2D8C2FE2
S11307300E941203F82E6AE58D2F0E941203D82F0F
S11307406AE58C2F0E941203C82F1F92EF928DED41
S113075095E49F938F930E941B0B1F92FF9280EF4F
S113076095E49F938F930E941B0B8DB79EB74C9675
S11307708DBF9EBF91E0E91204C083E096E40E941D
S11307802F0B81E0F81204C086E296E40E942F0B3E
S1130790D13021F489E496E40E942F0BC13021F476
S11307A089E496E40E942F0BC0922545D0922645F9
S11307B00093234510932445DF91CF911F910F910E
S11307C0FF90EF90DF90CF90089583E39AE40E9426
S11307D02F0B83E39AE40E942F0B83E39AE40E9495
S11307E02F0B89E696E40E942F0B86E796E40E947D
S11307F02F0B83E39AE40E942F0B8AE896E40E946D
S11308002F0B0895CF93DF93C1E0D0E03CC08091DB
S1130810484B90E0C817D907A9F5FE01EE0FFF1F5A
S1130820EE0FFF1FEC0FFD1FE95DFA4B81E08083A3
S1130830C230D10599F024F4C130D10541F022C071
S1130840C330D10591F0C430D105B1F01BC0109272
S1130850280A85EB96E40E942F0B14C010922A0AF2
S11308608EEC96E40E942F0B0DC01092290A87EE9D
S113087096E40E942F0B06C010922B0A80E097E4A6
S11308800E942F0B2196C530D1050CF20E94E5037E
S1130890DF91CF91089581E090E014C02091484BFE
S11308A030E08217930769F4FC01EE0FFF1FEE0F8F
S11308B0FF1F8E0F9F1FFC01E95DFA4B82E08083CE
S11308C004C00196853091054CF30E94E503089518
S11308D0CF93DF93C1E0D0E064C08091484B90E0B7
S11308E0C817D90709F05CC0FE01EE0FFF1FEE0F19
S11308F0FF1FEC0FFD1FE95DFA4B1082C230D105DA
S1130900E9F024F4C130D10541F04AC0C330D10527
S113091031F1C430D105A1F143C080914B4B809398
S1130920280A80914B4B90914C4B80932F45909388
S1130930304589E197E40E942F0B32C080914B4BE4
S113094080932A0A80914B4B90914C4B8093344571
S11309509093354586E397E40E942F0B21C0809144
S11309604B4B8093290A80914B4B90914C4B809335
S1130970394590933A4582E597E40E942F0B10C0C5
S113098080914B4B80932B0A80914B4B90914C4B15
S113099080933E4590933F458EE697E40E942F0B4B
S11309A02196C530D1050CF498CF0E94E503DF9160
S11309B0CF9108958AE897E40E942F0B83E39AE489
S11309C00E942F0B8CE997E40E942F0B0895CF937C
S11309D0DF938DEB97E40E942F0B83E39AE40E944C
S11309E02F0BC7E2D5E48F818F938E818F9388EC90
S11309F097E49F938F930E941B0BED81F0E0EE0F21
S1130A00FF1FE05CFA4B81818F9380818F9388ED87
S1130A1097E49F938F930E941B0B8C858F938B85F8
S1130A208F938AEE97E49F938F930E941B0BEA8522
S1130A30F0E0EE0FFF1FE05CFA4B81818F93808121
S1130A408F938AEF97E49F938F930E941B0B89895E
S1130A508F9388898F938CE098E49F938F930E945F
S1130A601B0BEF85F0E0EE0FFF1FE05CFA4B81817A
S1130A708F9380818F938CE198E49F938F930E944E
S1130A801B0B8E898F938D898F938EE298E49F93AD
S1130A908F930E941B0BEC89F0E0EE0FFF1FE05CCC
S1130AA0FA4B81818F9380818F938EE398E49F9397
S1130AB08F930E941B0B8DB79EB780968DBF9EBFF0
S1130AC00E944A02282F30E02093B14B3093B24B5E
S1130AD01F928F9380E598E49F938F930E941B0B42
S1130AE083E39AE40E942F0B83E39AE40E942F0B82
S1130AF00E94E5030F900F900F900F90DF91CF911C
S1130B00089582E698E40E942F0B8EE698E40E94F2
S1130B102F0B89E898E40E942F0B0895CF93DF935D
S1130B209B019091B34B992349F082EB98E49F93F6
S1130B308F930E941B0B0F900F901FC1482F50E002
S1130B404D30510508F085C0FA01E658FF4F0C946A
S1130B50E30A8AEC98E40E942F0B0E94DA0481E0F5
S1130B608093484B0AC182EE98E40E942F0B0E94A6
S1130B70DA0482E08093484B00C18AEF98E40E9433
S1130B802F0B0E94DA0483E08093484BF6C082E185
S1130B9099E40E942F0B0E94DA0484E08093484B6E
S1130BA0ECC08AE299E40E942F0B1092B84B0E9489
S1130BB00204E3C081E499E40E942F0B8BE599E4DD
S1130BC00E942F0B81E799E40E942F0B81E0809310
S1130BD0B84BD3C087EA99E40E942F0B1092B84B0C
S1130BE00E944B04CAC08FEB99E40E942F0B85E945
S1130BF09CE40E946101C7E2D5E48E839F838DEC5F
S1130C009BE40E9461018B879C870E94E704B5C026
S1130C108BED99E40E942F0B0E948105AEC081E008
S1130C208093474B89EF99E49F938F930E941B0B0A
S1130C30809122451F928F9385E39AE49F938F932B
S1130C400E941B0B0F900F900F900F900F900F901E
S1130C5094C09091474B9923A1F0C9010E94EC0ADA
S1130C60809322451092474B1F928F9381E69AE41A
S1130C709F938F930E941B0B0F900F900F900F90D8
S1130C807CC09091B84B992309F473C08A3089F0E1
S1130C908B30E1F0893039F58DE99AE40E942F0B0D
S1130CA083E290E080934B4B90934C4B0E946804FA
S1130CB064C084EB9AE40E942F0B8CE390E0809351
S1130CC04B4B90934C4B0E94680457C08EEC9AE4B3
S1130CD00E942F0B8FE490E080934B4B90934C4BEE
S1130CE00E9468044AC0C9010E94EC0A8093BD4B6B
S1130CF09093BE4B9F938F938BEE95E49F938F932A
S1130D000E941B0B6091BD4B7091BE4B0F900F90D6
S1130D100F900F906536710538F580E090E00E94E1
S1130D20A70920E030E048EC52E40E94060920E0E4
S1130D3030E04EE952E40E94350A0E947809D62F29
S1130D40C72F7F936F938BEE95E49F938F930E94AD
S1130D501B0BD0934B4BC0934C4B0E9468040F90D9
S1130D600F900F900F9009C086EE9AE40E942F0B0B
S1130D7004C080E19BE40E942F0BDF91CF91089582
S1130D800F931F93CF938C01C0E00CC084E6C89FDF
S1130D90B0011124625F7F4BC8010E940A0B892BAA
S1130DA029F0CF5FCD3090F38FEF01C08C2FCF911E
S1130DB01F910F9108959091640895FFFCCF809343
S1130DC0620808950E94DB0680E090E00895CF93C6
S1130DD0809164088823E4F7C09160088C2F0E94F6
S1130DE0DB068C2FCF910895E0E2F4E081E081836B
S1130DF082E08283E0E6F8E085818068858383E889
S1130E0096E0808791878681806C868380E090E479
S1130E1080935F4D9093604D0895CF93DF93CDB74A
S1130E20DEB7C456D109CDBFDEBF0E94E7068A30C3
S1130E3089F08D3079F09091444B933658F421E049
S1130E40290F2093444BE1E0F0E0EC0FFD1FE90F84
S1130E50F11D80838D3011F08A30A1F48091444BD0
S1130E60E1E0F0E0EC0FFD1FE80FF11D108210929D
S1130E70444BCE0101960E94C006BE016F5F7F4FB6
S1130E800E948E05CC59DF4FCDBFDEBFDF91CF91DD
S1130E9008958BE180936104089583E08093E605CF
S1130EA0E0E0FAE093E3918321E0238391839FE4DC
S1130EB096A310A697A311A612A613A6808308953D
S1130EC0E0E2F4E080818F7E808384898860848B73
S1130ED0E0E0FBE085E0808384E0818381E085833A
S1130EE091E49483E0E0F2E09CE4908B86AF089573
S1130EF0E0E2F4E080818F7D808385898860858B42
S1130F00E0E1FBE085E0808384E0818381E0858308
S1130F1081E484838DE48093110282E08093400213
S1130F2008958091021081FDFCCF0895E0E4F1E082
S1130F3081E08083878399E4908B828B08951F924C
S1130F400F920FB60F9211248F939F938091C14BF0
S1130F509091C24B01968093C14B9093C24B81E018
S1130F60809353019F918F910F900FBE0F901F900C
S1130F7018951F920F920FB60F9211240BB60F9271
S1130F802F933F934F935F936F937F938F939F938D
S1130F90AF93BF93EF93FF930E940D07FF91EF91DF
S1130FA0BF91AF919F918F917F916F915F914F917D
S1130FB03F912F910F900BBE0F900FBE0F901F907B
S1130FC018951F920F920FB60F9211240BB60F9221
S1130FD02F933F938F93AF93BF93EF93FF93A0E02F
S1130FE0BBE081E016968C9316978091464BE82FD0
S1130FF0F0E01C962D913C911D97EE0FFF1FEB56D0
S1131000F34B208331838F5F8093464B843610F0FB
S11310101092464BFF91EF91BF91AF918F913F9109
S11310202F910F900BBE0F900FBE0F901F9018952D
S11310301F920F920FB60F9211240BB60F922F939B
S11310403F938F93AF93BF93EF93FF93A0E1BBE0E4
S113105081E016968C9316978091454BE82FF0E02B
S11310601C962D913C911D97EE0FFF1FE353F44BFB
S1131070208331838F5F8093454B843610F0109228
S1131080454BFF91EF91BF91AF918F913F912F917C
S11310900F900BBE0F900FBE0F901F9018950E94DB
S11310A0F40678940E9449070E944D070E94600745
S11310B00E9478070E94A8000E9423010E949607BC
S11310C00E94910780910200909103000E94130EE8
S11310D08093B94B9093BA4B0E9491078091000082
S11310E0909101000E94130E8093B44B9093B54BE2
S11310F00E94E5038091C14B9091C24B803D974083
S113110079F40E94300281E08093B34B0E9435034E
S11311100E94BF011092B34B1092C14B1092C24B6C
S11311200E948E018FE097E20197F1F700C0000062
S1131130E1CF5058BB27AA270E94B1080C94FB09A1
S11311400E94ED0938F00E94F40920F039F49F3F21
S113115019F426F40C94EA090EF4E095E7FB0C94D8
S1131160E409E92F0E940C0A58F3BA1762077307BF
S11311708407950720F079F4A6F50C942E0A0EF452
S1131180E0950B2EBA2FA02D0B01B90190010C0193
S1131190CA01A0011124FF27591B99F0593F50F4AB
S11311A0503E68F11A16F040A22F232F342F442703
S11311B0585FF3CF469537952795A795F0405395FB
S11311C0C9F77EF41F16BA0B620B730B840BBAF0CB
S11311D09150A1F0FF0FBB1F661F771F881FC2F736
S11311E00EC0BA0F621F731F841F48F4879577954A
S11311F06795B795F7959E3F08F0B0CF9395880F04
S113120008F09927EE0F9795879508950E941A097B
S11312100C94FB090E94F40958F00E94ED0940F077
S113122029F45F3F29F00C94E40951110C942F0A1E
S11312300C94EA090E940C0A68F39923B1F355232C
S113124091F3951B550BBB27AA27621773078407D5
S113125038F09F5F5F4F220F331F441FAA1FA9F36B
S113126035D00E2E3AF0E0E832D091505040E69559
S1131270001CCAF72BD0FE2F29D0660F771F881FBA
S1131280BB1F261737074807AB07B0E809F0BB0BAD
S1131290802DBF01FF2793585F4F3AF09E3F5105C1
S11312A078F00C94E4090C942F0A5F3FE4F3983E21
S11312B0D4F3869577956795B795F7959F5FC9F7AA
S11312C0880F911D9695879597F90895E1E0660F2B
S11312D0771F881FBB1F621773078407BA0720F0A4
S11312E0621B730B840BBA0BEE1F88F7E09508950D
S11312F00E94140A88F09F5798F0B92F9927B75184
S1131300B0F0E1F0660F771F881F991F1AF0BA95A5
S1131310C9F714C0B13091F00E942E0AB1E00895CB
S11313200C942E0A672F782F8827B85F39F0B93FBD
S1131330CCF3869577956795B395D9F73EF4909558
S11313408095709561957F4F8F4F9F4F0895E894D6
S113135009C097FB3EF490958095709561957F4FF9
S11313608F4F9F4F9923A9F0F92F96E9BB279395A7
S1131370F695879577956795B795F111F8CFFAF4B7
S1131380BB0F11F460FF1BC06F5F7F4F8F4F9F4FE8
S113139016C0882311F096E911C0772321F09EE846
S11313A0872F762F05C0662371F096E8862F70E0AC
S11313B060E02AF09A95660F771F881FDAF7880F86
S11313C09695879597F9089597F99F6780E870E057
S11313D060E008959FEF80EC089500240A941616A7
S11313E0170618060906089500240A94121613060F
S11313F0140605060895092E0394000C11F488239D
S113140052F0BB0F40F4BF2B11F460FF04C06F5FB8
S11314107F4F8F4F9F4F089557FD9058440F551F8E
S113142059F05F3F71F04795880F97FB991F61F062
S11314309F3F79F087950895121613061406551FD9
S1131440F2CF4695F1DF08C0161617061806991F45
S1131450F1CF86957105610508940895E894BB273A
S113146066277727CB0197F908950E94480A0C94C0
S1131470FB090E94ED0938F00E94F40920F095233D
S113148011F00C94E4090C94EA0911240C942F0A29
S11314900E940C0A70F3959FC1F3950F50E0551FFD
S11314A0629FF001729FBB27F00DB11D639FAA27B5
S11314B0F00DB11DAA1F649F6627B00DA11D661F04
S11314C0829F2227B00DA11D621F739FB00DA11D25
S11314D0621F839FA00D611D221F749F3327A00DDF
S11314E0611D231F849F600D211D822F762F6A2F7B
S11314F011249F5750409AF0F1F088234AF0EE0FE0
S1131500FF1FBB1F661F771F881F91505040A9F70C
S11315109E3F510580F00C94E4090C942F0A5F3F20
S1131520E4F3983ED4F3869577956795B795F79548
S1131530E7959F5FC1F7FE2B880F911D96958795C0
S113154097F90895A1E21A2EAA1BBB1BFD010DC039
S1131550AA1FBB1FEE1FFF1FA217B307E407F5075F
S113156020F0A21BB30BE40BF50B661F771F881F3B
S1131570991F1A9469F760957095809590959B01D1
S1131580AC01BD01CF010895052E97FB1EF4009414
S11315900E94DB0A57FD07D00E94A20A07FC03D071
S11315A04EF40C94DB0A50954095309521953F4FAD
S11315B04F4F5F4F089590958095709561957F4F3B
S11315C08F4F9F4F0895EE0FFF1F0024001C0BBE8A
S11315D00790F691E02D0994FC0188279927E89457
S11315E021912032E9F3293010F02E30C8F32B3248
S11315F041F02D3239F4689404C00E94130B820F19
S1131600911D219120532A30C0F31EF490958195A9
S11316109F4F0895FB01DC018D9101908019011009
S1131620D9F3990B08957AE0979F902D879F802D89
S1131630910D11240895CF93DF93CDB7DEB7AE019A
S11316404B5F5F4FFA0161917191AF0180915F4DE2
S11316509091604D0E945F0BDF91CF9108950F939D
S11316601F93CF93DF93E0915F4DF091604D238101
S113167021FF1BC08C01D0E0C0E0F80181918F01F3
S113168060915F4D7091604DDB011896ED91FC9176
S11316901997882331F00995892B79F3DFEFCFEF80
S11316A0ECCF8AE00995892B19F08FEF9FEF02C0E8
S11316B08D2F9C2FDF91CF911F910F9108952F9221
S11316C03F924F925F926F927F928F929F92AF92CE
S11316D0BF92CF92DF92EF92FF920F931F93CF931B
S11316E0DF93CDB7DEB72B97CDBFDEBF6C017B0197
S11316F08A01FC0116821782838181FFCCC1CE014D
S113170001963C01F6019381F70193FD859193FFC6
S113171081917F01882309F4BAC1853239F493FD9C
S1131720859193FF81917F01853229F4B60190E080
S11317300E94790DE7CF912C212C312CFFE1F31578
S1131740D8F08B3279F038F4803279F08332A1F416
S1131750232D20611DC08D3261F0803369F4232D67
S1131760216016C0832D8260382EE32DE4603E2E66
S11317702AC0F32DF8601DC037FC2DC020ED280FC2
S11317802A3040F08E32B9F436FC81C1232D206416
S1131790322E19C036FE06C08AE0989E200D112410
S11317A0922E11C0EAE02E9E200D1124222EF32D3C
S11317B0F0623F2E08C08C3621F4832D8068382EC9
S11317C002C0883641F4F70193FD859193FF81911E
S11317D07F018111B3CF982F9F7D9554933028F4C6
S11317E00C5F1F4F9FE399830DC0833631F083371D
S11317F071F0833509F059C021C0F80180818983D3
S11318000E5F1F4F88248394912C530113C0280129
S1131810F2E04F0E511CF801A080B18036FE03C0E7
S1131820692D70E002C06FEF7FEFC5010E946E0D5D
S11318304C018201F32DFF773F2E16C0280122E0D0
S1131840420E511CF801A080B18036FE03C0692D00
S113185070E002C06FEF7FEFC5010E94630D4C0181
S1131860F32DF0683F2E820133FC1BC0822D90E0E3
S113187088169906B0F4B60180E290E00E94790DD2
S11318802A94F4CFF50137FC859137FE81915F01ED
S1131890B60190E00E94790D21102A9421E0821A69
S11318A091088114910471F7E8C0843611F08936E7
S11318B041F5F80137FE07C060817181828193810F
S11318C00C5F1F4F08C060817181072E000C880BCC
S11318D0990B0E5F1F4FF32DFF763F2E97FF09C024
S11318E090958095709561957F4F8F4F9F4FF068CD
S11318F03F2E2AE030E0A3010E94B50D882E861801
S113190045C0853731F4232D2F7EB22E2AE030E0F6
S113191025C0932D997FB92E8F36C1F018F48835E0
S113192079F0B5C0803719F0883721F0B0C0E92FBD
S1131930E061BE2EB4FE0DC0FB2DF460BF2E09C0C5
S113194034FE0AC0292F2660B22E06C028E030E0FB
S113195005C020E130E002C020E132E0F801B7FE2A
S113196007C060817181828193810C5F1F4F06C023
S11319706081718180E090E00E5F1F4FA3010E949F
S1131980B50D882E8618FB2DFF773F2E36FE0DC031
S1131990232D2E7FA22E891458F434FE0BC032FC62
S11319A009C0832D8E7EA82E05C0B82CA32C03C09D
S11319B0B82C01C0B92CA4FE0FC0FE01E80DF11D26
S11319C08081803321F49A2D997EA92E09C0A2FE2C
S11319D006C0B394B39404C08A2D867809F0B394F6
S11319E0A3FC11C0A0FE06C0B21488F4280C922CEB
S11319F09B180EC0B21460F4B60180E290E00E941D
S1131A00790DB394F7CFB21418F42B1802C0982CA4
S1131A10212CA4FE10C0B60180E390E00E94790D51
S1131A20A2FE17C0A1FC03C088E790E002C088E5CD
S1131A3090E0B6010CC08A2D867859F0A1FE02C050
S1131A408BE201C080E2A7FC8DE2B60190E00E9427
S1131A50790D891438F4B60180E390E00E94790D81
S1131A609A94F7CF8A94F301E80DF11D8081B601B1
S1131A7090E00E94790D8110F5CF222009F442CE26
S1131A80B60180E290E00E94790D2A94F6CFF60127
S1131A908681978102C08FEF9FEF2B96CDBFDEBF6B
S1131AA0DF91CF911F910F91FF90EF90DF90CF9036
S1131AB0BF90AF909F908F907F906F905F904F906A
S1131AC03F902F900895FC010590615070400110E3
S1131AD0D8F7809590958E0F9F1F0895FC01615053
S1131AE0704001900110D8F7809590958E0F9F1F3C
S1131AF008950F931F93CF93DF93FB01238121FD5F
S1131B0003C08FEF9FEF2CC022FF16C04681578180
S1131B10248135814217530744F4A081B1819D018A
S1131B202F5F3F4F208331838C93268137812F5F32
S1131B303F4F2683378314C08B01EC01FB010084E3
S1131B40F185E02D0995892BE1F6D80116968D9142
S1131B509C911797019616968D939C931797CE0197
S1131B60DF91CF911F910F910895FA01AA27283090
S1131B7051F1203181F1E8946F936E7F6E5F7F4F56
S1131B808F4F9F4FAF4FB1E03ED0B4E03CD0670FD2
S1131B90781F891F9A1FA11D680F791F8A1F911D25
S1131BA0A11D6A0F711D811D911DA11D20D009F475
S1131BB068943F912AE0269F11243019305D3193B7
S1131BC0DEF6CF010895462F4770405D4193B3E0A0
S1131BD00FD0C9F7F6CF462F4F70405D4A3318F047
S1131BE0495D31FD4052419302D0A9F7EACFB4E0F8
S1131BF0A6959795879577956795BA95C9F70097B0
S1131C006105710508959B01AC010A2E0694579550
S1131C10479537952795BA95C9F7620F731F841FA7
S1131C20951FA01D08950E941C0E80819181089526
S1131C3003D0808199270895FC01E050FC4E08955B
S1071C40F894FFCF42
S1131C440000000200000000E206000000006661DB
S1131C546E310000000000000000000000000000DD
S1131C64000000000000000000000000000000006C
S1131C74000000000000000000000000000000005C
S1131C84000000000000000000000000000000004C
S1131C94000000000000000000000000000000003C
S1131CA4000000000000000000000000000000002C
S1131CB4000066616E3200000000000000000000B5
S1131CC4000000000000000000000000000000000C
S1131CD400000000000000000000000000000000FC
S1131CE400000000000000000000000000000000EC
S1131CF400000000000000000000000000000000DC
S1131D0400000000000000000000000000000000CB
S1131D1400000000000066616E3300000000000053
S1131D2400000000000000000000000000000000AB
S1131D34000000000000000000000000000000009B
S1131D44000000000000000000000000000000008B
S1131D54000000000000000000000000000000007B
S1131D64000000000000000000000000000000006B
S1131D740000000000000000000066616E340000F2
S1131D84000000000000000000000000000000004B
S1131D94000000000000000000000000000000003B
S1131DA4000000000000000000000000000000002B
S1131DB4000000000000000000000000000000001B
S1131DC4000000000000000000000000000000000B
S1131DD400000000000000000000000000006F6626
S1131DE46600000000000000000000000000000085
S1131DF400000000000000000000000000000000DB
S1131E0400000000000000000000000000000000CA
S1131E1400000000000000000000000000000000BA
S1131E2400000000000000000000000000000000AA
S1131E34000000000000000000000000000000009A
S1131E4400006D616E75616C00000000000000000C
S1131E54000000000000000000000000000000007A
S1131E64000000000000000000000000000000006A
S1131E74000000000000000000000000000000005A
S1131E84000000000000000000000000000000004A
S1131E94000000000000000000000000000000003A
S1131EA40000000000006175746F00000000000071
S1131EB4000000000000000000000000000000001A
S1131EC4000000000000000000000000000000000A
S1131ED400000000000000000000000000000000FA
S1131EE400000000000000000000000000000000EA
S1131EF400000000000000000000000000000000DA
S1131F04000000000000000000006F76657276692E
S1131F1465770000000000000000000000000000DD
S1131F2400000000000000000000000000000000A9
S1131F340000000000000000000000000000000099
S1131F440000000000000000000000000000000089
S1131F540000000000000000000000000000000079
S1131F640000000000000000000000000000636F97
S1131F746E74726F6C6C65720000000000000000E7
S1131F840000000000000000000000000000000049
S1131F940000000000000000000000000000000039
S1131FA40000000000000000000000000000000029
S1131FB40000000000000000000000000000000019
S1131FC40000000000000000000000000000000009
S1131FD400006C6F770000000000000000000000A7
S1131FE400000000000000000000000000000000E9
S1131FF400000000000000000000000000000000D9
S113200400000000000000000000000000000000C8
S113201400000000000000000000000000000000B8
S113202400000000000000000000000000000000A8
S11320340000000000006D656469756D0000000017
S11320440000000000000000000000000000000088
S11320540000000000000000000000000000000078
S11320640000000000000000000000000000000068
S11320740000000000000000000000000000000058
S11320840000000000000000000000000000000048
S11320940000000000000000000068696768000098
S11320A40000000000000000000000000000000028
S11320B40000000000000000000000000000000018
S11320C40000000000000000000000000000000008
S11320D400000000000000000000000000000000F8
S11320E400000000000000000000000000000000E8
S11320F40000000000000000000000000000616C0B
S113210461726D0000000000000000000000000087
S113211400000000000000000000000000000000B7
S113212400000000000000000000000000000000A7
S11321340000000000000000000000000000000097
S11321440000000000000000000000000000000087
S11321540000000000000000000000000000000077
S113216400005A70307030010000000001000000CB
S11321740001000000000100000000010000000054
S1132184344B3B4B3F4B446961676E6F73652073FB
S113219474617274657421200D004E756D626572EC
S11321A4206F662072656164696E67733A202564E2
S11321B40D0A00476A656E6E6F6D736E69747420E0
S11321C466616E20313A2025640D0A00476A656E03
S11321D46E6F6D736E6974742066616E20323A207A
S11321E425640D0A006F6C642066616E20323A2007
S11321F425640D0A0050524F53454E542066616EB7
S113220420313A2025640D0A0050524F53454E5450
S11322142066616E20323A2025640D0A005354412D
S11322245455532066616E20313A2025640D0A000A
S11322345354415455532066616E20323A20256428
S11322440D0A00414C41524D2066616E203121201B
S1132254547970653A207765617220616E642074E4
S1132264656172200D00414C41524D2066616E201F
S1132274322120547970653A207765617220616E49
S1132284642074656172200D00414C41524D2066F6
S1132294616E20312120547970653A206D6F6D652B
S11322A46E746172696C790D00686F6D6573637225
S11322B465656E3A0D00547970652077616E7465B6
S11322C46420616374696F6E0D00416C7465726E91
S11322D46174697665733A206F7665727669657799
S11322E42C20636F6E74726F6C6C65722C20616C3D
S11322F461726D0D0066616E31206973206E6F77B3
S113230420696E206D6F64653A206F6666006661AD
S11323146E32206973206E6F7720696E206D6F644E
S1132324653A206F66660066616E33206973206EB9
S11323346F7720696E206D6F64653A206F6666005E
S113234466616E34206973206E6F7720696E206D28
S11323546F64653A206F66660066616E3120697346
S1132364206E6F7720696E206D6F64653A204D612D
S11323746E75616C200066616E32206973206E6F25
S11323847720696E206D6F64653A204D616E7561C6
S11323946C0066616E33206973206E6F7720696EFA
S11323A4206D6F64653A204D616E75616C006661E1
S11323B46E34206973206E6F7720696E206D6F64AC
S11323C4653A204D616E75616C00547970652077AF
S11323D4616E746564206D6F64650D00416C746591
S11323E4726E6174697665733A206F66662C206137
S11323F475746F2C206D616E75616C0D004F5645BC
S11324045256494557200D0046616E2031207270A2
S11324146D3A2025640D0A0046616E2031207374E0
S11324246174653A2025730D0A0046616E203220DA
S113243472706D3A2025640D0A0046616E203220C4
S113244473746174653A2025730D0A0046616E2025
S1132454332072706D3A2025640D0A0046616E20A3
S1132464332073746174653A2025730D0A00466140
S11324746E20342072706D3A2025640D0A00466182
S11324846E20342073746174653A2025730D0A0038
S113249454656D70657261747572653A2025640DB6
S11324A40A00436F6E74726F6C6C65720D00536531
S11324B46C65637420776861742066616E20746F40
S11324C4206368616E67650D00416C7465726E61AA
S11324D474697665733A2066616E312C2066616E88
S11324E4322C2066616E33206F722066616E342054
S11324F40D00446961676E6F73652069732072759A
S11325046E6E696E67210D0A2000526563656976F3
S1132514656420636F6D6D616E643A2066616E312B
S11325240D00526563656976656420636F6D6D6142
S11325346E643A2066616E320D0052656365697695
S1132544656420636F6D6D616E643A2066616E33F9
S11325540D00526563656976656420636F6D6D6112
S11325646E643A2066616E340D0052656365697663
S1132574656420636F6D6D616E643A206F66660DE9
S113258400526563656976656420636F6D6D616E81
S1132594643A206D616E75616C0D00547970652028
S11325A477616E7465642072706D206D6F64650D5F
S11325B400416C7465726E6174697665733A206C5B
S11325C46F772C206D656469756D2C206869676864
S11325D4206F722066616E2073706565643A2030E2
S11325E42D313030200D00526563656976656420B1
S11325F4636F6D6D616E643A206175746F0D005282
S11326046563656976656420636F6D6D616E643AB4
S1132614206F766572766965770D00526563656926
S113262476656420636F6D6D616E643A20636F6ECA
S113263474726F6C6C65720D0054797065207761E7
S11326446E74656420646576696174696F6E207064
S1132654657263656E7461676520666F7220776561
S1132664617220616E64207465617220616C6172B0
S11326746D200A0D0043757272656E7420616C617D
S1132684726D20646576696174696F6E2070657219
S113269463656E746167652069733A2025640A0D65
S11326A4007765617220616E6420746561722061D3
S11326B46C61726D206465766174696F6E207065F7
S11326C47263656E74616765206973206368616E03
S11326D467656420746F3A2025640A0D00526563AB
S11326E4656976656420636F6D6D616E643A206C10
S11326F46F770D00526563656976656420636F6D59
S11327046D616E643A206D656469756D0D00526582
S113271463656976656420636F6D6D616E643A20E8
S1132724686967680D00506C6561736520696E7330
S113273465727420612076616C69642064757479AF
S1132744206379636C652028302D313030290D00E5
S1132754756E6B6E6F776E20636F6D6D616E642042
S11327640D0048657220736B72657665743A202592
S1132774640D0A004D414E55414C004F46460041FC
S107278455544F0055
S9030000FC
