S01200006D656E7973797374656D2E73726563B4
S11300000C9487000C94A6000C94A6000C94A600F3
S11300100C94A6000C94A6000C94F0040C94A60076
S11300200C94A6000C94A6000C94A6000C94A600B4
S11300300C94A6000C94A6000C940A050C9441059B
S11300400C94A6000C94A6000C94A6000C94A60094
S11300500C94A6000C94A6000C94A6000C94A60084
S11300600C94A6000C94A6000C94A6000C94A60074
S11300700C94A6000C94A6000C94A6000C94A60064
S11300800C94A6000C94A6000C94A6000C94A60054
S11300900C94A6000C94A6000C94A6000C94A60044
S11300A00C94A6000C94A6000C94A6000C94A60034
S11300B00C94A6000C94A6000C94A6000C94A60024
S11300C00C94A6000C94A6000C94A6000C94A60014
S11300D00C94A6000C9461080C94A6000C94A60041
S11300E00C94A6000C94A6000C94A6000C94A600F4
S11300F00C94A60012071C07260730073A0743078B
S113010053075C076D078E078E078E07740711244B
S11301101FBECFEFCDBFDFE7DEBF1BE4A0E0B0E43E
S1130120E8EBFCE100E00BBF02C007900D92AA349B
S1130130B107D9F72DE4AAE4BBE401C01D92A936A6
S1130140B207E1F70E9489080C945A0E0C9400003F
S1130150E0E0F4E08CE0818398E093878487E0E03A
S1130160F9E081E0838316828583E0E8F4E082E0AD
S113017081838483089590E0880F991F862B809350
S113018007098091050985FD0DC08091050982FD4F
S113019009C08091050983FD05C08091050983701C
S11301A0833079F70895CF93C62F60E00E94BB0097
S11301B0C09308098091050985FD0DC0809105094A
S11301C082FD09C08091050983FD05C08091050960
S11301D08370833079F7E0E0F9E08581848183607E
S11301E08483CF9108950F931F93CF938B01C42FD2
S11301F061E00E94BB0090E01DC08091050985FD6F
S11302000DC08091050982FD09C08091050983FD17
S113021005C0809105098370833079F7F801E90FEF
S1130220F11D8091080980839F5FC91719F082E04E
S1130230809304099C1708F387E080930409CF9105
S11302401F910F91089561EE88E30E94D3002FE57A
S11302508AEE90E0215080409040E1F700C0000019
S11302606AEB88E30E94D3008FE19EE40197F1F7E3
S113027000C000000895CB97BC0180E090E00E948C
S1130280E10920E030E040E05FE30E94D4080E94EE
S1130290B2096E3118F0603518F403C06EE101C084
S11302A06FE4862F90E0089580912D4590912E451E
S11302B0029741F48091BB4B9091BC4B0E943B014F
S11302C08093280A8091334590913445029741F4F4
S11302D08091BB4B9091BC4B0E943B0180932A0AB6
S11302E08091394590913A45029741F48091BB4BF6
S11302F09091BC4B0E943B018093290A80913F4519
S113030090914045029741F48091BB4B9091BC4B36
S11303100E943B0180932B0A08958091D14B9091C8
S1130320D24B8130910549F481E090E080932D45D2
S113033090932E451092280A13C08230910539F407
S113034082E090E080932D4590932E4509C0892B3F
S113035039F4E7E2F5E41682178282858093280A4D
S11303608091CB4B9091CC4B8130910549F481E045
S113037090E0809333459093344510922A0A13C039
S11303808230910539F482E090E080933345909374
S1130390344509C0892B39F4E7E2F5E4148615865F
S11303A0808980932A0A8091C04B9091C14B8130FF
S11303B0910549F481E090E08093394590933A4562
S11303C01092290A13C08230910539F482E090E03A
S11303D08093394590933A4509C0892B39F4E7E273
S11303E0F5E4128A138A86898093290A8091534BF3
S11303F09091544B8130910549F481E090E08093D1
S11304003F459093404510922B0A08958230910500
S113041039F482E090E080933F45909340450895FD
S1130420892B39F4E7E2F5E4108E118E848D8093E4
S11304302B0A0895E7E2F5E4868197818093D14BF6
S11304409093D24B848595858093CB4B9093CC4BE2
S1130450828993898093C04B9093C14B808D918DF9
S11304608093534B9093544B0895CF93DF93CDB720
S1130470DEB72697CDBFDEBF6CEA88E30E94D300C7
S11304802FE58AEE90E0215080409040E1F700C0D3
S1130490000046E0BE016F5F7F4F88E30E94F300D7
S11304A06C816F70862F90E0A0E0B0E0BA2FA92F86
S11304B0982F88272D81822BBA2FA92F982F882730
S11304C02E81BC01CD01622B0E94E10920E030E0C5
S11304D048E453E40E946F0A20E030E040E855E32A
S11304E00E946F0A0E94B2098EEC860F2696CDBF39
S11304F0DEBFDF91CF910895861710F481E008954F
S113050080E00895CF92DF92EF92FF926B017C011D
S1130510BA0180E090E00E94E109A70196010E94DF
S1130520400920E030E048EC52E40E946F0A0E9447
S1130530B209862FFF90EF90DF90CF9008958AE460
S11305409AE40E94690B8AE49AE40E94690B8AE4A3
S11305509AE40E94690B8BE495E40E94690B88E598
S113056095E40E94690B8AE49AE40E94690B8CE684
S113057095E40E94690B0895CF93DF93C1E0D0E026
S11305803EC08091504B90E0C817D907B9F5FE01E1
S1130590EE0FFF1FEC0FFD1FEE0FFF1FE95DFA4B7F
S11305A081E090E080839183CE01019682309105B1
S11305B089F01CF4019739F021C08330910589F04A
S11305C00497B1F01BC01092280A87E995E40E94B1
S11305D0690B14C010922A0A80EB95E40E94690BFF
S11305E00DC01092290A89EC95E40E94690B06C09B
S11305F010922B0A82EE95E40E94690B2196C53075
S1130600D1050CF4BECF0E949F02DF91CF910895D3
S113061081E090E015C02091504B30E082179307A1
S113062071F4FC01EE0FFF1FE80FF91FEE0FFF1F1F
S1130630E95DFA4B82E090E08083918304C00196E7
S11306408530910544F30E949F020895CF93DF9370
S1130650C1E0D0E065C08091504B90E0C817D90745
S113066009F05DC0FE01EE0FFF1FEC0FFD1FEE0F42
S1130670FF1FE95DFA4B10821182C230D105E9F007
S113068024F4C130D10541F04AC0C330D10531F161
S1130690C430D105A1F143C08091554B8093280A01
S11306A08091554B9091564B8093314590933245B0
S11306B08BEF95E40E94690B32C08091554B809377
S11306C02A0A8091554B9091564B809337459093CD
S11306D0384588E196E40E94690B21C08091554B0E
S11306E08093290A8091554B9091564B80933D45B8
S11306F090933E4584E396E40E94690B10C0809178
S1130700554B80932B0A8091554B9091564B809377
S113071043459093444580E596E40E94690B2196F5
S1130720C530D1050CF497CF0E949F02DF91CF9181
S113073008958CE696E40E94690B8AE49AE40E9488
S1130740690B8EE796E40E94690B0895CF93DF93BB
S11307508FE996E40E94690B8AE49AE40E94690B8B
S1130760C7E2D5E489858F9388858F938AEA96E4D6
S11307709F938F930E94550BEE81FF81EE0FFF1F15
S1130780EB5BFA4B81818F9380818F938AEB96E4A4
S11307909F938F930E94550B8F858F938E858F9394
S11307A08CEC96E49F938F930E94550BEC85FD850A
S11307B0EE0FFF1FEB5BFA4B81818F9380818F9348
S11307C08CED96E49F938F930E94550B8D898F93A4
S11307D08C898F938EEE96E49F938F930E94550B92
S11307E0EA89FB89EE0FFF1FEB5BFA4B81818F9344
S11307F080818F938EEF96E49F938F930E94550B85
S11308008B8D8F938A8D8F9380E197E49F938F9341
S11308100E94550BE88DF98DEE0FFF1FEB5BFA4B31
S113082081818F9380818F9380E297E49F938F934C
S11308300E94550B8DB79EB780968DBF9EBF0E94B8
S11308403502282F30E02093BB4B3093BC4B1F92D2
S11308508F9382E397E49F938F930E94550B8AE4CE
S11308609AE40E94690B8AE49AE40E94690B0E944C
S11308709F020F900F900F900F90DF91CF910895EA
S113088084E497E40E94690B80E597E40E94690B75
S11308908BE697E40E94690B08950F931F93CF93FF
S11308A08C01C0E00CC084E6C89FB0011124625FD3
S11308B07F4BC8010E94440B892B29F0CF5FCD30B8
S11308C090F38FEF01C08C2FCF911F910F9108955A
S11308D09091640895FFFCCF8093620808950E946C
S11308E0680480E090E00895CF93809164088823A1
S11308F0E4F7C09160088C2F0E9468048C2FCF917C
S11309000895E0E2F4E081E0818382E08283E0E61E
S1130910F8E085818068858383E896E08087918705
S11309208681806C868380E090E48093654D90930B
S1130930664D08958BE180936104089583E080936C
S1130940E605E0E0FAE093E3918321E023839183D9
S11309509FE496A310A697A311A612A613A68083BC
S11309600895E0E2F4E080818F7E8083848988604A
S1130970848BE0E0FBE085E0808384E0818381E098
S1130980858391E49483E0E0F2E09CE4908B86AF6D
S11309900895E0E2F4E080818F7D8083858988601A
S11309A0858BE0E1FBE085E0808384E0818381E066
S11309B0858381E484838DE48093110282E08093B3
S11309C0400208958091021081FDFCCF0895E0E477
S11309D0F1E081E08083878399E4908B828B089592
S11309E01F920F920FB60F9211248F939F938091B1
S11309F0CD4B9091CE4B01968093CD4B9093CE4BA3
S1130A0081E0809353019F918F910F900FBE0F90BF
S1130A101F9018951F920F920FB60F9211240BB6C8
S1130A200F922F933F938F93AF93BF93EF93FF93C3
S1130A30A0E0BBE081E016968C93169780914C4B16
S1130A40E82FF0E01C962D913C911D97EE0FFF1FAF
S1130A50E556F34B208331838F5F80934C4B843670
S1130A6010F010924C4BFF91EF91BF91AF918F9189
S1130A703F912F910F900BBE0F900FBE0F901F90C0
S1130A8018951F920F920FB60F9211240BB60F9266
S1130A902F933F938F93AF93BF93EF93FF93A0E173
S1130AA0BBE081E016968C93169780914B4BE82F10
S1130AB0F0E01C962D913C911D97EE0FFF1FED5217
S1130AC0F44B208331838F5F80934B4B843610F03B
S1130AD010924B4BFF91EF91BF91AF918F913F914A
S1130AE02F910F900BBE0F900FBE0F901F90189573
S1130AF00F931F939C01062F90E040E050E0BA0151
S1130B000EC0E92FF0E0EE0FFF1FE20FF31F01907C
S1130B10F081E02D4E0F5F1F611D711D9F5F9017C7
S1130B2080F310E020E030E0CB01BA01A901980184
S1130B300E94DC0AC9011F910F91089564E68BE9B4
S1130B409CE40E947805880F991F880F991F880FCD
S1130B50991F9C0140E050E060E07CE18EE49EE05F
S1130B600E94FE0AC901089564E683ED9BE40E9495
S1130B707805880F991F880F991F880F991F9C016A
S1130B8040E050E060E07CE18EE49EE00E94FE0ADA
S1130B90C90108954F925F926F927F928F929F92B4
S1130BA0AF92BF92CF92DF92EF92FF920F931F9377
S1130BB0CF93DF93E0E0FAE08FE480A782A781A7D8
S1130BC083A786EA97E40E94690B2091CD4B30916C
S1130BD0CE4B8091CD4B9091CE4B821B930B0397C0
S1130BE0C0F30091CD4B1091CE4BC0E0D0E0812CEE
S1130BF0912C5401C12CD12C76010DC00E949E056C
S1130C00C80ED91EE11CF11C0E94B405880E991E61
S1130C10A11CB11C21968091CD4B9091CE4B801B91
S1130C20910B0B9758F32E01612C712CC701B6015F
S1130C30A30192010E94DC0A69017A01C501B40191
S1130C40A30192010E94DC0A49015A01DF93CF9368
S1130C508AEB97E49F938F930E94550BB601C401CE
S1130C6010922A0A0F900F900F900F90DF91CF915E
S1130C701F910F91FF90EF90DF90CF90BF90AF90B6
S1130C809F908F907F906F905F904F900895CF9238
S1130C90DF92EF92FF920F931F93CF93DF930E9403
S1130CA0CA05C62ED72E082F192F7F936F9383ED75
S1130CB097E49F938F930E94550B1F930F938CEE91
S1130CC097E49F938F930E94550B8AE49AE40E94C1
S1130CD0690B8AE49AE40E94690BC091C54BD091D8
S1130CE0C64BE090BE4BF090BF4BDF93CF9385E0B3
S1130CF098E49F938F930E94550BBE0180E090E08F
S1130D000E94E1094C2D5D2D0E948202D82FB7016B
S1130D1080E090E00E94E109402F512F0E9482025E
S1130D20C82F1F92DF9385E198E49F938F930E94CD
S1130D30550B1F92CF9389E298E49F938F930E945F
S1130D40550BF09022456F2D8D2F0E947C02E82ECA
S1130D506F2D8C2F0E947C02F82E6AE58D2F0E9445
S1130D607C02D82F6AE58C2F0E947C02C82F1F9228
S1130D70EF928DE398E49F938F930E94550B1F92FB
S1130D80FF9280E598E49F938F930E94550B8DB753
S1130D909EB74C968DBF9EBF91E0E91204C083E6D6
S1130DA098E40E94690B81E0F81204C086E898E494
S1130DB00E94690BD13021F489EA98E40E94690BFE
S1130DC0C13021F489EA98E40E94690BC092254558
S1130DD0D09226450093234510932445DF91CF916B
S1130DE01F910F91FF90EF90DF90CF900895CF93D4
S1130DF0DF939B019091BD4B992349F089EC98E4D2
S1130E009F938F930E94550B0F900F901BC1482FF7
S1130E1050E04D30510508F081C0FA01E658FF4F0B
S1130E200C941D0B81EE98E40E94690B0E949903B7
S1130E3081E08093504B06C189EF98E40E94690BCE
S1130E400E94990382E08093504BFCC081E199E4B5
S1130E500E94690B0E94990383E08093504BF2C077
S1130E6089E299E40E94690B0E94990384E08093CB
S1130E70504BE8C081E499E40E94690B1092C44B82
S1130E800E94BC02DFC088E599E40E94690B82E7F6
S1130E9099E40E94690B88E899E40E94690B81E057
S1130EA08093C44BCFC08EEB99E40E94690B1092DF
S1130EB0C44B0E940803C6C086ED99E40E94690BE6
S1130EC00E949E05C7E2D5E4888799870E94B405ED
S1130ED08E879F870E94A603B5C082EF99E40E9483
S1130EE0690B0E944004AEC081E080934D4B80E1C9
S1130EF09AE49F938F930E94550B809122451F92F1
S1130F008F938CE49AE49F938F930E94550B0F90D8
S1130F100F900F900F900F900F9094C090914D4BA5
S1130F209923A1F0C9010E94260B809322451092B7
S1130F304D4B1F928F9388E79AE49F938F930E945F
S1130F40550B0F900F900F900F907CC09091C44B55
S1130F50992309F473C08A3089F08B30E1F0893029
S1130F6039F584EB9AE40E94690B83E290E0809364
S1130F70554B9093564B0E94260364C08BEC9AE425
S1130F800E94690B8CE390E08093554B9093564BF1
S1130F900E94260357C085EE9AE40E94690B8FE4F1
S1130FA090E08093554B9093564B0E9426034AC081
S1130FB0C9010E94260B8093C94B9093CA4B9F93FF
S1130FC08F938BE498E49F938F930E94550B6091C9
S1130FD0C94B7091CA4B0F900F900F900F906536CC
S1130FE0710538F580E090E00E94E10920E030E0EE
S1130FF048EC52E40E94400920E030E04EE952E41B
S11310000E946F0A0E94B209D62FC72F7F936F9355
S11310108BE498E49F938F930E94550BD093554B88
S1131020C093564B0E9426030F900F900F900F9081
S113103009C08DEF9AE40E94690B04C087E29BE427
S11310400E94690BDF91CF910895CF93DF93CDB7C1
S1131050DEB7C456D109CDBFDEBF0E9474048A3006
S113106089F08D3079F090914A4B933658F421E011
S1131070290F20934A4BE1E0F0E0EC0FFD1FE90F4C
S1131080F11D80838D3011F08A30A1F480914A4B98
S1131090E1E0F0E0EC0FFD1FE80FF11D108210926B
S11310A04A4BCE0101960E944D04BE016F5F7F4FF3
S11310B00E94F706CC59DF4FCDBFDEBFDF91CF9141
S11310C008951F920F920FB60F9211240BB60F9230
S11310D02F933F934F935F936F937F938F939F933C
S11310E0AF93BF93EF93FF930E942508FF91EF9175
S11310F0BF91AF919F918F917F916F915F914F912C
S11311003F912F910F900BBE0F900FBE0F901F9029
S113111018950E94810478940E949A040E949E0467
S11311200E94B1040E94C9040E94A8000E942301E5
S11311300E94E7040E94E20480910200909103005F
S11311400E944D0E8093C54B9093C64B0E94E204BF
S113115080910000909101000E944D0E8093BE4B3F
S11311609093BF4B0E949F028091CD4B9091CE4BA8
S1131170803D974079F40E941A0281E08093BD4B30
S11311800E9447060E948D011092BD4B1092CD4BD8
S11311901092CE4B0E9454018FE097E20197F1F731
S11311A000C00000E1CF5058BB27AA270E94EB08DB
S11311B00C94350A0E94270A38F00E942E0A20F067
S11311C039F49F3F19F426F40C94240A0EF4E095A4
S11311D0E7FB0C941E0AE92F0E94460A58F3BA173B
S11311E0620773078407950720F079F4A6F50C9439
S11311F0680A0EF4E0950B2EBA2FA02D0B01B9014D
S113120090010C01CA01A0011124FF27591B99F078
S1131210593F50F4503E68F11A16F040A22F232F84
S1131220342F4427585FF3CF469537952795A795D4
S1131230F0405395C9F77EF41F16BA0B620B730B7B
S1131240840BBAF09150A1F0FF0FBB1F661F771FEC
S1131250881FC2F70EC0BA0F621F731F841F48F4A1
S1131260879577956795B795F7959E3F08F0B0CF2A
S11312709395880F08F09927EE0F97958795089511
S11312800E9454090C94350A0E942E0A58F00E94B8
S1131290270A40F029F45F3F29F00C941E0A5111EB
S11312A00C94690A0C94240A0E94460A68F3992350
S11312B0B1F3552391F3951B550BBB27AA2762174E
S11312C07307840738F09F5F5F4F220F331F441F5B
S11312D0AA1FA9F335D00E2E3AF0E0E832D091508F
S11312E05040E695001CCAF72BD0FE2F29D0660F7C
S11312F0771F881FBB1F261737074807AB07B0E8BF
S113130009F0BB0B802DBF01FF2793585F4F3AF0C4
S11313109E3F510578F00C941E0A0C94690A5F3FB5
S1131320E4F3983ED4F3869577956795B795F7954A
S11313309F5FC9F7880F911D9695879597F9089532
S1131340E1E0660F771F881FBB1F621773078407CE
S1131350BA0720F0621B730B840BBA0BEE1F88F7DD
S1131360E09508950E944E0A88F09F5798F0B92F8F
S11313709927B751B0F0E1F0660F771F881F991FC6
S11313801AF0BA95C9F714C0B13091F00E94680AF6
S1131390B1E008950C94680A672F782F8827B85F06
S11313A039F0B93FCCF3869577956795B395D9F71E
S11313B03EF490958095709561957F4F8F4F9F4F28
S11313C00895E89409C097FB3EF490958095709534
S11313D061957F4F8F4F9F4F9923A9F0F92F96E97D
S11313E0BB279395F695879577956795B795F111F2
S11313F0F8CFFAF4BB0F11F460FF1BC06F5F7F4F8F
S11314008F4F9F4F16C0882311F096E911C07723A0
S113141021F09EE8872F762F05C0662371F096E8A9
S1131420862F70E060E02AF09A95660F771F881F78
S1131430DAF7880F9695879597F9089597F99F6736
S113144080E870E060E008959FEF80EC0895002448
S11314500A941616170618060906089500240A9415
S113146012161306140605060895092E0394000C9B
S113147011F4882352F0BB0F40F4BF2B11F460FF2A
S113148004C06F5F7F4F8F4F9F4F089557FD905853
S1131490440F551F59F05F3F71F04795880F97FB34
S11314A0991F61F09F3F79F08795089512161306EE
S11314B01406551FF2CF4695F1DF08C0161617061D
S11314C01806991FF1CF8695710561050894089552
S11314D0E894BB2766277727CB0197F908950E94E4
S11314E0820A0C94350A0E94270A38F00E942E0AB8
S11314F020F0952311F00C941E0A0C94240A112454
S11315000C94690A0E94460A70F3959FC1F3950FE3
S113151050E0551F629FF001729FBB27F00DB11D73
S1131520639FAA27F00DB11DAA1F649F6627B00D03
S1131530A11D661F829F2227B00DA11D621F739FEC
S1131540B00DA11D621F839FA00D611D221F749FFA
S11315503327A00D611D231F849F600D211D822F41
S1131560762F6A2F11249F5750409AF0F1F0882368
S11315704AF0EE0FFF1FBB1F661F771F881F915095
S11315805040A9F79E3F510580F00C941E0A0C941C
S1131590690A5F3FE4F3983ED4F38695779567959F
S11315A0B795F795E7959F5FC1F7FE2B880F911DBF
S11315B09695879597F90895A1E21A2EAA1BBB1B4D
S11315C0FD010DC0AA1FBB1FEE1FFF1FA217B3070B
S11315D0E407F50720F0A21BB30BE40BF50B661F21
S11315E0771F881F991F1A9469F7609570958095E5
S11315F090959B01AC01BD01CF010895052E97FB89
S11316001EF400940E94150B57FD07D00E94DC0ABB
S113161007FC03D04EF40C94150B5095409530956F
S113162021953F4F4F4F5F4F08959095809570954A
S113163061957F4F8F4F9F4F0895EE0FFF1F00243A
S1131640001C0BBE0790F691E02D0994FC0188273D
S11316509927E89421912032E9F3293010F02E30B3
S1131660C8F32B3241F02D3239F4689404C00E943F
S11316704D0B820F911D219120532A30C0F31EF48B
S1131680909581959F4F0895FB01DC018D91019008
S113169080190110D9F3990B08957AE0979F902D42
S11316A0879F802D910D11240895CF93DF93CDB79B
S11316B0DEB7AE014B5F5F4FFA0161917191AF01EB
S11316C08091654D9091664D0E94990BDF91CF9169
S11316D008950F931F93CF93DF93E091654DF0919D
S11316E0664D238121FF1BC08C01D0E0C0E0F801CE
S11316F081918F016091654D7091664DDB01189663
S1131700ED91FC911997882331F00995892B79F390
S1131710DFEFCFEFECCF8AE00995892B19F08FEF3B
S11317209FEF02C08D2F9C2FDF91CF911F910F91BE
S113173008952F923F924F925F926F927F928F9271
S11317409F92AF92BF92CF92DF92EF92FF920F934C
S11317501F93CF93DF93CDB7DEB72B97CDBFDEBFFB
S11317606C017B018A01FC0116821782838181FF4F
S1131770CCC1CE0101963C01F6019381F70193FDA2
S1131780859193FF81917F01882309F4BAC1853241
S113179039F493FD859193FF81917F01853229F47A
S11317A0B60190E00E94B30DE7CF912C212C312C8F
S11317B0FFE1F315D8F08B3279F038F4803279F008
S11317C08332A1F4232D20611DC08D3261F080335A
S11317D069F4232D216016C0832D8260382EE32DF9
S11317E0E4603E2E2AC0F32DF8601DC037FC2DC0E6
S11317F020ED280F2A3040F08E32B9F436FC81C136
S1131800232D2064322E19C036FE06C08AE0989E2D
S1131810200D1124922E11C0EAE02E9E200D1124D9
S1131820222EF32DF0623F2E08C08C3621F4832D36
S11318308068382E02C0883641F4F70193FD859103
S113184093FF81917F018111B3CF982F9F7D955490
S1131850933028F40C5F1F4F9FE399830DC08336A8
S113186031F0833771F0833509F059C021C0F80194
S1131870808189830E5F1F4F88248394912C5301A8
S113188013C02801F2E04F0E511CF801A080B18072
S113189036FE03C0692D70E002C06FEF7FEFC50113
S11318A00E94A80D4C018201F32DFF773F2E16C034
S11318B0280122E0420E511CF801A080B18036FEBE
S11318C003C0692D70E002C06FEF7FEFC5010E9475
S11318D09D0D4C01F32DF0683F2E820133FC1BC09B
S11318E0822D90E088169906B0F4B60180E290E06B
S11318F00E94B30D2A94F4CFF50137FC859137FE8D
S113190081915F01B60190E00E94B30D21102A94E9
S113191021E0821A91088114910471F7E8C0843699
S113192011F0893641F5F80137FE07C060817181F5
S1131930828193810C5F1F4F08C060817181072EE3
S1131940000C880B990B0E5F1F4FF32DFF763F2E73
S113195097FF09C090958095709561957F4F8F4F43
S11319609F4FF0683F2E2AE030E0A3010E94EF0D64
S1131970882E861845C0853731F4232D2F7EB22E4C
S11319802AE030E025C0932D997FB92E8F36C1F01F
S113199018F4883579F0B5C0803719F0883721F00C
S11319A0B0C0E92FE061BE2EB4FE0DC0FB2DF46083
S11319B0BF2E09C034FE0AC0292F2660B22E06C0ED
S11319C028E030E005C020E130E002C020E132E050
S11319D0F801B7FE07C060817181828193810C5F39
S11319E01F4F06C06081718180E090E00E5F1F4F41
S11319F0A3010E94EF0D882E8618FB2DFF773F2E42
S1131A0036FE0DC0232D2E7FA22E891458F434FEE9
S1131A100BC032FC09C0832D8E7EA82E05C0B82CC5
S1131A20A32C03C0B82C01C0B92CA4FE0FC0FE0126
S1131A30E80DF11D8081803321F49A2D997EA92E21
S1131A4009C0A2FE06C0B394B39404C08A2D86785C
S1131A5009F0B394A3FC11C0A0FE06C0B21488F42C
S1131A60280C922C9B180EC0B21460F4B60180E2CC
S1131A7090E00E94B30DB394F7CFB21418F42B186E
S1131A8002C0982C212CA4FE10C0B60180E390E083
S1131A900E94B30DA2FE17C0A1FC03C088E790E02A
S1131AA002C088E590E0B6010CC08A2D867859F012
S1131AB0A1FE02C08BE201C080E2A7FC8DE2B60168
S1131AC090E00E94B30D891438F4B60180E390E0ED
S1131AD00E94B30D9A94F7CF8A94F301E80DF11D97
S1131AE08081B60190E00E94B30D8110F5CF2220D1
S1131AF009F442CEB60180E290E00E94B30D2A942C
S1131B00F6CFF6018681978102C08FEF9FEF2B9667
S1131B10CDBFDEBFDF91CF911F910F91FF90EF906A
S1131B20DF90CF90BF90AF909F908F907F906F90F9
S1131B305F904F903F902F900895FC010590615065
S1131B4070400110D8F7809590958E0F9F1F0895CF
S1131B50FC016150704001900110D8F78095909578
S1131B608E0F9F1F08950F931F93CF93DF93FB0155
S1131B70238121FD03C08FEF9FEF2CC022FF16C0ED
S1131B8046815781248135814217530744F4A0814B
S1131B90B1819D012F5F3F4F208331838C93268138
S1131BA037812F5F3F4F2683378314C08B01EC01AD
S1131BB0FB010084F185E02D0995892BE1F6D8011C
S1131BC016968D919C911797019616968D939C93DA
S1131BD01797CE01DF91CF911F910F910895FA01CC
S1131BE0AA27283051F1203181F1E8946F936E7F58
S1131BF06E5F7F4F8F4F9F4FAF4FB1E03ED0B4E049
S1131C003CD0670F781F891F9A1FA11D680F791F89
S1131C108A1F911DA11D6A0F711D811D911DA11D9A
S1131C2020D009F468943F912AE0269F11243019AA
S1131C30305D3193DEF6CF010895462F4770405D45
S1131C404193B3E00FD0C9F7F6CF462F4F70405DF4
S1131C504A3318F0495D31FD4052419302D0A9F74F
S1131C60EACFB4E0A6959795879577956795BA9549
S1131C70C9F700976105710508959B01AC010A2E0F
S1131C8006945795479537952795BA95C9F7620FE6
S1131C90731F841F951FA01D08950E94560E8081F6
S1131CA09181089503D0808199270895FC01E05023
S10B1CB0FC4E0895F894FFCFE7
S1131CB800000002000000006F04000000006661DC
S1131CC86E31000000000000000000000000000069
S1131CD800000000000000000000000000000000F8
S1131CE800000000000000000000000000000000E8
S1131CF800000000000000000000000000000000D8
S1131D0800000000000000000000000000000000C7
S1131D1800000000000000000000000000000000B7
S1131D28000066616E320000000000000000000040
S1131D380000000000000000000000000000000097
S1131D480000000000000000000000000000000087
S1131D580000000000000000000000000000000077
S1131D680000000000000000000000000000000067
S1131D780000000000000000000000000000000057
S1131D8800000000000066616E33000000000000DF
S1131D980000000000000000000000000000000037
S1131DA80000000000000000000000000000000027
S1131DB80000000000000000000000000000000017
S1131DC80000000000000000000000000000000007
S1131DD800000000000000000000000000000000F7
S1131DE80000000000000000000066616E3400007E
S1131DF800000000000000000000000000000000D7
S1131E0800000000000000000000000000000000C6
S1131E1800000000000000000000000000000000B6
S1131E2800000000000000000000000000000000A6
S1131E380000000000000000000000000000000096
S1131E4800000000000000000000000000006F66B1
S1131E586600000000000000000000000000000010
S1131E680000000000000000000000000000000066
S1131E780000000000000000000000000000000056
S1131E880000000000000000000000000000000046
S1131E980000000000000000000000000000000036
S1131EA80000000000000000000000000000000026
S1131EB800006D616E75616C000000000000000098
S1131EC80000000000000000000000000000000006
S1131ED800000000000000000000000000000000F6
S1131EE800000000000000000000000000000000E6
S1131EF800000000000000000000000000000000D6
S1131F0800000000000000000000000000000000C5
S1131F180000000000006175746F000000000000FC
S1131F2800000000000000000000000000000000A5
S1131F380000000000000000000000000000000095
S1131F480000000000000000000000000000000085
S1131F580000000000000000000000000000000075
S1131F680000000000000000000000000000000065
S1131F78000000000000000000006F7665727669BA
S1131F886577000000000000000000000000000069
S1131F980000000000000000000000000000000035
S1131FA80000000000000000000000000000000025
S1131FB80000000000000000000000000000000015
S1131FC80000000000000000000000000000000005
S1131FD80000000000000000000000000000636F23
S1131FE86E74726F6C6C6572000000000000000073
S1131FF800000000000000000000000000000000D5
S113200800000000000000000000000000000000C4
S113201800000000000000000000000000000000B4
S113202800000000000000000000000000000000A4
S11320380000000000000000000000000000000094
S113204800006C6F77000000000000000000000032
S11320580000000000000000000000000000000074
S11320680000000000000000000000000000000064
S11320780000000000000000000000000000000054
S11320880000000000000000000000000000000044
S11320980000000000000000000000000000000034
S11320A80000000000006D656469756D00000000A3
S11320B80000000000000000000000000000000014
S11320C80000000000000000000000000000000004
S11320D800000000000000000000000000000000F4
S11320E800000000000000000000000000000000E4
S11320F800000000000000000000000000000000D4
S11321080000000000000000000068696768000023
S113211800000000000000000000000000000000B3
S113212800000000000000000000000000000000A3
S11321380000000000000000000000000000000093
S11321480000000000000000000000000000000083
S11321580000000000000000000000000000000073
S11321680000000000000000000000000000616C96
S113217861726D0000000000000000000000000013
S11321880000000000000000000000000000000043
S11321980000000000000000000000000000000033
S11321A80000000000000000000000000000000023
S11321B80000000000000000000000000000000013
S11321C80000000000000000000000000000000003
S11321D800005A7030703001000000000001000057
S11321E800000001000000000001000000000001E0
S11321F80000000000394B404B444B686F6D657319
S1132208637265656E3A0D00547970652077616E66
S113221874656420616374696F6E0D00416C746544
S1132228726E6174697665733A206F766572766941
S113223865772C20636F6E74726F6C6C65722C20DA
S1132248616C61726D0D0066616E31206973206E78
S11322586F7720696E206D6F64653A206F6666003B
S113226866616E32206973206E6F7720696E206D07
S11322786F64653A206F66660066616E3320697321
S1132288206E6F7720696E206D6F64653A206F66E3
S1132298660066616E34206973206E6F7720696EFC
S11322A8206D6F64653A206F66660066616E312042
S11322B86973206E6F7720696E206D6F64653A20AC
S11322C84D616E75616C200066616E322069732001
S11322D86E6F7720696E206D6F64653A204D616E6C
S11322E875616C0066616E33206973206E6F7720A8
S11322F8696E206D6F64653A204D616E75616C007E
S113230866616E34206973206E6F7720696E206D64
S11323186F64653A204D616E75616C00547970651F
S11323282077616E746564206D6F64650D00416C7F
S11323387465726E6174697665733A206F66662C8B
S1132348206175746F2C206D616E75616C0D004F82
S113235856455256494557200D0046616E20312096
S113236872706D3A2025640D0A0046616E20312092
S113237873746174653A2025730D0A0046616E20F2
S1132388322072706D3A2025640D0A0046616E2071
S1132398322073746174653A2025730D0A0046610E
S11323A86E20332072706D3A2025640D0A00466150
S11323B86E20332073746174653A2025730D0A0006
S11323C846616E20342072706D3A2025640D0A002F
S11323D846616E20342073746174653A2025730D48
S11323E80A0054656D70657261747572653A2025CA
S11323F8640D0A00436F6E74726F6C6C65720D0025
S113240853656C65637420776861742066616E2017
S1132418746F206368616E67650D00416C74657242
S11324286E6174697665733A2066616E312C206634
S1132438616E322C2066616E33206F722066616E85
S113244834200D0048657220736B72657665743AA2
S11324582025640D0A00446961676E6F73652073F3
S113246874617274657421200D004E756D62657215
S1132478206F662072656164696E67733A2025640B
S11324880D0A00476A656E6E6F6D736E6974742009
S113249866616E20313A2025640D0A00476A656E2C
S11324A86E6F6D736E6974742066616E20323A20A3
S11324B825640D0A006F6C642066616E20323A2030
S11324C825640D0A0050524F53454E542066616EE0
S11324D820313A2025640D0A0050524F53454E547A
S11324E82066616E20323A2025640D0A0053544157
S11324F85455532066616E20313A2025640D0A0034
S11325085354415455532066616E20323A20256451
S11325180D0A00414C41524D2066616E2031212044
S1132528547970653A207765617220616E6420740D
S1132538656172200D00414C41524D2066616E2048
S1132548322120547970653A207765617220616E72
S1132558642074656172200D00414C41524D20661F
S1132568616E20312120547970653A206D6F6D6554
S11325786E746172696C790D00446961676E6F737A
S1132588652069732072756E6E696E67210D0A2065
S113259800526563656976656420636F6D6D616E6D
S11325A8643A2066616E310D00526563656976652B
S11325B86420636F6D6D616E643A2066616E320DDE
S11325C800526563656976656420636F6D6D616E3D
S11325D8643A2066616E330D0052656365697665F9
S11325E86420636F6D6D616E643A2066616E340DAC
S11325F800526563656976656420636F6D6D616E0D
S1132608643A206F66660D00526563656976656491
S113261820636F6D6D616E643A206D616E75616CD7
S11326280D00547970652077616E7465642072704A
S11326386D206D6F64650D00416C7465726E617414
S1132648697665733A206C6F772C206D65646975BB
S11326586D2C2068696768206F722066616E20732C
S1132668706565643A20302D313030200D00526594
S113267863656976656420636F6D6D616E643A2085
S11326886175746F0D0052656365697665642063CE
S11326986F6D6D616E643A206F76657276696577E1
S11326A80D00526563656976656420636F6D6D61BD
S11326B86E643A20636F6E74726F6C6C65720D0091
S11326C8547970652077616E7465642064657669F1
S11326D86174696F6E2070657263656E7461676595
S11326E820666F72207765617220616E642074655C
S11326F8617220616C61726D200A0D0043757272FB
S1132708656E7420616C61726D20646576696174AC
S1132718696F6E2070657263656E746167652069A0
S1132728733A2025640A0D007765617220616E642E
S1132738207465617220616C61726D2064657661D4
S113274874696F6E2070657263656E746167652065
S11327586973206368616E67656420746F3A202525
S1132768640A0D00526563656976656420636F6D5C
S11327786D616E643A206C6F770D0052656365690C
S113278876656420636F6D6D616E643A206D65646F
S113279869756D0D00526563656976656420636FBC
S11327A86D6D616E643A20686967680D00506C65E8
S11327B861736520696E7365727420612076616C3B
S11327C869642064757479206379636C65202830A2
S11327D82D313030290D00756E6B6E6F776E206366
S11327E86F6D6D616E64200D004D414E55414C0076
S10D27F84F4646004155544F0000BF
S9030000FC
